:020000040000FA
:1000000008612020C1020000C5020000C7020000F4
:1000100000000000000000000000000000000000E0
:10002000000000000000000000000000C1370000D8
:10003000000000000000000071370000ED3F0000EC
:10004000CF020000B9300000CF020000CF02000054
:10005000CF020000CF020000CF020000CF0200005C
:10006000CF020000CF020000CF020000CF0200004C
:10007000CF02000011400000CF020000CF020000BC
:10008000CF020000CF020000CF020000CF0200002C
:10009000CF020000CF020000CF020000CF0200001C
:1000A000CF020000CF020000CF020000CF0200000C
:1000B000CF020000CF020000CF020000CF020000FC
:1000C00000F002F800F0D1F812A030C80838241867
:1000D0002D18AC4201D100F0C8F80FCCA246AB46B7
:1000E0000CA730CF2D1B083F3F197C427F1E544484
:1000F0002D090426F441641EAC4201D300F0B5F88A
:100100000126334200D0FB1A3343984754465D46DC
:10011000DFE70000FC8800001C89000000000000F0
:10012000103A02D378C878C1FAD8520701D330C840
:1001300030C101D504680C60704700000000000069
:100140007047000000000000002300240025002666
:10015000103A01D378C1FBD8520700D330C100D583
:100160000B60704710B56E2902D100F063FD10BD21
:10017000702902D101F0C1F810BD662902D107F043
:100180001FFF10BD652902D107F01AFF10BD6729B6
:1001900002D107F015FF10BD612902D107F018FF49
:1001A00010BD03681B0A01D380231943692902D1BA
:1001B00000F01CF910BD642902D100F017F910BD40
:1001C000752902D100F012F910BD6F2902D101F09A
:1001D0003FF810BD782902D101F07CF810BDE92963
:1001E00002D100F0DBFF10BDE42902D100F0D6FF00
:1001F00010BDF52902D100F0D1FF10BDEF2902D1C9
:1002000001F032F810BDF82902D101F071F810BDEB
:100210000368DB0901D380231943632902D100F06D
:1002200052FF10BD732902D100F055FF10BDE32924
:1002300002D101F080FA10BDF32902D101F083FA56
:1002400010BD002010BD1FB501F078F8040000209B
:10025000002107F045FD401C60600020002107F0F0
:1002600029FDE0601FBD10B510BD01F0F5FD114680
:10027000FFF7E9FF03F0FEFE01F016FE03B4FFF7FF
:10028000F2FF03BC01F0C0FE70B505460C461646F1
:1002900002E00FCC0FC5103E102EFAD2082E02D36A
:1002A00003CC03C5083E042E07D301CC01C5361F7D
:1002B00003E021782970641C6D1C761EF9D270BD94
:1002C00006480047FEE7FEE7FEE7FEE7FEE7FEE73B
:1002D00003480449024A044B70470000C100000073
:1002E0000841202008612020084120204343514339
:1002F00030B55C18010C130C0D4692B25D4380B210
:1003000051432C19054655430A0C09044D19624105
:100310005843010C00044019514130BD7CB51D46C5
:1003200016460C00009007D04142A14202D30019AA
:10033000401E01E00020C043064B7B442A4669462C
:100340000190304600F099FE002C02D0009A002166
:1003500011707CBD630D00000FB41CB50C0007AA22
:10036000009007D04142A14202D30019401E01E093
:100370000020C043074B7B4469460190069800F07B
:100380007CFE0021002C01D0009A11701CBC08BC1E
:1003900004B01847270D000070B50C460546012A29
:1003A00005D02878800600D5EA69002302E0012301
:1003B00005E05B1C934202D2E05C0028F9D1A869F9
:1003C000E618C01AA861286AC0182862284600F0FA
:1003D000A0FB04E06A682078A968641C9047B442D6
:1003E000F8D3284600F0ABFB70BD0000F7B5002540
:1003F00075291068009914A611D000F0B1FB0028EF
:1004000002DA404211A608E0009909688A0701D57E
:100410000FA602E0490704D50EA6012501E000F071
:10042000A8FB009F0024243704E000F073FF303164
:100430003955641C0028F8D12B46324621460098D5
:1004400000F0A0FBFEBD0000000000002D00000039
:100450002B00000020000000F3B50446002081B00E
:1004600020622046E1688847002872D0252802D003
:100470006268A168ABE0594F00267F442046E168DE
:1004800088472028054608DB312D06D27819203808
:100490000078002801D00643F0E7B00701D504201A
:1004A00086430020E0610746A0612A2D0AD0284635
:1004B00007F0F8FB002827D0B8000019303D009065
:1004C000856119E00298BA00121902C89161029080
:1004D0002046E1688847012F054617D1E0690028CA
:1004E0001FDA202086431CE000980A2180694843D7
:1004F00000994019303888612046E16888470546F0
:1005000007F0D0FB0028EFD1012F0AD02E2D08D103
:100510002046E16888470546202006437F1C022FBD
:10052000C3DBA069002803DA4042A0610120064332
:10053000F00701D0102086436C2D0BD0682D09D018
:100540004C2D3CD06A2D38D0742D38D07A2D36D031
:1005500016E040E0E1682F4620468847B84205464D
:1005600009D16C2F29D001208002E1680643204682
:100570008847054604E06C2F1DD0FF20013006435C
:10058000002D28D028464138192803D80120C00260
:1005900006432035204626602946029A1646FFF774
:1005A000E1FD002810D001280BD0F61DF008C00096
:1005B0000830029055E74020E1E78020D5E7002091
:1005C000D3E7361D02964CE762682846A16890473B
:1005D000206A401C44E7206AFEBD0000627B0000E8
:1005E000F8B5042A2CD3830712D00B78491C03706A
:1005F000401C521E83070BD00B78491C0370401C13
:10060000521E830704D00B78491C0370401C521EF5
:100610008B079B0F05D0C91ADF002023DE1B08C9FA
:100620000AE0FFF731FEF8BD1D4608C9FD401C4633
:10063000B4402C4310C0121F042AF5D2F308C91A83
:10064000521EF0D40B78491C0370401C521EEAD491
:100650000B78491C0370401C012AE4D4097801700E
:10066000F8BDD2B210B513029A1813049A1800F00C
:1006700001F810BD01E004C0091F0429FBD28B075B
:1006800001D50280801CC90700D002707047002984
:100690000BD0C30702D00270401C491E022904D3AC
:1006A000830702D50280801C891EE3E70022EEE763
:1006B0000022DFE7002203098B4273D3030A8B4237
:1006C00058D3030B8B423CD3030C8B4221D312E053
:1006D00003460B437FD4002243088B4274D30309A3
:1006E0008B425FD3030A8B4244D3030B8B4228D344
:1006F000030C8B420DD30902FF2212BA030C8B426A
:1007000002D31212090265D0030B8B4219D300E009
:10071000090AC30B8B4201D3CB03C01A5241830B8E
:100720008B4201D38B03C01A5241430B8B4201D33E
:100730004B03C01A5241030B8B4201D30B03C01A67
:100740005241C30A8B4201D3CB02C01A5241830AE1
:100750008B4201D38B02C01A5241430A8B4201D310
:100760004B02C01A5241030A8B4201D30B02C01A3A
:100770005241CDD2C3098B4201D3CB01C01A5241A1
:1007800083098B4201D38B01C01A524143098B422A
:1007900001D34B01C01A524103098B4201D30B0113
:1007A000C01A5241C3088B4201D3CB00C01A524138
:1007B00083088B4201D38B00C01A524143088B42FD
:1007C00001D34B00C01A5241411A00D20146524196
:1007D000104670475DE0CA0F00D04942031000D3B5
:1007E000404253409C46002203098B422DD3030A0A
:1007F0008B4212D38901FC2212BA030A8B420CD31A
:10080000890192118B4208D3890192118B4204D342
:1008100089013AD0921100E08909C3098B4201D3C2
:10082000CB01C01A524183098B4201D38B01C01AFC
:10083000524143098B4201D34B01C01A5241030973
:100840008B4201D30B01C01A5241C3088B4201D322
:10085000CB00C01A524183088B4201D38B00C01ACF
:100860005241D9D243088B4201D34B00C01A5241A6
:10087000411A00D201465241104663465B1001D333
:100880004042002B00D54942704763465B1000D3BD
:10089000404201B50449002802DC491C084000E040
:1008A0000846C046C04602BDFFFFFF7F7047704745
:1008B000704700000121C9050123411842001B06B1
:1008C000D3185B0E0AD0C1100722D2068918400740
:1008D0005242D14201D5520089187047090208D509
:1008E0000146002A03D0C10FC907002070471046F7
:1008F0007047420202D000200249704707210905D3
:100900000143F4E70000F87FF0B5FF252D04C60988
:10091000C209FF2704462E400137CB093E43484019
:100920002A402B400746002A6BD0002B69D0AA42F0
:1009300067D0AB4265D0002800DA32460125ED05CC
:1009400029432C4309022002090AD21A4B0C7F24A6
:10095000E31A434C000A7C44E35C7D24240412190E
:1009600014145B00A218884201D3521C00E040001E
:1009700049420C465C4324115C43DB016415E318D7
:10098000040A5C43C502200D0C4644436419250A41
:100990005D432303EC0C0D46654300030019EB187F
:1009A0004C42A34201D35B18401CD4052018002BF5
:1009B00007D05B00C91804D3401C002901D14008AE
:1009C00040003F2189048A4209D3002A08DC11062D
:1009D000090F04D0032149074018C00FC007F0BD1C
:1009E00001224100120689187F2252069142F6D256
:1009F00005214907C84201D59010F0BDFF20C00570
:100A0000F0BD002F00DA32461648AA4207D2AB42A8
:100A100005D21902090E17D0F80FC007F0BDFF2547
:100A200063002D06AB42F9D84900A942F6D8AB4283
:100A300001D1A942F2D0A94201D1002101E0610017
:100A40004908D0050843F0BD1102090EFBD0FF2074
:100A50000243D005F0BD0A460146104654E70000A7
:100A6000977600000000C07F10B501469E2400026A
:100A7000CA15A307002A02D01843002A04DBA21AD1
:100A8000002A0CDDD04010BD1206120E01D140002C
:100A90004008A21A03D4D04040420028F3DDFF22D0
:100AA00048001206904201D9002010BDC817C0436B
:100AB000584010BD1F22030C02D10F2200041CD08D
:100AC000030E01D10002083A030F01D10001121FE9
:100AD000830F01D18000921E002801DB4000521ECE
:100AE000D2055118021251181922904004D3491C02
:100AF000002801D14908490008467047C10FC907BD
:100B000000D04042012292071143D3E70121890717
:100B1000D0E770B5044685690068C10601D5302666
:100B200000E02026C00707D070BD62683046A1688B
:100B30009047206A401C20626D1EF6D570BD70B5CE
:100B4000044685690078C00707D170BD6268A16856
:100B500020209047206A401C20626D1EF6D570BD93
:100B600009684A0501D540B27047C905FCD500B2F5
:100B7000704709684A0501D5C0B27047C905FCD560
:100B800080B27047FFB504460D4681B02430009016
:100B90002168880604D51022E0699143216000E0B5
:100BA0000120A84201DD471B00E000270498A1694D
:100BB0007A191018081AA0612078C00602D42046BD
:100BC000FFF7A7FF002608E003986268A168805D30
:100BD0009047206A401C761C206204988642F3DB12
:100BE0002078C0060AD52046FFF793FF06E062682A
:100BF000A16830209047206A401C206238467F1E42
:100C00000028F4DC07E000986268A168405D904726
:100C1000206A401C206228466D1E0028F3DC204616
:100C2000FFF78DFF2078000602D5022005B0F0BD49
:100C30000120FBE711680268006A530501D50870BE
:100C400009E0D30501D5088005E0130602D5C217D7
:100C500005C100E00860012070470000FFB50C46A8
:100C60001E468FB003CA089009914F007D0D00D138
:100C70006D1E002108460020C0460321099A8905FF
:100C80000840002A03DA8200801840080840800DDE
:100C900001280A9002DD0020C0430A90089807430B
:100CA0000DD0F048F0492818484307141898002838
:100CB0001DD07542291E1DDD0A9842421BE018987E
:100CC000012802D00020302104E00020F24305E09A
:100CD0002154401CB042FBDB30460022189B00210F
:100CE00021540F998B600A60486013B0F0BDBD1BA2
:100CF0006D1CDFE70A9A002900DA69420BA800F0B0
:100D000027FD0BAB07CB03AB07C30899099800F08D
:100D10008BFD6B4607C30146D4480918002D00918E
:100D20000BDDD24903980A9A49424018002303A9CF
:100D30000390684600F0E8FF08E003990A9A002350
:100D4000081803A90390684600F088FF6B4607C3A4
:100D50000004000C03D00020C043410800E010460E
:100D6000189A002A03D00022009215461EE0751E34
:100D700005D400F0E7FA303262556D1EF9D5012234
:100D80000843079602D000227F1C04E02078302818
:100D900001D100227F1E002A069787D01EE0112D68
:100DA00007DA00F0CFFA303262556D1C02460A4372
:100DB000F5D1084303D00098002819D00EE0002197
:100DC000681E05E0235C625C63542254401E491C8B
:100DD0008142F7DBA81B401E07950690079A1899D9
:100DE0000020A0540F98079B069A81600CC07CE7F6
:100DF00011260020189059E7D21DF0B50D46044683
:100E0000D10893B0C90003C90C900D9106F006FFFC
:100E100002460D98C00F01D02D2007E02068810701
:100E200001D52B2002E04007C00F4001032A0F909C
:100E300001D0072A05DB03462946204600F02CFC9A
:100E40000EE12078800601D5E76900E006272846F4
:100E5000652D04D0662814D0672D69D12DE00020BF
:100E6000112F009001DB112300E07B1C0CAA03A9C9
:100E700010A8FFF7F3FE1199002610987D1C0E9123
:100E800042E001203B460CAAC0070B9001200090D5
:100E900003A910A8FFF7E2FE119D129810990026F1
:100EA00000280E9501D1781C0D18781B02D44642FB
:100EB0007D1C761EE81B00903AE0012F00DA012726
:100EC0000020112F009001DD112300E03B460CAA09
:100ED00003A910A8FFF7C2FE11993D4610980026FD
:100EE0000E91217809070BD40E99A94200DA0D461C
:100EF00003A9012D04DD4A19203AD27F302A06D0F9
:100F0000B84201DA011D04DA012100910FE06D1EE3
:100F1000EFE7002802DC86192D1A03E0411CA942E4
:100F200000DD0D46801B401C00900120C0070B9087
:100F30002078000705D40098A84202DB0020C043B7
:100F4000009069460020C8720B98012102AF033758
:100F5000C907884225D0022010902B2011900B98B1
:100F600000280BDA40420B902D20119006E00B98E0
:100F700000F0D0F930317F1E0B9039701099481E67
:100F800000291090F3DC0B980028F0D111987F1EF7
:100F900038702088000501D5452000E065207F1EBF
:100FA000387001A8C01BC01D0B900F98002800D0FE
:100FB000012041190098C01709180B980818A16959
:100FC000081A401EA0612078C00602D42046FFF710
:100FD000A0FD0F98002805D06268A1689047206A9C
:100FE000401C20622078C00625D52046FFF791FDE1
:100FF00021E0002E07DB0E98B04204DD03A86268F2
:10100000805DA16802E06268A16830209047206A94
:10101000761C401C20620098401E002800900AD1D7
:1010200000F08CF9C06862680168405CA168904774
:10103000206A401C206228466D1E0028D9DC07E08B
:1010400062683878A1687F1C9047206A401C206243
:101050000B99481E00290B90F2DC2046FFF76FFD2C
:10106000032042E601FCFFFF104D0000E1DFFFFF1F
:1010700001694A1C02610878704700B58FB002917F
:10108000002105910549019379440391114604908B
:101090006846FFF7E1F90FB000BD0000E5FFFFFF74
:1010A0000CC908399A4202D2531C0B601070704769
:1010B00010B54369002B02D0C046C04601E0FFF7DF
:1010C0006BF9012010BD1278014624310A7000220C
:1010D0004A700122ECE711680022D243E8E70000E1
:1010E000F7B50446154686B02B487844002703C858
:1010F0003E460090019111E007986A467100415AFE
:1011000002A800F051FE411C07D02178890603D5C2
:10111000E269391891420ED83F18761C2078800673
:1011200002D5E069B84206DDAE42E5DB0798710002
:10113000405A0028E0D1A069C01BA0612046FFF7FB
:10114000E8FC154878445A3803C800900020019103
:1011500016E041006A460798415A02A800F024FEB2
:101160000590401C0AD0002505E0626802A8A1682D
:10117000405D90476D1C05988542F6D30498401C4D
:10118000B0420490E5DB206AC01920622046FFF7D8
:10119000D6FC09B0F0BD0000466F0000F7B5D21DC7
:1011A0000025D20815A6D200F52905CA11D0002ABB
:1011B00005DA00214042914111A60A4608E0009953
:1011C00009688B0701D50FA602E0490701D50EA6D5
:1011D00001251146009F0024243704E000F0B2F8F6
:1011E00030323A55641C02460A43F7D12B46324648
:1011F00021460098FFF7C6FCFEBD0000000000007D
:101200002D0000002B0000002000000070B50446F7
:101210000021243408E05507D2086D0F303565549D
:101220005D072A43DB08491C15461D43F3D10468BA
:10123000002310A2250708D520252C400C4304D0FC
:10124000C46901230CA2641EC461FFF79BFC70BD3E
:1012500010B5044621461068FFF78BFC00230246B8
:101260002046FFF7D3FF10BDD21DD108C9000CC91D
:10127000CCE700000000000030000000F8B50F4689
:101280000188090502D5224C7C4402E0204C7C44B4
:101290000E3405460021243508E016071209360FE2
:1012A000A65D6E541E0732431B09491C16461E4399
:1012B000F3D1224604780023240705D5702F06D0E9
:1012C000002901D002231132FFF75CFCF8BD012395
:1012D0001032F9E770B504460D4621461068FFF755
:1012E00048FC0023024629462046FFF7C7FF70BD91
:1012F000D21DD308DB000CCBC0E730B40368202438
:101300001268234303600823C36130BC0023B5E7A0
:10131000B06D000001468008081A02091018020A80
:101320001018020C1018C008820012185200891AF6
:1013300001E0401C0A390A29FBD270470048704777
:10134000300020200B4670B502468907800808430C
:1013500019469D08141AA9412509080705430809DB
:101360002C194841250A01060D43010A2C19414157
:10137000200C0D0428430D0C00194D41002140198B
:101380004D41C00869070843E908840F8D002543D3
:10139000840024184D4124196D41121BAB4107E014
:1013A0000925ED432C11521963410024401C614171
:1013B0001C460A250026551BB441F1D270BD000021
:1013C000D21DF0B504460D46D0088DB0C000466869
:1013D00007683146384606F021FC0246F00F01D07E
:1013E0002D2307E02068810701D52B2302E0400769
:1013F000C00F43016846002B037001D0012000E0BC
:101400000020032A0A9001D0072A04DB294620463F
:1014100000F042F92DE12078800601D40D2500E08E
:10142000E5697000400D0D2D01904BDA300D002163
:101430000B9008460020C046032189050840002E75
:1014400005DA82008018C20F10184010084080157D
:10145000012801DD0020C043A9000023182906D37C
:101460009C460A460123183A1B07D34003E0012299
:101470001205CA4094460C31202902D33A4620393D
:1014800000E032468A40002802DD002A06D119E039
:10149000002817D10121C9078A4213D31946634690
:1014A0007F185E41002806D10120C007824202D188
:1014B000084687439E430B98310D814202D0019824
:1014C000401C01902088000502D57149794402E052
:1014D0006F49794419396B460A9830221A540A9890
:1014E0000A7C401C1A54401C0A900198002801DC18
:1014F000302000E031201872019A0120002A02D029
:10150000644BD21804E072003A4302D0614A521C84
:101510000192002D02DC2278120703D56A462E20A4
:10152000507202200022864694460CE032033601B7
:10153000120F6D1E8B5C02AA13546246521C401C93
:101540009446052A01DA002DF0DC002202AE08E004
:101550003B0F3F01CB5C521C6D1E3354401C082ACC
:1015600001DA002DF4DC23689A0601D511E0401E53
:10157000704504DD3218203AD27F302AF7D0002897
:1015800007DD3218203AD27F2E2A02D11A0700D462
:10159000401E002D03DD3E223254401C6D1E497C4E
:1015A00031540199401C002906DA2D21471C315481
:1015B00001984042019003E02B21471C31540198CF
:1015C0007D21C900884206DBFFF782F83030F055F4
:1015D0007F1C019101E0642808DB01986421FFF77A
:1015E00077F83030F0557F1C019101E00A2806DBC6
:1015F00001980A21FFF76CF83030F0557F1C0198F4
:101600000A21FFF765F83031F1550A98A1697F1C6E
:101610007A191018081AA0612078C00602D4204652
:10162000FFF777FA216A6E460A980818206204E0EC
:1016300062683078A168761C90470A98401E0A902C
:10164000401CF5D12078C00602D52046FFF761FA8C
:1016500002AE09E03078761C3E280DD06268A168A1
:101660009047206A401C20627F1EF3D22046FFF77D
:1016700066FA0DB00320F0BD206A4019206203E035
:101680006268A168302090476D1EEDD3F8E7000036
:10169000A76B000001FCFFFFF8B51F4604460123BD
:1016A0000068DB02032601461840072A05DB0028F4
:1016B00001D017A506E017A504E0002801D016A563
:1016C00000E016A5102081432160A069C01E002FF4
:1016D000A06101D0401EA0612046FFF71AFA002F3A
:1016E00009D038466268A1689047206A401C206291
:1016F000C01C206206E0206AFAE762682878A168C8
:101700006D1C9047761EF8D22046FFF718FAF8BDF8
:101710004E414E006E616E00494E4600696E660095
:1017200010B54369002B02D0C046C04601E0FFF768
:10173000D7FC012010BD128801462431828400228A
:10174000C2840122ECE711680022D243E8E70000DE
:10175000F7B516468AB0334878446C4603467C3366
:10176000C06F5A689B680DC42E487844763003AC2D
:101770000DC80DC43720C001081837211B30FEF7F3
:10178000A7FF05460C46803D1B3C02D56442012064
:1017900000E000200027099010E0E0070CD00C20AA
:1017A00020497843794432464C3941186846012330
:1017B00000F054FA6B4607C364107F1C002CECD178
:1017C000184F7F442E3F16E0E80712D02001C019C1
:1017D0000EC80691089307920068F04201D198194B
:1017E00008903246012306A903A800F037FA03AB9C
:1017F00007C36D10641C002DE6D10998002806D09F
:1018000032466946012303A800F07EFA05E0012371
:101810003246694603A800F021FA0A9B07C30DB0BF
:10182000F0BD000030690000034640000A4610B5D4
:10183000400D0BD00121C9070F24A40200191C037D
:1018400064082143540D2143D20207E00021012006
:10185000F2E7D40F490021435200401E0029F8DA74
:10186000DB0FDB07184310BDFFB50D46144685B0EE
:101870004868516806F0B9F900910190A868A1681C
:1018800006F0B3F902910390A868616806F0ADF91B
:10189000029A12188242029201D2012000E0002036
:1018A000019A0B18D2180028019202D08A4202D95C
:1018B00003E08A4201D2012000E0002000990818CC
:1018C00000906868A16806F090F9029A12188242A6
:1018D000029201D2012000E00020019A0B18D218D8
:1018E0000028019202D08A4202D903E08A4201D242
:1018F000012000E000200099081800902868216865
:1019000040004900400849084018FA49471814E0C7
:1019100001994000C90F08430090019802994000C6
:10192000C90F08430190029803994000C90F08436A
:101930000290039840007F1E039000980028E7DA89
:101940000898002801D0EC4E00E00026B74201DAEA
:10195000012000E00020002804902AD0F71BF806A0
:10196000C00E15D0029B2021091A039A8B401A43FE
:101970000392029A019BC2408B401A430292019A41
:10198000009BC2408B4000991A430192C1400091D4
:101990007B110DD06F460320C11A03D500218200B0
:1019A000B95003E08A008100BA587A50401EF3D53E
:1019B000374603980299002800D001200143089877
:1019C0000291002808460CD0002800D0012001997F
:1019D000019A490508430121D20AC902D2020192A3
:1019E00000E001210E9B0122D207012B02D0002B27
:1019F00003D013E0002807D120E0904204D89042A1
:101A00000CD1019B0B4209D0019B5918019105D1C2
:101A10000099491C009101D17F1C009200280DD033
:101A2000102108460020C0460498002806D00F98D0
:101A3000002803D0082108460020C04628682168F5
:101A4000019B009A4840C10F0598C90739430EC051
:101A500009B0F0BDFFB587B0099A08980899536896
:101A60009268406889689646002203931746944618
:101A7000089A12685300099A5B08126852005208CB
:101A80009A1A9E4BD4180A9A002A01D0352200E0F7
:101A9000402206920022012315460492DB0705939B
:101AA00024E0002D05D175460346039E4D1BB3412E
:101AB00009D375466646039B491B049D9841059BC7
:101AC0007519AC465F4163463B4308D0059B049EB5
:101AD000DD0776082E435B080496059301E0521E4D
:101AE000641EC50FED0749184041521C069B9A42DF
:101AF000D7DB002D04D17546039A6B1A824101D2BF
:101B000003200CE0039A0B466B404240134303D082
:101B1000014303D0012002E0022000E000206146E2
:101B200001910021009702910A99002905D0614690
:101B300040020143704B019102E0800700230290B4
:101B40009C4201DA012000E0002007003AD01A1B75
:101B5000D006C00E15D0029D2021019C091AC54057
:101B60008C402543029C8C4000D001242543019CDD
:101B70000295009DC4408D4000992C430194C140C2
:101B8000009154111DD06D460221002202290CD172
:101B90000320001B07E0002804DB8600AE59002E5E
:101BA00000D00122401C0328F5DB081B02D5880069
:101BB0002A5004E08000285810438A00A850491E8B
:101BC000E3D51C460A98002802980CD0002800D0C3
:101BD00001200199019A490508430121D20AC9024D
:101BE000D202019200E00121109B0122D207012BB9
:101BF00002D0002B03D013E0002807D11FE0904251
:101C000004D890420CD1019B0B4209D0019B59187A
:101C1000019105D10099491C009101D1641C0092E9
:101C200000280CD0102108460020C046002F06D006
:101C30001198002803D0082108460020C0460898C3
:101C40000999019A009B006809684840C10F0798EC
:101C5000C907214382600AC00BB0F0BD00B585B052
:101C6000019300920A460146002302A8FFF7FCFDFB
:101C700002A807C805B000BDFFB50A461F4685B0DB
:101C80000799019301230091014602A8FFF7ECFD9B
:101C900002990398049ECA0F4900D20700920F22AE
:101CA000490892028C1A0021002800DB0C464500EE
:101CB00013486D08844214D3079A002A04DA441E9C
:101CC0000026104DF64302E004460D460E46102154
:101CD00008460020C046002F03D0042108460020FB
:101CE000C0462005E90A0843009908436905F20A3D
:101CF0001143ADE602C0FFFF013C0000FF3F0000C2
:101D0000FF070000FFFFFF7F00B585B00193009241
:101D10000A460146002302A8FFF79CFE02A807C856
:101D2000A8E7FFB50A461F4685B00799019301232E
:101D30000091014602A8FFF78DFE02990398049EC8
:101D4000CA0F4900D20700920F22490892028C1A4A
:101D50000021002800DB0C46450011486D08844234
:101D600014D3079A002A04DA441E00260D4DF643C8
:101D700002E004460D460E46102108460020C046EB
:101D8000002F03D0042108460020C0462005E90AA0
:101D90000843009908436905F20A114358E6000018
:101DA000FF070000FFFFFF7FF8B516460C4605460B
:101DB00000F072F80368FF200230C05C012807D0F1
:101DC000FF2C0FD8185D00280CD001202C70F8BD16
:101DD000FF333246214608331868C71828460023C7
:101DE000B847F8BD0020C043F8BD000010B5FF2380
:101DF0001B0644009C421DD84C009C421AD8034646
:101E0000124A0B4307D4401A02D3EFF3008010BDEF
:101E1000EFF3008010BD081A03D3EFF30080904366
:101E200005E0EFF3008001219043C907084380F3E8
:101E3000008810BD0D231B041A4204D01146002057
:101E400000F092F810BD00F0A7F810BD000000905F
:101E500000487047100020207546FFF7F9FFAE4696
:101E6000050069465346C008C000854618B020B535
:101E7000FEF72EFA60BCB64600260027C0C5C0C5D6
:101E8000C0C5C0C5C0C5C0C5C0C5C0C5403D490866
:101E900049008D467047000010B5FFF74FFA001D4E
:101EA00010BD00BF3D5E000010B50446C046C046F0
:101EB0002046FEF7E3F910BD82078B079A423FD117
:101EC00070B5920F0AD0032402780B78401C491C8D
:101ED000002A33D09A4231D12042F5D1214EF4016B
:101EE00004C808C9951B9543254018D19A420FD1C3
:101EF00004C808C9951B9543254010D19A4207D1C3
:101F000004C808C9951B9543254008D19A42E7D0DB
:101F100012BA1BBA01209A4200D2404270BD12BAD6
:101F20001BBA2DBA18241000E0401900E140401AF5
:101F300005D12E00E64002D1083CF4D1D01A70BD84
:101F400002780B78401C491C002A09D09A4207D11C
:101F500002780B78401C491C002A01D09A42EFD02D
:101F6000D01A704701010101C80212D54803400F81
:101F7000002804D0C803C043012188407047EFF314
:101F800000800001000903210907084380F300884D
:101F9000704700207047000010B5024800F004F8B8
:101FA00010BD00000000C07F10B50C461107090FDE
:101FB000092904D00A290AD008290CD104E01146C5
:101FC0000820FFF7D1FF06E0510606D501E05106D3
:101FD00001D50120C007214610BDD10607D501015A
:101FE0000909CC084907000E0006044309E0410F27
:101FF00020024907000A0143200E00061D22D1419C
:1020000001430846E7E7000001491820ABBEFEE7A0
:102010002600020070470000B74800210170704799
:10202000FF20000207490A6882430120C303D21837
:102030000A608102044A13680B431360400303499A
:10204000086070470CE400E02810104000E100E058
:10205000F0B597B0A14908703238462800D9B3E0EE
:102060004000C04678448088400087440C01080145
:10207000AD00AD00AD00AD00AD00AD00AD00AD00F8
:10208000AD00AD00AD00AD00AD00AD00AD00AD00E8
:102090004600AD00AD00AD00AD001001AD00460042
:1020A000AD00AD00AD00AD0017013201AD004D0037
:1020B0008C00AD00AD00AD00AF00AD00AD00AD00D7
:1020C000AD00AD00AD00AD00AD00AD00AD00AD00A8
:1020D000FD00AD00AD00AD00AD002801AD00FD007C
:1020E000AD00AD00AD00AD001E013201AD004D00F0
:1020F0008C00AD00AD00AD00AF00F9480468002CC5
:1021000062D0A0683F21B5E07F4800210160F64819
:1021100001607948012101707A4C532720463946E5
:1021200000F056FC7921204600F052FC7321204635
:1021300000F04EFC74252046294600F049FC652637
:102140002046314600F044FC6D21204600F040FC62
:102150002021204600F03CFC2046394600F038FCA7
:102160002046294600F034FC6121204600F030FC76
:102170007221204600F02CFC2046294600F028FC65
:10218000204631465CE0A82059490958594A105860
:10219000594A1378594A127800920191029003AC7F
:1021A0005021574A2046FEF7D7F8207800280BD058
:1021B00003A94D1CE44CC1B2204600F009FC691C87
:1021C000287800280D46F6D117B0F0BD4A48002106
:1021D0000170DD4C53262046314600F0F9FB792191
:1021E000204600F0F5FB7321204600F0F1FB742738
:1021F0002046394600F0ECFB65252046294600F0D4
:10220000E7FB6D21204600F0E3FB2021204600F093
:10221000DFFB2046314600F0DBFB2046394600F06C
:10222000D7FB6F21204600F0D3FB702620463146B5
:1022300000F0CEFB2046314600F0CAFB204629467E
:1022400000F0C6FB6421204600F0C2FB212120469D
:1022500000F0BEFB0D21204600F0BAFB0A2120460B
:1022600000F0B6FB17B0F0BDE2480468002CABD01C
:10227000A068BF21090605F049FDA06029E0032000
:1022800000F0D4FE25E0022000F0D0FE21E0D94885
:102290000468002C98D06068124917E0D54804689B
:1022A000002C91D02068114905E0D2480468002C28
:1022B0008AD020680C4905F029FD206009E0CD484E
:1022C0000468002C00D17FE76068054905F01EFD19
:1022D000606000F01BF817B0F0BDC046240220205B
:1022E0000AD723BC0AD7233CCDCCCCBDCDCCCC3D2A
:1022F0002C022020E00220202502202000002020A7
:10230000D989000000001040D8032020F0B5B3B0F8
:10231000734D286800286AD0724800F0DFFE10ACC8
:102320000021217230213122C3070B4600D0134611
:10233000E37183070B4600D51346A37143070B4691
:1023400000D51346637103070B4600D5134623716E
:10235000C3060B4600D51346E37083060B4600D533
:102360001346A37043060B4600D51346637040B274
:10237000002800DA1146217000F0E8FD0F902F6868
:102380003868FEF797FA0E900D917868FEF792FA8A
:102390000C900B91B868FEF78DFA05460E46BF69A2
:1023A00051480068FEF786FA08AA13C20E980090FA
:1023B0000D9801900C9802900B9803A9E1C113AC01
:1023C00080214AA220460F9BFDF7C6FF20780028F7
:1023D0000BD013A94D1C5C4CC1B2204600F0F8FA9A
:1023E000691C287800280D46F6D133B0F0BD564C54
:1023F0005B21204600F0ECFA5021204600F0E8FA7C
:102400004921204600F0E4FA4421204600F0E0FA99
:102410005D21204600F0DCFA20262046314600F0FF
:10242000D7FA4E21204600F0D3FA6F210E912046B4
:1024300000F0CEFA2046314600F0CAFA712120465B
:1024400000F0C6FA7521204600F0C2FA6525204644
:10245000294600F0BDFA73272046394600F0B8FA45
:1024600074210F91204600F0B3FA6921204600F054
:10247000AFFA20460E9900F0ABFA6E21204600F02C
:10248000A7FA2046314600F0A3FA2046394600F06C
:102490009FFA2046294600F09BFA6C21204600F066
:1024A00097FA2046294600F093FA6321204600F06F
:1024B0008FFA20460F9900F08BFA2046294600F04B
:1024C00087FA6421204600F083FA0D21204600F0AF
:1024D0007FFA0A21204600F07BFA33B0F0BDC046F7
:1024E000200220202A022020940320205B51257501
:1024F0005D204B703A252E3266204B693A252E33EB
:1025000066204B643A252E336620563A2564204FC8
:10251000646F3A252E31662042696E3A25730D0AA2
:1025200000000000B0B500280DD0017800290AD0C5
:10253000451C054CC9B2204600F04AFA681C2978AF
:1025400000290546F6D1B0BD0000104082B005F06C
:102550005FF80190254C264D264E07E0FFF75CFD05
:1025600000F01EFF01A80A2104F0F2FF204600F04F
:10257000BDFD28780128F3D13068876900F0E6FCBA
:10258000032806D11C4800681C4905F080FB002880
:10259000E4D000F0DBFC032821D13446164806685D
:1025A0003046174905F073FB002816D11348314611
:1025B00005F09EFC0646C82F3D4600DBC825781B6B
:1025C000FEF79CFA0146304605F03AFC0D49FEF74D
:1025D0009BF9FEF749FA2F18054D2646034C204675
:1025E000394600F03BFD00F0FDFEBBE72A0220204B
:1025F0002502202020022020940320200000CD442A
:102600000000B44400004843B0B50A7803231340E7
:102610000B4A84580B4D2540EB18A92424061B199E
:102620008350072212064B681340112424020559D7
:102630009543EA180251001949780161B0BDC046BE
:1026400008080000FCFFFF00811E091F00BFFCD22C
:1026500070470000B0B51122120283580C4C1C4088
:102660000B894D881D438B792B430A4D1D406319FF
:102670008350CB798C881C43097821435D239B00D0
:102680001940801842689A4351184160B0BDC04655
:1026900080CCFFFF7F33000010B5012212038318A6
:1026A0000C785C604978815010BD0000B0B53F23C4
:1026B0001B04044C25689D43084310431840281808
:1026C0002060B0BD38010B40F0B585B00122140286
:1026D000344B19680494A1431960950348490E6866
:1026E0002E4208D10E682E4205D10E682E4202D12C
:1026F0000E682E42F3D0457E15409E6996437519AB
:102700009D612025455D03263540DF69B7437D196E
:10271000DD61254D2E6805272F60476A3C681C62E5
:102720007C685C62072434402C60C4697F252D02DC
:10273000DE69AE436406640C3419DC6150C8056878
:102740000095476885680195C568029503929A6966
:10275000164D15402207120B3403A4B2A2183A43B7
:10276000009C2407240D1443019A1443029A144335
:10277000007C20430E4A0240501998611868049A60
:1027800010431860039840020A68024208D10A68A0
:10279000024205D10A68024202D10A680242F3D01D
:1027A00005B0F0BD08010B40001340408D00F0FF64
:1027B00072FF0F0010B511498860012253051048BF
:1027C00004681C4208D104681C4205D104681C42FC
:1027D00002D104681C42F3D012040B6813430B604F
:1027E0000168C90608D40168C90605D40168C9068C
:1027F00002D40168C906F3D510BDC04604010B40E0
:1028000004020B40F0B53C4A82183C4BC3180879CF
:102810004E793B4D3B4C002E23D0202804D005267A
:10282000F601002803D003E0374E002800D18826A7
:10283000576F2F4037435767976F2F40374397673E
:10284000566B26405663966B264096630026566567
:1028500096658F26F6435F6837405F609F68374014
:102860009F608E79096820280BD0002819D1491E55
:102870005160D76E2F4088210F43D76617467037B7
:1028800019E0491E5160D16E29401F4F3943D1666E
:10289000116F294039431167012149071B4D174624
:1028A00009E049085160D76E2F400521C9010F4347
:1028B000D766174670373C682C400C433C60D16AA1
:1028C000104C2140D162116B214011630021D16471
:1028D00011658F21C943D46F0C40D4671C680C402C
:1028E0001C600643BD2030401168094B0B40C018E6
:1028F000801C1060F0BDC046041800008418000061
:1029000024493E008888FDFF01040000FFFFFFCF3F
:102910004000FFCF10B507239B0419409200801898
:10292000024A84589C436118815010BD3018000041
:1029300010B5029CA400001911431943014A8150AB
:1029400010BDC0465018000092008018014A815006
:102950007047C0461018000010B5012212038318FA
:102960000C789C604B7883508978014A815010BD67
:102970000C110000B0B51122120283580124A343A8
:1029800083508B780C881C438B882343094C1C4054
:102990008358094D1D402B1983508B79CC791C43EA
:1029A000097A21437E231940801842689A435118BE
:1029B0004160B0BD18670000E798FDFF10B5012227
:1029C000120383180C789C604978815010BD000078
:1029D0000D4A80180268120608D50268120605D54D
:1029E0000268120602D502681206F3D481610168FA
:1029F000C90708D00168C90705D00168C90702D016
:102A00000168C907F3D170470811000070B50D487F
:102A1000322101600124A00538490860384D0026A4
:102A2000284631463246FFF78FFFA004354908603B
:102A3000284631462246FFF787FF034801682143B5
:102A4000016070BD143100400418874080B5012832
:102A500007D11448002900DB1030012293040360E1
:102A600007E02648002900DA1030012292050260B2
:102A7000002208B20C49884200DC084600B27D21E1
:102A8000C900884200DB084601B2C9134840401A19
:102A900081B2C9087C2900D9002081B21848FFF70B
:102AA00053FF80BD90320A4018FCFFFF80B501281B
:102AB00004D1012290041349086004E0012080053C
:102AC0000E49086000220E480021FFF73DFF80BD3F
:102AD00070B50124A00509490860094D0026284663
:102AE00031463246FFF730FFA00406490860284609
:102AF00031462246FFF728FF70BDC04690120A40BB
:102B000000008740A0320A4088B001F0DBFF1F269A
:102B10008E4D3046294603F02FF900248CA3204621
:102B20002146224603F008FD2046294603F024F9F9
:102B30000E218BA32046224603F0FEFC1A218AA315
:102B40002046224603F0F8FC262189A3204622468F
:102B500003F0F2FC322188A32046224603F0ECFC6D
:102B60003E2187A32046224603F0E6FC4A2186A3A5
:102B70002046224603F0E0FC582185A32046224649
:102B800003F0DAFC642187A32046224603F0D4FC3C
:102B9000702186A32046224603F0CEFC7C2185A32B
:102BA0002046224603F0C8FC8A2184A320460494D0
:102BB000224603F0C1FCF602039612E03046294695
:102BC00003F0DAF88B480068FDF774FE009001917D
:102BD00028208A21002288A303F0AEFC642004F0A0
:102BE0003FF93046294603F0C7F8764D28683C2760
:102BF000394604F0FFFE044628683946FDF75AFDC1
:102C0000009401916020049D29462A466EA303F09A
:102C100093FC30464D4903F0AFF8B0246D4E305F61
:102C200000902D270E2138462A466B4B03F084FC7A
:102C30006A4E305F00901A2138462A46664B03F0F0
:102C40007BFC1F20414903F097F8624E306DFDF781
:102C50000BFF0446706DFDF707FF009401902621DD
:102C600038462A465E4B03F067FC5C4E306DFDF73C
:102C7000FBFE0446706DFDF7F7FE009401903221D3
:102C800038462A46564B03F057FC28462F4903F096
:102C900073F8A8244F48005900903E2138462A4630
:102CA0004D4E334603F048FC4C48005900904A21F1
:102CB00038462A46334603F03FFC4A4800F00EFAF5
:102CC00005AC257230213122C3070B4600D01346D4
:102CD000E37183070B4600D51346A37143070B46E8
:102CE0001A4D039E00D51346637103070B4600D5AA
:102CF00013462371C3060B4600D51346E3708306C3
:102D00000B4600D51346A37043060B4600D5134669
:102D1000637040B2002800DA11462170304629461F
:102D200003F02AF8009423206421049A2EA303F0D0
:102D300003FC2E480078012800D03FE705A8FFF7E4
:102D4000F1FB2BA0FFF7EEFB38E7C046FFFF0000CA
:102D50003D3D3D2053595354454D203D3D3D0000E0
:102D60004C5F50574D3A0000525F50574D3A0000AB
:102D70004C5F5350443A0000525F5350443A0000B5
:102D80004C5F544F543A0000525F544F543A000085
:102D90002D2D2D204752415920384348202D2D2DCF
:102DA0000000000042494E3A00000000302D313A48
:102DB00000000000342D353A000000005455524EFA
:102DC0003A000000D8032020253032753A253032F1
:102DD000750000002C022020C8890000E00220209D
:102DE000CB8900002A022020257300002502202024
:102DF0000D0A0000DC032020252E326600000000B2
:102E000010B5012801D0084900E0064909684200D0
:102E1000154B9C5A9952091B002800D1494208B20F
:102E200010BDC046003809400018094010B5012007
:102E3000C1430B4A13680B401360131F00241C602E
:102E4000136803431360074A13680B401360111F94
:102E50000C6005490C804C8011680143116010BD65
:102E6000041809400438094026022020F0B587B034
:102E7000044600200090002C52D0002950D0084673
:102E800000F02CF902906069274905910026092578
:102E900026A4069637460090019008E0002701908E
:102EA0000596039806903E46241D6D1E33D0012DD5
:102EB00004D0A81E0299C140C80725D0380601D108
:102EC0000027F1E7F8B2FDF721FE01463046FDF795
:102ED0001BFD0490009905F00BF8064601200390B5
:102EE000C00786433046059F394604F0D0FE411E98
:102EF0008841069A51425141014300D13E46002982
:102F00000498CBD10198C9E72168304604F0FEFE51
:102F100006467F1CC8E70698002801D0019800905B
:102F2000009807B0F0BDC04600007A44000052C2CD
:102F3000000016C20000B4C10000F0C00000F04064
:102F40000000B4410000164200005242424800789E
:102F50007047C046F0B5002807D0059C034D0026F9
:102F6000034FCEC0066044608560F0BD000096430C
:102F70000000C842F0B581B00D4600284BD0044691
:102F8000002C4CD0E168284604F0C0FE0646E06004
:102F90002168284604F054FF0090276930463946DE
:102FA00004F05DFE002808D10120C00747403046EC
:102FB000394604F049FE002801D1E7603E466769C2
:102FC00065616068314604F03BFF06462846394695
:102FD00004F08EFF1449FDF797FC0146A06804F049
:102FE0002FFF05460098314604F090FE294604F074
:102FF0008DFE0546E469214604F031FE002808D123
:103000000120C00744402846214604F01DFE002848
:1030100006D1254604E026480468002CB2D10025DC
:10302000284601B0F0BDC0460AD7233C022803D091
:1030300003280BD1074900E00549074A10701C48D6
:10304000016000204861C86001207047002070477F
:1030500098032020B80320204806202070B50C4695
:10306000014613480568002D1FD02846FFF7FEFED5
:1030700001462846FFF77EFF05460E4E306020468B
:10308000FDF73CFD04462846214604F03FFE01467C
:10309000002000F041F93168204604F029FF014684
:1030A000012000F039F9306870BD002070BDC046C5
:1030B00020022020DC03202080B50748014610397B
:1030C0000968002900D480BD0121C90702680A43AC
:1030D000026000F0C5F880BD48300A404178002900
:1030E00001D000787047002070470000F0B589B02B
:1030F0000890594C02262661192005012846FFF741
:10310000A3FA564F3868079026602846FFF79CFAC6
:1031100026612846FFF798FA386806902660284608
:10312000FFF792FA26612846FFF78EFA3868059075
:1031300026602846FFF788FA26612846FFF784FABA
:103140003868049026602846FFF77EFA26612846F4
:10315000FFF77AFA3868039026602846FFF774FA7A
:1031600026612846FFF770FA3868019026602846E5
:10317000FFF76AFA26612846FFF766FA3868029078
:1031800026602846FFF760FA26612846FFF75CFABA
:103190003868009026602846FFF756FA0120089903
:1031A0004870079A02400199C90701918B0E9B183C
:1031B0000499CA07110F04915C180599CB075B0F9E
:1031C000E4180699CD07AD0F6119039AD407E70EED
:1031D000C919029AD7077F0E009AD201BA1851185E
:1031E0004A093240079EF6016D017519DB00EB18A4
:1031F000049D6D005B19240F1B19019C640F1B19A2
:103200009A18C9B2C9091143089A11708843CA4370
:103210009307DB0F18185307DB0F18181307DB0F82
:103220001818D306DB0F18189306DB0F1818520670
:10323000D20F1018FF228A43D1090818062808D394
:103240000C4800680F2804D30B4800210170FEF7DA
:10325000E3FE09B0F0BDC04690120A4080130A4058
:10326000044800210160C248016003480121017047
:103270007047C046D803202025022020F0B585B035
:10328000A420B74D00242C50B94804602C656C650F
:103290002C702846A430446084608481184F0497C1
:1032A000184803903F200006029017480090281D00
:1032B00002AE164B2146324600F044FA04971448F9
:1032C0000390412000060290124800902846583092
:1032D000314B2146324600F035FAA04EB42230463A
:1032E0002946FCF7D1FF301D00F024FA3046583053
:1032F00000F020FAB0203452FFF7EAFB05B0F0BD31
:10330000CDCCCC3D9A99193E0000FA4300007A4496
:10331000CDCC4C3D0080BB44F0B581B00E46044698
:10332000012801D08E4F00E08C4F1B4D30462946BE
:1033300004F095FC002807D11849304604F084FCBD
:103340000028354600D1154D387801281AD000974D
:10335000824E834F012C01D0381D00E0301D00F05B
:10336000E9F9012C01D0384600E03046583000F031
:10337000E1F9012C02D0B0373E4600E0B036009FA4
:103380000020308001203870012C01D0744800E00A
:103390007248056501B0F0BD00803B4500803BC52B
:1033A00070B5B0256E4E0024745334703465301DF2
:1033B00000F0C0F93046583000F0BCF97453204694
:1033C000FFF774FB654E745334703465301D00F0A4
:1033D000B1F93046583000F0ADF974530120FFF7D1
:1033E00065FB70BDF0B585B004AF00260120014635
:1033F00000900EE05A48B03001803046FFF726FBBF
:103400000198C00703AF002100280098064600D1AC
:1034100088E00191029606403046FFF7F1FC054630
:103420003880002E01D14E4900E04C49A83108688F
:1034300040190860FDF762FB4A4904F001FD4A4962
:10344000FDF762FA0746002E03D14548AC30434CE5
:1034500002E0424C2046AC3007602846FDF74EFBA8
:103460000146002E254600D13D4D69652878022889
:10347000029A16D001280ED0002817D10120024050
:10348000214600D1364900200865002A00D1344C7D
:10349000B0342080B4E7012002400ED13048001D36
:1034A0000CE00120024017D12D4816E0D00700D1D2
:1034B0002B4CB02100226252A2E7201D1546002AA3
:1034C00000D1274C5034226800F054F8FDF7CCFAB4
:1034D0000146002D8ED023E020465830002A02926B
:1034E00001D11F4900E02146A4310A68394600F0A5
:1034F00041F8024602990029204600D11848026589
:10350000002902D11648001D00E0201D696D00F061
:1035100031F8FDF7A9FA01460298002800D169E7C1
:103520000E4868E7002504A8405FFDF7E7FA044667
:1035300003A8405FFDF7E2FA0146204604F0E6FBEF
:103540000A4904F07DFC3F21090604F079FC084C8F
:10355000216804F0DBFB206005B0F0BDE002202014
:103560002C0220200000B44300D85647EE04833BD1
:1035700094032020F0B583B0002828D00446C2610F
:103580000162866AC662104604F0B2FC0546676AAC
:103590006062A762207800284AD0012819D002284A
:1035A00000D088E02846394604F0A2FC616804F0A7
:1035B00047FC0290E0630120C10728460091884340
:1035C000A16904F064FB002877D0002079E0002591
:1035D000ADE0206B616B6063A1632846394604F05F
:1035E00087FC616804F02CFC0290E063A168284627
:1035F00004F026FC019020643846394604F086FB2E
:103600000146284604F074FC0146304604F07EFB77
:103610002063E16804F014FC054660640298019997
:1036200004F074FB294604F071FB0146A06C35E000
:10363000206B616B6063A1632846394604F058FC37
:10364000064620636168284604F0FAFB0290E063B6
:10365000E168304604F0F4FB07466064A068294640
:1036600004F0EEFB216C04F051FB05462064666912
:10367000314604F0F4FA002808D10120C007464082
:103680002846314604F0E0FA002801D12664354688
:103690000298294604F03AFB0146384604F036FB0E
:1036A0000546A0642669314604F0E4FA00283CD0BF
:1036B0000120C00732E0A56C39E0A168284604F07B
:1036C000BFFB01902064226B616B6263A16338468B
:1036D000394604F01BFB0146284604F009FC01466C
:1036E000304604F013FB2063E16804F0A9FB0546B3
:1036F00060640298019904F009FB0146284604F031
:1037000005FB0146A06C04F001FB0546A064266998
:10371000314604F0AFFA002807D00098464028460A
:10372000314604F091FA002801D1A66435462846B6
:1037300003B0F0BD80B5002803D01C303021FCF769
:10374000B7FF80BDB0B500280FD0002A0DD0049C73
:1037500015684560556885600170916802460C32B5
:103760001AC218303421FCF7A3FFB0BD00000000DE
:10377000EFF309800E4A1168243808607346F8C0D8
:1037800044464D4656465F46F0C072B603F076FC9E
:1037900062B6074A116808681430F0C8A046A94606
:1037A000B246BB4680F309882438F8C81847C0469B
:1037B000680520200000000000000000000000005C
:1037C00004207146084203D0EFF30980044B1847E8
:1037D000EFF30880024B1847C046C046C046C046BB
:1037E000416C000080B50A480A49FFF7B5F80A485D
:1037F0001A49C1620022C267194B0360016307497D
:103800000A6003601849416005480121016080BDDC
:10381000000009404A890000041809408418094042
:103820000811094080B50A480A49FFF795F80A4887
:103830000A49C1620022C267094B0360016309495A
:103840000A6003600849416008480121016080BDA9
:10385000002009404D8900000438094001000200A1
:103860001292001084380940FFFF0000083109401F
:1038700080B50E480E49FEF7C7FE0E4841680E4A55
:103880000A40112109045118416081680B4A0A401D
:1038900001210B06D2188260094A00231360042319
:1038A000536002680A43026080BDC04600200040A9
:1038B0005089000000310040FEFFECFFF8FFE0E01F
:1038C0008031004070B582B01B4C1C492046FFF788
:1038D00043F81B492046FEF795FF1A4801681A4A2B
:1038E0000A40026000250095204629462A462B46BC
:1038F000FFF71EF8204629462A46FFF70BF8204618
:1039000029462A46FFF720F8012600962046294638
:103910002A462B46FFF70CF8204629463246FEF78A
:10392000F9FF204629463246FFF70EF80748866021
:103930000321016002B070BD00008740588900007B
:103940005C890000041887407F00FFFF001187405A
:10395000F0B54A4C8920A06001210807484A106050
:10396000484D8B2068610B0413608423EB630E05C4
:10397000454F3E60AB654B061360444E8527B762EA
:10398000434A0423136037631023136037621160C6
:10399000AF614B043A4A13603E4F7B1CAB662B630E
:1039A0003B1DE3653B460A336366822323647B1E2B
:1039B0006364E063A063276583202860E067A767EE
:1039C00081206067206330657065A8642061324B98
:1039D000336032683260736072687260B364B26C74
:1039E000B264F364F26CF264B360B268B2606864AB
:1039F000321F10606865A86068662866A863E86280
:103A00006060B81E20601E4B18463038234A0260A2
:103A100018464038224A0260224818601A4B18465D
:103A20003038214A026018464038204A0260204857
:103A300018601520C0061F4A13680343136007204F
:103A400040071D4A136A034313621368034313605C
:103A50000F4B184640380322120202601A60C80356
:103A600016490A6802430A601548016A8022114318
:103A70000162016811430160F0BDC046048042400C
:103A8000D0120A4084804240D0320A40088142402D
:103A9000D0520A408300040081000C000020400145
:103AA00002000040022040410200441C002080002F
:103AB0000220C41CA0330A4028300A4090530A4018
:103AC00028500A4010B50D4C0D492046FEF7E4FD84
:103AD0000C492046FEF7BEFD0B4841689B4A0A4050
:103AE000111D4160816812220A432D218A438260A0
:103AF000016801220A43026010BDC04600A0464092
:103B0000648900006689000004B1464009485949AB
:103B10000A68024082420BD00A680240824207D003
:103B20000A680240824203D00A6802408242EFD112
:103B30007047C046000A2000F0B585B01F2000067F
:103B4000204A11688143116001242105A20400204C
:103B50000391FEF7ABFD1C481C4901600494660606
:103B600042241B4D434F3868304204D12846FEF7AB
:103B70006BFD641EF7D1134880690290049802041B
:103B8000002001900399FEF791FD0F480F49016055
:103B900042243868304204D12846FEF755FD641EA1
:103BA000F7D117350298454306488169284603F046
:103BB00021FF084940180F2801D301980490049868
:103BC00005B0F0BD38010B402C030B400100000E86
:103BD000D103000043F6FFFFF0B581B02248012475
:103BE00004600F200002214D296881436602881974
:103BF00028600320C043291F0A6802400A601C484D
:103C0000FEF762FDFFF798FF002812D02868102108
:103C100001432020814329600020FEF7CBFDFF20D7
:103C2000000215490A688243A0031018086001B019
:103C3000F0BD104F03E0FFF77FFF0028E6D1200220
:103C40006968814369606968014369603868304226
:103C5000F1D138683042EED138683042EBD1386863
:103C60003042F3D0E7E7C04608030B4004010B40A5
:103C70007089000004020B4000E400E070B582B0DF
:103C80001B4C1C492046FEF767FE1B492046FEF7E9
:103C9000B9FD1A480168C34A0A4002600025009530
:103CA000204629462A462B46FEF742FE2046294654
:103CB0002A46FEF72FFE204629462A46FEF744FEF6
:103CC00001260096204629462A462B46FEF730FE5E
:103CD000204629463246FEF71DFE2046294632463A
:103CE000FEF732FE064886600321016002B070BD17
:103CF00000208640988900009C8900000438864096
:103D00000031864010B50D4C0D492046FEF7C4FC2D
:103D10000C492046FEF79EFC0B4841680B4A0A40BE
:103D2000111D4160816812220A432D218A4382605D
:103D3000016801220A43026010BDC046008046406F
:103D4000A4890000A68900000491464000FCFFFF02
:103D500010B51A4C1A492046FEF730FE1949204684
:103D6000FEF708FE0320C103174802688A43026079
:103D70000169164A0A4041218900511801614169CF
:103D80001B220A4324218A434261426801210A40DE
:103D900043688B439A1842604A04036813430360E4
:103DA000C26870231343C360C26802231343052211
:103DB0009343C36002680A43026010BD00001040D4
:103DC000B0890000B2890000001110400000FFFF20
:103DD00080B500F031F8FFF7BBFDFFF7FDFEFFF700
:103DE0004DFFFFF76FFD00F077F8FFF7FBFCFFF7E3
:103DF00019FDFFF7ADFFFFF785FFFFF763FEFFF744
:103E000037FDFFF783FEB820064900220A54064911
:103E10000A549C2005490A54242005490A5405499E
:103E20000A5480BDE00320203C01202074002020A3
:103E3000F801202014012020F0B581B01848194A5B
:103E40004260194842601948426019484260194866
:103E5000426019484260194F7A60194D6A60194CE6
:103E60006260194B5A6019494A6019484260194A00
:103E70000B4E32600C4E32600C4E32600C4E326093
:103E80000C4E32600C4E32603A602A6022601A603A
:103E90000A6002601020FEF7D7FB01B0F0BDC046FB
:103EA00000080A40030000B100280A4000480A4008
:103EB0000028864000088740000886400008094026
:103EC00000280940000810400088464000A84640ED
:103ED0000028004001000026F0B581B02D4C2E498D
:103EE0002046FEF739FD2D492046FEF78BFC2C4875
:103EF00001682C4A0A4002600025009520462946A8
:103F00002A462B46FEF714FD204629462A46FEF790
:103F100001FD204629462A46FEF716FD0126009699
:103F2000204629462A462B46FEF702FD2046294612
:103F30003246FEF7EFFC204629463246FEF704FDE6
:103F400002270097204629462A462B46FEF7F0FC1A
:103F5000204629463A46FEF7DDFC204629463A46E9
:103F6000FEF7F2FC03270097204629462A462B46F7
:103F7000FEF7DEFC204629463A46FEF7CBFC2046FB
:103F800029463A46FEF7E0FC074886600F210160AB
:103F900001B0F0BD00008640BC890000C08900006F
:103FA000041886407F00FFFF0011864082B003F0B6
:103FB0002FFB01900A4C0B4D0B4E03E001A80A2188
:103FC00003F0C6FA20780128F8D12868401C286040
:103FD0006428F3D3002028603068401C3060EDE78F
:103FE0002502202070002020D803202010B502F0E8
:103FF00033FD044603F010FB002803D00120000726
:1040000002490860204602F054FD10BD04ED00E0B6
:1040100010B507480068C0B20B2808D1054C2068CD
:10402000400704D4E069C0B2FEF712F8F7E710BD0C
:104030002010104008111040AE48016800200029EF
:1040400000D07047094909680029FAD10849096870
:104050000029F6D1A8480068C4490968491E884269
:1040600001D00120704702207047C0460441202043
:10407000AC40202084B0FFF7ABFE00F0FBFD372002
:1040800000010090244825490024254E224633464D
:10409000FEF760FF0120039045022846583000904B
:1040A0002048214922463346FEF754FF0326304676
:1040B000FEF7BCFFFEF7BAFEFEF7A8FCFFF7DEF83E
:1040C000FDF7AEFF19480227076019480760009600
:1040D0000194184818A12A46234603F0D1F9012873
:1040E00017D100970194174817A12A46234603F0D9
:1040F000C7F901280ED1039800900194154816A124
:104100002A46234603F0BCF9012804D102F022FF1D
:10411000FEE7FEE7FEE7FEE7980320206666A6407E
:104120006F12033BB80320206666864080E200E001
:1041300000E100E04D25000043686173736973542A
:1041400061736B00AD3F000053656E736F72546115
:10415000736B0000092B0000446973706C61795423
:1041600061736B00F0B583B00F460646AC48056836
:10417000624800680290624800680190A64C20687E
:10418000001D02F06DFC701C15D1002F13D02068AB
:1041900059490CC9836098682568E860521C083941
:1041A0000A602268121D42602068001D9860206825
:1041B000416103B0F0BDAE19206846602068011D62
:1041C000AE4204D2019802F082FC03B0F0BD029826
:1041D00002F07DFC914801688E4200D2066003B077
:1041E000F0BDC046F0B581B0044602F08FFC5F48D8
:1041F0000168491C0160884F396800290AD03A4893
:104200000068002847D1E06A3968C96A814242D80B
:104210003C6040E03C60006801283CD17D4D284670
:1042200002F04AFC2846143002F046FC28462830AA
:1042300002F042FC28463C3002F03EFC284650305A
:1042400002F03AFC2846643002F036FC284678300A
:1042500002F032FC28468C3002F02EFC2846A030BA
:1042600002F02AFCB435284602F026FC1F4D2846F1
:1042700002F022FC1E4E304602F01EFC1D4802F0E9
:104280001BFC394802F018FC1B4802F015FC1B48C7
:1042900005601B4806601B480168491C6164016099
:1042A000E06A5B490A68904200D9086014214143E2
:1042B00058484258521C425040184168A1608A68D0
:1042C000E2606061201D5060886002F029FC0648B1
:1042D0000068002806D0E06A3968C96A814201D2C4
:1042E00002F070FD01B0F0BDC440202064402020E9
:1042F00078402020B0402020D04020207005202091
:104300007805202064372020F0B581B0154D28684D
:10431000002823D0144E154F05E0204602F012FC71
:10432000286800281AD002F0F1FBF068C468201D4C
:1043300002F096FB3868401E38602868401E2860EE
:1043400002F0EEFB6520205C0228E9D00128E4D0D1
:10435000002805D1206B02F0F5FBDEE701B0F0BDCF
:1043600072B6FEE75C372020E4402020583720203A
:104370000124274D274E284F01E003F047FAFFF7AD
:10438000C3FF2868411E88413168012901D80021F6
:1043900000E001213A68D26A002A224600D10A468A
:1043A000002A214600D101460029E8D11B480068B7
:1043B0001B490968401A0228E1D31A490868401CC1
:1043C0000860164800681649096888421ED32868A4
:1043D000411E88413168012901D8002100E00121F6
:1043E0003A68D26A002A224600D10A46002A2146AB
:1043F00000D101460029C0D1084800680849096871
:10440000401A0228B9D302F03BFCB6E772B6FEE7C9
:104410006837202080052020680520209C4020202F
:10442000F840202060372020F0B583B002930F467B
:1044300001900A9C206B9600A5223146FCF711F9E9
:10444000206B089D002F41D0214634313A780A7004
:10445000002A39D07A784A70002A35D0BA788A7022
:10446000002A31D0FA78CA70002A2DD03A790A7120
:10447000002A29D07A794A71002A25D0BA798A711E
:10448000002A21D0FA79CA71002A1DD03A7A0A721C
:10449000002A19D07A7A4A72002A15D0BA7A8A721A
:1044A000002A11D0FA7ACA72002A0DD03A7B0A7318
:1044B000002A09D07A7B4A73002A05D0BA7B8A7316
:1044C000002A01D0FA7BCA730022CA730A2D01D3D5
:1044D00072B6FEE78019061F07208643099FE56430
:1044E000E562201D02F0F0FA2046183002F0ECFAE6
:1044F0000A20401BA0616462246130460199029A3F
:1045000000F082FA2060002F00D03C6003B0F0BDC4
:10451000F0B583B0044603F07BF8224A1168884264
:1045200031D201940290AA4C07E029462831FA22A0
:1045300010400870296A28468847206801680029C9
:1045400023D0C0680768C5682E1D304602F088FA7F
:104550002820285C4107E8D5A869C4196C602D6142
:10456000BC4209D3296A28468847A86900196860AF
:104570002D61A0420446F5D296480068314602F00B
:10458000A6FA934CD6E7002107E092490A68226018
:10459000086001210298019C024A1060216003B06A
:1045A000F0BDC0466405202081B0002000900A487C
:1045B000006872B6401C09D0FEE70098002808D1B8
:1045C0000098002805D10098002802D10098002802
:1045D000F3D001B07047C0460800202086B07E4E60
:1045E0007B4800680568002D02D0C068076800E0BD
:1045F000002702F03DFD03A8FFF78AFF0446039859
:10460000002802D003F002F947E0002D28D0A7428D
:1046100026D803F0FBF86E480068C068C568281DFE
:10462000019002F01DFA2820285C41070CD429468D
:104630002831FA22104008702CE0E11B814223D37C
:10464000296A284688473746A869C6196E602D61D1
:10465000A642F2D9BC4201D2BE42F1D25C4814E07B
:10466000002D01D0002204E05A4800680068424250
:104670004241391B306802F0B1FB03F0C7F8002853
:104680000BD102F09FFB08E052480068019902F04C
:104690001EFA514E296A2846884700220592049244
:1046A0000392306803A906E0386802F010FA4A4E17
:1046B000306803A9002202F0F6FD002890D003988C
:1046C0000028F5D4059C002CF2D06069002802D0A7
:1046D000201D02F0C5F902A8FFF71AFF054603984E
:1046E000401E0828E4D8C04678440079400087443A
:1046F000040438235504043823002820225C0121B7
:1047000011432154A069049BC61866602461211DD1
:10471000AE4205D99D422E4FC6D29E4204D2C3E777
:10472000EB1A83422B4FBFD3530720D420462830A7
:10473000FA210A4002703EE02820215C01220A434F
:1047400022540498A06100283FD040196060246181
:10475000A8421F4800D81F480068211D02F0B7F981
:10476000A6E72820215CFE220A402254A0E70191FE
:104770000499091807E0691A814217D3216A204673
:104780008847A06931460E1866602461AE42F2D9AE
:104790008D4201D28E42F1D20D4808E02820205CE3
:1047A00081070DD4204602F0CDF981E70948006861
:1047B000019902F08CF9084E216A2046884777E774
:1047C0002834FE210840207072E772B6FEE7C0462A
:1047D0006C0520207C052020FC402020F0B581B015
:1047E00004460646443602F091F901203756012F5F
:1047F00012DB2546243504E0781E79B201290746EC
:104800000ADD2868002807D0284602F09DFF00280E
:10481000F2D002F06BFBEFE7FF25757002F080F934
:1048200002F074F900203756012F11DB103404E038
:10483000781E79B2012907460ADD2068002807D0D2
:10484000204602F081FF0028F2D002F04FFBEFE794
:10485000357002F065F901B0F0BD0000F0B583B02D
:1048600001460831002509290BD3072203461340CE
:1048700006D0093B994204D890431030054600E029
:104880000D4602F0F5FB59490E68002E02D058483B
:1048900003681BE0574C002060600722D343564E4C
:1048A0007207324601D0F21D1A402260032424030D
:1048B00034191C40083C0C6020606060A31A5360EF
:1048C0004E4803604A4803600E68166001220024C7
:1048D0009D42104600D820460093012D114600DB72
:1048E0002146014305D002F091FF600737D072B630
:1048F000FEE7434840490F183E4802900068B8421E
:1049000001D8002100E001213B4B9842134600D31F
:104910000B46002B01D072B6FEE743680024AB4281
:1049200020D20168002937D002900846B94201D848
:10493000002100E00121304B9842134600D30B4682
:10494000012B35D04368AB4201D3002100E00121A7
:104950000191AB4207D201680029E5D103E020466E
:1049600003B0F0BD0194B042BDD0029E346808345B
:10497000BC4201D8002100E001211F4FBC4200D3FE
:104980000A46012A01D172B6FEE701683160019A38
:10499000002A05D072B6FEE70192B042E5D1A2E747
:1049A0005A1B102A06D943195E0706D072B6FEE7D5
:1049B00072B6FEE74568009905E006C30299083B18
:1049C0000B600B490968491B094A11600B4A1368BF
:1049D000994200D2116000210122D207154322C062
:1049E00008480168491C01607DE7C0467405202025
:1049F0008C402020C84020204E07202098402020B6
:104A0000FF2F0000A44020200346083B1960011F2F
:104A100001231B060B6001460C391D4B0B60014640
:104A200010391C4B0B60014614391B4B0B600146BF
:104A300018391A4B0B6001461C39194B0B600146A3
:104A400020390A6001462439164A0A60014628398D
:104A5000154A0A6001462C39144A0A600146303969
:104A6000134A0A6001463439124A0A60014638394D
:104A7000114A0A6001463C39104A0A600146403931
:104A80000F4A0A6044380221C94301607047C0469A
:104A9000A9450000121212120303030302020202CC
:104AA000010101011111111110101010090909095A
:104AB000080808080707070706060606050505058E
:104AC00004040404F0B583B001204002674901905A
:104AD0000861744C21789F207F230029024600D171
:104AE0001A466F4E3178002900D10346002528462A
:104AF000294601F04BF92278A02080210291002A5A
:104B0000024600D1029A3378002B00D10290584817
:104B10000088C3B2070A72482C4603E0641C02995D
:104B20008C426DD02E4603E00363361D9642F5D0CD
:104B30000168890708D40168890705D401688907D5
:104B400002D401688907F3D507630168890708D48F
:104B50000168890705D40168890702D401688907BB
:104B6000F3D503630168890708D40168890705D470
:104B70000168890702D401688907F3D507630168D2
:104B8000890708D40168890705D40168890702D418
:104B900001688907F3D503630168890708D40168B0
:104BA000890705D40168890702D401688907F3D50C
:104BB00007630168890708D40168890705D401687B
:104BC000890702D401688907F3D50363016889075F
:104BD00008D40168890705D40168890702D40168EF
:104BE0008907F3D50763016889079DD401688907A0
:104BF0009AD40168890797D401688907F3D593E7A8
:104C00000168C90702D00168C90624D50168C9072F
:104C100002D00168C9061ED50168C90702D0016823
:104C2000C90618D50168C907EAD00168C906E7D4E2
:104C300011E00168C90702D00168C90611D50168F1
:104C4000C90702D00168C9060BD50168C90702D09F
:104C50000168C90605D50168C907EAD00168C90617
:104C6000E7D401980149086003B0F0BD90520A40B2
:104C700002002020F0B587B002480078032813D83E
:104C800002E0C046490620200F2108400C21C14007
:104C900001200840024908700249087004E0C0463B
:104CA0004D0720204C0720200126F405084D2C61DB
:104CB0000848FDF7C9FC2C60074C2046FDF7C4FCF2
:104CC00031467002054E04903061054F0AE0C0463F
:104CD00090320A4000350C00007C920090520A404D
:104CE000109146403868C00702D03868C00611D518
:104CF0003868C00702D03868C0060BD53868C007CE
:104D000002D03868C00605D53868C007EAD03868D0
:104D1000C006E7D406910D0235611120386338686A
:104D2000C00702D03868C00611D53868C00702D065
:104D30003868C0060BD53868C00702D03868C0068E
:104D400005D53868C007EAD03868C006E7D43560B2
:104D50002046FDF779FC3868C00702D03868C006E5
:104D600011D53868C00702D03868C0060BD538683E
:104D7000C00702D03868C00605D53868C007EAD039
:104D80003868C006E7D43561B12038633868C00799
:104D900002D03868C00611D53868C00702D038681C
:104DA000C0060BD53868C00702D03868C00605D5E4
:104DB0003868C007EAD03868C006E7D43560069B7B
:104DC0003868800708D43868800705D438688007B9
:104DD00002D438688007F3D53B633868800708D46D
:104DE0003868800705D43868800702D4386880079F
:104DF000F3D52C2038633968890708D439688907C6
:104E000005D43968890702D439688907F3D52D217B
:104E100039633A68D20702D03A68D20611D53A68A7
:104E2000D20702D03A68D2060BD53A68D20702D030
:104E30003A68D20605D53A68D207EAD03A68D2066F
:104E4000E7D43561B2223A633A68D20702D03A68B1
:104E5000D20611D53A68D20702D03A68D2060BD5ED
:104E60003A68D20702D03A68D20605D53A68D20726
:104E7000EAD03A68D206E7D435603A68920708D497
:104E80003A68920705D43A68920702D43A689207C2
:104E9000F3D53B633A68920708D43A68920705D481
:104EA0003A68920702D43A689207F3D538633A68B1
:104EB000920708D43A68920705D43A68920702D458
:104EC0003A689207F3D539633A68D20702D03A6854
:104ED000D20611D53A68D20702D03A68D2060BD56D
:104EE0003A68D20702D03A68D20605D53A68D207A6
:104EF000EAD03A68D206E7D43561B3223A633A6819
:104F0000D20702D03A68D20611D53A68D20702D049
:104F10003A68D2060BD53A68D20702D03A68D20670
:104F200005D53A68D207EAD03A68D206E7D43560A8
:104F30003A68920708D43A68920705D43A6892070B
:104F400002D43A689207F3D53B633A68920708D4D3
:104F50003A68920705D43A68920702D43A689207F1
:104F6000F3D538633A68920708D43A68920705D4B3
:104F70003A68920702D43A689207F3D539633A68DF
:104F8000920708D43A68920705D43A68920702D487
:104F90003A689207F3D53B633A68920708D43A68B7
:104FA000920705D43A68920702D43A689207F3D57B
:104FB00038633A68920708D43A68920705D43A6889
:104FC000920702D43A689207F3D539633968C90762
:104FD00002D03968C90611D53968C90702D03968C5
:104FE000C9060BD53968C90702D03968C90605D585
:104FF0003968C907EAD03968C906E7D43561B421F0
:1050000039633968C90702D03968C90611D53968CA
:10501000C90702D03968C9060BD53968C90702D05B
:105020003968C90605D53968C907EAD03968C9069B
:10503000E7D435603968890708D43968890705D409
:105040003968890702D439688907F3D507210591A2
:1050500039633968C90702D03968C90611D539687A
:10506000C90702D03968C9060BD53968C90702D00B
:105070003968C90605D53968C907EAD03968C9064B
:10508000E7D43561C021019139633968C90702D07D
:105090003968C90611D53968C90702D03968C90607
:1050A0000BD53968C90702D03968C90605D53968F2
:1050B000C907EAD03968C906E7D435603968890775
:1050C00008D43968890705D43968890702D4396852
:1050D0008907F3D5A22139633968890708D439686B
:1050E000890705D43968890702D439688907F3D557
:1050F0000221029139633968890708D43968890720
:1051000005D43968890702D439688907F3D5842121
:1051100039633968C90702D03968C90611D53968B9
:10512000C90702D03968C9060BD53968C90702D04A
:105130003968C90605D53968C907EAD03968C9068A
:10514000E7D43561C12139633968C90702D03968AC
:10515000C90611D53968C90702D03968C9060BD507
:105160003968C90702D03968C90605D53968C90741
:10517000EAD03968C906E7D435603968890708D4A8
:105180003968890705D43968890702D439688907DD
:10519000F3D5C52139633B68DB0702D03B68DB06EA
:1051A00011D53B68DB0702D03B68DB060BD53B68BB
:1051B000DB0702D03B68DB0605D53B68DB07EAD09E
:1051C0003B68DB06E7D43561C2233B633B68DB0702
:1051D00002D03B68DB0611D53B68DB0702D03B6899
:1051E000DB060BD53B68DB0702D03B68DB0605D549
:1051F0003B68DB07EAD03B68DB06E7D435603B68F9
:105200009B0708D43B689B0705D43B689B0702D4E7
:105210003B689B07F3D50A233B633B689B0708D495
:105220003B689B0705D43B689B0702D43B689B0700
:10523000F3D500243C633B68DB0702D03B68DB0608
:1052400011D53B68DB0702D03B68DB060BD53B681A
:10525000DB0702D03B68DB0605D53B68DB07EAD0FD
:105260003B68DB06E7D43561C3233B633B68DB0760
:1052700002D03B68DB0611D53B68DB0702D03B68F8
:10528000DB060BD53B68DB0702D03B68DB0605D5A8
:105290003B68DB07EAD03B68DB06E7D435603B6858
:1052A0009B0708D43B689B0705D43B689B0702D447
:1052B0003B689B07F3D58A233B633A68920708D47F
:1052C0003A68920705D43A68920702D43A6892077E
:1052D000F3D52A2203923A633A68D20702D03A6899
:1052E000D20611D53A68D20702D03A68D2060BD559
:1052F0003A68D20702D03A68D20605D53A68D20792
:10530000EAD03A68D206E7D43561C4223A633A68F3
:10531000D20702D03A68D20611D53A68D20702D035
:105320003A68D2060BD53A68D20702D03A68D2065C
:1053300005D53A68D207EAD03A68D206E7D4356094
:105340003A68920708D43A68920705D43A689207F7
:1053500002D43A689207F3D53B633A68920708D4BF
:105360003A68920705D43A68920702D43A689207DD
:10537000F3D5EE223A633A68D20702D03A68D206F1
:1053800011D53A68D20702D03A68D2060BD53A68EE
:10539000D20702D03A68D20605D53A68D207EAD0D9
:1053A0003A68D206E7D4356139633968C90702D053
:1053B0003968C90611D53968C90702D03968C906E4
:1053C0000BD53968C90702D03968C90605D53968CF
:1053D000C907EAD03968C906E7D435603968890752
:1053E00008D43968890705D43968890702D439682F
:1053F0008907F3D50E2139633968C90702D03968A6
:10540000C90611D53968C90702D03968C9060BD554
:105410003968C90702D03968C90605D53968C9078E
:10542000EAD03968C906E7D435613621396339686D
:10543000C90702D03968C90611D53968C90702D031
:105440003968C9060BD53968C90702D03968C90659
:1054500005D53968C907EAD03968C906E7D4356087
:1054600006490978032919D84900C0467944898832
:1054700049008F4405006D04430458044906202068
:105480003968890708D43968890705D439688907D4
:1054900002D439688907F3D5019C3C633968C90790
:1054A00002D03968C90611D53968C90702D03968F0
:1054B000C9060BD53968C90702D03968C90605D5B0
:1054C0003968C907EAD03968C906E7D43561E021EF
:1054D00039633968C90702D03968C90611D53968F6
:1054E000C90702D03968C9060BD53968C90702D087
:1054F0003968C90605D53968C907EAD03968C906C7
:10550000E7D435603968890708D43968890705D434
:105510003968890702D439688907F3D50F223A63BD
:105520003968890708D43968890705D43968890733
:1055300002D439688907F3D51A2139633968890794
:1055400008D43968890705D43968890702D43968CD
:105550008907F3D53A633968890708D43968890718
:1055600005D43968890702D439688907F3D5182129
:1055700039633968890708D43968890705D43968D7
:10558000890702D439688907F3D52F21396339682F
:10559000890708D43968890705D43968890702D48E
:1055A00039688907F3D5282139633968890708D410
:1055B0003968890705D43968890702D439688907A9
:1055C000F3D5202139633968890708D439688907F8
:1055D00005D43968890702D439688907F3D52221AF
:1055E00039633968890708D43968890705D4396867
:1055F000890702D439688907F3D51F2139633968CF
:10560000890708D43968890705D43968890702D41D
:1056100039688907F3D51B2139633B689B0708D498
:105620003B689B0705D43B689B0702D43B689B07FC
:10563000F3D523233B633B689B0708D43B689B0758
:1056400005D43B689B0702D43B689B07F3D53723FF
:105650003B633B689B0708D43B689B0705D43B68CA
:105660009B0702D43B689B07F3D500243C633B684F
:105670009B0708D43B689B0705D43B689B0702D473
:105680003B689B07F3D5059B3B633B689B0708D4AE
:105690003B689B0705D43B689B0702D43B689B078C
:1056A000F3D50646029838633B689B0708D43B68ED
:1056B0009B0705D43B689B0702D43B689B07F3D547
:1056C00010233B633868C00702D03868C00611D584
:1056D0003868C00702D03868C0060BD53868C007E4
:1056E00002D03868C00605D53868C007EAD03868E7
:1056F000C006E7D402480561E120386302E0C046F5
:1057000090520A403868C00702D03868C00611D5E8
:105710003868C00702D03868C0060BD53868C007A3
:1057200002D03868C00605D53868C007EAD03868A6
:10573000C006E7D40148056002E0C04690520A4026
:105740003868800708D43868800705D4386880072F
:1057500002D438688007F3D53A633868800708D4E4
:105760003868800705D43868800702D43868800715
:10577000F3D539633868800708D43868800705D4C2
:105780003868800702D438688007F3D53A633868F0
:10579000800708D43868800705D43868800702D4A9
:1057A00038688007F3D5172038633868800708D435
:1057B0003868800705D43868800702D438688007C5
:1057C000F3D5332038633868800708D438688007F9
:1057D00005D43868800702D438688007F3D53E6363
:1057E0003868800708D43868800705D4386880078F
:1057F00002D438688007F3D529203863004E01E0D1
:1058000090520A403968890708D43968890705D455
:105810003968890702D439688907F3D52E2139639D
:105820003968890708D43968890705D43968890730
:1058300002D439688907F3D5302139633A68920771
:1058400008D43A68920705D43A68920702D43A68B5
:105850009207F3D539633968890708D4396889070D
:1058600005D43968890702D439688907F3D5392105
:1058700039633968890708D43968890705D43968D4
:10588000890702D439688907F3D53F21396339681C
:10589000890708D43968890705D43968890702D48B
:1058A00039688907F3D53C633968890708D43968B2
:1058B000890705D43968890702D439688907F3D57F
:1058C000059939633968890708D43968890705D487
:1058D0003968890702D439688907F3D50321396308
:1058E0003968890708D43968890705D43968890770
:1058F00002D439688907F3D53B633968C90702D0F8
:105900003968C90611D53968C90702D03968C9068E
:105910000BD53968C90702D03968C90605D5396879
:10592000C907EAD03968C906E7D4356103993963F4
:10593000069A3968C90702D03968C90611D539688D
:10594000C90702D03968C9060BD53968C90702D022
:105950003968C90605D53968C907EAD03968C90662
:10596000E7D435603968890708D43968890705D4D0
:105970003968890702D439688907F3D53C633968E7
:10598000890708D43968890705D43968890702D49A
:1059900039688907F3D53C633968890708D43968C1
:1059A000890705D43968890702D439688907F3D58E
:1059B0003C633968890708D43968890705D4396890
:1059C000890702D439688907F3D57F21396339689B
:1059D000C90702D03968C90611D53968C90702D08C
:1059E0003968C9060BD53968C90702D03968C906B4
:1059F00005D53968C907EAD03968C906E7D43561E1
:105A00002B2139633968C90702D03968C90611D515
:105A10003968C90702D03968C9060BD53968C90782
:105A200002D03968C90605D53968C907EAD039688E
:105A3000C906E7D435603968890708D43968890709
:105A400005D43968890702D439688907F3D53C63DE
:105A50003968890708D43968890705D439688907FE
:105A600002D439688907F3D53C633968890708D4BB
:105A70003968890705D43968890702D439688907E4
:105A8000F3D53C633968890708D43968890705D498
:105A90003968890702D439688907F3D59F213963AA
:105AA0003968C90702D03968C90611D53968C907EC
:105AB00002D03968C9060BD53968C90702D03968E0
:105AC000C90605D53968C907EAD03968C906E7D4D7
:105AD0003561F02139633968C90702D03968C906D0
