:020000040000FA
:1000000080612020C1020000C5020000C70200007C
:1000100000000000000000000000000000000000E0
:100020000000000000000000000000006147000028
:1000300000000000000000001147000069500000AF
:10004000CF020000CF020000CF020000CF0200006C
:10005000CF020000CF020000CF020000CF0200005C
:10006000CF020000CF020000CF020000CF0200004C
:10007000CF0200008D500000CF020000CF02000030
:10008000CF020000CF020000CF020000CF0200002C
:10009000CF020000CF020000CF020000CF0200001C
:1000A000CF020000CF020000CF020000CF0200000C
:1000B000CF020000CF020000CF020000CF020000FC
:1000C00000F002F800F0D1F812A030C80838241867
:1000D0002D18AC4201D100F0C8F80FCCA246AB46B7
:1000E0000CA730CF2D1B083F3F197C427F1E544484
:1000F0002D090426F441641EAC4201D300F0B5F88A
:100100000126334200D0FB1A3343984754465D46DC
:10011000DFE700006C9A00008C9A000000000000ED
:10012000103A02D378C878C1FAD8520701D330C840
:1001300030C101D504680C60704700000000000069
:100140007047000000000000002300240025002666
:10015000103A01D378C1FBD8520700D330C100D583
:100160000B60704710B56E2902D101F0B8FA10BDCE
:10017000702902D101F0FDFD10BD662902D108F001
:1001800083FF10BD652902D108F07EFF10BD6729ED
:1001900002D108F079FF10BD612902D108F07CFF7F
:1001A00010BD03681B0A01D380231943692902D1BA
:1001B00000F0F2F810BD642902D100F0EDF810BD96
:1001C000752902D100F0E8F810BD6F2902D101F0C5
:1001D0007BFD10BD782902D101F0B8FD10BDE929E1
:1001E00002D101F017FD10BDE42902D101F012FD8A
:1001F00010BDF52902D101F00DFD10BDEF2902D18E
:1002000001F06EFD10BDF82902D101F0ADFD10BD69
:100210000368DB0901D380231943632902D101F06C
:10022000C6FF10BD732902D101F0C9FF10BDE3293B
:1002300002D101F0D3FF10BDF32902D101F0D6FFA6
:1002400010BD002010BD1FB501F0B4FD040000205A
:10025000002108F077FD401C60600020002108F0BC
:100260005BFDE0601FBD10B510BD02F097FB1146AD
:10027000FFF7E9FF04F03CFF02F0B8FB03B4FFF71F
:10028000F2FF03BC02F06CFC70B505460C46164646
:1002900002E00FCC0FC5103E102EFAD2082E02D36A
:1002A00003CC03C5083E042E07D301CC01C5361F7D
:1002B00003E021782970641C6D1C761EF9D270BD94
:1002C00006480047FEE7FEE7FEE7FEE7FEE7FEE73B
:1002D00003480449024A044B70470000C100000073
:1002E00080412020806120208041202043435143D1
:1002F00030B55C18010C130C0D4692B25D4380B210
:1003000051432C19054655430A0C09044D19624105
:100310005843010C00044019514130BD7CB51D46C5
:1003200016460C00009007D04142A14202D30019AA
:10033000401E01E00020C043064B7B442A4669462C
:100340000190304601F0EDFB002C02D0009A002114
:1003500011707CBD0B1800000FB41CB50C0007AA6F
:10036000009007D04142A14202D30019401E01E093
:100370000020C043074B7B4469460190069801F07A
:10038000D0FB0021002C01D0009A11701CBC08BCCD
:1003900004B01847CF170000F7B50025752910687D
:1003A000009914A611D001F007F9002802DA4042A2
:1003B00011A608E0009909688A0701D50FA602E096
:1003C000490704D50EA6012501E001F0FEF8009FC3
:1003D0000024243704E001F0D9FC30313955641C85
:1003E0000028F8D12B4632462146009801F01FF92B
:1003F000FEBD0000000000002D0000002B000000EA
:1004000020000000F3B50446002081B020622046A1
:10041000E1688847002872D0252802D06268A16868
:10042000ABE0594F00267F442046E16888472028EA
:10043000054608DB312D06D27819203800780028CF
:1004400001D00643F0E7B00701D504208643002021
:10045000E0610746A0612A2D0AD0284608F055FC25
:10046000002827D0B8000019303D0090856119E0C0
:100470000298BA00121902C8916102902046E16800
:100480008847012F054617D1E06900281FDA202090
:1004900086431CE000980A2180694843009940196E
:1004A000303888612046E1688847054608F02DFC11
:1004B0000028EFD1012F0AD02E2D08D12046E16867
:1004C00088470546202006437F1C022FC3DBA06916
:1004D000002803DA4042A06101200643F00701D062
:1004E000102086436C2D0BD0682D09D04C2D3CD0AC
:1004F0006A2D38D0742D38D07A2D36D016E040E0F1
:10050000E1682F4620468847B842054609D16C2F3E
:1005100029D001208002E16806432046884705462D
:1005200004E06C2F1DD0FF2001300643002D28D0A1
:1005300028464138192803D80120C0020643203537
:10054000204626602946029A1646FFF70BFE002831
:1005500010D001280BD0F61DF008C0000830029022
:1005600055E74020E1E78020D5E70020D3E7361D9E
:1005700002964CE762682846A1689047206A401CB2
:1005800044E7206AFEBD00007E8C0000F8B5042A16
:100590002CD3830712D00B78491C0370401C521EC9
:1005A00083070BD00B78491C0370401C521E830735
:1005B00004D00B78491C0370401C521E8B079B0F04
:1005C00005D0C91ADF002023DE1B08C90AE0FFF7A7
:1005D0005BFEF8BD1D4608C9FD401C46B4402C43D7
:1005E00010C0121F042AF5D2F308C91A521EF0D403
:1005F0000B78491C0370401C521EEAD40B78491C2E
:100600000370401C012AE4D409780170F8BDD2B20D
:1006100010B513029A1813049A1800F001F810BDCF
:1006200001E004C0091F0429FBD28B0701D5028019
:10063000801CC90700D00270704700290BD0C30787
:1006400002D00270401C491E022904D3830702D540
:100650000280801C891EE3E70022EEE70022DFE72C
:10066000002203098B4273D3030A8B4258D3030B36
:100670008B423CD3030C8B4221D312E003460B4345
:100680007FD4002243088B4274D303098B425FD38B
:10069000030A8B4244D3030B8B4228D3030C8B42B7
:1006A0000DD30902FF2212BA030C8B4202D312129D
:1006B000090265D0030B8B4219D300E0090AC30B72
:1006C0008B4201D3CB03C01A5241830B8B4201D31F
:1006D0008B03C01A5241430B8B4201D34B03C01A08
:1006E0005241030B8B4201D30B03C01A5241C30A80
:1006F0008B4201D3CB02C01A5241830A8B4201D3F1
:100700008B02C01A5241430A8B4201D34B02C01ADA
:100710005241030A8B4201D30B02C01A5241CDD27F
:10072000C3098B4201D3CB01C01A524183098B42CA
:1007300001D38B01C01A524143098B4201D34B01B3
:10074000C01A524103098B4201D30B01C01A524116
:10075000C3088B4201D3CB00C01A524183088B429D
:1007600001D38B00C01A524143088B4201D34B0086
:10077000C01A5241411A00D20146524110467047F8
:100780005DE0CA0F00D04942031000D340425340FD
:100790009C46002203098B422DD3030A8B4212D3BD
:1007A0008901FC2212BA030A8B420CD389019211EF
:1007B0008B4208D3890192118B4204D389013AD02C
:1007C000921100E08909C3098B4201D3CB01C01A01
:1007D000524183098B4201D38B01C01A5241430914
:1007E0008B4201D34B01C01A524103098B4201D302
:1007F0000B01C01A5241C3088B4201D3CB00C01A6F
:10080000524183088B4201D38B00C01A5241D9D286
:1008100043088B4201D34B00C01A5241411A00D207
:1008200001465241104663465B1001D34042002B03
:1008300000D54942704763465B1000D3404201B582
:100840000449002802DC491C084000E00846C04674
:10085000C04602BDFFFFFF7F704770477047000032
:10086000F0B50C46871A9C410D46861A9D4103D26D
:10087000C01BA141D21963410D0D1F0DC94EEC1BC8
:10088000AE435CD07F057F0D0026002F51D02D0593
:10089000AC46A943DD020123ED0A1B051D432023BD
:1008A0001B1B24D41746E740381871412F46E740F8
:1008B000CC199D402818314661410C0D27D1614467
:1008C0009A4013D50023401C594152000ED14008D4
:1008D000400001224B005205D34207D305204007B8
:1008E000C14201D5B04900E0B0493046F0BD6B00CF
:1008F000002A00D001229A181F23203C1B1B01D57F
:10090000002302E0E540281871410C0DD7D00124E6
:1009100024050919C407CD0740084908E40F2843F6
:100920006144002CD5D00024401C61419A40D0D1B4
:10093000CDE76A05520DD9D1C90FC907D5E79C4D3E
:100940004E00002801D0012400E0002434195F008B
:10095000002A01D0012600E00026BE19954FAC42C6
:100960000CD8AE420AD8B44206D001256D05EC423F
:10097000BCD010461946F0BD9942FCD00020394643
:10098000F0BDF0B51FB40C460F46811A9F412546B5
:10099000861A9D4106D20125ED076F40401ABC41E1
:1009A00052187B41210D1E0D8D1BAC467D4D8D4394
:1009B0007ED075056D0D7CD00D05AE46AC431B0396
:1009C0001B0B794D52429D41202366469B1B14D33D
:1009D0001746F740381800260090744160462F46AD
:1009E0000741E41900989D402818664116D47146C5
:1009F00071189A4025D5012320E093182A466A41B0
:100A00005200002B00D0521C1E23203E9B1B002BAB
:100A100061DD3541EE1728186641E8D500187641AA
:100A20005B1C9A4000D3401C4B05F3181524E3408F
:100A300010D3002B52D071467118D30FC01802D3B7
:100A4000491C05B0F0BD0123DB079A42F9D14008EB
:100A50004000F6E701225205B21801D1002853D018
:100A60000123CC0ADB029943891E002A08D1020C1B
:100A700003D0020C0004103902E0024600202039A5
:100A80000023550B05D112020823550B01D1520149
:100A90000D23550C01D112011B1DD50C01D1920063
:100AA0009B1C150D01D152005B1C2025EE1A01E0A4
:100AB0002CE022E00546F54015439840CA1AE107AC
:100AC00069181305C918002ABBDA03204007081863
:100AD000C10FC9070FE071466118B2E7F10740087E
:100AE0000843711071444A000CD001235B059A42FF
:100AF000A7D2C90FC9070020A3E74905490D26D190
:100B0000002001E00028F4D100219AE7284D66007A
:100B1000002801D0012100E0002171185F00002AA7
:100B200001D0012600E00026BE19224FA94210D8AC
:100B3000AE420ED8B14208D001256D05E94206D07B
:100B40001946A802414010467BE79C4201D021464D
:100B500077E70020394674E710B50C465C4005D5B0
:100B60000124E4076340FFF70CFF10BDFFF778FE98
:100B700010BD30B40C465C4004D50124E40763404A
:100B800030BC6DE630BCFCE670B50124E407614082
:100B90000D465D4002D4FFF763FE70BD6340FFF772
:100BA000F0FE70BDFF0700000000F0FF0000F07FC6
:100BB0000000E0FF0000F87FF0B5F94D0C091E09B8
:100BC0002C402E402F468BB0A7437DD0B543FCD0A0
:100BD000002E7AD0002CFCD00D465D40ED0F254351
:100BE000AC1BFF25AD0464190894C502440DC9026D
:100BF0002143500DDC0204430120C007014304439C
:100C0000D2020191200C110C00958C460104234660
:100C10008B430A9161460904E24D8A430991010A16
:100C20007D4449198039097805464D4301266D18E0
:100C3000F605751B6943C90C640B891C4C43641889
:100C4000B5012C1B250C2E04B4434C434D43210C01
:100C5000691889090591009DE90701D00121C9079B
:100C600004912C4601996708CD072F434C08059D38
:100C7000E10B4D432D0C29466646754302950D4602
:100C800045432E46029D7D1BB44100950D465D43B4
:100C900001942C0C2F040D465543AE462D0C3D43BC
:100CA000029503947546049C2D04641B049406D29B
:100CB000029C039D641C002675410395029401ACBF
:100CC00070CC009F7D1B01E03EE162E1B44109046C
:100CD0000095079101940599A4086143090C0C46FD
:100CE0004443650BE7040C4666467443A646640B12
:100CF0003C43039502947446049DE4042C1B049425
:100D000006D2029C039D641C002675410395029443
:100D100001AC70CC009F7D1BB44101940C465C4338
:100D20000095650FE7000C465443A646640F3C430C
:100D3000039502947446049DE4002C1B049406D28F
:100D4000029C039D641C002675410395029401AC2E
:100D500070CC009F7D1BB441AE09AF06049DC90055
:100D6000AD092F43049DA406AD060495079D3443A9
:100D700069180791059DE10B4D432D0C29466646E8
:100D8000754302950D4645432E46029D7D1BB44199
:100D900000950D465D4301942C0C2F040D465543E0
:100DA000AE462D0C3D43029503947546049C2D04DC
:100DB000641B049406D2029C039D641C00267541AA
:100DC0000395029401AC70CC009F7D1BB44101944B
:100DD0008C050694079C890A611800950791019C6F
:100DE0000599A4086143090C0D464543680BEF04BF
:100DF0000D46644665436C0B3C43049FED047D1B2C
:100E0000AC4602D20025641C6841009E019D371B40
:100E100085410846584301950C46460FC50054438A
:100E2000600F28436546E4002C1B02D20025401CBD
:100E30006E41019D3F1AB5412846BD0980062843F1
:100E40008446A009BF064E020699A40676180743F9
:100E5000079D002068410A99079019430020099BCB
:100E600000906046FF1913434041E20F64003A438B
:100E7000A4460446D71A8C41A04203D90120009011
:100E800020463A46C70F941840416246D20F22438B
:100E9000644664000494009CBE466400D71AA446CD
:100EA000044602978C417746002F01D1A04204D915
:100EB0006046401C8446029A2046C40FA6469418F9
:100EC0004041049A0546D20F224364466400D31A77
:100ED0008D417146002901D1A84202D928461A46FF
:100EE000641C10430122002800D016436102002038
:100EF000079B891904465C410223002C02DB491838
:100F000013466441089DCE0A2D145D194B056705F3
:100F1000E10A2C050D1908993E43C9076940002BC9
:100F200008D0934006D30022761C5141002B01D1FA
:100F3000760876001C4A002D43DB154241D0AA43B7
:100F40003FD030460BB0F0BD06180D464D41174C52
:100F50007642AC411AD395181C465C41134A6D4247
:100F6000A24113D3012252054C00D4420AD15C00A5
:100F7000D4420BD04B4002D592021143E2E7490024
:100F80004908DFE75940C90FC90718E000200849A0
:100F9000D8E7054801420DD10342F7D0F2E700003F
:100FA0000000FF07958400000000F07F0000E0FFD4
:100FB0000000F87F114859400143C0124140002011
:100FC000C0E70123089A9B069A4205DC03225207D8
:100FD0008918C90FC907B5E7052252078918074ABA
:100FE0001143D2125140ADE770B515461C4602467A
:100FF0000B4628462146FFF7DFFD70BDFFFFFF7F50
:1010000030B50346CA02400D1043164D164C0A1562
:1010100002D02043002A06DBAA1A002A12DDD040A3
:10102000FF2A0BDC30BD5205520D01D140004008B3
:10103000AA1A07D4D0404042FF2A01DD002030BD6B
:101040000028FCDD4A00002B01D0012000E0002038
:10105000101801225205D042F0D8C817C043604092
:1010600030BD00001E040000000000801F22030CA1
:1010700002D10F22000402D0030E03D004E00020AE
:10108000014670470002083A030F01D10001121F08
:10109000830F01D18000921E002801DB4000521E08
:1010A000120551184205C012411810467047C10F71
:1010B000C90700D04042012292071143D6E701211F
:1010C0008907D3E7F0B58B4C0F09254689B0BD439E
:1010D0007BD01D092646AE43FAD00E465E4027401F
:1010E000F60F3E43254071D024012142FBD0FF245E
:1010F000AD19A4042D1B039501252D05DB02DB0A88
:10110000C9022B43C90A29431E010901040F130F09
:10111000050121431701880B820391432D098C4659
:10112000A90B1E438A039543B30B9A0396433F09C9
:10113000BA0B9403A74302962E467E430497B64605
:101140004E19D7190C460196544305977E43371B19
:101150007646BF1B3601B646BE0B3619009676465C
:10116000BC043719009C01D3641C00946400002F58
:1011700001D001263443029E049F754366467E4398
:101180000496760034196E0034190094029C019E76
:101190001C196643751BAE46069465464519059CA9
:1011A00005956C43594375460891691A0191049E4F
:1011B00001465143A41B0491611A009C0791E1066A
:1011C00005D061090122114302E072E06EE061097D
:1011D000089D00272C0A2D066918049D7C412A0AC7
:1011E0002D066918019D6241AC0DAD026D18544188
:1011F000079A910D920255196141029A644658432B
:101200005443069B059A5A43121A131B9A0E9B01CC
:101210005B187A41010B0005C3185141220A2006D0
:1012200044195A419A4200D2491C0120400281428D
:1012300003D315230226F64302E014230326F643C4
:101240002020C51AA9401746AF40DA400A4320467D
:101250000399D8400914731819055118039A384393
:10126000D2075140AC4009D00122944006D300225D
:10127000401C5141002C01D1400840001E4A9342BD
:1012800012D3012203989206904207DB0520400703
:1012900009181A480143C012414004E003204007E6
:1012A0000818C10FC907002009B0F0BD0020F107E0
:1012B000FAE705180C464C4111486D42A04115D380
:1012C00094181A465A410E48644290410ED30120A8
:1012D0004A004005824209D35A00824206D359404F
:1012E000C90F084AC90700201143DDE7002006495D
:1012F000DAE700000000FF07FE070000FFFFFF7FA6
:101300000000E0FF0000F07F0000F87F0121C90528
:101310000123411842001B06D3185B0E0AD0C110EE
:101320000722D206891840075242D14201D5520005
:1013300089187047090208D50146002A03D0C10F59
:10134000C9070020704710467047420202D00020B3
:1013500002497047072109050143F4E70000F87FBF
:10136000F0B5FF252D04C609C209FF2704462E400B
:101370000137CB093E4348402A402B400746002A0C
:101380006BD0002B69D0AA4267D0AB4265D0002851
:1013900000DA32460125ED0529432C4309022002DB
:1013A000090AD21A4B0C7F24E31A434C000A7C44EE
:1013B000E35C7D242404121914145B00A2188842F3
:1013C00001D3521C00E0400049420C465C4324110A
:1013D0005C43DB016415E318040A5C43C502200D7D
:1013E0000C4644436419250A5D432303EC0C0D4667
:1013F000654300030019EB184C42A34201D35B186C
:10140000401CD4052018002B07D05B00C91804D35A
:10141000401C002901D1400840003F2189048A4234
:1014200009D3002A08DC1106090F04D0032149075B
:101430004018C00FC007F0BD0122410012068918F4
:101440007F2252069142F6D205214907C84201D5B2
:101450009010F0BDFF20C005F0BD002F00DA32462D
:101460001648AA4207D2AB4205D21902090E17D07C
:10147000F80FC007F0BDFF2563002D06AB42F9D879
:101480004900A942F6D8AB4201D1A942F2D0A94203
:1014900001D1002101E061004908D0050843F0BDF9
:1014A0001102090EFBD0FF200243D005F0BD0A4611
:1014B0000146104654E70000877D00000000C07F11
:1014C00010B501469E240002CA15A307002A02D0C7
:1014D0001843002A04DBA21A002A0CDDD04010BDFC
:1014E0001206120E01D140004008A21A03D4D040C7
:1014F00040420028F3DDFF2248001206904201D945
:10150000002010BDC817C043584010BD1F22030C57
:1015100002D10F2200041CD0030E01D10002083AB0
:10152000030F01D10001121F830F01D18000921E11
:10153000002801DB4000521ED2055118021251183A
:101540001922904004D3491C002801D149084900C0
:1015500008467047C10FC90700D0404201229207D8
:101560001143D3E701218907D0E770B504468569A7
:101570000068C10601D5302600E02026C00707D04C
:1015800070BD62683046A1689047206A401C2062A6
:101590006D1EF6D570BD70B5044685690078C0072C
:1015A00007D170BD6268A16820209047206A401C66
:1015B00020626D1EF6D570BD09684A0501D540B29E
:1015C0007047C905FCD500B2704709684A0501D5C6
:1015D000C0B27047C905FCD580B2704770B50C46E3
:1015E0000546012A05D02878800600D5EA6900233F
:1015F00002E0012305E05B1C934202D2E05C00287C
:10160000F9D1A869E618C01AA861286AC01828622A
:101610002846FFF7AAFF04E06A682078A968641CDE
:101620009047B442F8D32846FFF7B5FF70BDFFB529
:1016300004460D4681B0243000902168880604D508
:101640001022E0699143216000E00120A84201DD01
:10165000471B00E000270498A1697A191018081A9E
:10166000A0612078C00602D42046FFF77EFF002646
:1016700008E003986268A168805D9047206A401C7A
:10168000761C206204988642F3DB2078C0060AD5D7
:101690002046FFF76AFF06E06268A16830209047A5
:1016A000206A401C206238467F1E0028F4DC07E0D8
:1016B00000986268A168405D9047206A401C2062E3
:1016C00028466D1E0028F3DC2046FFF764FF2078D3
:1016D000000602D5022005B0F0BD0120FBE711682D
:1016E0000268006A530501D5087009E0D30501D5E9
:1016F000088005E0130602D5C21705C100E00860A6
:1017000001207047FFB50C461E468FB003CA0890F3
:1017100009914F007D0D00D16D1E0021084600206B
:10172000C0460321099A89050840002A03DA82008D
:10173000801840080840800D01280A9002DD002032
:10174000C0430A90089807430DD0F048F049281884
:1017500048430714189800281DD07542291E1DDD26
:101760000A9842421BE01898012802D0002030213C
:1017700004E00020F24305E02154401CB042FBDBB2
:1017800030460022189B002121540F998B600A607B
:10179000486013B0F0BDBD1B6D1CDFE70A9A00293D
:1017A00000DA69420BA800F025FD0BAB07CB03ABB9
:1017B00007C30899099800F089FD6B4607C30146E5
:1017C000D4480918002D00910BDDD24903980A9ADC
:1017D00049424018002303A90390684600F0E6FF41
:1017E00008E003990A9A0023081803A903906846A1
:1017F00000F086FF6B4607C30004000C03D00020F6
:10180000C043410800E01046189A002A03D0002285
:10181000009215461EE0751E05D400F0CFFA303256
:1018200062556D1EF9D501220843079602D00022A9
:101830007F1C04E02078302801D100227F1E002A7E
:10184000069787D01EE0112D07DA00F0B7FA303284
:1018500062556D1C02460A43F5D1084303D0009837
:10186000002819D00EE00021681E05E0235C625CB0
:1018700063542254401E491C8142F7DBA81B401EC2
:1018800007950690079A18990020A0540F98079B77
:10189000069A81600CC07CE711260020189059E759
:1018A000D21DF0B50D460446D10893B0C90003C956
:1018B0000C900D9107F0DAF902460D98C00F01D097
:1018C0002D2007E02068810701D52B2002E040078A
:1018D000C00F4001032A0F9001D0072A05DB034601
:1018E0002946204600F014FC0EE12078800601D540
:1018F000E76900E006272846652D04D0662814D045
:10190000672D69D12DE00020112F009001DB1123FC
:1019100000E07B1C0CAA03A910A8FFF7F3FE1199A5
:10192000002610987D1C0E9142E001203B460CAA37
:10193000C0070B900120009003A910A8FFF7E2FE5A
:10194000119D12981099002600280E9501D1781C3F
:101950000D18781B02D446427D1C761EE81B0090B1
:101960003AE0012F00DA01270020112F009001DD5D
:10197000112300E03B460CAA03A910A8FFF7C2FE02
:1019800011993D46109800260E91217809070BD435
:101990000E99A94200DA0D4603A9012D04DD4A196A
:1019A000203AD27F302A06D0B84201DA011D04DA8B
:1019B000012100910FE06D1EEFE7002802DC86197F
:1019C0002D1A03E0411CA94200DD0D46801B401C7E
:1019D00000900120C0070B902078000705D40098E4
:1019E000A84202DB0020C043009069460020C87274
:1019F0000B98012102AF0337C907884225D0022086
:101A000010902B2011900B9800280BDA40420B907D
:101A10002D20119006E00B9800F0B8F930317F1EB0
:101A20000B9039701099481E00291090F3DC0B9828
:101A30000028F0D111987F1E38702088000501D54C
:101A4000452000E065207F1E387001A8C01BC01D26
:101A50000B900F98002800D0012041190098C01762
:101A600009180B980818A169081A401EA06120786F
:101A7000C00602D42046FFF778FD0F98002805D055
:101A80006268A1689047206A401C20622078C006E6
:101A900025D52046FFF769FD21E0002E07DB0E98D3
:101AA000B04204DD03A86268805DA16802E062685C
:101AB000A16830209047206A761C401C2062009864
:101AC000401E002800900AD100F074F9C0686268D6
:101AD0000168405CA1689047206A401C206228464B
:101AE0006D1E0028D9DC07E062683878A1687F1C89
:101AF0009047206A401C20620B99481E00290B90D9
:101B0000F2DC2046FFF747FD032042E601FCFFFF21
:101B1000104D0000E1DFFFFF01694A1C02610878F7
:101B2000704700B58FB002910021059105490193DE
:101B300079440391114604906846FEF763FC0FB0A8
:101B400000BD0000E5FFFFFF0CC908399A4202D230
:101B5000531C0B6010707047F7B50446154686B0ED
:101B60002B487844002703C83E460090019111E0BD
:101B700007986A467100415A02A800F067FE411CAE
:101B800007D02178890603D5E269391891420ED829
:101B90003F18761C2078800602D5E069B84206DD41
:101BA000AE42E5DB07987100405A0028E0D1A069F9
:101BB000C01BA0612046FFF7D8FC154878445A386E
:101BC00003C800900020019116E041006A46079882
:101BD000415A02A800F03AFE0590401C0AD00025A8
:101BE00005E0626802A8A168405D90476D1C0598F9
:101BF0008542F6D30498401CB0420490E5DB206A8D
:101C0000C01920622046FFF7C6FC09B0F0BD0000F5
:101C100016760000F7B5D21D0025D20815A6D20011
:101C2000F52905CA11D0002A05DA00214042914168
:101C300011A60A4608E0009909688B0701D50FA68E
:101C400002E0490701D50EA601251146009F002498
:101C5000243704E000F0B2F830323A55641C0246F2
:101C60000A43F7D12B46324621460098FFF7DFFCA6
:101C7000FEBD0000000000002D0000002B00000051
:101C80002000000070B504460021243408E0550708
:101C9000D2086D0F303565545D072A43DB08491CB7
:101CA00015461D43F3D10468002310A2250708D56B
:101CB00020252C400C4304D0C46901230CA2641ECF
:101CC000C461FFF7B4FC70BD10B50446214610682E
:101CD000FFF77BFC002302462046FFF7D3FF10BD31
:101CE000D21DD108C9000CC9CCE7000000000000DB
:101CF00030000000F8B50F460188090502D5224CD6
:101D00007C4402E0204C7C440E34054600212435FE
:101D100008E016071209360FA65D6E541E073243FF
:101D20001B09491C16461E43F3D1224604780023A2
:101D3000240705D5702F06D0002901D002231132C7
:101D4000FFF775FCF8BD01231032F9E770B50446C2
:101D50000D4621461068FFF738FC0023024629464D
:101D60002046FFF7C7FF70BDD21DD308DB000CCBA8
:101D7000C0E730B4036820241268234303600823BB
:101D8000C36130BC0023B5E78074000001468008C1
:101D9000081A02091018020A1018020C1018C008BC
:101DA000820012185200891A01E0401C0A390A29DF
:101DB000FBD2704700487047300020200B4670B5BA
:101DC000024689078008084319469D08141AA9414C
:101DD00025090807054308092C194841250A010669
:101DE0000D43010A2C194141200C0D0428430D0C10
:101DF00000194D41002140194D41C00869070843B1
:101E0000E908840F8D002543840024184D412419CE
:101E10006D41121BAB4107E00925ED432C1152190E
:101E200063410024401C61411C460A250026551BC5
:101E3000B441F1D270BD0000D21DF0B504460D468C
:101E4000D0088DB0C000466807683146384606F0B5
:101E50000DFF0246F00F01D02D2307E02068810717
:101E600001D52B2302E04007C00F43016846002B39
:101E7000037001D0012000E00020032A0A9001D065
:101E8000072A04DB2946204600F042F92DE120789C
:101E9000800601D40D2500E0E5697000400D0D2D90
:101EA00001904BDA300D00210B9008460020C0460F
:101EB000032189050840002E05DA82008018C20F30
:101EC0001018401008408015012801DD0020C04393
:101ED000A9000023182906D39C460A460123183A74
:101EE0001B07D34003E001221205CA4094460C317F
:101EF000202902D33A46203900E032468A400028A1
:101F000002DD002A06D119E0002817D10121C907F6
:101F10008A4213D3194663467F185E41002806D1D2
:101F20000120C007824202D1084687439E430B9896
:101F3000310D814202D00198401C0190208800059B
:101F400002D57149794402E06F49794419396B46E9
:101F50000A9830221A540A980A7C401C1A54401CD1
:101F60000A900198002801DC302000E0312018722E
:101F7000019A0120002A02D0644BD21804E07200BA
:101F80003A4302D0614A521C0192002D02DC2278B1
:101F9000120703D56A462E20507202200022864680
:101FA00094460CE032033601120F6D1E8B5C02AAC0
:101FB00013546246521C401C9446052A01DA002D37
:101FC000F0DC002202AE08E03B0F3F01CB5C521C6C
:101FD0006D1E3354401C082A01DA002DF4DC2368FE
:101FE0009A0601D511E0401E704504DD3218203AF2
:101FF000D27F302AF7D0002807DD3218203AD27F6E
:102000002E2A02D11A0700D4401E002D03DD3E22E5
:102010003254401C6D1E497C31540199401C0029EA
:1020200006DA2D21471C315401984042019003E00B
:102030002B21471C315401987D21C900884206DBC1
:10204000FEF71CFB3030F0557F1C019101E0642845
:1020500008DB01986421FEF711FB3030F0557F1C3E
:10206000019101E00A2806DB01980A21FEF706FB30
:102070003030F0557F1C01980A21FEF7FFFA30310D
:10208000F1550A98A1697F1C7A191018081AA061E5
:102090002078C00602D42046FFF767FA216A6E4610
:1020A0000A980818206204E062683078A168761CFB
:1020B00090470A98401E0A90401CF5D12078C0062F
:1020C00002D52046FFF751FA02AE09E03078761CBF
:1020D0003E280DD06268A1689047206A401C2062AB
:1020E0007F1EF3D22046FFF756FA0DB00320F0BD55
:1020F000206A4019206203E06268A168302090479E
:102100006D1EEDD3F8E700007772000001FCFFFFC1
:10211000F8B51F46044601230068DB02032601468A
:102120001840072A05DB002801D017A506E017A5EF
:1021300004E0002801D016A500E016A51020814378
:102140002160A069C01E002FA06101D0401EA061C7
:102150002046FFF70AFA002F09D038466268A168C6
:102160009047206A401C2062C01C206206E0206A62
:10217000FAE762682878A1686D1C9047761EF8D24D
:102180002046FFF708FAF8BD4E414E006E616E0022
:10219000494E4600696E660010B54369002B02D0B7
:1021A000C046C04601E0FFF719FA012010BD1278C1
:1021B000014624310A7000224A700122ECE71168BE
:1021C0000022D243E8E710B54369002B02D0C04695
:1021D000C04601E0FFF7C0FC012010BD1288014697
:1021E000243182840022C2840122ECE7116800229B
:1021F000D243E8E7F7B516468AB0334878446C46D0
:1022000003467C33C06F5A689B680DC42E487844DF
:10221000763003AC0DC80DC43720C0010818372133
:102220001B30FEF72BFA05460C46803D1B3C02D5C1
:102230006442012000E000200027099010E0E00740
:102240000CD00C2020497843794432464C3941184F
:102250006846012300F054FA6B4607C364107F1CE4
:10226000002CECD1184F7F442E3F16E0E80712D027
:102270002001C0190EC80691089307920068F04229
:1022800001D1981908903246012306A903A800F04D
:1022900037FA03AB07C36D10641C002DE6D1099813
:1022A000002806D032466946012303A800F07EFAD2
:1022B00005E001233246694603A800F021FA0A9B93
:1022C00007C30DB0F0BD0000D46F0000034640000E
:1022D0000A4610B5400D0BD00121C9070F24A402F6
:1022E00000191C0364082143540D2143D20207E066
:1022F00000210120F2E7D40F490021435200401E83
:102300000029F8DADB0FDB07184310BDFFB50D46D7
:10231000144685B04868516806F08FFC0091019022
:10232000A868A16806F089FC02910390A86861681A
:1023300006F083FC029A12188242029201D2012016
:1023400000E00020019A0B18D2180028019202D058
:102350008A4202D903E08A4201D2012000E0002033
:102360000099081800906868A16806F066FC029A57
:1023700012188242029201D2012000E00020019A4C
:102380000B18D2180028019202D08A4202D903E029
:102390008A4201D2012000E0002000990818009034
:1023A0002868216840004900400849084018FA4957
:1023B000471814E001994000C90F084300900198A4
:1023C00002994000C90F0843019002980399400008
:1023D000C90F08430290039840007F1E03900098A5
:1023E0000028E7DA0898002801D0EC4E00E000262B
:1023F000B74201DA012000E00020002804902AD032
:10240000F71BF806C00E15D0029B2021091A039A6B
:102410008B401A430392029A019BC2408B401A439D
:102420000292019A009BC2408B4000991A4301928C
:10243000C14000917B110DD06F460320C11A03D516
:1024400000218200B95003E08A008100BA587A5016
:10245000401EF3D5374603980299002800D001208A
:10246000014308980291002808460CD0002800D0AB
:1024700001200199019A490508430121D20AC902A4
:10248000D202019200E001210E9B0122D207012B12
:1024900002D0002B03D013E0002807D120E09042A7
:1024A00004D890420CD1019B0B4209D0019B5918D2
:1024B000019105D10099491C009101D17F1C009226
:1024C00000280DD0102108460020C046049800289E
:1024D00006D00F98002803D0082108460020C046E7
:1024E00028682168019B009A4840C10F0598C907D8
:1024F00039430EC009B0F0BDFFB587B0099A0898FE
:102500000899536892684068896896460022039348
:1025100017469446089A12685300099A5B08126895
:10252000520052089A1A9E4BD4180A9A002A01D0D7
:10253000352200E040220692002201231546049233
:10254000DB07059324E0002D05D175460346039E65
:102550004D1BB34109D375466646039B491B049D39
:102560009841059B7519AC465F4163463B4308D0D3
:10257000059B049EDD0776082E435B0804960593B1
:1025800001E0521E641EC50FED0749184041521C60
:10259000069B9A42D7DB002D04D17546039A6B1A2D
:1025A000824101D203200CE0039A0B466B4042406B
:1025B000134303D0014303D0012002E0022000E0D6
:1025C0000020614601910021009702910A9900299B
:1025D00005D0614640020143704B019102E0800743
:1025E000002302909C4201DA012000E00020070055
:1025F0003AD01A1BD006C00E15D0029D2021019C96
:10260000091AC5408C402543029C8C4000D001240F
:102610002543019C0295009DC4408D4000992C43A8
:102620000194C140009154111DD06D460221002239
:1026300002290CD10320001B07E0002804DB8600E0
:10264000AE59002E00D00122401C0328F5DB081BE8
:1026500002D588002A5004E08000285810438A00E0
:10266000A850491EE3D51C460A98002802980CD0B1
:10267000002800D001200199019A49050843012151
:10268000D20AC902D202019200E00121109B01226C
:10269000D207012B02D0002B03D013E0002807D172
:1026A0001FE0904204D890420CD1019B0B4209D00C
:1026B000019B5918019105D10099491C009101D144
:1026C000641C009200280CD0102108460020C0464F
:1026D000002F06D01198002803D0082108460020BA
:1026E000C04608980999019A009B0068096848400B
:1026F000C10F0798C907214382600AC00BB0F0BD23
:1027000000B585B0019300920A460146002302A855
:10271000FFF7FCFD02A807C805B000BDFFB50A46DB
:102720001F4685B00799019301230091014602A835
:10273000FFF7ECFD02990398049ECA0F4900D207E7
:1027400000920F22490892028C1A0021002800DB17
:102750000C46450013486D08844214D3079A002A9A
:1027600004DA441E0026104DF64302E004460D46EE
:102770000E46102108460020C046002F03D0042139
:1027800008460020C0462005E90A0843009908438E
:102790006905F20A1143ADE602C0FFFF013C0000EB
:1027A000FF3F0000FF070000FFFFFF7F00B585B07F
:1027B000019300920A460146002302A8FFF79CFEFF
:1027C00002A807C8A8E7FFB50A461F4685B00799C3
:1027D000019301230091014602A8FFF78DFE0299A3
:1027E0000398049ECA0F4900D20700920F2249089D
:1027F00092028C1A0021002800DB0C46450011488B
:102800006D08844214D3079A002A04DA441E002675
:102810000D4DF64302E004460D460E4610210846D3
:102820000020C046002F03D0042108460020C046E7
:102830002005E90A0843009908436905F20A114393
:1028400058E60000FF070000FFFFFF7FF8B51646BF
:102850000C46054600F0C2F80368FF200230C05C59
:10286000012807D0FF2C0FD8185D00280CD00120BC
:102870002C70F8BDFF333246214608331868C7185C
:1028800028460023B847F8BD0020C043F8BD00002B
:10289000F8B5264C4E00069DA6420AD8A64201D1A4
:1028A000002806D15E00A64203D8A6420AD1002A1B
:1028B00008D00D242404254233D02946002000F0FE
:1028C000F5F8F8BD0C461C4311D4994207D0C81A3C
:1028D00002D3EFF30080F8BDEFF30080F8BD801A5B
:1028E00002D3EFF30080F8BDEFF30080F8BD0924B8
:1028F0002407E5008B4207D0581A02D3EFF300807B
:1029000006E0EFF3008007E0101A03D3EFF3008036
:10291000A04303E0EFF30080A043284380F3008846
:10292000F8BD009500F0DAF8F8BD00000000E0FF07
:1029300010B5FF231B0644009C421DD84C009C424E
:102940001AD80346124A0B4307D4401A02D3EFF3B6
:10295000008010BDEFF3008010BD081A03D3EFF321
:102960000080904305E0EFF3008001219043C90708
:10297000084380F3008810BD0D231B041A4204D0C5
:102980001146002000F092F810BD00F0B1F810BD23
:102990000000009000487047100020207546FFF7A7
:1029A000F9FFAE46050069465346C008C00085469B
:1029B00018B020B5FDF78CFC60BCB6460026002799
:1029C000C0C5C0C5C0C5C0C5C0C5C0C5C0C5C0C5DF
:1029D000403D490849008D467047000010B5FFF79B
:1029E000E9F9001D10BD00BF5D63000010B504468D
:1029F000C046C0462046FDF741FC10BD82078B074C
:102A00009A423FD170B5920F0AD0032402780B7816
:102A1000401C491C002A33D09A4231D12042F5D1C2
:102A2000214EF40104C808C9951B9543254018D1CF
:102A30009A420FD104C808C9951B9543254010D16F
:102A40009A4207D104C808C9951B9543254008D16F
:102A50009A42E7D012BA1BBA01209A4200D24042F1
:102A600070BD12BA1BBA2DBA18241000E04019002C
:102A7000E140401A05D12E00E64002D1083CF4D1D5
:102A8000D01A70BD02780B78401C491C002A09D06E
:102A90009A4207D102780B78401C491C002A01D0C9
:102AA0009A42EFD0D01A704701010101C80212D535
:102AB0004803400F002804D0C803C04301218840C8
:102AC0007047EFF300800001000903210907084364
:102AD00080F30088704700207047000010B5002088
:102AE0000249029A00F00CF810BD00000000F87FC7
:102AF00010B5024800F004F810BD00000000C07FCF
:102B000010B50C461107090F092904D00A290AD06B
:102B100008290CD104E011460820FFF7C7FF06E0A2
:102B2000510606D501E0510601D50120C007214616
:102B300010BDD10607D501010909CC084907000ECF
:102B40000006044309E0410F20024907000A01433F
:102B5000200E00061D22D14101430846E7E7000090
:102B600001491820ABBEFEE72600020070470000B6
:102B7000FF20000207490A6882430120C303D218DC
:102B80000A608102044A13680B431360400303493F
:102B9000086070470CE400E02810104000E100E0FD
:102BA000F0B597B0674908703138472800D92CE153
:102BB0004000C04678448088400087442801D40102
:102BC0007E01260126012601260126012601260175
:102BD00026012601260126012601260126012601BD
:102BE00026010701260126012601260126012601CC
:102BF00026012601260126012601E70026012601DD
:102C00004700C50026012601260181002601260174
:102C1000260126012601260126012601260126017C
:102C2000260126012601260126012601260126016C
:102C3000260126012601260126012601260126015C
:102C40004700C5002601260126018100F748012121
:102C50000170F74C53272046394600F015FC7921C6
:102C6000204600F011FC7321204600F00DFC742575
:102C70002046294600F008FC65262046314600F033
:102C800003FC6D21204600F0FFFB2021204600F0D0
:102C9000FBFB2046394600F0F7FB2046294600F0B2
:102CA000F3FB6121204600F0EFFB7221204600F08B
:102CB000EBFB2046294600F0E7FB2046314639E091
:102CC000F34800210170DA4C53262046314600F0CB
:102CD000DBFB7921204600F0D7FB7321204600F072
:102CE000D3FB74272046394600F0CEFB65252046ED
:102CF000294600F0C9FB6D21204600F0C5FB2021CC
:102D0000204600F0C1FB2046314600F0BDFB2046C6
:102D1000394600F0B9FB6F21204600F0B5FB702664
:102D20002046314600F0B0FB2046314600F0ACFBB7
:102D30002046294600F0A8FB6421204600F0A4FBB1
:102D4000212165E120022020A820BB490958BB4A67
:102D50001058CF4A1378B74A127800920191029026
:102D600003AC5021B64A2046FDF7F6FA2078002839
:102D70004BD003A94D1CAE4CC1B2204600F084FBE1
:102D8000691C287800280D46F6D13EE0C14C6068E9
:102D9000AC4906F01FF86060FEF7B8FA00900191A8
:102DA00003AC2021A84A2046FDF7D6FA2078002857
:102DB0002BD003A94D1C9E4CC1B2204600F064FBF1
:102DC000691C287800280D46F6D11EE0B14C6068D9
:102DD0009E4905F0FFFF6060FEF798FA00900191B0
:102DE00003AC2021984A2046FDF7B6FA2078002847
:102DF0000BD003A94D1C8E4CC1B2204600F044FB01
:102E0000691C287800280D46F6D117B0F0BD894816
:102E100001210170864C5321204600F035FB7021C2
:102E2000204600F031FB65262046314600F02CFBA1
:102E30002046314600F028FB64272046394600F042
:102E400023FB20252046294600F01EFB4721204673
:102E500000F01AFB7221204600F016FB612120468B
:102E600000F012FB2046394600F00EFB20463146AA
:102E700000F00AFB2046294600F006FB732120469D
:102E800000F002FB2046314600F0FEFA7426204690
:102E9000314600F0F9FA2046294600F0F5FA2046BE
:102EA000314600F0F1FA6F21204600F0EDFA20469D
:102EB000294600F0E9FA3121AAE05E4803210170B9
:102EC0005B4C5321204600F0DFFA7021204600F0D1
:102ED000DBFA65262046314600F0D6FA2046314618
:102EE00000F0D2FA64272046394600F0CDFA2025BA
:102EF0002046294600F0C8FA4721204600F0C4FACF
:102F00007221204600F0C0FA6121204600F0BCFA90
:102F10002046394600F0B8FA2046314600F0B4FAAF
:102F20002046294600F0B0FA7321204600F0ACFAA2
:102F30002046314600F0A8FA74262046314600F0BB
:102F4000A3FA2046294600F09FFA2046314600F0B9
:102F50009BFA6F21204600F097FA2046294600F0A0
:102F600093FA332154E0334802210170304C53214D
:102F7000204600F089FA7021204600F085FA652687
:102F80002046314600F080FA2046314600F07CFAB7
:102F900064272046394600F077FA20252046294646
:102FA00000F072FA4721204600F06EFA72212046A6
:102FB00000F06AFA6121204600F066FA20463946A0
:102FC00000F062FA2046314600F05EFA20462946BB
:102FD00000F05AFA7321204600F056FA2046314696
:102FE00000F052FA74262046314600F04DFA204691
:102FF000294600F049FA2046314600F045FA6F2193
:10300000204600F041FA2046294600F03DFA3221E0
:10301000204600F039FA0D21204600F035FA0A2149
:10302000204600F031FA17B0F0BDC0462102202042
:103030000000104000002020EC022020A0032020EF
:103040003C9B0000CDCC4C3D6A9B0000CDCC4CBDE0
:1030500082B005F005FB01900C4C0D4F0D4D0E4E4E
:1030600005E001F083F901A80A2105F099FA20464C
:1030700000F058FE38780128F3D128462146324620
:1030800000F046FD01F094F9EDE7C046280220204B
:1030900021022020D002202026020000B0B50A78AC
:1030A000032313400B4A84580B4D2540EB18A924E9
:1030B00024061B198350072212064B681340112463
:1030C000240205599543EA18025100194978016113
:1030D000B0BDC04608080000FCFFFF00811E091FAC
:1030E00000BFFCD2704770B50A780C231A40012447
:1030F000240305196E689E43B2186A604978072256
:103100001140035993435918015170BDB0B51122B4
:10311000120283580C4C1C400B894D881D438B793F
:103120002B430A4D1D4063198350CB798C881C4377
:10313000097821435D239B001940801842689A4317
:1031400051184160B0BDC04680CCFFFF7F33000006
:1031500010B50122120383180C785C604978815005
:1031600010BD0000B0B53F231B04044C25689D43EF
:1031700008431043184028182060B0BD38010B40A8
:10318000F0B585B001221402344B19680494A143B0
:103190001960950348490E682E4208D10E682E42E8
:1031A00005D10E682E4202D10E682E42F3D0457E24
:1031B00015409E69964375199D612025455D03263E
:1031C0003540DF69B7437D19DD61254D2E68052740
:1031D0002F60476A3C681C627C685C62072434404C
:1031E0002C60C4697F252D02DE69AE436406640C41
:1031F0003419DC6150C805680095476885680195F9
:10320000C568029503929A69164D15402207120B64
:103210003403A4B2A2183A43009C2407240D14439B
:10322000019A1443029A1443007C20430E4A024040
:10323000501998611868049A104318600398400266
:103240000A68024208D10A68024205D10A680242AD
:1032500002D10A680242F3D005B0F0BD08010B406C
:10326000001340408D00F0FF72FF0F0010B51149B0
:10327000886001225305104804681C4208D1046884
:103280001C4205D104681C4202D104681C42F3D0E0
:1032900012040B6813430B600168C90608D4016867
:1032A000C90605D40168C90602D40168C906F3D568
:1032B00010BDC04604010B4004020B40F0B53C4A6F
:1032C00082183C4BC31808794E793B4D3B4C002E7D
:1032D00023D0202804D00526F601002803D003E0DF
:1032E000374E002800D18826576F2F403743576745
:1032F000976F2F4037439767566B26405663966B00
:10330000264096630026566596658F26F6435F68CD
:1033100037405F609F6837409F608E79096820283A
:103320000BD0002819D1491E5160D76E2F4088213B
:103330000F43D7661746703719E0491E5160D16EAA
:1033400029401F4F3943D166116F29403943116716
:10335000012149071B4D174609E049085160D76E06
:103360002F400521C9010F43D766174670373C68C7
:103370002C400C433C60D16A104C2140D162116B4F
:10338000214011630021D16411658F21C943D46F9D
:103390000C40D4671C680C401C600643BD203040C4
:1033A0001168094B0B40C018801C1060F0BDC0466E
:1033B000041800008418000024493E008888FDFF9E
:1033C00001040000FFFFFFCF4000FFCF10B507232F
:1033D0009B04194092008018024A84589C4361184B
:1033E000815010BD3018000010B5029CA4000019D7
:1033F00011431943014A815010BDC04650180000C6
:1034000092008018014A81507047C0461018000091
:1034100010B50122120383180C789C604B788350FE
:103420008978014A815010BD0C110000B0B51122FD
:10343000120283580124A34383508B780C881C43C9
:103440008B882343094C1C408358094D1D402B1980
:1034500083508B79CC791C43097A21437E23194010
:10346000801842689A4351184160B0BD1867000047
:10347000E798FDFF10B50122120383180C789C60B9
:103480004978815010BD00000D4A8018026812066C
:1034900008D50268120605D50268120602D5026830
:1034A0001206F3D481610168C90708D00168C90711
:1034B00005D00168C90702D00168C907F3D1704778
:1034C0000811000070B50D48322101600124A005EB
:1034D00038490860384D0026284631463246FFF705
:1034E0008FFFA00435490860284631462246FFF781
:1034F00087FF034801682143016070BD143100401B
:103500000418874080B5012807D11448002900DB42
:10351000103001229304036007E02648002900DAF6
:103520001030012292050260002208B20C49884244
:1035300000DC084600B27D21C900884200DB084655
:1035400001B2C9134840401A81B2C9087C2900D988
:10355000002081B21848FFF753FF80BD90320A4027
:1035600018FCFFFF80B5012804D101229004134903
:10357000086004E0012080050E49086000220E4822
:103580000021FFF73DFF80BD70B50124A00509496A
:103590000860094D0026284631463246FFF730FFC5
:1035A000A00406490860284631462246FFF728FF56
:1035B00070BDC04690120A4000008740A0320A4009
:1035C0008AB002F0A7FA1F269F4D3046294603F025
:1035D000FBFB00249DA320462146224603F0D4FF96
:1035E0002046294603F0F0FB0E219CA320462246EC
:1035F00003F0CAFF1A219BA32046224603F0C4FF12
:1036000026219AA32046224603F0BEFF322199A329
:103610002046224603F0B8FF3E2198A320462246CA
:1036200003F0B2FF4A2197A32046224603F0ACFFE5
:10363000582196A32046224603F0A6FF642198A3B2
:103640002046224603F0A0FF702197A32046224681
:1036500003F09AFF7C2196A32046224603F094FFB4
:103660008A2195A320460594224603F08DFFF5029A
:1036700006954CE021700698734F394603F0A4FB81
:1036800000942325642128460395059E324695A380
:1036900003F07AFF3046394603F096FB904F3888A6
:1036A000009070242846214632468F4B03F06CFF71
:1036B0007888009050252846214632468A4B03F0F0
:1036C00063FF388900907C24039821463246864B5C
:1036D00003F05AFF788900902846069D21465A4FEC
:1036E0003246814B03F050FF2846394603F06CFB0D
:1036F0007E480068FDF70AFE0090019128208A218B
:1037000032467BA303F040FF049804F0D1FB284627
:103710004D4903F059FB6A4F38683C24214605F0B7
:1037200091F9064638682146FCF79AFF0096019108
:103730006020059E3146324662A303F025FF2846ED
:10374000414903F041FBB025614F785F00902D2483
:103750000E21204632465F4B03F016FF5E4F785F26
:1037600000901A21204632465A4B03F00DFF1F20CD
:10377000354903F029FB564F386DFDF7A1FE05468C
:10378000786DFDF79DFE009501902621204632467A
:10379000524B03F0F9FE504F386DFDF791FE054690
:1037A000786DFDF78DFE0095019032212046049141
:1037B00032464A4B03F0E8FE3046234903F004FB4F
:1037C000A8254348405900903E2120463246414FAB
:1037D0003B4603F0D9FE4048405900904A2120461C
:1037E00032463B4603F0D0FE3D4800F0BDF907AC41
:1037F000267230213122C3070B4600D01346E371F5
:1038000083070B4600D51346A37143070B4600D52B
:103810001346637103070B4600D513462371C30695
:103820000B4600D51346E37083060B4600D51346BE
:10383000A37043060B4600D51346637040B20028C0
:1038400000DB17E7114615E7FFFF00003D3D3D2077
:1038500053595354454D203D3D3D00004C5F50575A
:103860004D3A0000525F50574D3A00004C5F5350A4
:10387000443A0000525F5350443A00004C5F544FAA
:10388000543A0000525F544F543A00002D2D2D2021
:103890004752415920384348202D2D2D000000006B
:1038A00042494E3A00000000302D313A000000003D
:1038B000342D353A000000005455524E3A000000B5
:1038C00054042020253032753A253032750000002E
:1038D000EC022020289B0000A00320202B9B00004E
:1038E0002802202025730000399B00005804202066
:1038F000252E32660000000010B5012801D00849CD
:1039000000E0064909684200154B9C5A9952091B70
:10391000002800D1494208B210BDC0460038094015
:103920000018094010B50120C1430B4A13680B4031
:103930001360131F00241C60136803431360074ABD
:1039400013680B401360111F0C6005490C804C80FC
:1039500011680143116010BD041809400438094082
:1039600022022020F0B587B0002854D000F0FCF8E7
:1039700006462A4841692A4805900020092529A4BD
:103980000690074601910291009609E000270290F7
:103990000596039806903846009E241D6D1E33D070
:1039A000012D09D0A91E3246CA40D10704D0216892
:1039B00005F010FA7F1CF0E7390601D10027ECE78B
:1039C000F9B206460846FDF7CDFD01463046FDF743
:1039D000C7FC0490019905F0EFFA06460120039018
:1039E000C00786433046059F394605F083F9411EDE
:1039F0008841069A51425141014300D13E46002977
:103A00000498C3D10298C1E706980028019803D012
:103A1000029807B0F0BD002007B0F0BDD002202012
:103A200000007A4400000CC20000C8C1000070C150
:103A30000000A0C00000A040000070410000C8418C
:103A400000000C4270B5002805D0034C0025034E41
:103A50006EC00560446070BD000096430000FA43EC
:103A6000F0B583B00291002801D0044600E03C4C40
:103A7000E168029D284605F0ADF90646E060276939
:103A8000394605F01FF900902168284605F03CFAF8
:103A900001900098002808D10120C0074740304617
:103AA000394605F004F9002801D1E7603E46656912
:103AB000029F67616068314605F026FA064638467F
:103AC000294605F079FA1149FDF74AFC0146A0683C
:103AD00005F01AFA05460198314605F07BF92946AA
:103AE00005F078F90546A469214605F0EBF80028B1
:103AF00008D10120C00744402846214605F0D7F8E8
:103B0000002800D12546284603B0F0BD0AD7233C43
:103B100070B51446002801D0054600E0104D084657
:103B2000FFF720FF01462846FFF79AFF05460D4E96
:103B300030602046FDF70EFD04462846214605F07C
:103B400049F90146002000F0CDFB3168204605F020
:103B500033FA0146012000F0C5FB306870BDC04655
:103B6000D002202058042020A021405C7047000093
:103B7000F0B58BB002920191A8210890FCF76EFD80
:103B80005748322101600F20C2430020099006E00F
:103B90009866099810300990121D00D199E002989A
:103BA00080180690078A019880180590008A87423D
:103BB0003C4600D30446089907928A1840210A928D
:103BC0005452874200D807466000C0190326314688
:103BD00004F038FF60210A9D6852780004940019AF
:103BE000314604F02FFF502168522F860698448AF0
:103BF0000598408A8442234600D3034642210A9A0C
:103C00005352844200D804466000C01831460396DF
:103C100026461C4604F016FF52210A9D685206945F
:103C2000600005968019039904F00CFF6221685228
:103C30003846FDF744FA06460F460498FDF73FFA6A
:103C400002460B4630463946FCF793FF07460D46C1
:103C500000242246234605F01FF806462046214947
:103C60003A462B46FCF7A8FF002E00D13146089AB1
:103C7000099BD2185166002E00D13046049210667E
:103C80000A98059941860846FDF719FA05460E4639
:103C90000698FDF714FA02460B4628463146FCF713
:103CA00068FF06460F462246234604F0F5FF054608
:103CB00020460C4932463B46FCF77EFF002D00D1E2
:103CC0002946049BD966002D079A00D060E7284654
:103CD0005EE7A1200121089A11540BB0F0BDC04647
:103CE0001411004000FEAF4080B588B004A90C4A12
:103CF0000A804A808A80CA800A814A818A81CA8170
:103D00007D2293006A46138053809380D380138171
:103D100053819381D381FFF72BFF08B080BDC0464C
:103D2000AC0D0000F0B58BB0064601273D024030D7
:103D300004903046803006903046A0300590002335
:103D4000A34C07960AE00720089BC01A4000C90848
:103D5000079E31525B1C082B00D1BEE0D9079D485D
:103D600010300029014600D09A4980220A60990744
:103D7000014600D597490D600893042B00D3954860
:103D800001210A91490201607D204001FFF7A6F957
:103D90000021099109E0904B1B689BB25918099BBF
:103DA0001B1D0993072A0746CDD2A2692A43A261A7
:103DB0008A4802680A9B1A43026042682A434260AA
:103DC000874A02E0121D012E10D023682B420DD12C
:103DD00023682B420AD123682B4207D15342534117
:103DE00026682E423E46EDD11E46EBE77A48026831
:103DF000A3692B43A361794803680A9E3343036098
:103E000043682B43436092B25118754A02E0121D79
:103E1000012E10D023682B420DD123682B420AD1EA
:103E200023682B4207D15342534126682E423E4617
:103E3000EDD11E46EBE768480268A3692B43A361F6
:103E4000664803680A9E3343036043682B4343601C
:103E500092B25118FB4A02E0121D012E10D02368C5
:103E60002B420DD123682B420AD123682B4207D164
:103E70005342534126682E423E46EDD11E46EBE7A3
:103E80003846EF4A1368A2692A43A261EB4E3268B2
:103E90000A9F3A43326072682A4372600322099E85
:103EA00032439BB25918E74B03E01B1D012F00D191
:103EB00071E726682E4200D06DE726682E4200D0BA
:103EC00069E726682E4200D065E75E425E412768BA
:103ED0002F420746E9D13746E7E73188049D288815
:103EE000814204D9059B18780A9A104306E0288A73
:103EF0008142059B03D218780A9A904318707488FF
:103F00006888844203D91A780220104305E0688A41
:103F1000844203D21878022290431870B288A8888D
:103F20008242009203D91A780420104305E0A88A3F
:103F3000824203D21878042290431870F288E888ED
:103F40008242019203D91A780820104305E0E88ADA
:103F5000824203D218780822904318703289288947
:103F60008242029203D91A781020104305E0288B70
:103F7000824203D21878102290431870728968899F
:103F80008242039203D91A782020104305E0688BFF
:103F9000824203D21878202290431870B289A889EF
:103FA0008242089203D91A784020104305E0A88B7A
:103FB000824203D21878402290431870F289E8892F
:103FC000824209920ED97F20C243187810430FE035
:103FD0003010004090120A408062554000110040AD
:103FE0006479FEFFE88B824203D21A787F2010406A
:103FF0001870328E0023914218460A931FD30594FD
:10400000881A80B2FDF75BF802460B46306E716E7F
:10401000FDF758F8054600268B4F0C4632463B46C6
:1040200004F03AFE002800D12E46002800D1274691
:1040300030463946FCF7E4FF079E0A9B059C308218
:10404000718E8C4218461DD3601A80B2FDF737F886
:1040500002460B46B06EF16EFDF734F805460C468D
:104060000026794F32463B4604F016FE002800D168
:104070002E46002800D1274630463946FCF7C0FFBF
:10408000079E0A9B7082B18E009A8A421846069C4F
:104090001ED3501A80B2FDF712F802460B46306F5D
:1040A000716FFDF70FF805460026674F0C46324644
:1040B0003B4604F0F1FD002800D12E46002800D137
:1040C000274630463946FCF79BFF079E0A9B069C15
:1040D000B082F18E019A8A4218461DD3501A80B2DE
:1040E000FCF7EDFF02460B46B06FF16FFCF7EAFFFD
:1040F00005460026544F059132463B4604F0CCFD60
:10410000002800D12E46002800D1059F30463946B0
:10411000FCF776FF079E0A9BF082318F029A8A4253
:1041200018461DD3501A80B2FCF7C9FF02460B4651
:1041300003CC083CFCF7C6FF05460026424F05911C
:1041400032463B4604F0A8FD002800D12E46002848
:1041500000D1059F30463946FCF752FF079E0A9B67
:104160003083718F039A8A4218461DD3501A80B249
:10417000FCF7A5FF02460B46A068E168FCF7A2FF2A
:1041800005460026304F059132463B4604F084FD3B
:10419000002800D12E46002800D1059F3046394620
:1041A000FCF72EFF079E0A9B7083B18F089A8A4204
:1041B00018461DD3501A80B2FCF781FF02460B4609
:1041C00020696169FCF77EFF054600261E4F0891B5
:1041D00032463B4604F060FD002800D12E46002800
:1041E00000D1089F30463946FCF70AFF079E0A9B1C
:1041F000B083F08F099981421DD3081A80B2FCF771
:104200005EFF02460B46A069E169FCF75BFF0746CB
:104210000C4600250C4E2A46334604F03DFD00288E
:1042200000D13D46002800D1264628463146FCF7FD
:10423000E7FE0346079EF3830BB0F0BD001100407C
:10424000806255406479FEFF00FEAF40F0B585B056
:10425000A420AE4D00242C502C656C652C70284693
:10426000A430446084608481184F049718480390F8
:104270003F200006029017480090281D02AE164B02
:104280002146324600F030FA04971448039041204A
:10429000000602901248009028465830314B2146C3
:1042A000324600F021FA984EB42230462946FBF7F8
:1042B000EBFF301D00F010FA3046583000F00CFAD9
:1042C000B0203452FFF760F905B0F0BDCDCCCC3D45
:1042D0009A99193E0000FA4300007A44CDCC4C3D37
:1042E0000080BB44F0B581B00E460446012801D0E1
:1042F000864F00E0844F1B4D3046294604F0E2FC17
:10430000002807D11849304604F0D1FC0028354672
:1043100000D1154D387801281AD000977A4E7B4F7E
:10432000012C01D0381D00E0301D00F0D5F9012C22
:1043300001D0384600E03046583000F0CDF9012C6D
:1043400002D0B0373E4600E0B036009F00203080FB
:1043500001203870012C01D06C4800E06A480565E6
:1043600001B0F0BD00803B4500803BC570B5B02575
:10437000664E0024745334703465301D00F0ACF97F
:104380003046583000F0A8F974532046FFF7EAF899
:104390005D4E745334703465301D00F09DF9304625
:1043A000583000F099F974530120FFF7DBF870BD25
:1043B000F0B583B000250121534C0846009109E077
:1043C000B0210022425200200299C90700990D46EF
:1043D00000D196E002902E460E403046FFF78CFA50
:1043E0000746002E01D1494900E02146A83108685E
:1043F000C0190860FDF7AEF8454904F085FD454950
:10440000FCF7AEFF0146002E03D14048AC303E4CD5
:1044100002E03D4C2046AC30019101603846FDF78A
:1044200099F80146002E00D1384C616520780228A9
:1044300019D001280DD00028334C19D10120054096
:10444000214600D1314900200865002D55D12F4962
:1044500054E0012005402C4C0FD12C48001D002DAC
:104460000ED022460DE00120054017D1274816E066
:10447000E8072046A4D12548A2E7201D002DF0D151
:10448000224A5032126800F047F8FDF719F8014649
:10449000002D01D11D482AE0204628E01A48583056
:1044A000002D03D11949A431174F02E0164F3946A8
:1044B000A4310A68019900F02FF80246002D384611
:1044C00000D112480265002D02D11048001D00E005
:1044D000381D616D00F020F8FCF7F2FF0146002D59
:1044E00003D10A48B0303C4602E03C463846B03082
:1044F00001803046FFF706F865E72146B0310880B5
:1045000061E703B0F0BDC046A0032020EC022020EC
:104510000000B44300D85647F0B583B0002828D037
:104520000446C2610162866AC662104604F044FD18
:104530000546676A6062A762207800284AD0012891
:1045400019D0022800D088E02846394604F034FD0E
:10455000616804F0D9FC0290E0630120C10728469D
:1045600000918843A16904F0C5FB002877D00020A2
:1045700079E00025ADE0206B616B6063A1632846A4
:10458000394604F019FD616804F0BEFC0290E06356
:10459000A168284604F0B8FC0190206438463946EA
:1045A00004F018FC0146284604F006FD014630469A
:1045B00004F010FC2063E16804F0A6FC054660648A
:1045C0000298019904F006FC294604F003FC014618
:1045D000A06C35E0206B616B6063A16328463946AF
:1045E00004F0EAFC064620636168284604F08CFC6F
:1045F0000290E063E168304604F086FC07466064A0
:10460000A068294604F080FC216C04F0E3FB054619
:1046100020646669314604F055FB002808D101206A
:10462000C00746402846314604F041FB002801D12E
:10463000266435460298294604F0CCFB01463846EC
:1046400004F0C8FB0546A0642669314604F045FB2A
:1046500000283CD00120C00732E0A56C39E0A168F9
:10466000284604F051FC01902064226B616B626368
:10467000A1633846394604F0ADFB0146284604F0F4
:104680009BFC0146304604F0A5FB2063E16804F082
:104690003BFC054660640298019904F09BFB0146CF
:1046A000284604F097FB0146A06C04F093FB0546F6
:1046B000A0642669314604F010FB002807D000985A
:1046C00046402846314604F0F2FA002801D1A6649B
:1046D0003546284603B0F0BD80B5002803D01C3015
:1046E0003021FBF7BBFF80BDB0B500280FD0002AFA
:1046F0000DD0049C1568456055688560017091680F
:1047000002460C321AC218303421FBF7A7FFB0BDA5
:10471000EFF309800E4A1168243808607346F8C028
:1047200044464D4656465F46F0C072B603F0CEFC96
:1047300062B6074A116808681430F0C8A046A94656
:10474000B246BB4680F309882438F8C81847C046EB
:10475000E405202000000000000000000000000030
:1047600004207146084203D0EFF30980044B184738
:10477000EFF30880024B1847C046C046C046C0460B
:10478000917C000080B50A480A49FEF741FE0A48BC
:104790001A49C1620022C267194B036001630749CD
:1047A0000A6003601849416005480121016080BD2D
:1047B00000000940929A000004180940841809403A
:1047C0000811094080B50A480A49FEF721FE0A4847
:1047D0000A49C1620022C267094B036001630949AB
:1047E0000A6003600849416008480121016080BDFA
:1047F00000200940959A0000043809400100020099
:104800001292001084380940FFFF0000083109406F
:1048100010B50124A0070549FEF740FC044800211B
:104820000160044801682143016010BD989A0000AE
:10483000801100400011004080B50E480E49FEF77F
:104840002DFC0E4841680E4A0A40112109045118F6
:10485000416081680B4A0A4001210B06D218826030
:10486000094A002313600423536002680A4302606C
:1048700080BDC04600200040A09A000000310040EA
:10488000FEFFECFFF8FFE0E08031004070B582B041
:104890001B4C1C492046FEF7BBFD1B492046FEF77A
:1048A0000DFD1A4801681A4A0A4002600025009569
:1048B000204629462A462B46FEF796FD20462946E5
:1048C0002A46FEF783FD204629462A46FEF798FD34
:1048D00001260096204629462A462B46FEF784FDEF
:1048E000204629463246FEF771FD204629463246CB
:1048F000FEF786FD074886600321016002B070BDA7
:1049000000008740A89A0000AC9A00000418874075
:104910007F00FFFF00118740F0B581B0444C892033
:10492000A06001273807434B1860434D8B2000904F
:104930006861380418608420E86339053F4A1160D3
:10494000A8657A061A603E4E8520B0623D49042370
:104950000B60306310230B6030620F60A861780435
:104960003449086038494B1CAB662B630B1DE3656B
:104970000B460A3363663548801C20602368236039
:104980006060606860602068104320606068104369
:10499000606082202064481E60648620A066C81C77
:1049A000E0660098E063A063216583202860E067EB
:1049B000A16781206067206330657065A86420610D
:1049C000224A326031683160726071687160B2642D
:1049D000B16CB164F264F16CF1646864311F086019
:1049E0006865A86068662866A863E8626063A0647A
:1049F000E064104A104630381549016010464038CE
:104A0000B9070160134810600C4A1046303812494B
:104A10000160104640381149016011481060094A90
:104A200010464038032109020160116001B0F0BD59
:104A300004804240D0120A4084804240D0320A4072
:104A400008814240D0520A408300040081000C00DB
:104A500080234001802340410200441C002080004C
:104A60000220C41C10B50D4C0D492046FEF770FB0A
:104A70000C492046FEF74AFB0B484168AB4A0A4006
:104A8000111D4160816812220A432D218A438260F0
:104A9000016801220A43026010BDC04600A04640E2
:104AA000B49A0000B69A000004B1464080B511489F
:104AB0001149FEF718FB03204102104802680A431F
:104AC000026001210A02036813430360002242616D
:104AD00027224262826B07239A4382631A02836B06
:104AE00093438363826A042313438362826A0A4383
:104AF000826280BD00000F40C09A000000120F408B
:104B0000094855490A68024082420BD00A680240AF
:104B1000824207D00A680240824203D00A680240FB
:104B20008242EFD17047C046000A2000F0B585B040
:104B30001F200006204A11688143116001242105CD
:104B4000A20400200391FEF70DFB1C481C490160E4
:104B50000494660642241B4D3F4F3868304204D10E
:104B60002846FEF7BBFA641EF7D11348806902900D
:104B700004980204002001900399FEF7F3FA0F480D
:104B80000F49016042243868304204D12846FEF7BC
:104B9000A5FA641EF7D11735029845430648816986
:104BA000284603F04FFF084940180F2801D3019809
:104BB0000490049805B0F0BD38010B402C030B4065
:104BC0000100000ED103000043F6FFFFF0B581B0F5
:104BD0001E48012505600F2000021D4C21688143FD
:104BE0006E02881920600320C043211F0A6802401A
:104BF0000A601848FEF7C4FAFFF798FF00280AD0A9
:104C00002068102101432020814321600020FEF70D
:104C10002DFB01B0F0BD104F03E0FFF787FF002828
:104C2000EED128026168814361606168014361607F
:104C300038683042F1D138683042EED138683042BD
:104C4000EBD138683042F3D0E7E7C04608030B40A9
:104C500004010B40C49A000004020B4070B582B0FE
:104C60001B4C1C492046FEF7D3FB1B492046FEF790
:104C700025FB1A480168ED4A0A40026000250095AC
:104C8000204629462A462B46FEF7AEFB20462946FB
:104C90002A46FEF79BFB204629462A46FEF7B0FB34
:104CA00001260096204629462A462B46FEF79CFB05
:104CB000204629463246FEF789FB204629463246E1
:104CC000FEF79EFB064886600321016002B070BDBE
:104CD00000208640EC9A0000F09A000004388640DC
:104CE0000031864010B50D4C0D492046FEF730FAD4
:104CF0000C492046FEF70AFA0B4841680B4A0A4065
:104D0000111D4160816812220A432D218A4382606D
:104D1000016801220A43026010BDC046008046407F
:104D2000F89A0000FA9A00000491464000FCFFFF48
:104D300010B5194C19492046FEF79CFB184920462E
:104D4000FEF774FB0320C103164802688A43026021
:104D50000169344A0A402B32026141691A220A432E
:104D600025218A434261426801210A4043688B43FE
:104D70009A1842604A04036813430360C2687023B0
:104D80001343C360C2680223134305229343C360E5
:104D900002680A43026010BD00205040049B0000DE
:104DA000069B00000031504010B51A4C1A492046AD
:104DB000FEF760FB19492046FEF738FB0320C103CC
:104DC000174802688A4302600169164A0A40412175
:104DD00089005118016141691B220A4324218A4339
:104DE0004261426801210A4043688B439A1842603D
:104DF0004A04036813430360C26870231343C3600B
:104E0000C2680223134305229343C36002680A4326
:104E1000026010BD00001040109B0000129B0000BB
:104E2000001110400000FFFF80B500F037F8FFF7D9
:104E300073FDFFF7CBFEFFF711FFFFF727FD00F033
:104E40008FF8FFF79FFCFFF7BDFCFFF72FFEFFF782
:104E5000ABFFFFF76DFFFFF745FFFFF703FEFFF71F
:104E6000EBFCFFF7D5FCFFF74BFEB820064900220C
:104E70000A5406490A549C2005490A54242005492D
:104E80000A5405490A5480BD5C0420203C012020BE
:104E900074002020F801202014012020F0B581B0FA
:104EA0001E481F4A42601F4842601F4842601F4818
:104EB00042601F4842601F4842601F4842601F48CE
:104EC00042601F4842601F4E72601F4D6A601F4C57
:104ED00062601F4B5A601F494A601F4842601F4A68
:104EE0000E4F3A600F4F3A600F4F3A600F4F3A60E3
:104EF0000F4F3A600F4F3A600F4F3A600F4F3A60D2
:104F00000F4F3A6032602A6022601A600A600260C5
:104F10001020FEF7E3F801B0F0BDC04600080A40DB
:104F2000030000B100280A4000480A4000288640DB
:104F30000008874000088640000809400028094012
:104F400000080F40000810400028504000884640EC
:104F500000A846400028004000080040010000264C
:104F6000F0B581B02D4C2E492046FEF751FA2D495F
:104F70002046FEF7A3F92C4801682C4A0A4002603B
:104F800000250095204629462A462B46FEF72CFA96
:104F9000204629462A46FEF719FA204629462A467F
:104FA000FEF72EFA01260096204629462A462B4671
:104FB000FEF71AFA204629463246FEF707FA20463F
:104FC00029463246FEF71CFA02270097204629465A
:104FD0002A462B46FEF708FA204629463A46FEF7AF
:104FE000F5F9204629463A46FEF70AFA03270097C4
:104FF000204629462A462B46FEF7F6F92046294642
:105000003A46FEF7E3F9204629463A46FEF7F8F914
:10501000074886600F21016001B0F0BD00008640A6
:105020001C9B0000209B0000041886407F00FFFFAF
:105030000011864082B003F013FB0190084C094D2B
:1050400003E001A80A2103F0ABFA2068401C2060AD
:105050006428F6D3002020602868401C2860F0E710
:10506000700020205404202010B502F01DFD0446DD
:1050700003F0FAFA002803D0012000070249086073
:10508000204602F03EFD10BD04ED00E010B50748DB
:105090000068C0B20B2808D1054C2068400704D432
:1050A000E069C0B2FDF77CFDF7E710BD20101040AD
:1050B00008111040A34801680020002900D0704763
:1050C000094909680029FAD1084909680029F6D177
:1050D0009D480068B9490968491E884201D00120ED
:1050E000704702207047C0467C4120202441202088
:1050F00082B0FFF799FE00F0E5FD1D48FEF7F4FDD4
:105100001C481D491D4A1E4BFEF79CFCFEF70AFC7D
:10511000FEF7D8F9FFF79AF8FDF72AFD00240320DF
:105120000090019401267502164817A12A462346CD
:1051300003F0CEF9012817D1022000900194154800
:1051400015A12A46234603F0C3F901280DD1009684
:105150000194144814A12A46234603F0B9F9012802
:1051600004D102F01FFFFEE7FEE7FEE7FEE7C046C0
:1051700028022020D00220200000A040CDCCCC3D31
:105180000AD7233C5130000043686173736973543C
:1051900061736B003550000053656E736F7254611C
:1051A000736B0000C1350000446973706C61795401
:1051B00061736B00F0B583B00F460646AC480568D6
:1051C000624800680290624800680190A64C20681E
:1051D000001D02F06DFC701C15D1002F13D020684B
:1051E00059490CC9836098682568E860521C0839E1
:1051F0000A602268121D42602068001D98602068C5
:10520000416103B0F0BDAE19206846602068011D01
:10521000AE4204D2019802F082FC03B0F0BD0298C5
:1052200002F07DFC914801688E4200D2066003B016
:10523000F0BDC046F0B581B0044602F08FFC5F4877
:105240000168491C0160884F396800290AD03A4832
:105250000068002847D1E06A3968C96A814242D8AB
:105260003C6040E03C60006801283CD17D4D284610
:1052700002F04AFC2846143002F046FC284628304A
:1052800002F042FC28463C3002F03EFC28465030FA
:1052900002F03AFC2846643002F036FC28467830AA
:1052A00002F032FC28468C3002F02EFC2846A0305A
:1052B00002F02AFCB435284602F026FC1F4D284691
:1052C00002F022FC1E4E304602F01EFC1D4802F089
:1052D0001BFC394802F018FC1B4802F015FC1B4867
:1052E00005601B4806601B480168491C6164016039
:1052F000E06A5B490A68904200D908601421414382
:1053000058484258521C425040184168A1608A686F
:10531000E2606061201D5060886002F029FC064850
:105320000068002806D0E06A3968C96A814201D263
:1053300002F070FD01B0F0BD3C412020DC40202097
:10534000F04020202841202048412020EC0520204A
:10535000F4052020DC372020F0B581B0154D2868F9
:10536000002823D0144E154F05E0204602F012FC11
:10537000286800281AD002F0F1FBF068C468201DEC
:1053800002F096FB3868401E38602868401E28608E
:1053900002F0EEFB6520205C0228E9D00128E4D071
:1053A000002805D1206B02F0F5FBDEE701B0F0BD6F
:1053B00072B6FEE7D43720205C412020D037202071
:1053C0000124274D274E284F01E003F047FAFFF74D
:1053D000C3FF2868411E88413168012901D8002196
:1053E00000E001213A68D26A002A224600D10A462A
:1053F000002A214600D101460029E8D11B48006857
:105400001B490968401A0228E1D31A490868401C60
:105410000860164800681649096888421ED3286843
:10542000411E88413168012901D8002100E0012195
:105430003A68D26A002A224600D10A46002A21464A
:1054400000D101460029C0D1084800680849096810
:10545000401A0228B9D302F03BFCB6E772B6FEE769
:10546000E0372020FC052020E405202014412020E6
:1054700070412020D8372020F0B583B002930F462A
:1054800001900A9C206B9600A5223146FBF7BFF8DD
:10549000206B089D002F41D0214634313A780A70A4
:1054A000002A39D07A784A70002A35D0BA788A70C2
:1054B000002A31D0FA78CA70002A2DD03A790A71C0
:1054C000002A29D07A794A71002A25D0BA798A71BE
:1054D000002A21D0FA79CA71002A1DD03A7A0A72BC
:1054E000002A19D07A7A4A72002A15D0BA7A8A72BA
:1054F000002A11D0FA7ACA72002A0DD03A7B0A73B8
:10550000002A09D07A7B4A73002A05D0BA7B8A73B5
:10551000002A01D0FA7BCA730022CA730A2D01D374
:1055200072B6FEE78019061F07208643099FE564CF
:10553000E562201D02F0F0FA2046183002F0ECFA85
:105540000A20401BA0616462246130460199029ADE
:1055500000F082FA2060002F00D03C6003B0F0BD64
:10556000F0B583B0044603F07BF8224A1168884204
:1055700031D201940290AA4C07E029462831FA2240
:1055800010400870296A2846884720680168002969
:1055900023D0C0680768C5682E1D304602F088FA1F
:1055A0002820285C4107E8D5A869C4196C602D61E2
:1055B000BC4209D3296A28468847A869001968604F
:1055C0002D61A0420446F5D296480068314602F0AB
:1055D000A6FA934CD6E7002107E092490A682260B8
:1055E000086001210298019C024A1060216003B00A
:1055F000F0BDC046E005202081B0002000900A48A0
:10560000006872B6401C09D0FEE70098002808D157
:105610000098002805D10098002802D100980028A1
:10562000F3D001B07047C0460800202086B07E4EFF
:105630007B4800680568002D02D0C068076800E05C
:10564000002702F03DFD03A8FFF78AFF04460398F8
:10565000002802D003F002F947E0002D28D0A7422D
:1056600026D803F0FBF86E480068C068C568281D9E
:10567000019002F01DFA2820285C41070CD429462D
:105680002831FA22104008702CE0E11B814223D31C
:10569000296A284688473746A869C6196E602D6171
:1056A000A642F2D9BC4201D2BE42F1D25C4814E01B
:1056B000002D01D0002204E05A48006800684242F0
:1056C0004241391B306802F0B1FB03F0C7F80028F3
:1056D0000BD102F09FFB08E052480068019902F0EC
:1056E0001EFA514E296A28468847002205920492E4
:1056F0000392306803A906E0386802F010FA4A4EB7
:10570000306803A9002202F0F6FD002890D003982B
:105710000028F5D4059C002CF2D06069002802D046
:10572000201D02F0C5F902A8FFF71AFF05460398ED
:10573000401E0828E4D8C0467844007940008744D9
:10574000040438235504043823002820225C012156
:1057500011432154A069049BC61866602461211D71
:10576000AE4205D99D422E4FC6D29E4204D2C3E717
:10577000EB1A83422B4FBFD3530720D42046283047
:10578000FA210A4002703EE02820215C01220A43EF
:1057900022540498A06100283FD040196060246121
:1057A000A8421F4800D81F480068211D02F0B7F921
:1057B000A6E72820215CFE220A402254A0E701919E
:1057C0000499091807E0691A814217D3216A204613
:1057D0008847A06931460E1866602461AE42F2D94E
:1057E0008D4201D28E42F1D20D4808E02820205C83
:1057F00081070DD4204602F0CDF981E70948006801
:10580000019902F08CF9084E216A2046884777E713
:105810002834FE210840207072E772B6FEE7C046C9
:10582000E8052020F805202074412020F0B581B043
:1058300004460646443602F091F901203756012FFE
:1058400012DB2546243504E0781E79B2012907468B
:105850000ADD2868002807D0284602F09DFF0028AE
:10586000F2D002F06BFBEFE7FF25757002F080F9D4
:1058700002F074F900203756012F11DB103404E0D8
:10588000781E79B2012907460ADD2068002807D072
:10589000204602F081FF0028F2D002F04FFBEFE734
:1058A000357002F065F901B0F0BD0000F0B583B0CD
:1058B00001460831002509290BD30722034613406E
:1058C00006D0093B994204D890431030054600E0C9
:1058D0000D4602F0F5FB59490E68002E02D05848DB
:1058E00003681BE0574C002060600722D343564EEC
:1058F0007207324601D0F21D1A40226003242403AD
:1059000034191C40083C0C6020606060A31A53608E
:105910004E4803604A4803600E6816600122002466
:105920009D42104600D820460093012D114600DB11
:105930002146014305D002F091FF600737D072B6CF
:10594000FEE7434840490F183E4802900068B842BD
:1059500001D8002100E001213B4B9842134600D3BF
:105960000B46002B01D072B6FEE743680024AB4221
:1059700020D20168002937D002900846B94201D8E8
:10598000002100E00121304B9842134600D30B4622
:10599000012B35D04368AB4201D3002100E0012147
:1059A0000191AB4207D201680029E5D103E020460E
:1059B00003B0F0BD0194B042BDD0029E34680834FB
:1059C000BC4201D8002100E001211F4FBC4200D39E
:1059D0000A46012A01D172B6FEE701683160019AD8
:1059E000002A05D072B6FEE70192B042E5D1A2E7E7
:1059F0005A1B102A06D943195E0706D072B6FEE775
:105A000072B6FEE74568009905E006C30299083BB7
:105A10000B600B490968491B094A11600B4A13685E
:105A2000994200D2116000210122D207154322C001
:105A300008480168491C01607DE7C046F005202048
:105A40000441202040412020C80720201041202070
:105A5000FF2F00001C4120200346083B1960011F56
:105A600001231B060B6001460C391D4B0B600146E0
:105A700010391C4B0B60014614391B4B0B6001465F
:105A800018391A4B0B6001461C39194B0B60014643
:105A900020390A6001462439164A0A60014628392D
:105AA000154A0A6001462C39144A0A600146303909
:105AB000134A0A6001463439124A0A6001463839ED
:105AC000114A0A6001463C39104A0A6001464039D1
:105AD0000F4A0A6044380221C94301607047C0463A
