:020000040000FA
:10000000381E2020F9010000FD010000FF01000062
:1000100000000000000000000000000000000000E0
:100020000000000000000000000000004117000078
:100030000000000000000000F11600004520000054
:10004000070200000702000007020000070200008C
:10005000070200000702000007020000070200007C
:10006000070200000702000007020000070200006C
:10007000070200000702000007020000070200005C
:10008000070200000702000007020000070200004C
:10009000070200000702000007020000070200003C
:1000A000070200000702000007020000070200002C
:1000B000070200000702000007020000070200001C
:1000C00000F002F800F06CF812A030C808382418CC
:1000D0002D18AC4201D100F063F80FCCA246AB461C
:1000E0000CA730CF2D1B083F3F197C427F1E544484
:1000F0002D090426F441641EAC4201D300F050F8EF
:100100000126334200D0FB1A3343984754465D46DC
:10011000DFE700008C520000AC520000000000003D
:10012000103A02D378C878C1FAD8520701D330C840
:1001300030C101D504680C60704700000000000069
:100140007047000000000000002300240025002666
:10015000103A01D378C1FBD8520700D330C100D583
:100160000B60704710B5662902D105F077F810BD15
:10017000642902D100F06EF810BD752902D100F09B
:1001800069F810BD002010BD1FB500F079FC040017
:100190000020002105F04CF8E0601FBD10B510BD37
:1001A00001F024F81146FFF7EFFF01F07BFF01F0AB
:1001B0003CF803B4FFF7F2FF03BC01F097F800002E
:1001C00070B505460C46164602E00FCC0FC5103E32
:1001D000102EFAD2082E02D303CC03C5083E042EFB
:1001E00007D301CC01C5361F03E021782970641CB8
:1001F0006D1C761EF9D270BD06480047FEE7FEE78B
:10020000FEE7FEE7FEE7FEE703480449024A044B27
:1002100070470000C100000038162020381E202042
:10022000381620204343514330B55C18010C130CA1
:100230000D4692B25D4380B251432C190546554399
:100240000A0C09044D1962415843010C000440197D
:10025000514130BDF7B5002575291068009914A6E5
:1002600011D0C046C046002802DA404211A608E07C
:10027000009909688A0701D50FA602E0490704D54D
:100280000EA6012501E0C046C046009F0024243789
:1002900004E000F0E1FB30313955641C0028F8D14E
:1002A0002B4632462146009800F073F9FEBD00004F
:1002B000000000002D0000002B00000020000000C6
:1002C000F8B5042A2CD3830712D00B78491C03708D
:1002D000401C521E83070BD00B78491C0370401C36
:1002E000521E830704D00B78491C0370401C521E19
:1002F0008B079B0F05D0C91ADF002023DE1B08C91E
:100300000AE0FFF75DFFF8BD1D4608C9FD401C4629
:10031000B4402C4310C0121F042AF5D2F308C91AA6
:10032000521EF0D40B78491C0370401C521EEAD4B4
:100330000B78491C0370401C012AE4D40978017031
:10034000F8BDD2B210B513029A1813049A1800F02F
:1003500001F810BD01E004C0091F0429FBD28B077E
:1003600001D50280801CC90700D0027070470029A7
:100370000BD0C30702D00270401C491E022904D3CF
:10038000830702D50280801C891EE3E70022EEE786
:100390000022DFE7002203098B4273D3030A8B425A
:1003A00058D3030B8B423CD3030C8B4221D312E076
:1003B00003460B437FD4002243088B4274D30309C6
:1003C0008B425FD3030A8B4244D3030B8B4228D367
:1003D000030C8B420DD30902FF2212BA030C8B428D
:1003E00002D31212090265D0030B8B4219D300E02D
:1003F000090AC30B8B4201D3CB03C01A5241830BB2
:100400008B4201D38B03C01A5241430B8B4201D361
:100410004B03C01A5241030B8B4201D30B03C01A8A
:100420005241C30A8B4201D3CB02C01A5241830A04
:100430008B4201D38B02C01A5241430A8B4201D333
:100440004B02C01A5241030A8B4201D30B02C01A5D
:100450005241CDD2C3098B4201D3CB01C01A5241C4
:1004600083098B4201D38B01C01A524143098B424D
:1004700001D34B01C01A524103098B4201D30B0136
:10048000C01A5241C3088B4201D3CB00C01A52415B
:1004900083088B4201D38B00C01A524143088B4220
:1004A00001D34B00C01A5241411A00D201465241B9
:1004B000104670475DE0CA0F00D04942031000D3D8
:1004C000404253409C46002203098B422DD3030A2D
:1004D0008B4212D38901FC2212BA030A8B420CD33D
:1004E000890192118B4208D3890192118B4204D366
:1004F00089013AD0921100E08909C3098B4201D3E6
:10050000CB01C01A524183098B4201D38B01C01A1F
:10051000524143098B4201D34B01C01A5241030996
:100520008B4201D30B01C01A5241C3088B4201D345
:10053000CB00C01A524183088B4201D38B00C01AF2
:100540005241D9D243088B4201D34B00C01A5241C9
:10055000411A00D201465241104663465B1001D356
:100560004042002B00D54942704763465B1000D3E0
:10057000404201B50449002802DC491C084000E063
:100580000846C046C04602BDFFFFFF7F7047704768
:100590007047FFB504460D4681B0243000902168B5
:1005A000880604D51022E0699143216000E0012013
:1005B000A84201DD471B00E000270498A1697A19D1
:1005C0001018081AA0612078C00602D42046C04640
:1005D000C046002608E003986268A168805D9047E5
:1005E000206A401C761C206204988642F3DB207847
:1005F000C0060AD52046C046C04606E06268A1682B
:1006000030209047206A401C206238467F1E002818
:10061000F4DC07E000986268A168405D9047206ABA
:10062000401C206228466D1E0028F3DC2046C04690
:10063000C0462078000602D5022005B0F0BD01209A
:10064000FBE70000FFB50C461E468FB003CA0890BA
:1006500009914F007D0D00D16D1E0021084600203C
:10066000C0460321099A89050840002A03DA82005E
:10067000801840080840800D01280A9002DD002003
:10068000C0430A90089807430DD0F048F049281855
:1006900048430714189800281DD07542291E1DDDF7
:1006A0000A9842421BE01898012802D0002030210D
:1006B00004E00020F24305E02154401CB042FBDB83
:1006C00030460022189B002121540F998B600A604C
:1006D000486013B0F0BDBD1B6D1CDFE70A9A00290E
:1006E00000DA69420BA800F051FA0BAB07CB03AB61
:1006F00007C30899099800F0B5FA6B4607C301468D
:10070000D4480918002D00910BDDD24903980A9AAC
:1007100049424018002303A90390684600F012FDE7
:1007200008E003990A9A0023081803A90390684671
:1007300000F0B2FC6B4607C30004000C03D000209D
:10074000C043410800E01046189A002A03D0002256
:10075000009215461EE0751E05D400F095F9303262
:1007600062556D1EF9D501220843079602D000227A
:100770007F1C04E02078302801D100227F1E002A4F
:10078000069787D01EE0112D07DA00F07DF9303290
:1007900062556D1C02460A43F5D1084303D0009808
:1007A000002819D00EE00021681E05E0235C625C81
:1007B00063542254401E491C8142F7DBA81B401E93
:1007C00007950690079A18990020A0540F98079B48
:1007D000069A81600CC07CE711260020189059E72A
:1007E000D21DF0B50D460446D10893B0C90003C927
:1007F0000C900D9104F006FD02460D98C00F01D03B
:100800002D2007E02068810701D52B2002E040075A
:10081000C00F4001032A0F9001D0072A05DB0346D1
:100820002946204600F06EF90EE12078800601D5B9
:10083000E76900E006272846652D04D0662814D015
:10084000672D69D12DE00020112F009001DB1123CD
:1008500000E07B1C0CAA03A910A8FFF7F3FE119976
:10086000002610987D1C0E9142E001203B460CAA08
:10087000C0070B900120009003A910A8FFF7E2FE2B
:10088000119D12981099002600280E9501D1781C10
:100890000D18781B02D446427D1C761EE81B009082
:1008A0003AE0012F00DA01270020112F009001DD2E
:1008B000112300E03B460CAA03A910A8FFF7C2FED3
:1008C00011993D46109800260E91217809070BD406
:1008D0000E99A94200DA0D4603A9012D04DD4A193B
:1008E000203AD27F302A06D0B84201DA011D04DA5C
:1008F000012100910FE06D1EEFE7002802DC861950
:100900002D1A03E0411CA94200DD0D46801B401C4E
:1009100000900120C0070B902078000705D40098B4
:10092000A84202DB0020C043009069460020C87244
:100930000B98012102AF0337C907884225D0022056
:1009400010902B2011900B9800280BDA40420B904E
:100950002D20119006E00B9800F07EF830317F1EBC
:100960000B9039701099481E00291090F3DC0B98F9
:100970000028F0D111987F1E38702088000501D51D
:10098000452000E065207F1E387001A8C01BC01DF7
:100990000B900F98002800D0012041190098C01733
:1009A00009180B980818A169081A401EA061207840
:1009B000C00602D42046C046C0460F98002805D085
:1009C0006268A1689047206A401C20622078C006B7
:1009D00025D52046C046C04621E0002E07DB0E98F4
:1009E000B04204DD03A86268805DA16802E062682D
:1009F000A16830209047206A761C401C2062009835
:100A0000401E002800900AD100F03AF8C0686268E1
:100A10000168405CA1689047206A401C206228461B
:100A20006D1E0028D9DC07E062683878A1687F1C59
:100A30009047206A401C20620B99481E00290B90A9
:100A4000F2DC2046C046C046032042E601FCFFFF20
:100A5000104D0000E1DFFFFF01468008081A02097F
:100A60001018020A1018020C1018C0088200121880
:100A70005200891A01E0401C0A390A29FBD270474A
:100A800000487047280020200B4670B502468907B1
:100A90008008084319469D08141AA941250908072A
:100AA000054308092C194841250A01060D43010A8E
:100AB0002C194141200C0D0428430D0C00194D4107
:100AC000002140194D41C00869070843E908840F17
:100AD0008D002543840024184D4124196D41121BBB
:100AE000AB4107E00925ED432C1152196341002465
:100AF000401C61411C460A250026551BB441F1D219
:100B000070BD0000F8B51F46044601230068DB02F3
:100B1000032601461840072A05DB002801D017A547
:100B200006E017A504E0002801D016A500E016A5F0
:100B3000102081432160A069C01E002FA06101D058
:100B4000401EA0612046C046C046002F09D038464E
:100B50006268A1689047206A401C2062C01C206225
:100B600006E0206AFAE762682878A1686D1C904761
:100B7000761EF8D22046C046C046F8BD4E414E0013
:100B80006E616E00494E4600696E6600F7B5164606
:100B90008AB0334878446C4603467C33C06F5A6849
:100BA0009B680DC42E487844763003AC0DC80DC444
:100BB0003720C001081837211B30FFF7F9FB054625
:100BC0000C46803D1B3C02D56442012000E0002021
:100BD0000027099010E0E0070CD00C202049784352
:100BE000794432464C3941186846012300F054FAE2
:100BF0006B4607C364107F1C002CECD1184F7F4458
:100C00002E3F16E0E80712D02001C0190EC8069149
:100C1000089307920068F04201D198190890324673
:100C2000012306A903A800F037FA03AB07C36D1030
:100C3000641C002DE6D10998002806D0324669468A
:100C4000012303A800F07EFA05E00123324669463D
:100C500003A800F021FA0A9B07C30DB0F0BD000005
:100C6000D4460000034640000A4610B5400D0BD0A4
:100C70000121C9070F24A40200191C0364082143A1
:100C8000540D2143D20207E000210120F2E7D40FE6
:100C9000490021435200401E0029F8DADB0FDB0730
:100CA000184310BDFFB50D46144685B0486851681D
:100CB00004F08FFA00910190A868A16804F089FA05
:100CC00002910390A868616804F083FA029A1218EE
:100CD0008242029201D2012000E00020019A0B180A
:100CE000D2180028019202D08A4202D903E08A4237
:100CF00001D2012000E000200099081800906868E7
:100D0000A16804F066FA029A12188242029201D295
:100D1000012000E00020019A0B18D218002801924F
:100D200002D08A4202D903E08A4201D2012000E0C7
:100D300000200099081800902868216840004900A8
:100D4000400849084018FA49471814E00199400042
:100D5000C90F08430090019802994000C90F084349
:100D60000190029803994000C90F0843029003982C
:100D700040007F1E039000980028E7DA08980028BA
:100D800001D0EC4E00E00026B74201DA012000E07D
:100D90000020002804902AD0F71BF806C00E15D0BA
:100DA000029B2021091A039A8B401A430392029A4C
:100DB000019BC2408B401A430292019A009BC240A1
:100DC0008B4000991A430192C14000917B110DD0D4
:100DD0006F460320C11A03D500218200B95003E0F9
:100DE0008A008100BA587A50401EF3D537460398DE
:100DF0000299002800D001200143089802910028A0
:100E000008460CD0002800D001200199019A49051C
:100E100008430121D20AC902D202019200E0012155
:100E20000E9B0122D207012B02D0002B03D013E02E
:100E3000002807D120E0904204D890420CD1019BB9
:100E40000B4209D0019B5918019105D10099491C09
:100E5000009101D17F1C009200280DD0102108467E
:100E60000020C0460498002806D00F98002803D020
:100E7000082108460020C04628682168019B009A86
:100E80004840C10F0598C90739430EC009B0F0BDED
:100E9000FFB587B0099A0898089953689268406826
:100EA000896896460022039317469446089A12686A
:100EB0005300099A5B081268520052089A1A9E4B16
:100EC000D4180A9A002A01D0352200E04022069266
:100ED0000022012315460492DB07059324E0002D30
:100EE00005D175460346039E4D1BB34109D3754694
:100EF0006646039B491B049D9841059B7519AC46AA
:100F00005F4163463B4308D0059B049EDD0776089E
:100F10002E435B080496059301E0521E641EC50F24
:100F2000ED0749184041521C069B9A42D7DB002D21
:100F300004D17546039A6B1A824101D203200CE05A
:100F4000039A0B466B404240134303D0014303D046
:100F5000012002E0022000E0002061460191002112
:100F6000009702910A99002905D061464002014389
:100F7000704B019102E08007002302909C4201DA4D
:100F8000012000E0002007003AD01A1BD006C00E56
:100F900015D0029D2021019C091AC5408C40254393
:100FA000029C8C4000D001242543019C0295009DA9
:100FB000C4408D4000992C430194C14000915411CC
:100FC0001DD06D460221002202290CD10320001BF6
:100FD00007E0002804DB8600AE59002E00D0012275
:100FE000401C0328F5DB081B02D588002A5004E0CA
:100FF0008000285810438A00A850491EE3D51C469B
:101000000A98002802980CD0002800D001200199ED
:10101000019A490508430121D20AC902D20201926C
:1010200000E00121109B0122D207012B02D0002BEE
:1010300003D013E0002807D11FE0904204D890426B
:101040000CD1019B0B4209D0019B5918019105D18C
:101050000099491C009101D1641C009200280CD019
:10106000102108460020C046002F06D01198002805
:1010700003D0082108460020C04608980999019A23
:10108000009B006809684840C10F0798C9072143C1
:1010900082600AC00BB0F0BD00B585B0019300922C
:1010A0000A460146002302A8FFF7FCFD02A807C874
:1010B00005B000BDFFB50A461F4685B007990193EC
:1010C00001230091014602A8FFF7ECFD0299039865
:1010D000049ECA0F4900D20700920F2249089202CB
:1010E0008C1A0021002800DB0C46450013486D08CF
:1010F000844214D3079A002A04DA441E0026104DB5
:10110000F64302E004460D460E4610210846002034
:10111000C046002F03D0042108460020C046200509
:10112000E90A0843009908436905F20A1143ADE64C
:1011300002C0FFFF013C0000FF3F0000FF0700006E
:10114000FFFFFF7F00B585B0019300920A4601467C
:10115000002302A8FFF79CFE02A807C8A8E7FFB576
:101160000A461F4685B00799019301230091014665
:1011700002A8FFF78DFE02990398049ECA0F49004A
:10118000D20700920F22490892028C1A00210028EF
:1011900000DB0C46450011486D08844214D3079AC1
:1011A000002A04DA441E00260D4DF64302E00446F0
:1011B0000D460E46102108460020C046002F03D0E1
:1011C000042108460020C0462005E90A084300998A
:1011D00008436905F20A114358E60000FF070000C2
:1011E000FFFFFF7F00487047080020207546FFF78B
:1011F000F9FFAE46050069465346C008C000854663
:1012000018B020B5FFF700F860BCB64600260027EE
:10121000C0C5C0C5C0C5C0C5C0C5C0C5C0C5C0C5A6
:10122000403D490849008D46704710B50446C04608
:10123000C0462046FEF7BDFF10BD000082078B07A9
:101240009A423FD170B5920F0AD0032402780B78EE
:10125000401C491C002A33D09A4231D12042F5D19A
:10126000214EF40104C808C9951B9543254018D1A7
:101270009A420FD104C808C9951B9543254010D147
:101280009A4207D104C808C9951B9543254008D147
:101290009A42E7D012BA1BBA01209A4200D24042C9
:1012A00070BD12BA1BBA2DBA18241000E040190004
:1012B000E140401A05D12E00E64002D1083CF4D1AD
:1012C000D01A70BD02780B78401C491C002A09D046
:1012D0009A4207D102780B78401C491C002A01D0A1
:1012E0009A42EFD0D01A704701010101014918203C
:1012F000ABBEFEE72600020070470000B0B50A78DA
:10130000032313400B4A84580B4D2540EB18A924A6
:1013100024061B198350072212064B681340112420
:10132000240205599543EA180251001949780161D0
:10133000B0BDC04608080000FCFFFF00811E091F69
:1013400000BFFCD2704770B50A780C231A40012404
:10135000240305196E689E43B2186A604978072213
:101360001140035993435918015170BDB0B5112272
:10137000120283580C4C1C400B894D881D438B79FD
:101380002B430A4D1D4063198350CB798C881C4335
:10139000097821435D239B001940801842689A43D5
:1013A00051184160B0BDC04680CCFFFF7F330000C4
:1013B00010B50122120383180C785C6049788150C3
:1013C00010BD0000B0B53F231B04044C25689D43AD
:1013D00008431043184028182060B0BD38010B4066
:1013E000F0B585B001221402344B19680494A1436E
:1013F0001960950348490E682E4208D10E682E42A6
:1014000005D10E682E4202D10E682E42F3D0457EE1
:1014100015409E69964375199D612025455D0326FB
:101420003540DF69B7437D19DD61254D2E680527FD
:101430002F60476A3C681C627C685C620724344009
:101440002C60C4697F252D02DE69AE436406640CFE
:101450003419DC6150C805680095476885680195B6
:10146000C568029503929A69164D15402207120B22
:101470003403A4B2A2183A43009C2407240D144359
:10148000019A1443029A1443007C20430E4A0240FE
:10149000501998611868049A104318600398400224
:1014A0000A68024208D10A68024205D10A6802426B
:1014B00002D10A680242F3D005B0F0BD08010B402A
:1014C000001340408D00F0FF72FF0F0010B511496E
:1014D000886001225305104804681C4208D1046842
:1014E0001C4205D104681C4202D104681C42F3D09E
:1014F00012040B6813430B600168C90608D4016825
:10150000C90605D40168C90602D40168C906F3D525
:1015100010BDC04604010B4004020B40F0B53C4A2C
:1015200082183C4BC31808794E793B4D3B4C002E3A
:1015300023D0202804D00526F601002803D003E09C
:10154000374E002800D18826576F2F403743576702
:10155000976F2F4037439767566B26405663966BBD
:10156000264096630026566596658F26F6435F688B
:1015700037405F609F6837409F608E7909682028F8
:101580000BD0002819D1491E5160D76E2F408821F9
:101590000F43D7661746703719E0491E5160D16E68
:1015A00029401F4F3943D166116F294039431167D4
:1015B000012149071B4D174609E049085160D76EC4
:1015C0002F400521C9010F43D766174670373C6885
:1015D0002C400C433C60D16A104C2140D162116B0D
:1015E000214011630021D16411658F21C943D46F5B
:1015F0000C40D4671C680C401C600643BD20304082
:101600001168094B0B40C018801C1060F0BDC0462B
:10161000041800008418000024493E008888FDFF5B
:1016200001040000FFFFFFCF4000FFCF10B50723EC
:101630009B04194092008018024A84589C43611808
:10164000815010BD3018000010B5029CA400001994
:1016500011431943014A815010BDC0465018000083
:1016600092008018014A81507047C046101800004F
:1016700010B50122120383180C789C604B788350BC
:101680008978014A815010BD0C110000B0B51122BB
:10169000120283580124A34383508B780C881C4387
:1016A0008B882343094C1C408358094D1D402B193E
:1016B00083508B79CC791C43097A21437E231940CE
:1016C000801842689A4351184160B0BD1867000005
:1016D000E798FDFF10B50122120383180C789C6077
:1016E0004978815010BD642002F002FFFBE7000042
:1016F000EFF309800E4A1168243808607346F8C079
:1017000044464D4656465F46F0C072B602F0FEFFB4
:1017100062B6074A116808681430F0C8A046A946A6
:10172000B246BB4680F309882438F8C81847C0463B
:101730009C032020000000000000000000000000CA
:1017400004207146084203D0EFF30980044B184788
:10175000EFF30880024B1847C046C046C046C0465B
:10176000CD42000080B50A480A49FFF781FF0A48C8
:101770001A49C1620022C267194B0360016307491D
:101780000A6003601849416005480121016080BD7D
:101790000000094000530000041809408418094063
:1017A0000811094080B50A480A49FFF761FF0A4855
:1017B0000A49C1620022C267094B036001630949FB
:1017C0000A6003600849416008480121016080BD4A
:1017D00000200940035300000438094001000200C2
:1017E0001292001084380940FFFF000008310940C0
:1017F00010B50124A0070549FFF780FD044800212A
:101800000160044801682143016010BD08530000D5
:10181000801100400011004080B50E480E49FFF7CE
:101820006DFD0E4841680E4A0A4011210904511805
:10183000416081680B4A0A4001210B06D218826080
:10184000094A002313600423536002680A430260BC
:1018500080BDC04600200040105300000031004011
:10186000FEFFECFFF8FFE0E080310040F0B581B012
:101870001C4C1D492046FFF7FBFE1C492046FFF784
:101880004DFE1B4801681B4A0A4002600025009576
:10189000204629462A462B46FFF7D6FE20462946F3
:1018A0002A46FFF7C3FE19200601204631462A4684
:1018B000FFF7D6FE01270097204629462A462B46E9
:1018C000FFF7C2FE204629463A46FFF7AFFE204604
:1018D00031463A46FFF7C4FE07488760032101609E
:1018E00001B0F0BD00008740185300001C530000F9
:1018F000041887407F00FFFF00118740F0B581B0DA
:10190000504B89209860012738074F4A10604F4993
:10191000084638388B24009404603804106015465B
:1019200008461038842202603805494C2060CA609D
:101930007A062A60474E8520B062474D04242C6009
:10194000306310242C6030622F600C46343C2060E1
:1019500078043D4C20604148441CCC610D461C3D40
:101960002C60041DDC6504460A345C663C4CA51CF6
:101970001D601C681C605D605C685C601C681443D2
:101980001C605C6814435C6082221A64421E5A64C4
:1019900086229A66C21CDA66009ADA639A63186530
:1019A0000A464C3A83241460DC679867872058679E
:1019B0002B4C0C60086808608120186330657065E6
:1019C0000A1F106018613460326832607460726897
:1019D0007260B464B26CB264F464F26CF2640A468D
:1019E000083A1060321F106088600A46443A10605E
:1019F000886148610A46143A1060203908605863CB
:101A00009864D864104A1046303816490160104670
:101A10004038B9070160144810600D4A104630384C
:101A20001249016010464038F90501601048106005
:101A3000094A10464038032109020160116001B0D3
:101A4000F0BDC04604804240D0120A40D0804240DF
:101A5000D0320A4008814240D0520A40830004003C
:101A600081000C0080234001802340410200441C7F
:101A70000200C41C10B50D4C0D492046FFF798FC20
:101A80000C492046FFF772FC0B484168AC4A0A40FB
:101A9000911C4160816812220A432D218A43826091
:101AA000016801220A43026010BDC04600A0464002
:101AB000245300002653000004B1464080B511486D
:101AC0001149FFF740FC03204102104802680A4315
:101AD000026001210A02036813430360002242618D
:101AE00027224262826B07239A4382631A02836B26
:101AF00093438363826A042313438362826A0A43A3
:101B0000826280BD00000F403053000000120F4081
:101B1000094855490A68024082420BD00A680240CF
:101B2000824207D00A680240824203D00A6802401B
:101B30008242EFD17047C046000A2000F0B585B060
:101B40001F200006204A11688143116001242105ED
:101B5000A20400200391FFF735FC1C481C490160DA
:101B60000494660642241B4D3F4F3868304204D12E
:101B70002846FFF7E3FB641EF7D113488069029003
:101B800004980204002001900399FFF71BFC0F4802
:101B90000F49016042243868304204D12846FFF7DB
:101BA000CDFB641EF7D1173502984543064881697D
:101BB000284603F013FA084940180F2801D301986A
:101BC0000490049805B0F0BD38010B402C030B4085
:101BD0000100000ED103000043F6FFFFF0B581B015
:101BE0001E48012505600F2000021D4C216881431D
:101BF0006E02881920600320C043211F0A6802403A
:101C00000A601848FFF7ECFBFFF798FF00280AD09E
:101C10002068102101432020814321600020FFF72C
:101C200055FC01B0F0BD104F03E0FFF787FF00281F
:101C3000EED128026168814361606168014361609F
:101C400038683042F1D138683042EED138683042DD
:101C5000EBD138683042F3D0E7E7C04608030B40C9
:101C600004010B403453000004020B40F0B581B076
:101C70001C4C1D492046FFF7FBFC1C492046FFF782
:101C80004DFC1B480168ED4A0A40026000250095A2
:101C9000204629462A462B46FFF7D6FC20462946F1
:101CA0002A46FFF7C3FC19200601204631462A4682
:101CB000FFF7D6FC01270097204629462A462B46E7
:101CC000FFF7C2FC204629463A46FFF7AFFC204604
:101CD00031463A46FFF7C4FC06488760032101609D
:101CE00001B0F0BD002086405C530000605300004E
:101CF000043886400031864010B50D4C0D49204611
:101D0000FFF756FB0C492046FFF730FB0B484168B4
:101D10000B4A0A40111D4160816812220A432D219D
:101D20008A438260016801220A43026010BDC046F6
:101D300000804640685300006A530000049146400A
:101D400000FCFFFF10B5194C19492046FFF7C2FCF3
:101D500018492046FFF79AFC0320C1031648026881
:101D60008A4302600169334A0A40153202614169BF
:101D70002D220A4312218A434261426801210A400E
:101D800043688B439A1842604A0403681343036014
:101D9000C26870231343C360C26802231343052241
:101DA0009343C36002680A43026010BD0000104004
:101DB00074530000765300000011104010B5194C08
:101DC00019492046FFF786FC18492046FFF75EFCBC
:101DD0000320C103164802688A4302600169154A5C
:101DE0000A402B32026141691A220A4325218A43A3
:101DF0004261426801210A4043688B439A1842605D
:101E00004A04036813430360C26870231343C3602A
:101E1000C2680223134305229343C36002680A4346
:101E2000026010BD0020504080530000825300002B
:101E3000003150400000FFFF80B500F037F8FFF799
:101E40005DFDFFF7CBFEFFF711FFFFF70FFD00F081
:101E50008FF8FFF787FCFFF7A5FCFFF72FFEFFF7D2
:101E600071FFFFF7ABFFFFF747FFFFF703FEFFF739
:101E7000D3FCFFF7BDFCFFF74BFEB820064900225C
:101E80000A5406490A549C2005490A54242005494D
:101E90000A5405490A5480BD140220203001202034
:101EA00068002020EC01202008012020F0B581B03E
:101EB0001E481F4A42601F4842601F4842601F4838
:101EC00042601F4842601F4842601F4842601F48EE
:101ED00042601F4842601F4E72601F4D6A601F4C77
:101EE00062601F4B5A601F494A601F4842601F4A88
:101EF0000E4F3A600F4F3A600F4F3A600F4F3A6003
:101F00000F4F3A600F4F3A600F4F3A600F4F3A60F1
:101F10000F4F3A6032602A6022601A600A600260E5
:101F20001020FFF70BFA01B0F0BDC04600080A40D0
:101F3000030000B100280A4000480A4000288640FB
:101F40000008874000088640000809400028094032
:101F500000080F400008104000285040008846400C
:101F600000A846400028004000080040010000266C
:101F7000F0B581B02D4C2E492046FFF779FB2D4955
:101F80002046FFF7CBFA2C4801682C4A0A40026031
:101F900000250095204629462A462B46FFF754FB8C
:101FA000204629462A46FFF741FB204629462A4675
:101FB000FFF756FB01260096204629462A462B4667
:101FC000FFF742FB204629463246FFF72FFB20460B
:101FD00029463246FFF744FB022700972046294650
:101FE0002A462B46FFF730FB204629463A46FFF7A4
:101FF0001DFB204629463A46FFF732FB0327009790
:10200000204629462A462B46FFF71EFB2046294636
:102010003A46FFF70BFB204629463A46FFF720FBDE
:10202000074886600F21016001B0F0BD00008640C6
:102030008C53000090530000041886407F00FFFF7F
:102040000011864010B502F04DF8044602F0DAFDAA
:10205000002803D00120000702490860204602F052
:102060006EF810BD04ED00E08048016800200029F2
:1020700000D07047094909680029FAD10849096860
:102080000029F6D17A48006896490968491E8842B5
:1020900001D00120704702207047C046341620202E
:1020A000DC15202082B0FFF7C7FE00F09FFD00F096
:1020B000C5FC00230120009001930202044805A101
:1020C00002F026FD012802D102F08CFAFEE7FEE7BD
:1020D000E7160000446973706C617900F0B583B055
:1020E0000F460646AC4805686248006802906248A0
:1020F00000680190A64C2068001D01F0F7FF701CDD
:1021000015D1002F13D0206859490CC983609868F5
:102110002568E860521C08390A602268121D426076
:102120002068001D98602068416103B0F0BDAE19C1
:10213000206846602068011DAE4204D2019802F07A
:102140000CF803B0F0BD029802F007F8914801685E
:102150008E4200D2066003B0F0BDC046F0B581B03B
:10216000044602F019F85F480168491C0160884F75
:10217000396800290AD03A480068002847D1E06A47
:102180003968C96A814242D83C6040E03C600068DE
:1021900001283CD17D4D284601F0D4FF284614305B
:1021A00001F0D0FF2846283001F0CCFF28463C3013
:1021B00001F0C8FF2846503001F0C4FF28466430C3
:1021C00001F0C0FF2846783001F0BCFF28468C3073
:1021D00001F0B8FF2846A03001F0B4FFB43528461E
:1021E00001F0B0FF1F4D284601F0ACFF1E4E3046F7
:1021F00001F0A8FF1D4801F0A5FF394801F0A2FF3A
:102200001B4801F09FFF1B4805601B4806601B48E8
:102210000168491C61640160E06A5B490A68904298
:1022200000D908601421414358484258521C42507A
:1022300040184168A1608A68E2606061201D5060BA
:10224000886001F0B3FF06480068002806D0E06A05
:102250003968C96A814201D202F0FCF801B0F0BDD0
:10226000F415202094152020A8152020E01520200A
:1022700000162020A4032020AC032020941020204E
:10228000F0B581B0154D2868002823D0144E154FA5
:1022900005E0204601F09CFF286800281AD001F0D4
:1022A0007BFFF068C468201D01F020FF3868401EE5
:1022B00038602868401E286001F078FF6520205CA7
:1022C0000228E9D00128E4D0002805D1206B01F0D4
:1022D0007FFFDEE701B0F0BD72B6FEE78C10202074
:1022E00014162020881020200124274D274E284F27
:1022F00001E002F07FFDFFF7C3FF2868411E88411F
:102300003168012901D8002100E001213A68D26A30
:10231000002A224600D10A46002A214600D1014661
:102320000029E8D11B4800681B490968401A0228A7
:10233000E1D31A490868401C08601648006816492D
:10234000096888421ED32868411E884131680129E6
:1023500001D8002100E001213A68D26A002A224611
:1023600000D10A46002A214600D101460029C0D1E9
:102370000848006808490968401A0228B9D301F0E2
:10238000C5FFB6E772B6FEE798102020B403202000
:102390009C032020CC1520202816202090102020DF
:1023A000F0B583B002930F4601900A9C206B960013
:1023B000A5223146FDF7C5FF206B089D002F41D0B7
:1023C000214634313A780A70002A39D07A784A7036
:1023D000002A35D0BA788A70002A31D0FA78CA70CB
:1023E000002A2DD03A790A71002A29D07A794A71C7
:1023F000002A25D0BA798A71002A21D0FA79CA71C7
:10240000002A1DD03A7A0A72002A19D07A7A4A72C2
:10241000002A15D0BA7A8A72002A11D0FA7ACA72C2
:10242000002A0DD03A7B0A73002A09D07A7B4A73BE
:10243000002A05D0BA7B8A73002A01D0FA7BCA73BE
:102440000022CA730A2D01D372B6FEE78019061F57
:1024500007208643099FE564E562201D01F07AFEAE
:102460002046183001F076FE0A20401BA06164620D
:10247000246130460199029A00F082FA2060002F10
:1024800000D03C6003B0F0BDF0B583B0044602F06C
:10249000B5FB224A1168884231D201940290AA4CBD
:1024A00007E029462831FA2210400870296A284698
:1024B000884720680168002923D0C0680768C5687C
:1024C0002E1D304601F012FE2820285C4107E8D579
:1024D000A869C4196C602D61BC4209D3296A2846D9
:1024E0008847A869001968602D61A0420446F5D2AA
:1024F00096480068314601F030FE934CD6E7002143
:1025000007E092490A682260086001210298019C54
:10251000024A1060216003B0F0BDC046980320203D
:1025200081B0002000900A48006872B6401C09D0B3
:10253000FEE70098002808D10098002805D10098EF
:10254000002802D100980028F3D001B07047C0469F
:102550000400202086B07E4E7B4800680568002D70
:1025600002D0C068076800E0002702F0C9F803A89D
:10257000FFF78AFF04460398002802D002F03AFCD5
:1025800047E0002D28D0A74226D802F033FC6E4841
:102590000068C068C568281D019001F0A7FD2820CB
:1025A000285C41070CD429462831FA2210400870D3
:1025B0002CE0E11B814223D3296A2846884737460D
:1025C000A869C6196E602D61A642F2D9BC4201D23B
:1025D000BE42F1D25C4814E0002D01D0002204E09C
:1025E0005A480068006842424241391B306801F095
:1025F0003DFF02F0FFFB00280BD101F02BFF08E0AC
:1026000052480068019901F0A8FD514E296A2846F8
:1026100088470022059204920392306803A906E0DD
:10262000386801F09AFD4A4E306803A9002202F092
:1026300082F9002890D003980028F5D4059C002C3E
:10264000F2D06069002802D0201D01F04FFD02A8E1
:10265000FFF71AFF05460398401E0828E4D8C04635
:102660007844007940008744040438235504043832
:1026700023002820225C012111432154A069049BDE
:10268000C61866602461211DAE4205D99D422E4FB9
:10269000C6D29E4204D2C3E7EB1A83422B4FBFD36C
:1026A000530720D420462830FA210A4002703EE029
:1026B0002820215C01220A4322540498A0610028AA
:1026C0003FD0401960602461A8421F4800D81F48CD
:1026D0000068211D01F041FDA6E72820215CFE22B3
:1026E0000A402254A0E701910499091807E0691AE9
:1026F000814217D3216A20468847A06931460E18C7
:1027000066602461AE42F2D98D4201D28E42F1D28E
:102710000D4808E02820205C81070DD4204601F0F8
:1027200057FD81E709480068019901F016FD084E40
:10273000216A2046884777E72834FE210840207028
:1027400072E772B6FEE7C046A0032020B003202047
:102750002C162020F0B581B004460646443601F020
:102760001BFD01203756012F12DB2546243504E0DE
:10277000781E79B2012907460ADD2868002807D0AB
:10278000284602F0D7FA0028F2D001F0F7FEEFE772
:10279000FF25757001F00AFD01F0FEFC00203756A0
:1027A000012F11DB103404E0781E79B201290746AD
:1027B0000ADD2068002807D0204602F0BBFA002876
:1027C000F2D001F0DBFEEFE7357001F0EFFC01B075
:1027D000F0BD0000F0B583B001460831002509299D
:1027E0000BD307220346134006D0093B994204D875
:1027F00090431030054600E00D4601F081FF594935
:102800000E68002E02D0584803681BE0574C002089
:1028100060600722D343564E7207324601D0F21D44
:102820001A4022600324A40234191C40083C0C60A6
:1028300020606060A31A53604E4803604A480360FA
:102840000E681660012200249D42104600D82046E2
:102850000093012D114600DB2146014305D002F013
:10286000C9FA600737D072B6FEE7434840490F18EF
:102870003E4802900068B84201D8002100E00121E2
:102880003B4B9842134600D30B46002B01D072B647
:10289000FEE743680024AB4220D20168002937D00C
:1028A00002900846B94201D8002100E00121304BD6
:1028B0009842134600D30B46012B35D04368AB42F8
:1028C00001D3002100E001210191AB4207D2016850
:1028D0000029E5D103E0204603B0F0BD0194B042E9
:1028E000BDD0029E34680834BC4201D8002100E00B
:1028F00001211F4FBC4200D30A46012A01D172B602
:10290000FEE701683160019A002A05D072B6FEE741
:102910000192B042E5D1A2E75A1B102A06D9431909
:102920005E0706D072B6FEE772B6FEE7456800990C
:1029300005E006C30299083B0B600B490968491B77
:10294000094A11600B4A1368994200D211600021B4
:102950000122D207154322C008480168491C0160C2
:102960007DE7C046A8032020BC152020F8152020B4
:102970007F042020C8152020FF0B0000D415202044
:102980000346083B1960011F01231B060B6001462B
:102990000C391D4B0B60014610391C4B0B60014676
:1029A00014391B4B0B60014618391A4B0B6001465A
:1029B0001C39194B0B60014620390A600146243945
:1029C000164A0A6001462839154A0A6001462C3920
:1029D000144A0A6001463039134A0A600146343904
:1029E000124A0A6001463839114A0A6001463C39E8
:1029F000104A0A60014640390F4A0A6044380221F1
:102A0000C94301607047C04621250000121212120E
:102A1000030303030202020201010101111111115A
:102A20001010101009090909080808080707070706
:102A3000060606060505050504040404F0B583B082
:102A400001204002674901900861744C21789F2061
:102A50007F230029024600D11A466F4E31780029A3
:102A600000D1034600252846294601F041F9227885
:102A7000A02080210291002A024600D1029A3378D8
:102A8000002B00D1029058480088C3B2070A724850
:102A90002C4603E0641C02998C426DD02E4603E064
:102AA0000363361D9642F5D00168890708D4016892
:102AB000890705D40168890702D401688907F3D51D
:102AC00007630168890708D40168890705D401688C
:102AD000890702D401688907F3D503630168890770
:102AE00008D40168890705D40168890702D4016800
:102AF0008907F3D507630168890708D40168890746
:102B000005D40168890702D401688907F3D50363F6
:102B10000168890708D40168890705D40168890715
:102B200002D401688907F3D507630168890708D4CF
:102B30000168890705D40168890702D401688907FB
:102B4000F3D503630168890708D40168890705D4B0
:102B50000168890702D401688907F3D50763016812
:102B600089079DD4016889079AD40168890797D499
:102B700001688907F3D593E70168C90702D00168A6
:102B8000C90624D50168C90702D00168C9061ED547
:102B90000168C90702D00168C90618D50168C907CC
:102BA000EAD00168C906E7D411E00168C90702D07C
:102BB0000168C90611D50168C90702D00168C906B4
:102BC0000BD50168C90702D00168C90605D501689F
:102BD000C907EAD00168C906E7D40198014908602D
:102BE00003B0F0BD90520A4000002020F0B587B03D
:102BF00002480078032813D802E0C0467C04202055
:102C00000F2108400C21C1400120084002490870F2
:102C10000249087004E0C0467E0420207D04202084
:102C20000126F405084D2C610848FEF787FB2C604F
:102C3000074C2046FEF782FB31467002054E049099
:102C40003061054F0AE0C04690320A4000350C0062
:102C5000007C920090520A40109146403868C007AC
:102C600002D03868C00611D53868C00702D038686D
:102C7000C0060BD53868C00702D03868C00605D535
:102C80003868C007EAD03868C006E7D406910D025C
:102C90003561112038633868C00702D03868C00633
:102CA00011D53868C00702D03868C0060BD538681F
:102CB000C00702D03868C00605D53868C007EAD01A
:102CC0003868C006E7D435602046FEF737FB386821
:102CD000C00702D03868C00611D53868C00702D0D6
:102CE0003868C0060BD53868C00702D03868C006FF
:102CF00005D53868C007EAD03868C006E7D4356122
:102D0000B12038633868C00702D03868C00611D5D2
:102D10003868C00702D03868C0060BD53868C007CD
:102D200002D03868C00605D53868C007EAD03868D0
:102D3000C006E7D43560069B3868800708D4386839
:102D4000800705D43868800702D438688007F3D537
:102D50003B633868800708D43868800705D4386832
:102D6000800702D438688007F3D52C20386339688F
:102D7000890708D43968890705D43968890702D4D6
:102D800039688907F3D52D2139633A68D20702D013
:102D90003A68D20611D53A68D20702D03A68D2060C
:102DA0000BD53A68D20702D03A68D20605D53A6800
:102DB000D207EAD03A68D206E7D43561B2223A6344
:102DC0003A68D20702D03A68D20611D53A68D207DB
:102DD00002D03A68D2060BD53A68D20702D03A68D8
:102DE000D20605D53A68D207EAD03A68D206E7D4C7
:102DF00035603A68920708D43A68920705D43A6871
:102E0000920702D43A689207F3D53B633A68920777
:102E100008D43A68920705D43A68920702D43A680F
:102E20009207F3D538633A68920708D43A68920754
:102E300005D43A68920702D43A689207F3D5396309
:102E40003A68D20702D03A68D20611D53A68D2075A
:102E500002D03A68D2060BD53A68D20702D03A6857
:102E6000D20605D53A68D207EAD03A68D206E7D446
:102E70003561B3223A633A68D20702D03A68D20683
:102E800011D53A68D20702D03A68D2060BD53A6813
:102E9000D20702D03A68D20605D53A68D207EAD0FE
:102EA0003A68D206E7D435603A68920708D43A689F
:102EB000920705D43A68920702D43A689207F3D58C
:102EC0003B633A68920708D43A68920705D43A6897
:102ED000920702D43A689207F3D538633A689207AA
:102EE00008D43A68920705D43A68920702D43A683F
:102EF0009207F3D539633A68920708D43A68920783
:102F000005D43A68920702D43A689207F3D53B6336
:102F10003A68920708D43A68920705D43A6892074B
:102F200002D43A689207F3D538633A68920708D416
:102F30003A68920705D43A68920702D43A68920731
:102F4000F3D539633968C90702D03968C90611D584
:102F50003968C90702D03968C9060BD53968C9076D
:102F600002D03968C90605D53968C907EAD0396879
:102F7000C906E7D43561B42139633968C90702D07D
:102F80003968C90611D53968C90702D03968C90638
:102F90000BD53968C90702D03968C90605D5396823
:102FA000C907EAD03968C906E7D4356039688907A6
:102FB00008D43968890705D43968890702D4396883
:102FC0008907F3D50721059139633968C90702D00C
:102FD0003968C90611D53968C90702D03968C906E8
:102FE0000BD53968C90702D03968C90605D53968D3
:102FF000C907EAD03968C906E7D43561C021019113
:1030000039633968C90702D03968C90611D53968EA
:10301000C90702D03968C9060BD53968C90702D07B
:103020003968C90605D53968C907EAD03968C906BB
:10303000E7D435603968890708D43968890705D429
:103040003968890702D439688907F3D5A221396321
:103050003968890708D43968890705D43968890728
:1030600002D439688907F3D502210291396339689E
:10307000890708D43968890705D43968890702D4D3
:1030800039688907F3D5842139633968C90702D0C3
:103090003968C90611D53968C90702D03968C90627
:1030A0000BD53968C90702D03968C90605D5396812
:1030B000C907EAD03968C906E7D43561C121396347
:1030C0003968C90702D03968C90611D53968C907F6
:1030D00002D03968C9060BD53968C90702D03968EA
:1030E000C90605D53968C907EAD03968C906E7D4E1
:1030F00035603968890708D43968890705D4396883
:10310000890702D439688907F3D5C52139633B683B
:10311000DB0702D03B68DB0611D53B68DB0702D03A
:103120003B68DB060BD53B68DB0702D03B68DB0660
:1031300005D53B68DB07EAD03B68DB06E7D43561A1
:10314000C2233B633B68DB0702D03B68DB0611D53B
:103150003B68DB0702D03B68DB060BD53B68DB072F
:1031600002D03B68DB0605D53B68DB07EAD03B684D
:10317000DB06E7D435603B689B0708D43B689B07B8
:1031800005D43B689B0702D43B689B07F3D50A2311
:103190003B633B689B0708D43B689B0705D43B68AF
:1031A0009B0702D43B689B07F3D500243C633B6834
:1031B000DB0702D03B68DB0611D53B68DB0702D09A
:1031C0003B68DB060BD53B68DB0702D03B68DB06C0
:1031D00005D53B68DB07EAD03B68DB06E7D4356101
:1031E000C3233B633B68DB0702D03B68DB0611D59A
:1031F0003B68DB0702D03B68DB060BD53B68DB078F
:1032000002D03B68DB0605D53B68DB07EAD03B68AC
:10321000DB06E7D435603B689B0708D43B689B0717
:1032200005D43B689B0702D43B689B07F3D58A23F0
:103230003B633A68920708D43A68920705D43A6823
:10324000920702D43A689207F3D52A2203923A638E
:103250003A68D20702D03A68D20611D53A68D20746
:1032600002D03A68D2060BD53A68D20702D03A6843
:10327000D20605D53A68D207EAD03A68D206E7D432
:103280003561C4223A633A68D20702D03A68D2065E
:1032900011D53A68D20702D03A68D2060BD53A68FF
:1032A000D20702D03A68D20605D53A68D207EAD0EA
:1032B0003A68D206E7D435603A68920708D43A688B
:1032C000920705D43A68920702D43A689207F3D578
:1032D0003B633A68920708D43A68920705D43A6883
:1032E000920702D43A689207F3D5EE223A633A681D
:1032F000D20702D03A68D20611D53A68D20702D076
:103300003A68D2060BD53A68D20702D03A68D2069C
:1033100005D53A68D207EAD03A68D206E7D43561D3
:1033200039633968C90702D03968C90611D53968C7
:10333000C90702D03968C9060BD53968C90702D058
:103340003968C90605D53968C907EAD03968C90698
:10335000E7D435603968890708D43968890705D406
:103360003968890702D439688907F3D50E21396392
:103370003968C90702D03968C90611D53968C90743
:1033800002D03968C9060BD53968C90702D0396837
:10339000C90605D53968C907EAD03968C906E7D42E
:1033A0003561362139633968C90702D03968C906E1
:1033B00011D53968C90702D03968C9060BD53968F3
:1033C000C90702D03968C90605D53968C907EAD0E6
:1033D0003968C906E7D4356006490978032919D840
:1033E0004900C0467944898849008F4405006D042E
:1033F000430458047C0420203968890708D43968BC
:10340000890705D43968890702D439688907F3D553
:10341000019C3C633968C90702D03968C90611D5D7
:103420003968C90702D03968C9060BD53968C90798
:1034300002D03968C90605D53968C907EAD03968A4
:10344000C906E7D43561E02139633968C90702D07C
:103450003968C90611D53968C90702D03968C90663
:103460000BD53968C90702D03968C90605D539684E
:10347000C907EAD03968C906E7D4356039688907D1
:1034800008D43968890705D43968890702D43968AE
:103490008907F3D50F223A633968890708D4396858
:1034A000890705D43968890702D439688907F3D5B3
:1034B0001A2139633968890708D43968890705D41E
:1034C0003968890702D439688907F3D53A633968BE
:1034D000890708D43968890705D43968890702D46F
:1034E00039688907F3D5182139633968890708D401
:1034F0003968890705D43968890702D4396889078A
:10350000F3D52F2139633968890708D439688907C9
:1035100005D43968890702D439688907F3D5282189
:1035200039633968890708D43968890705D4396847
:10353000890702D439688907F3D5202139633968AE
:10354000890708D43968890705D43968890702D4FE
:1035500039688907F3D5222139633968890708D486
:103560003968890705D43968890702D43968890719
:10357000F3D51F2139633968890708D43968890769
:1035800005D43968890702D439688907F3D51B2126
:1035900039633B689B0708D43B689B0705D43B68AD
:1035A0009B0702D43B689B07F3D523233B633B680F
:1035B0009B0708D43B689B0705D43B689B0702D454
:1035C0003B689B07F3D537233B633B689B0708D4D5
:1035D0003B689B0705D43B689B0702D43B689B076D
:1035E000F3D500243C633B689B0708D43B689B07EA
:1035F00005D43B689B0702D43B689B07F3D5059B2A
:103600003B633B689B0708D43B689B0705D43B683A
:103610009B0702D43B689B07F3D5064602983863A4
:103620003B689B0708D43B689B0705D43B689B0716
:1036300002D43B689B07F3D510233B633868C0076F
:1036400002D03868C00611D53868C00702D0386883
:10365000C0060BD53868C00702D03868C00605D54B
:103660003868C007EAD03868C006E7D40248056168
:10367000E120386302E0C04690520A403868C00733
:1036800002D03868C00611D53868C00702D0386843
:10369000C0060BD53868C00702D03868C00605D50B
:1036A0003868C007EAD03868C006E7D4014805602A
:1036B00002E0C04690520A403868800708D4386853
:1036C000800705D43868800702D438688007F3D5AE
:1036D0003A633868800708D43868800705D43868AA
:1036E000800702D438688007F3D5396338688007CB
:1036F00008D43868800705D43868800702D4386851
:103700008007F3D53A633868800708D438688007A3
:1037100005D43868800702D438688007F3D51720AD
:1037200038633868800708D43868800705D438685B
:10373000800702D438688007F3D5332038633868AF
:10374000800708D43868800705D43868800702D419
:1037500038688007F3D53E633868800708D4386836
:10376000800705D43868800702D438688007F3D50D
:1037700029203863004E01E090520A4039688907D9
:1037800008D43968890705D43968890702D43968AB
:103790008907F3D52E2139633968890708D4396838
:1037A000890705D43968890702D439688907F3D5B0
:1037B000302139633A68920708D43A68920705D4F1
:1037C0003A68920702D43A689207F3D539633968A8
:1037D000890708D43968890705D43968890702D46C
:1037E00039688907F3D5392139633968890708D4DD
:1037F0003968890705D43968890702D43968890787
:10380000F3D53F2139633968890708D439688907B6
:1038100005D43968890702D439688907F3D53C6330
:103820003968890708D43968890705D43968890750
:1038300002D439688907F3D505993963396889074E
:1038400008D43968890705D43968890702D43968EA
:103850008907F3D5032139633968890708D43968A2
:10386000890705D43968890702D439688907F3D5EF
:103870003B633968C90702D03968C90611D5396870
:10388000C90702D03968C9060BD53968C90702D003
:103890003968C90605D53968C907EAD03968C90643
:1038A000E7D4356103993963069A3968C90702D0AC
:1038B0003968C90611D53968C90702D03968C906FF
:1038C0000BD53968C90702D03968C90605D53968EA
:1038D000C907EAD03968C906E7D43560396889076D
:1038E00008D43968890705D43968890702D439684A
:1038F0008907F3D53C633968890708D43968890793
:1039000005D43968890702D439688907F3D53C633F
:103910003968890708D43968890705D4396889075F
:1039200002D439688907F3D53C633968890708D41C
:103930003968890705D43968890702D43968890745
:10394000F3D57F2139633968C90702D03968C906C0
:1039500011D53968C90702D03968C9060BD539684D
:10396000C90702D03968C90605D53968C907EAD040
:103970003968C906E7D435612B2139633968C9072D
:1039800002D03968C90611D53968C90702D039682B
:10399000C9060BD53968C90702D03968C90605D5EB
:1039A0003968C907EAD03968C906E7D4356039688B
:1039B000890708D43968890705D43968890702D48A
:1039C00039688907F3D53C633968890708D43968B1
:1039D000890705D43968890702D439688907F3D57E
:1039E0003C633968890708D43968890705D4396880
:1039F000890702D439688907F3D53C633968890798
:103A000008D43968890705D43968890702D4396828
:103A10008907F3D59F2139633968C90702D039680E
:103A2000C90611D53968C90702D03968C9060BD54E
:103A30003968C90702D03968C90605D53968C90788
:103A4000EAD03968C906E7D43561F02139633968AD
:103A5000C90702D03968C90611D53968C90702D02B
:103A60003968C9060BD53968C90702D03968C90653
:103A700005D53968C907EAD03968C906E7D4356081
:103A80003968890708D43968890705D439688907EE
:103A900002D439688907F3D53A633968C90702D077
:103AA0003968C90611D53968C90702D03968C9060D
:103AB0000BD53968C90702D03968C90605D53968F8
:103AC000C907EAD03968C906E7D43561F6213963F8
:103AD0003968C90702D03968C90611D53968C907DC
:103AE00002D03968C9060BD53968C90702D03968D0
:103AF000C90605D53968C907EAD03968C906E7D4C7
:103B000035603968890708D43968890705D4396868
:103B1000890702D439688907F3D53C633968C90736
:103B200002D03968C90611D53968C90702D0396889
:103B3000C9060BD53968C90702D03968C90605D549
:103B40003968C907EAD03968C906E7D435613A212E
:103B500039633968C90702D03968C90611D539688F
:103B6000C90702D03968C9060BD53968C90702D020
:103B70003968C90605D53968C907EAD03968C90660
:103B8000E7D435603968890708D43968890705D4CE
:103B90003968890702D439688907F3D50521396363
:103BA0003968C90702D03968C90611D53968C9070B
:103BB00002D03968C9060BD53968C90702D03968FF
:103BC000C90605D53968C907EAD03968C906E7D4F6
:103BD000356138633868C00702D03868C00611D52F
:103BE0003868C00702D03868C0060BD53868C007EF
:103BF00002D03868C00605D53868C007EAD03868F2
:103C0000C006E7D435603868C00702D03868C006FF
:103C100024D53868C00702D03868C0061ED5386879
:103C2000C00702D03868C00618D53868C007EAD087
:103C30003868C006E7D411E03868C00702D0386899
:103C4000C00611D53868C00702D03868C0060BD549
:103C50003868C00702D03868C00605D53868C00784
:103C6000EAD03868C006E7D404983060FEF7E6FE74
:103C700007B0F0BD3968A024890701D5FFF7C9FB5B
:103C80003968890701D5FFF7C4FB3968890701D571
:103C9000FFF7BFFB39688907ECD5FFF7BAFB396836
:103CA0006024890701D5FFF7B4FB3968890701D57E
:103CB000FFF7AFFB3968890701D5FFF7AAFB396821
:103CC0008907ECD5FFF7A5FB3968890701D5FFF710
:103CD000A0FB3968890701D5FFF79BFB3968890785
:103CE00001D5FFF796FB39688907EDD5FFF791FB02
:103CF000F0B5F94C277801242402F84DF84E022F34
:103D000000D2EFE0BF1E012F00D9AFE13568ED070B
:103D100002D03568ED0611D53568ED0702D035685B
:103D2000ED060BD53568ED0702D03568ED0605D5F3
:103D30003568ED07EAD03568ED06E7D4E74D2C612C
:103D40002A2535633568ED0702D03568ED0611D5B3
:103D50003568ED0702D03568ED060BD53568ED07FF
:103D600002D03568ED0605D53568ED07EAD035682F
:103D7000ED06E7D4D94D2C603568AD0708D4356819
:103D8000AD0705D43568AD0702D43568AD07F3D566
:103D9000002737633568AD0708D43568AD0705D40B
:103DA0003568AD0702D43568AD07F3D5C0B23063CE
:103DB0003068800708D43068800705D430688007F1
:103DC00002D430688007F3D53763C44D306880076C
:103DD00008D43068800705D43068800702D4306882
:103DE0008007F3D5D0B230633068C00702D03068A6
:103DF000C00611D53068C00702D03068C0060BD5A8
:103E00003068C00702D03068C00605D53068C007EA
:103E1000EAD03068C006E7D42C612B2030633068CC
:103E2000C00702D03068C00611D53068C00702D084
:103E30003068C0060BD53068C00702D03068C006B5
:103E400005D53068C007EAD03068C006E7D42C60DA
:103E50003068800708D43068800705D43068800750
:103E600002D430688007F3D537633068800708D400
:103E70003068800705D43068800702D43068800736
:103E8000F3D5C8B230633068800708D43068800743
:103E900005D43068800702D430688007F3D53763D3
:103EA0003068800700D5DFE03068800700D5DBE0B0
:103EB0003068800700D5D7E030688007F0D5D3E0C0
:103EC0003768FF0702D03768FF0611D53768FF074C
:103ED00002D03768FF060BD53768FF0702D0376876
:103EE000FF0605D53768FF07EAD03768FF06E7D435
:103EF0002C612A2737633768FF0702D03768FF062F
:103F000011D53768FF0702D03768FF060BD5376831
:103F1000FF0702D03768FF0605D53768FF07EAD0EC
:103F20003768FF06E7D42C603768BF0708D43768C6
:103F3000BF0705D43768BF0702D43768BF07F3D57A
:103F4000002737633568AD0708D43568AD0705D459
:103F50003568AD0702D43568AD07F3D5C0B230631C
:103F60003068800708D43068800705D4306880073F
:103F700002D430688007F3D53763584D3068800726
:103F800008D43068800705D43068800702D43068D0
:103F90008007F3D5D0B230633068C00702D03068F4
:103FA000C00611D53068C00702D03068C0060BD5F6
:103FB0003068C00702D03068C00605D53068C00739
:103FC000EAD03068C006E7D42C612B20306330681B
:103FD000C00702D03068C00611D53068C00702D0D3
:103FE0003068C0060BD53068C00702D03068C00604
:103FF00005D53068C007EAD03068C006E7D42C6029
:104000003068800708D43068800705D4306880079E
:1040100002D430688007F3D537633068800708D44E
:104020003068800705D43068800702D43068800784
:10403000F3D5C8B230633068800708D43068800791
:1040400005D43068800702D430688007F3D5376321
:104050003068800708D43068800705D4306880074E
:1040600002D430688007F3D5D8B230633068C00717
:1040700002D03068C00611D53068C00702D0306861
:10408000C0060BD53068C00702D03068C00605D521
:104090003068C007EAD03068C006E7D42C612C2015
:1040A00030633068C00702D03068C00611D5306870
:1040B000C00702D03068C0060BD53068C00702D0F8
:1040C0003068C00605D53068C007EAD03068C00641
:1040D000E7D42C60F0BDC0467C04202090520A40FA
:1040E00010914640EFF3108072B6704741688268C5
:1040F0008A60516001694B68834200D14A600022A6
:1041000002610868401E086070470000034B0360AE
:1041100080201060024808607047C0469C12202032
:104120009C102020034B0360802010600248086030
:104130007047C0460415202004132020FEE780F3BA
:1041400010887047002102460832CB430EC002603F
:1041500042607047002101617047B0B50B685A1C7E
:104160000BD004460834626815689D4208D854682C
:1041700025689D422546F6D904E00269556801E0AC
:1041800015462246A96008614D608A605160016849
:10419000491C0160B0BD000072B60C480168491CA2
:1041A0000160BFF34F8FBFF36F8F704707480168FF
:1041B000002906D00168491E01600068002802D06D
:1041C000704772B6FEE762B67047C0460400202012
:1041D000F0B581B000286BD0364E0446083C01256E
:1041E0000022B442294600D31146334BF718BC4293
:1041F0002B4600D813461943012901D172B6FEE7B8
:10420000061F3168002901D472B6FEE72268002A31
:1042100001D072B6FEE701220092D20791433160CD
:10422000082902D30839FCF7B1F800F069FA3068C0
:1042300022490A6812180A60214A1E4E1368A342D6
:1042400004D21A68A2421946F8D301E011461A4670
:104250001B4B99420ED0B94205D9B14207D2012D6C
:1042600008D172B6FEE700230093B142F7D3009D58
:10427000012DF6D04B68CD18A54202D1C018486078
:104280000C462318934201D0134607E00D4B1B68E0
:104290009A4203D053681818606013682360A142E3
:1042A00000D00C6008480168491C016000F0A2FDC4
:1042B00001B0F0BD7F042020FF0B0000BC152020C2
:1042C000F8152020A8032020D815202080B580696B
:1042D000801E0078642802D100F0EAF880BD72B632
:1042E000FEE7000056480121017057480170584808
:1042F000017054480421016000218160024941603D
:10430000072101607047C046FF7C0000F0B583B014
:1043100005464B480078002801D083208000854264
:1043200000D3054672B6BFF34F8FBFF36F8FFDF713
:104330009BFE002854D0434E06213160B2687D2098
:104340000402414800780028234600D103466F1E2E
:1043500001975F43002A00D01346DF19424A1368D1
:104360005B0108D501235B06136037480278002AF9
:1043700001D0364ABF1836480378002B00D05E23A0
:104380002046FB1A00D83B4673600027B7603468AC
:10439000012222433260002D04D0BFF34F8F30BF83
:1043A000BFF36F8F62B6BFF34F8FBFF36F8F72B6DD
:1043B000BFF34F8FBFF36F8F3160F94302913168C4
:1043C000C90304460FD46543B0682D1A2846214618
:1043D00000F004FE024621464143491B09191DE035
:1043E00062B603B0F0BD18490D78002D01D10299D5
:1043F00000E0611EB268D21A5318002D00D12C467D
:10440000A3420D4600D81D46114A1278002A0446E0
:1044100000D05E22934200D92946019A7160B760AC
:104420000721316008480178002901D1029800E095
:10443000601E7060104600F037F962B603B0F0BD40
:10444000C415202010E000E0841020200083FFFF2E
:10445000801020200120000703490860BFF34F8F20
:10446000BFF36F8F7047C04604ED00E070B515468E
:104470000E460446FFF790FE4420215C204644305F
:10448000FF2901D1002101704178FF2901D10021CC
:104490004170FFF78BFEA06B002805D12046243029
:1044A00031462A4600F07EF82046FEF753F970BDEB
:1044B000074A1168086804C8022181F31488203073
:1044C00080F30988BFF36F8F1047C046C046C046CF
:1044D0009C032020000000000000000000000000FD
:1044E00062B6BFF34F8FBFF36F8F64DF00BFC0466C
:1044F000F0B581B000282FD0BC490A68521C0A6070
:104500000968012918D17B490F681549096800918C
:1045100014490D68B74C2168091D06460846FFF787
:10452000E5FDBE19206846602068011DBE4205D227
:104530002846FFF712FE09E072B6FEE70098FFF783
:104540000CFE6D4801688E4200D2066000F052FCFD
:10455000002801D001B0F0BDFFF77CFF01B0F0BD35
:10456000A4032020AC0320200349096801606149AD
:10457000096841607047C046D01520209C48012141
:104580000160704710B500280AD00C4699490968A7
:104590001831FFF7E2FD01212046FDF79FFD10BD18
:1045A00072B6FEE770B500281AD0924B1C684568B9
:1045B000E561AC681E6834620668761C06601E6899
:1045C000183666601C681834AC601B689862002A54
:1045D00001D00020C14308461146FDF77FFD70BDA4
:1045E00072B6FEE7F0B58DB007AD681D0B21FBF785
:1045F000CDFE00242C71274807900694059406A848
:1046000005A904AAFFF782FD069D059F049E0B9451
:10461000002F36D0002D36D068200C900C986828DA
:1046200033D10C9868212846FBF7B0FE65200221A3
:1046300029542F6302950BA801900094164807A9EE
:1046400032462346FDF7ACFE2846FDF787FD1348AA
:104650000B990160002910D000F06AFC411C16D0B3
:1046600001280AD172B6E043234908600C480121B1
:1046700001602048046000F0C5F80A4800680DB0E9
:10468000F0BD72B6FEE772B6FEE772B6FEE772B62E
:10469000FEE7C04649444C45E9220000C0152020F1
:1046A000F415202098530000B0B5124C2168091869
:1046B000114A1368994201D972B6FEE71268914215
:1046C0000FD14A49096800290FD000280FD00546AC
:1046D000FFF762FD09480168491C0160FFF766FDAC
:1046E000681E216808182060B0BD72B6FEE772B679
:1046F000FEE7C04628162020CC152020DC152020FF
:104700003A480168491C01607047C046F0B581B065
:1047100036480068002804D035480121016001B006
:10472000F0BD334800210160324C206821680968DF
:10473000006B2268126B91420CD902682E498A42A2
:1047400008D142688A4205D182688A4202D1C06893
:10475000884204D0216820683431FFF7EFFC2748F5
:10476000016814231A464A43254DAE58002E0FD037
:10477000AA1853685B68536015460835AB4201D1EF
:10478000D3685360DA6822600160206801B0F0BD30
:10479000AA1800291DD01E464E4376191746143F0D
:1047A0003F68002F17D1012913D01746283F3F68D3
:1047B000002F13D102290CD017463C3F3F68002F31
:1047C0000FD1032905D0091F503A1668002EE0D0FA
:1047D000CFE772B6FEE7143E491E04E0283E891E6C
:1047E00001E03C3EC91E3246C3E7C046901020207F
:1047F000341620209C032020A5A5A5A598102020D4
:10480000B4032020B0B582B01C48014618390968AD
:10481000CA6A1B4B9A4201D072B6FEE7896B194AED
:10482000914201D072B6FEE7FF210A0403681343E8
:104830000360090602680A430260001F0024046046
:10484000FFF750FD104D2C60FFF74AFEFFF75EFFAB
:104850000194286872B6401C09D0FEE70198002830
:1048600008D10198002805D10198002802D10198AB
:104870000028F3D0002002B0B0BDC04620ED00E01B
:1048800041170000F116000004002020F0B583B0AD
:10489000002B0BD0002807D0002901D1002A03D11A
:1048A000002905D0002A03D172B6FEE772B6FEE7F2
:1048B00050240294029C502C19D11E464436029C6E
:1048C000D86319640C460029194600D011461F46CA
:1048D00019600121B1700025294622462B46FBF7BD
:1048E000A1FC481E8141012903D172B6FEE772B6D0
:1048F000FEE708980190FFF74FFCBD63FF20307082
:1049000039687070F86B3A6C431E50430818534373
:10491000CA187960B860FA6038461030FFF712FCA8
:1049200038462430FFF70EFCFFF740FC0198307248
:10493000384603B0F0BDF0B585B0049200280CD025
:104940001546044600292ED00F4600F049F90028EC
:1049500005D1002D03D072B6FEE772B6FEE7FFF771
:104960001BFCA56B002D23D0226C002A0AD03846F0
:10497000E1688918E160A368994201D32168E16088
:10498000FBF79EFC681EA06320690125002800D16A
:1049900089E01034204600F0CDF9002800D182E0F3
:1049A000FFF758FD7FE0206C0028CDD072B6FEE7FF
:1049B00000250498002876D000952646443602A8A3
:1049C000FFF7D2FDFFF7F2FBFFF79AFEFFF7E4FBDC
:1049D0003078FF2801D1002030707078FF2801D195
:1049E00000207070204624300190FFF7DFFB02A802
:1049F00004A900F05DF800280DD02046FDF7AAFEBE
:104A000000F0F8F9FFF7C8FBA56BFFF7CFFB002D0F
:104A10001BD1002549E0FFF7BFFBA56BFFF7C6FBE5
:104A2000002D05D02046FDF795FE00F0E3F90CE0DF
:104A300004990198FFF7A6FD2046FDF78BFE00F0D4
:104A4000D9F9002801D1FFF705FDFFF7A5FBA56BFC
:104A5000002D89D10498002824D0FFF7A7FBFFF789
:104A60004FFEFFF799FB3078FF2801D1002030700E
:104A70007078FF2801D100207070FFF797FB02A823
:104A800004A900F015F80028C5D02046FDF762FE05
:104A900000F0B0F9FFF780FBA56BFFF787FB002D57
:104AA000D3D1B6E7009DFFF781FB284605B0F0BDE6
:104AB000F0B581B000281FD00C4600291ED0054655
:104AC000FFF76AFB6A6898480768216800264B1C54
:104AD00019D0974803682868834201D097420FD2C3
:104AE000BA1A91420CD9881A20609148006828604F
:104AF0008D480068686006E072B6FEE772B6FEE7B1
:104B0000002020600126FFF751FB304601B0F0BDC8
:104B1000F0B587B01F461546069105909000FDF749
:104B200059FE04460020C643002C20D0049768207C
:104B3000FDF750FE002817D007460D9803900C9EF5
:104B400068213846FBF722FC3C63009603980190ED
:104B50000297059806992A46049BFDF721FC3846E2
:104B6000FDF7FCFA012602E02046FFF731FB304654
:104B700007B0F0BDF0B589B0002407940F9E002E59
:104B800028D0109C002C27D068250895089D682DFA
:104B900024D10E9D0695089D6825049020460F4659
:104BA000294605931546FBF7F1FB652002212154A8
:104BB0002663029407A8019006980090049839464D
:104BC0002A46059BFDF7ECFB2046FDF7C7FA079840
:104BD00009B0F0BD72B6FEE772B6FEE772B6FEE748
:104BE00005480068002805D0C74800684142414197
:104BF0004800704701207047F41520204A4800689B
:104C00007047C046F0B582B0BF480068002806D0A3
:104C1000C6480168491C0160002002B0F0BD42484E
:104C200001684E1C06601BD3BE4802681268002A49
:104C300001D072B6FEE702683C4B1C6804601A6043
:104C40003B4A13685B1C136002681268002A03D099
:104C50000068C068006801E00020C043B24A1060EC
:104C6000B1480068864201D2002055E00023D943B4
:104C70000091AC4802681268002A48D000210191D6
:104C800003E001680968002942D00268D268D3684D
:104C90005A6896423DD31A1D9F68DD68BD606F60FB
:104CA0005F697C68944200D17D603C68641E3C6012
:104CB0009F6A002F0ED0DC691D6AA5606C601C46DF
:104CC00018347968A14200D17D6000219962396869
:104CD000491E3960DF6A8F4909688F4201D98D49C1
:104CE0000F60142179438C4D6C58641C6C5069180A
:104CF0004C689C60A568DD6059616A60A260874964
:104D00000968C96A8F42BCD901210191B9E70193B1
:104D1000009A85490A60019881490968002900D1F3
:104D20007BE7012002B0F0BD28162020AC03202034
:104D3000D015202070B5C068C168002920D0CA698C
:104D4000086A906042600A4618328B6A5C68944236
:104D500000D158601868401E1860002088626A4BB5
:104D60001B68002B0ED06A4B5C68CC61A5680D6295
:104D70008B626A601D686D1C1D60A260CA6A2FE0AC
:104D800072B6FEE78A68CC68946062600B1D4A695F
:104D900055689D4200D154601468641E1460CA6A4C
:104DA0005C4C2568AA4200D92260142454435A4D11
:104DB0002E59761C2E512C1965688D60AE68CE6018
:104DC0004C617360AB6057490B681B68002B03D0C4
:104DD0000968C968096801E00021C943524B19609C
:104DE0004E490968C96A8A4202D94D4901200860C2
:104DF00070BDC046F0B581B0FFF7CEF942480168FA
:104E000000290BD00168491E0160006800270028B6
:104E100006D0FFF7CBF9384601B0F0BD72B6FEE719
:104E20003A4800680028F4D0394B196800294FD05F
:104E3000009703E01346106800283CD01A46DB6850
:104E4000DF68FB693D6A9D606B603B461833BC6A56
:104E500066689E4200D165600026BE6223685B1EC4
:104E60002360BC68FB68A3605C603C1D7D69696869
:104E7000A14200D16B602968491E2960FD6A25485E
:104E800001688D4200D905601421694322484358C6
:104E90005B1C435041184B68BB609868F8607961AF
:104EA00044609C601D480068C06A8542C2D90120E8
:104EB0001B490860BEE71B4801680968002903D048
:104EC0000068C068006800E0F043009F1649086071
:104ED000164C2568002D0CD0114E01E06D1E06D039
:104EE000FFF790FE0028F9D001203060F6E700209F
:104EF00020600B48006800288BD008480068FFF746
:104F0000A9FA012785E7C0469010202088102020AC
:104F1000E015202098102020B40320209C0320209E
:104F200034162020A4032020CC152020DC152020BE
:104F300070B586B0FFF730F91D4E3068002814D1E7
:104F40001C4C2046FFF7FEF81B4D2846FFF7FAF8E9
:104F50001A4805601A480460002000900A200C21BD
:104F6000184A194BFFF792FC3060FFF71FF93068C1
:104F700000281AD000240594049405A804A903AAC3
:104F8000FFF7D0F8039A049805990923009301903C
:104F900002910E480EA12346FFF7ECFD0E49086072
:104FA000002802D0012006B070BD72B6FEE7C046F0
:104FB0002C1620206C15202080152020B0032020E6
:104FC000A0032020D00220204803202055250000E7
:104FD000546D7220537663003016202043088B42B4
:104FE0001AD3002203098B4279D3030A8B425ED382
:104FF000030B8B4242D3030C8B4227D30902FF22BF
:1050000012BA030C8B4202D31212090203D0030B13
:105010008B4233D31AE0D3E0411A8041401C7047E1
:1050200003460B4371D443088B42F5D30022030996
:105030008B4254D3030A8B4239D3030B8B421DD3CB
:10504000030C8B4202D394466EE0090AC30B8B42D9
:1050500001D3CB03C01A5241830B8B4201D38B0384
:10506000C01A5241430B8B4201D34B03C01A524129
:10507000030B8B4201D30B03C01A5241C30A8B426C
:1050800001D3CB02C01A5241830A8B4201D38B0257
:10509000C01A5241430A8B4201D34B02C01A5241FB
:1050A000030A8B4201D30B02C01A5241CDD2C3096D
:1050B0008B4201D3CB01C01A524183098B4201D3E9
:1050C0008B01C01A524143098B4201D34B01C01AD4
:1050D000524103098B4201D30B01C01A5241C3084C
:1050E0008B4201D3CB00C01A524183088B4201D3BB
:1050F0008B00C01A524143088B4201D34B00C01AA7
:105100005241411A524110007047CA0F00D0494223
:10511000031000D34042534000229C4603098B42B7
:105120002DD3030A8B4212D38901FC2212BA030A3F
:105130008B420CD3890192118B4208D389019211C1
:105140008B4204D3890137D0921100E08909C30949
:105150008B4201D3CB01C01A524183098B4201D348
:105160008B01C01A524143098B4201D34B01C01A33
:10517000524103098B4201D30B01C01A5241C308AB
:105180008B4201D3CB00C01A524183088B4201D31A
:105190008B00C01A5241D9D243088B4201D34B0035
:1051A000C01A5241411A00D201465241104663468C
:1051B0005B1000D34042704763465B1000D340420F
:1051C00001B50021004201D0C9430846C046C0468F
:1051D00002BDF8B5040C8BB2264682B25E4310467F
:1051E00058430D0C370C36040021801916467941BE
:1051F0006E43370C36048019264679416E4389196F
:10520000F8BD00004900CA020243100000D004208B
:105210004A0D01D001221043044A490D914201D1A7
:1052200002210843012800D105207047FF07000034
:1052300010B500290AD00878002807D0054878441E
:10524000FBF7FCFF002801D0002010BD0248784485
:1052500010BD0000820100007A01000003B4024882
:105260007844844603BC60477DB5FFFF02400000E0
:10527000000000A00000000005400000000000C881
:10528000000000000C4000000000409C00000000F6
:10529000194000000020BCBE0000000034400000A7
:1052A000BFC91B8E00000004B5400000504BCFD09A
:1052B0006607E2CF010000006C4100003E8251AA67
:1052C000DFEEA73401000000D9420000DCB5A0E207
:1052D0003A301F97FFFFFFFFB4450000FD25A0C82F
:1052E000E9A3C14FFFFFFFFFFF3F00000000008068
:1052F00000000000FF3F00000000008000000000F0
:105300000800000800000000010500000000000087
:1053100001050000000000020800000090010000EC
:105320000001000008000400200000000710000039
:105330000800000001000000000000000000000064
:10534000000000000000000010000000000000004D
:1053500004000000000000003400C4410800070001
:1053600090010000000000000800040000000000A0
:1053700007100000080000001800000000300000C6
:1053800008000000180000000030000008004E0077
:10539000204E000020010000090000000000000075
:1053A000E053000000002020080000002001000061
:1053B000E853000008002020301E000048010000D3
:1053C0001C00000043000000F8FFFFFF0C0000007D
:1053D0000E0000000F0000002E0000000000000082
:0853E000FFFF0000AAAAAAAA1F
:04000005000000C136
:00000001FF
