:020000040000FA
:1000000028232020F9010000FD010000FF0100006D
:1000100000000000000000000000000000000000E0
:10002000000000000000000000000000413100005E
:100030000000000000000000F1300000C93A00009C
:1000400007020000E5290000070200000702000087
:10005000070200000702000007020000070200007C
:10006000070200000702000007020000070200006C
:10007000070200000702000007020000070200005C
:10008000070200000702000007020000070200004C
:10009000070200000702000007020000070200003C
:1000A000070200000702000007020000070200002C
:1000B000070200000702000007020000070200001C
:1000C00000F002F800F06CF812A030C808382418CC
:1000D0002D18AC4201D100F063F80FCCA246AB461C
:1000E0000CA730CF2D1B083F3F197C427F1E544484
:1000F0002D090426F441641EAC4201D300F050F8EF
:100100000126334200D0FB1A3343984754465D46DC
:10011000DFE700000C8F00002C8F000000000000C3
:10012000103A02D378C878C1FAD8520701D330C840
:1001300030C101D504680C60704700000000000069
:100140007047000000000000002300240025002666
:10015000103A01D378C1FBD8520700D330C100D583
:100160000B60704710B5662902D108F043FA10BD44
:10017000642902D100F082F810BD752902D100F087
:100180007DF810BD002010BD1FB501F0D9FB0400A3
:100190000020002108F080F8E0601FBD10B510BD00
:1001A00002F00AF81146FFF7EFFF04F085F902F0BC
:1001B00022F803B4FFF7F2FF03BC02F0D7F8000007
:1001C00070B505460C46164602E00FCC0FC5103E32
:1001D000102EFAD2082E02D303CC03C5083E042EFB
:1001E00007D301CC01C5361F03E021782970641CB8
:1001F0006D1C761EF9D270BD06480047FEE7FEE78B
:10020000FEE7FEE7FEE7FEE703480449024A044B27
:1002100070470000C1000000281B20202823202058
:10022000281B20204343514330B55C18010C130CAC
:100230000D4692B25D4380B251432C190546554399
:100240000A0C09044D1962415843010C000440197D
:10025000514130BD0FB41CB5074B06AA7B4469461B
:100260000090059801F0D5FA0020694601F0E4FA03
:100270001CBC08BC04B01847D9150000F7B5002510
:1002800075291068009914A611D0C046C0460028F0
:1002900002DA404211A608E0009909688A0701D5F0
:1002A0000FA602E0490704D50EA6012501E0C046CD
:1002B000C046009F0024243704E001F0C2FA303128
:1002C0003955641C0028F8D12B4632462146009847
:1002D00001F037F8FEBD0000000000002D00000016
:1002E0002B00000020000000F3B50446002081B080
:1002F00020622046E168884700287AD0252802D06D
:100300006268A16871E0E1682046002588470646DA
:100310000020E0610746A0612A2E0AD0304607F08F
:10032000C3FD002827D0B8000019303E0090866138
:1003300019E00298BA00121902C891610290204691
:10034000E1688847012F064617D1E06900281FDAC7
:10035000202085431CE000980A21806948430099C9
:100360008019303888612046E1688847064607F0E2
:100370009BFD0028EFD1012F0AD02E2E08D1204658
:10038000E16888470646202005437F1C022FC3DB17
:10039000A069002803DA4042A06101200543E80774
:1003A00001D010208543002E23D030464138192833
:1003B00003D80120C002054320362046256031467F
:1003C000029A1546FFF7CEFE00280BD0012806D072
:1003D000ED1DE808C000083002908AE709E02D1DF5
:1003E000029586E762683046A1689047206A401C03
:1003F0007EE7206AFEBDF8B5042A2CD3830712D00D
:100400000B78491C0370401C521E83070BD00B78DD
:10041000491C0370401C521E830704D00B78491CF2
:100420000370401C521E8B079B0F05D0C91ADF00BA
:100430002023DE1B08C90AE0FFF7C2FEF8BD1D46F7
:1004400008C9FD401C46B4402C4310C0121F042AAA
:10045000F5D2F308C91A521EF0D40B78491C037068
:10046000401C521EEAD40B78491C0370401C012A20
:10047000E4D409780170F8BDD2B210B513029A180D
:1004800013049A1800F001F810BD01E004C0091F20
:100490000429FBD28B0701D50280801CC90700D03C
:1004A0000270704700290BD0C30702D00270401CB5
:1004B000491E022904D3830702D50280801C891EAD
:1004C000E3E70022EEE70022DFE700000022030955
:1004D0008B4273D3030A8B4258D3030B8B423CD31A
:1004E000030C8B4221D312E003460B437FD400223E
:1004F00043088B4274D303098B425FD3030A8B42B8
:1005000044D3030B8B4228D3030C8B420DD3090237
:10051000FF2212BA030C8B4202D31212090265D0D9
:10052000030B8B4219D300E0090AC30B8B4201D3A2
:10053000CB03C01A5241830B8B4201D38B03C01AE9
:100540005241430B8B4201D34B03C01A5241030B60
:100550008B4201D30B03C01A5241C30A8B4201D311
:10056000CB02C01A5241830A8B4201D38B02C01ABC
:100570005241430A8B4201D34B02C01A5241030A33
:100580008B4201D30B02C01A5241CDD2C3098B4218
:1005900001D3CB01C01A524183098B4201D38B0195
:1005A000C01A524143098B4201D34B01C01A524138
:1005B00003098B4201D30B01C01A5241C3088B427D
:1005C00001D3CB00C01A524183088B4201D38B0068
:1005D000C01A524143088B4201D34B00C01A52410A
:1005E000411A00D201465241104670475DE0CA0FE1
:1005F00000D04942031000D3404253409C460022A1
:1006000003098B422DD3030A8B4212D38901FC22AA
:1006100012BA030A8B420CD3890192118B4208D380
:10062000890192118B4204D389013AD0921100E0E2
:100630008909C3098B4201D3CB01C01A52418309F6
:100640008B4201D38B01C01A524143098B4201D323
:100650004B01C01A524103098B4201D30B01C01A4E
:100660005241C3088B4201D3CB00C01A52418308C8
:100670008B4201D38B00C01A5241D9D243088B421E
:1006800001D34B00C01A5241411A00D201465241D7
:10069000104663465B1001D34042002B00D549420F
:1006A000704763465B1000D3404201B504490028FF
:1006B00002DC491C084000E00846C046C04602BDB6
:1006C000FFFFFF7F7047704770470000F0B50C4692
:1006D000871A9C410D46861A9D4103D2C01BA14139
:1006E000D21963410D0D1F0DC94EEC1BAE435CD0FA
:1006F0007F057F0D0026002F51D02D05AC46A94364
:10070000DD020123ED0A1B051D4320231B1B24D4FE
:100710001746E740381871412F46E740CC199D40F5
:100720002818314661410C0D27D161449A4013D5F8
:100730000023401C594152000ED1400840000122C4
:100740004B005205D34207D305204007C14201D5D3
:10075000B04900E0B0493046F0BD6B00002A00D03F
:1007600001229A181F23203C1B1B01D5002302E005
:10077000E540281871410C0DD7D001242405091932
:10078000C407CD0740084908E40F28436144002C02
:10079000D5D00024401C61419A40D0D1CDE76A05F4
:1007A000520DD9D1C90FC907D5E79C4D4E0000287D
:1007B00001D0012400E0002434195F00002A01D098
:1007C000012600E00026BE19954FAC420CD8AE427F
:1007D0000AD8B44206D001256D05EC42BCD01046C3
:1007E0001946F0BD9942FCD000203946F0BDF0B565
:1007F0001FB40C460F46811A9F412546861A9D411B
:1008000006D20125ED076F40401ABC4152187B41CA
:10081000210D1E0D8D1BAC467D4D8D437ED0750583
:100820006D0D7CD00D05AE46AC431B031B0B794D03
:1008300052429D41202366469B1B14D31746F74026
:10084000381800260090744160462F460741E4198D
:1008500000989D402818664116D4714671189A4038
:1008600025D5012320E093182A466A415200002B27
:1008700000D0521C1E23203E9B1B002B61DD354106
:10088000EE1728186641E8D5001876415B1C9A409F
:1008900000D3401C4B05F3181524E34010D3002B64
:1008A00052D071467118D30FC01802D3491C05B03D
:1008B000F0BD0123DB079A42F9D140084000F6E77A
:1008C00001225205B21801D1002853D00123CC0ACD
:1008D000DB029943891E002A08D1020C03D0020CC6
:1008E0000004103902E00246002020390023550B95
:1008F00005D112020823550B01D152010D23550CCD
:1009000001D112011B1DD50C01D192009B1C150DAC
:1009100001D152005B1C2025EE1A01E02CE022E000
:100920000546F54015439840CA1AE10769181305B2
:10093000C918002ABBDA032040070818C10FC907ED
:100940000FE071466118B2E7F107400808437110E3
:1009500071444A000CD001235B059A42A7D2C90F0B
:10096000C9070020A3E74905490D26D1002001E071
:100970000028F4D100219AE7284D6600002801D014
:10098000012100E0002171185F00002A01D001263A
:1009900000E00026BE19224FA94210D8AE420ED860
:1009A000B14208D001256D05E94206D01946A802DA
:1009B000414010467BE79C4201D0214677E700206A
:1009C000394674E710B50C465C4005D50124E407B0
:1009D0006340FFF70CFF10BDFFF778FE10BD30B489
:1009E0000C465C4004D50124E407634030BC6DE64E
:1009F00030BCFCE670B50124E40761400D465D4063
:100A000002D4FFF763FE70BD6340FFF7F0FE70BDD8
:100A1000FF0700000000F0FF0000F07F0000E0FF93
:100A20000000F87FF0B5F94D0C091E092C402E404E
:100A30002F468BB0A7437DD0B543FCD0002E7AD093
:100A4000002CFCD00D465D40ED0F2543AC1BFF256F
:100A5000AD0464190894C502440DC9022143500D28
:100A6000DC0204430120C00701430443D202019188
:100A7000200C110C00958C46010423468B430A91EF
:100A800061460904E24D8A430991010A7D444919EE
:100A90008039097805464D4301266D18F605751B0A
:100AA0006943C90C640B891C4C436418B5012C1BA9
:100AB000250C2E04B4434C434D43210C691889097D
:100AC0000591009DE90701D00121C90704912C4639
:100AD00001996708CD072F434C08059DE10B4D4355
:100AE0002D0C29466646754302950D4645432E4614
:100AF000029D7D1BB44100950D465D4301942C0C75
:100B00002F040D465543AE462D0C3D4302950394EC
:100B10007546049C2D04641B049406D2029C039D1C
:100B2000641C002675410395029401AC70CC009FB3
:100B30007D1B01E03EE162E1B441090400950791AB
:100B400001940599A4086143090C0C464443650BC4
:100B5000E7040C4666467443A646640B3C43039583
:100B600002947446049DE4042C1B049406D2029C57
:100B7000039D641C002675410395029401AC70CC62
:100B8000009F7D1BB44101940C465C430095650FAA
:100B9000E7000C465443A646640F3C430395029479
:100BA0007446049DE4002C1B049406D2029C039D11
:100BB000641C002675410395029401AC70CC009F23
:100BC0007D1BB441AE09AF06049DC900AD092F439A
:100BD000049DA406AD060495079D3443691807914A
:100BE000059DE10B4D432D0C294666467543029544
:100BF0000D4645432E46029D7D1BB44100950D4692
:100C00005D4301942C0C2F040D465543AE462D0C2C
:100C10003D43029503947546049C2D04641B049483
:100C200006D2029C039D641C002675410395029424
:100C300001AC70CC009F7D1BB44101948C050694DF
:100C4000079C890A611800950791019C0599A408E1
:100C50006143090C0D464543680BEF040D4664469D
:100C600065436C0B3C43049FED047D1BAC4602D2F4
:100C70000025641C6841009E019D371B8541084684
:100C8000584301950C46460FC5005443600F284356
:100C90006546E4002C1B02D20025401C6E41019DDC
:100CA0003F1AB5412846BD09800628438446A0095D
:100CB000BF064E020699A40676180743079D00203A
:100CC00068410A99079019430020099B00906046EB
:100CD000FF1913434041E20F64003A43A44604461F
:100CE000D71A8C41A04203D90120009020463A46F1
:100CF000C70F941840416246D20F224364466400F5
:100D00000494009CBE466400D71AA4460446029789
:100D10008C417746002F01D1A04204D96046401C87
:100D20008446029A2046C40FA64694184041049A6D
:100D30000546D20F224364466400D31A8D417146A2
:100D4000002901D1A84202D928461A46641C104342
:100D50000122002800D0164361020020079B891958
:100D600004465C410223002C02DB4918134664410F
:100D7000089DCE0A2D145D194B056705E10A2C0567
:100D80000D1908993E43C9076940002B08D09340CC
:100D900006D30022761C5141002B01D17608760043
:100DA0001C4A002D43DB154241D0AA433FD03046B8
:100DB0000BB0F0BD06180D464D41174C7642AC41C4
:100DC0001AD395181C465C41134A6D42A24113D3B5
:100DD000012252054C00D4420AD15C00D4420BD00F
:100DE0004B4002D592021143E2E749004908DFE790
:100DF0005940C90FC90718E000200849D8E705483D
:100E000001420DD10342F7D0F2E700000000FF07D6
:100E1000747B00000000F07F0000E0FF0000F87F1E
:100E2000114859400143C01241400020C0E701234E
:100E3000089A9B069A4205DC032252078918C90FBB
:100E4000C907B5E7052252078918074A1143D2128C
:100E50005140ADE770B515461C4602460B46284684
:100E60002146FFF7DFFD70BDFFFFFF7F30B5034672
:100E7000CA02400D1043164D164C0A1502D02043ED
:100E8000002A06DBAA1A002A12DDD040FF2A0BDC5A
:100E900030BD5205520D01D140004008AA1A07D4B6
:100EA000D0404042FF2A01DD002030BD0028FCDD9B
:100EB0004A00002B01D0012000E000201018012280
:100EC0005205D042F0D8C817C043604030BD000082
:100ED0001E040000000000801F22030C02D10F221C
:100EE000000402D0030E03D004E000200146704746
:100EF0000002083A030F01D10001121F830F01D134
:100F00008000921E002801DB4000521E120551187D
:100F10004205C012411810467047C10FC90700D0E2
:100F20004042012292071143D6E701218907D3E706
:100F3000F0B58B4C0F09254689B0BD437BD01D0908
:100F40002646AE43FAD00E465E402740F60F3E439B
:100F5000254071D024012142FBD0FF24AD19A40407
:100F60002D1B039501252D05DB02DB0AC9022B434E
:100F7000C90A29431E010901040F130F050121436A
:100F80001701880B820391432D098C46A90B1E4340
:100F90008A039543B30B9A0396433F09BA0B940314
:100FA000A74302962E467E430497B6464E19D7199C
:100FB0000C460196544305977E43371B7646BF1B6C
:100FC0003601B646BE0B361900967646BC04371974
:100FD000009C01D3641C00946400002F01D0012602
:100FE0003443029E049F754366467E430496760012
:100FF00034196E0034190094029C019E1C1966433A
:10100000751BAE46069465464519059C05956C43CF
:10101000594375460891691A0191049E014651434E
:10102000A41B0491611A009C0791E10605D0610997
:101030000122114302E072E06EE06109089D002781
:101040002C0A2D066918049D7C412A0A2D06691870
:10105000019D6241AC0DAD026D185441079A910D8E
:10106000920255196141029A644658435443069BC3
:10107000059A5A43121A131B9A0E9B015B187A4168
:10108000010B0005C3185141220A200644195A4198
:101090009A4200D2491C01204002814203D3152309
:1010A0000226F64302E014230326F6432020C51A45
:1010B000A9401746AF40DA400A4320460399D8407A
:1010C0000914731819055118039A3843D20751406F
:1010D000AC4009D00122944006D30022401C51416B
:1010E000002C01D1400840001E4A934212D3012235
:1010F00003989206904207DB0520400709181A481A
:101100000143C012414004E0032040070818C10F0A
:10111000C907002009B0F0BD0020F107FAE7051863
:101120000C464C4111486D42A04115D394181A4603
:101130005A410E48644290410ED301204A004005B6
:10114000824209D35A00824206D35940C90F084A45
:10115000C90700201143DDE700200649DAE7000057
:101160000000FF07FE070000FFFFFF7F0000E0FF19
:101170000000F07F0000F87F0121C905012341181C
:1011800042001B06D3185B0E0AD0C1100722D206FC
:10119000891840075242D14201D552008918704740
:1011A000090208D50146002A03D0C10FC907002053
:1011B000704710467047420202D000200249704733
:1011C000072109050143F4E70000F87FF0B5FF258A
:1011D0002D04C609C209FF2704462E400137CB095A
:1011E0003E4348402A402B400746002A6BD0002B44
:1011F00069D0AA4267D0AB4265D0002800DA3246F7
:101200000125ED0529432C4309022002090AD21ABF
:101210004B0C7F24E31A434C000A7C44E35C7D249E
:101220002404121914145B00A218884201D3521C22
:1012300000E0400049420C465C4324115C43DB0162
:101240006415E318040A5C43C502200D0C464443B0
:101250006419250A5D432303EC0C0D466543000326
:101260000019EB184C42A34201D35B18401CD40573
:101270002018002B07D05B00C91804D3401C00299C
:1012800001D1400840003F2189048A4209D3002A45
:1012900008DC1106090F04D0032149074018C00FCC
:1012A000C007F0BD01224100120689187F225206B4
:1012B0009142F6D205214907C84201D59010F0BDF0
:1012C000FF20C005F0BD002F00DA32461648AA42C2
:1012D00007D2AB4205D21902090E17D0F80FC0078A
:1012E000F0BDFF2563002D06AB42F9D84900A942A5
:1012F000F6D8AB4201D1A942F2D0A94201D10021D6
:1013000001E061004908D0050843F0BD1102090E53
:10131000FBD0FF200243D005F0BD0A46014610462F
:1013200054E70000667400000000C07F10B500F0B4
:101330000BFB006810BD10B5044600F005FB04600F
:1013400010BDFFB504460D4681B0243000902168E1
:10135000880604D51022E0699143216000E0012055
:10136000A84201DD471B00E000270498A1697A1913
:101370001018081AA0612078C00602D42046C04682
:10138000C046002608E003986268A168805D904727
:10139000206A401C761C206204988642F3DB207889
:1013A000C0060AD52046C046C04606E06268A1686D
:1013B00030209047206A401C206238467F1E00285B
:1013C000F4DC07E000986268A168405D9047206AFD
:1013D000401C206228466D1E0028F3DC2046C046D3
:1013E000C0462078000602D5022005B0F0BD0120DD
:1013F000FBE70000FFB50C461E468FB003CA0890FD
:1014000009914F007D0D00D16D1E0021084600207E
:10141000C0460321099A89050840002A03DA8200A0
:10142000801840080840800D01280A9002DD002045
:10143000C0430A90089807430DD0F048F049281897
:1014400048430714189800281DD07542291E1DDD39
:101450000A9842421BE01898012802D0002030214F
:1014600004E00020F24305E02154401CB042FBDBC5
:1014700030460022189B002121540F998B600A608E
:10148000486013B0F0BDBD1B6D1CDFE70A9A002950
:1014900000DA69420BA800F0DDFA0BAB07CB03AB17
:1014A00007C30899099800F041FB6B4607C3014642
:1014B000D4480918002D00910BDDD24903980A9AEF
:1014C00049424018002303A90390684600F09EFD9E
:1014D00008E003990A9A0023081803A903906846B4
:1014E00000F03EFD6B4607C30004000C03D0002053
:1014F000C043410800E01046189A002A03D0002299
:10150000009215461EE0751E05D400F021FA303217
:1015100062556D1EF9D501220843079602D00022BC
:101520007F1C04E02078302801D100227F1E002A91
:10153000069787D01EE0112D07DA00F009FA303245
:1015400062556D1C02460A43F5D1084303D000984A
:10155000002819D00EE00021681E05E0235C625CC3
:1015600063542254401E491C8142F7DBA81B401ED5
:1015700007950690079A18990020A0540F98079B8A
:10158000069A81600CC07CE711260020189059E76C
:10159000D21DF0B50D460446D10893B0C90003C969
:1015A0000C900D9106F022FC02460D98C00F01D060
:1015B0002D2007E02068810701D52B2002E040079D
:1015C000C00F4001032A0F9001D0072A05DB034614
:1015D0002946204600F0FAF90EE12078800601D570
:1015E000E76900E006272846652D04D0662814D058
:1015F000672D69D12DE00020112F009001DB112310
:1016000000E07B1C0CAA03A910A8FFF7F3FE1199B8
:10161000002610987D1C0E9142E001203B460CAA4A
:10162000C0070B900120009003A910A8FFF7E2FE6D
:10163000119D12981099002600280E9501D1781C52
:101640000D18781B02D446427D1C761EE81B0090C4
:101650003AE0012F00DA01270020112F009001DD70
:10166000112300E03B460CAA03A910A8FFF7C2FE15
:1016700011993D46109800260E91217809070BD448
:101680000E99A94200DA0D4603A9012D04DD4A197D
:10169000203AD27F302A06D0B84201DA011D04DA9E
:1016A000012100910FE06D1EEFE7002802DC861992
:1016B0002D1A03E0411CA94200DD0D46801B401C91
:1016C00000900120C0070B902078000705D40098F7
:1016D000A84202DB0020C043009069460020C87287
:1016E0000B98012102AF0337C907884225D0022099
:1016F00010902B2011900B9800280BDA40420B9091
:101700002D20119006E00B9800F09BF830317F1EE1
:101710000B9039701099481E00291090F3DC0B983B
:101720000028F0D111987F1E38702088000501D55F
:10173000452000E065207F1E387001A8C01BC01D39
:101740000B900F98002800D0012041190098C01775
:1017500009180B980818A169081A401EA061207882
:10176000C00602D42046C046C0460F98002805D0C7
:101770006268A1689047206A401C20622078C006F9
:1017800025D52046C046C04621E0002E07DB0E9836
:10179000B04204DD03A86268805DA16802E062686F
:1017A000A16830209047206A761C401C2062009877
:1017B000401E002800900AD100F0C2F8C06862689C
:1017C0000168405CA1689047206A401C206228465E
:1017D0006D1E0028D9DC07E062683878A1687F1C9C
:1017E0009047206A401C20620B99481E00290B90EC
:1017F000F2DC2046C046C046032042E601FCFFFF63
:10180000104D0000E1DFFFFF01694A1C026108780A
:10181000704700B58FB002910021059105490193F1
:1018200079440391114604906846FEF75DFD0FB0C0
:1018300000BD0000E5FFFFFF0A681070521C0A603F
:10184000704701468008081A02091018020A101889
:10185000020C1018C008820012185200891A01E008
:10186000401C0A390A29FBD27047000010B5FF223C
:10187000C30D134009D05A4007D0914205DA5C42AB
:10188000A14202DDC905081810BDC40FE407002BF2
:1018900006D0002A06D0002902DBFF20C005044341
:1018A000204610BD4102FCD0004810BD0000C07FA2
:1018B00030B5C30D1906214A090E31D0FF292FD0AA
:1018C00000283ADB01025002014301207D33C3406E
:1018D00000D24908012080071724091A2406490864
:1018E00082102343FF252D064C00211A04D4891AA7
:1018F00002D45400201800E0214652085B19F3D5A9
:101900001A220446944007D382068A4203D18021DA
:101910008030884300E08030C009D905081830BD08
:10192000FF2904D04100FAD0C00FC00730BD4102EA
:1019300001D0104630BD0028FCDAFAE70000C07F75
:1019400000487047300020200048704710002020D9
:101950000B4670B5024689078008084319469D0862
:10196000141AA94125090807054308092C194841FB
:10197000250A01060D43010A2C194141200C0D04D2
:1019800028430D0C00194D41002140194D41C0085C
:1019900069070843E908840F8D0025438400241853
:1019A0004D4124196D41121BAB4107E00925ED4360
:1019B0002C11521963410024401C61411C460A2528
:1019C0000026551BB441F1D270BD0000F8B51F468A
:1019D000044601230068DB02032601461840072A5B
:1019E00005DB002801D017A506E017A504E00028B4
:1019F00001D016A500E016A5102081432160A06942
:101A0000C01E002FA06101D0401EA0612046C0462C
:101A1000C046002F09D038466268A1689047206A06
:101A2000401C2062C01C206206E0206AFAE762685F
:101A30002878A1686D1C9047761EF8D22046C046D3
:101A4000C046F8BD4E414E006E616E00494E4600E4
:101A5000696E6600F7B516468AB0334878446C461E
:101A600003467C33C06F5A689B680DC42E48784487
:101A7000763003AC0DC80DC43720C00108183721DB
:101A80001B30FEF731FD05460C46803D1B3C02D560
:101A90006442012000E000200027099010E0E007E8
:101AA0000CD00C2020497843794432464C394118F7
:101AB0006846012300F054FA6B4607C364107F1C8C
:101AC000002CECD1184F7F442E3F16E0E80712D0CF
:101AD0002001C0190EC80691089307920068F042D1
:101AE00001D1981908903246012306A903A800F0F5
:101AF00037FA03AB07C36D10641C002DE6D10998BB
:101B0000002806D032466946012303A800F07EFA79
:101B100005E001233246694603A800F021FA0A9B3A
:101B200007C30DB0F0BD0000646C00000346400028
:101B30000A4610B5400D0BD00121C9070F24A4029D
:101B400000191C0364082143540D2143D20207E00D
:101B500000210120F2E7D40F490021435200401E2A
:101B60000029F8DADB0FDB07184310BDFFB50D467F
:101B7000144685B04868516806F01FF9009101903D
:101B8000A868A16806F019F902910390A868616835
:101B900006F013F9029A12188242029201D2012031
:101BA00000E00020019A0B18D2180028019202D000
:101BB0008A4202D903E08A4201D2012000E00020DB
:101BC0000099081800906868A16806F0F6F8029A73
:101BD00012188242029201D2012000E00020019AF4
:101BE0000B18D2180028019202D08A4202D903E0D1
:101BF0008A4201D2012000E00020009908180090DC
:101C00002868216840004900400849084018FA49FE
:101C1000471814E001994000C90F0843009001984B
:101C200002994000C90F08430190029803994000AF
:101C3000C90F08430290039840007F1E039000984C
:101C40000028E7DA0898002801D0EC4E00E00026D2
:101C5000B74201DA012000E00020002804902AD0D9
:101C6000F71BF806C00E15D0029B2021091A039A13
:101C70008B401A430392029A019BC2408B401A4345
:101C80000292019A009BC2408B4000991A43019234
:101C9000C14000917B110DD06F460320C11A03D5BE
:101CA00000218200B95003E08A008100BA587A50BE
:101CB000401EF3D5374603980299002800D0012032
:101CC000014308980291002808460CD0002800D053
:101CD00001200199019A490508430121D20AC9024C
:101CE000D202019200E001210E9B0122D207012BBA
:101CF00002D0002B03D013E0002807D120E090424F
:101D000004D890420CD1019B0B4209D0019B591879
:101D1000019105D10099491C009101D17F1C0092CD
:101D200000280DD0102108460020C0460498002845
:101D300006D00F98002803D0082108460020C0468E
:101D400028682168019B009A4840C10F0598C9077F
:101D500039430EC009B0F0BDFFB587B0099A0898A5
:101D600008995368926840688968964600220393F0
:101D700017469446089A12685300099A5B0812683D
:101D8000520052089A1A9E4BD4180A9A002A01D07F
:101D9000352200E0402206920022012315460492DB
:101DA000DB07059324E0002D05D175460346039E0D
:101DB0004D1BB34109D375466646039B491B049DE1
:101DC0009841059B7519AC465F4163463B4308D07B
:101DD000059B049EDD0776082E435B080496059359
:101DE00001E0521E641EC50FED0749184041521C08
:101DF000069B9A42D7DB002D04D17546039A6B1AD5
:101E0000824101D203200CE0039A0B466B40424012
:101E1000134303D0014303D0012002E0022000E07D
:101E20000020614601910021009702910A99002942
:101E300005D0614640020143704B019102E08007EA
:101E4000002302909C4201DA012000E000200700FC
:101E50003AD01A1BD006C00E15D0029D2021019C3D
:101E6000091AC5408C402543029C8C4000D00124B7
:101E70002543019C0295009DC4408D4000992C4350
:101E80000194C140009154111DD06D4602210022E1
:101E900002290CD10320001B07E0002804DB860088
:101EA000AE59002E00D00122401C0328F5DB081B90
:101EB00002D588002A5004E08000285810438A0088
:101EC000A850491EE3D51C460A98002802980CD059
:101ED000002800D001200199019A490508430121F9
:101EE000D20AC902D202019200E00121109B012214
:101EF000D207012B02D0002B03D013E0002807D11A
:101F00001FE0904204D890420CD1019B0B4209D0B3
:101F1000019B5918019105D10099491C009101D1EB
:101F2000641C009200280CD0102108460020C046F6
:101F3000002F06D01198002803D008210846002061
:101F4000C04608980999019A009B006809684840B2
:101F5000C10F0798C907214382600AC00BB0F0BDCA
:101F600000B585B0019300920A460146002302A8FD
:101F7000FFF7FCFD02A807C805B000BDFFB50A4683
:101F80001F4685B00799019301230091014602A8DD
:101F9000FFF7ECFD02990398049ECA0F4900D2078F
:101FA00000920F22490892028C1A0021002800DBBF
:101FB0000C46450013486D08844214D3079A002A42
:101FC00004DA441E0026104DF64302E004460D4696
:101FD0000E46102108460020C046002F03D00421E1
:101FE00008460020C0462005E90A08430099084336
:101FF0006905F20A1143ADE602C0FFFF013C000093
:10200000FF3F0000FF070000FFFFFF7F00B585B026
:10201000019300920A460146002302A8FFF79CFEA6
:1020200002A807C8A8E7FFB50A461F4685B007996A
:10203000019301230091014602A8FFF78DFE02994A
:102040000398049ECA0F4900D20700920F22490844
:1020500092028C1A0021002800DB0C464500114832
:102060006D08844214D3079A002A04DA441E00261D
:102070000D4DF64302E004460D460E46102108467B
:102080000020C046002F03D0042108460020C0468F
:102090002005E90A0843009908436905F20A11433B
:1020A00058E60000FF070000FFFFFF7FF8B5264C51
:1020B0004E00069DA6420AD8A64201D1002806D1AC
:1020C0005E00A64203D8A6420AD1002A08D00D24F9
:1020D0002404254233D02946002000F0EDF8F8BD55
:1020E0000C461C4311D4994207D0C81A02D3EFF30F
:1020F0000080F8BDEFF30080F8BD801A02D3EFF343
:102100000080F8BDEFF30080F8BD09242407E50046
:102110008B4207D0581A02D3EFF3008006E0EFF3AA
:10212000008007E0101A03D3EFF30080A04303E020
:10213000EFF30080A043284380F30088F8BD0095AA
:1021400000F0D2F8F8BD00000000E0FF10B5FF235A
:102150001B0644009C421DD84C009C421AD80346E2
:10216000124A0B4307D4401A02D3EFF3008010BD8C
:10217000EFF3008010BD081A03D3EFF30080904303
:1021800005E0EFF3008001219043C907084380F385
:10219000008810BD0D231B041A4204D011460020F4
:1021A00000F08AF810BD00F0A9F810BD0000009002
:1021B00000487047100020207546FFF7F9FFAE4633
:1021C000050069465346C008C000854618B020B5D2
:1021D000FEF71AF860BCB64600260027C0C5C0C589
:1021E000C0C5C0C5C0C5C0C5C0C5C0C5403D490803
:1021F00049008D46704710B50446C046C04620468B
:10220000FDF7D7FF10BD000082078B079A423FD130
:1022100070B5920F0AD0032402780B78401C491C39
:10222000002A33D09A4231D12042F5D1214EF40117
:1022300004C808C9951B9543254018D19A420FD16F
:1022400004C808C9951B9543254010D19A4207D16F
:1022500004C808C9951B9543254008D19A42E7D088
:1022600012BA1BBA01209A4200D2404270BD12BA83
:102270001BBA2DBA18241000E0401900E140401AA2
:1022800005D12E00E64002D1083CF4D1D01A70BD31
:1022900002780B78401C491C002A09D09A4207D1C9
:1022A00002780B78401C491C002A01D09A42EFD0DA
:1022B000D01A704701010101C80212D54803400F2E
:1022C000002804D0C803C043012188407047EFF3C1
:1022D00000800001000903210907084380F30088FA
:1022E000704700207047000010B500200249029A94
:1022F00000F00CF810BD00000000F87F10B5024897
:1023000000F004F810BD00000000C07F10B50C46BE
:102310001107090F092904D00A290AD008290CD16C
:1023200004E011460820FFF7C7FF06E0510606D576
:1023300001E0510601D50120C007214610BDD1069C
:1023400007D501010909CC084907000E000604431E
:1023500009E0410F20024907000A0143200E000650
:102360001D22D14101430846E7E70000014918203A
:10237000ABBEFEE72600020070470000B0B50A7849
:10238000032313400B4A84580B4D2540EB18A92416
:1023900024061B198350072212064B681340112490
:1023A000240205599543EA18025100194978016140
:1023B000B0BDC04608080000FCFFFF00811E091FD9
:1023C00000BFFCD2704770B50A780C231A40012474
:1023D000240305196E689E43B2186A604978072283
:1023E0001140035993435918015170BDB0B51122E2
:1023F000120283580C4C1C400B894D881D438B796D
:102400002B430A4D1D4063198350CB798C881C43A4
:10241000097821435D239B001940801842689A4344
:1024200051184160B0BDC04680CCFFFF7F33000033
:1024300010B50122120383180C785C604978815032
:1024400010BD0000B0B53F231B04044C25689D431C
:1024500008431043184028182060B0BD38010B40D5
:10246000F0B585B001221402344B19680494A143DD
:102470001960950348490E682E4208D10E682E4215
:1024800005D10E682E4202D10E682E42F3D0457E51
:1024900015409E69964375199D612025455D03266B
:1024A0003540DF69B7437D19DD61254D2E6805276D
:1024B0002F60476A3C681C627C685C620724344079
:1024C0002C60C4697F252D02DE69AE436406640C6E
:1024D0003419DC6150C80568009547688568019526
:1024E000C568029503929A69164D15402207120B92
:1024F0003403A4B2A2183A43009C2407240D1443C9
:10250000019A1443029A1443007C20430E4A02406D
:10251000501998611868049A104318600398400293
:102520000A68024208D10A68024205D10A680242DA
:1025300002D10A680242F3D005B0F0BD08010B4099
:10254000001340408D00F0FF72FF0F0010B51149DD
:10255000886001225305104804681C4208D10468B1
:102560001C4205D104681C4202D104681C42F3D00D
:1025700012040B6813430B600168C90608D4016894
:10258000C90605D40168C90602D40168C906F3D595
:1025900010BDC04604010B4004020B40F0B53C4A9C
:1025A00082183C4BC31808794E793B4D3B4C002EAA
:1025B00023D0202804D00526F601002803D003E00C
:1025C000374E002800D18826576F2F403743576772
:1025D000976F2F4037439767566B26405663966B2D
:1025E000264096630026566596658F26F6435F68FB
:1025F00037405F609F6837409F608E790968202868
:102600000BD0002819D1491E5160D76E2F40882168
:102610000F43D7661746703719E0491E5160D16ED7
:1026200029401F4F3943D166116F29403943116743
:10263000012149071B4D174609E049085160D76E33
:102640002F400521C9010F43D766174670373C68F4
:102650002C400C433C60D16A104C2140D162116B7C
:10266000214011630021D16411658F21C943D46FCA
:102670000C40D4671C680C401C600643BD203040F1
:102680001168094B0B40C018801C1060F0BDC0469B
:10269000041800008418000024493E008888FDFFCB
:1026A00001040000FFFFFFCF4000FFCF10B507235C
:1026B0009B04194092008018024A84589C43611878
:1026C000815010BD3018000010B5029CA400001904
:1026D00011431943014A815010BDC04650180000F3
:1026E00092008018014A81507047C04610180000BF
:1026F00010B50122120383180C789C604B7883502C
:102700008978014A815010BD0C110000B0B511222A
:10271000120283580124A34383508B780C881C43F6
:102720008B882343094C1C408358094D1D402B19AD
:1027300083508B79CC791C43097A21437E2319403D
:10274000801842689A4351184160B0BD1867000074
:10275000E798FDFF10B50122120383180C789C60E6
:102760004978815010BD00008AB002F091FB1F240F
:10277000674D2046294603F0E5FC002665A2304659
:10278000314604F07FF93046294603F0DBFC142182
:1027900065A2304604F076F9242165A2304604F0A3
:1027A00071F9342164A2304604F06CF9482164A226
:1027B000304604F067F9582167A2304604F062F908
:1027C000682167A2304604F05DF9782166A202967E
:1027D000304604F057F9E00206902FE03970069871
:1027E0004B4903F0AFFC2D265821304603963A465C
:1027F00004F048F92046464903F0A4FC5F4F3A88AC
:10280000682530462946049E334604F073F97A88D9
:10281000552420462946334604F06CF93A89782538
:1028200003982946334604F065F97A8920462946FB
:10283000334604F05FF9059804F0FAFB0698344D2E
:10284000294603F07FFC4A480068FEF795FC0246E3
:102850000B460227042400940197322614213046A7
:1028600004F050F83F204001294603F06BFC41483A
:102870000068FEF781FC02460B4600940197242174
:10288000304604F03FF806981F3080B2294603F026
:1028900059FC39480068FEF76FFC02460B46049469
:1028A0000094019734210596304604F02BF8334804
:1028B00000F0AAF807AF029C3C7230213122C30716
:1028C0000B4600D01346FB7183070B4600D5134619
:1028D000BB7143070B4600D513467B7103070B46BC
:1028E00000D513463B71C3060B4600D51346FB705B
:1028F00083060B4600D51346BB7043060B4600D536
:1029000013467B7040B2002800DB67E7114665E79D
:10291000FFFF00003D3D3D20494D552026205452EB
:1029200041434B203D3D3D00526F6C6C203A00000E
:1029300050697463683A000059617720203A0000BA
:102940002D2D2D20477261797363616C65203843AA
:1029500068202D2D2D00000042494E203A00000035
:1029600041302D313A00000041342D353A0000004D
:10297000B003202098032020BC0320202802202020
:10298000012801D0064900E0044909684000144AC2
:10299000135A1152C81A00B27047C0460038094095
:1029A0000018094010B50120C1430B4A13680B40C1
:1029B0001360131F00241C60136803431360074A4D
:1029C00013680B401360111F0C6005490C804C808C
:1029D00011680143116010BD041809400438094012
:1029E0001C02202080B50748014610390968C9013A
:1029F00006D50121090602680A43026001F09AF82F
:102A000080BDC04648300A40A021405C70470000AD
:102A1000F0B58BB002920191A8210890FDF753FD0B
:102A20005748322101600F20C2430020099006E080
:102A30009866099810300990121D00D199E002980B
:102A400080180690078A019880180590008A8742AE
:102A50003C4600D30446089907928A1840210A92FE
:102A60005452874200D807466000C01903263146F9
:102A700005F0A8F860210A9D6852780004940019B6
:102A8000314605F09FF8502168522F860698448AF7
:102A90000598408A8442234600D3034642210A9A7D
:102AA0005352844200D804466000C0183146039651
:102AB00026461C4605F086F852210A9D6852069467
:102AC000600005968019039905F07CF86221685230
:102AD0003846FEF72AFA06460F460498FEF725FA0E
:102AE00002460B4630463946FDF779FF07460D464C
:102AF00000242246234605F0B6F906462046214921
:102B00003A462B46FDF78EFF002E00D13146089A3B
:102B1000099BD2185166002E00D1304604921066EF
:102B20000A98059941860846FEF7FFF905460E46C4
:102B30000698FEF7FAF902460B4628463146FDF79D
:102B40004EFF06460F462246234605F08CF9054601
:102B500020460C4932463B46FDF764FF002D00D16C
:102B60002946049BD966002D079A00D060E72846C5
:102B70005EE7A1200121089A11540BB0F0BDC046B8
:102B80001411004000FEAF4080B588B004A90C4A83
:102B90000A804A808A80CA800A814A818A81CA81E1
:102BA0007D2293006A46138053809380D3801381E3
:102BB00053819381D381FFF72BFF08B080BDC046BE
:102BC000AC0D0000F0B58BB0064601273D02403049
:102BD00004903046803006903046A03005900023A7
:102BE000A34C07960AE00720089BC01A4000C908BA
:102BF000079E31525B1C082B00D1BEE0D9079D48CF
:102C000010300029014600D09A4980220A609907B5
:102C1000014600D597490D600893042B00D39548D1
:102C200001210A91490201607D204001FFF7C6FBA6
:102C30000021099109E0904B1B689BB25918099B30
:102C40001B1D0993072A0746CDD2A2692A43A26118
:102C50008A4802680A9B1A43026042682A4342601B
:102C6000874A02E0121D012E10D023682B420DD19D
:102C700023682B420AD123682B4207D15342534188
:102C800026682E423E46EDD11E46EBE77A480268A2
:102C9000A3692B43A361794803680A9E3343036009
:102CA00043682B43436092B25118754A02E0121DEB
:102CB000012E10D023682B420DD123682B420AD15C
:102CC00023682B4207D15342534126682E423E4689
:102CD000EDD11E46EBE768480268A3692B43A36168
:102CE000664803680A9E3343036043682B4343608E
:102CF00092B25118FB4A02E0121D012E10D0236837
:102D00002B420DD123682B420AD123682B4207D1D5
:102D10005342534126682E423E46EDD11E46EBE714
:102D20003846EF4A1368A2692A43A261EB4E326823
:102D30000A9F3A43326072682A4372600322099EF6
:102D400032439BB25918E74B03E01B1D012F00D102
:102D500071E726682E4200D06DE726682E4200D02B
:102D600069E726682E4200D065E75E425E4127682B
:102D70002F420746E9D13746E7E73188049D288886
:102D8000814204D9059B18780A9A104306E0288AE4
:102D90008142059B03D218780A9A90431870748870
:102DA0006888844203D91A780220104305E0688AB3
:102DB000844203D21878022290431870B288A888FF
:102DC0008242009203D91A780420104305E0A88AB1
:102DD000824203D21878042290431870F288E8885F
:102DE0008242019203D91A780820104305E0E88A4C
:102DF000824203D2187808229043187032892889B9
:102E00008242029203D91A781020104305E0288BE1
:102E1000824203D218781022904318707289688910
:102E20008242039203D91A782020104305E0688B70
:102E3000824203D21878202290431870B289A88960
:102E40008242089203D91A784020104305E0A88BEB
:102E5000824203D21878402290431870F289E889A0
:102E6000824209920ED97F20C243187810430FE0A6
:102E70003010004090120A4080625540001100401E
:102E80006479FEFFE88B824203D21A787F201040DB
:102E90001870328E0023914218460A931FD305946E
:102EA000881A80B2FEF741F802460B46306E716E0A
:102EB000FEF73EF8054600268B4F0C4632463B4651
:102EC00004F0D1FF002800D12E46002800D127466B
:102ED00030463946FDF7CAFF079E0A9B059C3082A3
:102EE000718E8C4218461DD3601A80B2FEF71DF811
:102EF00002460B46B06EF16EFEF71AF805460C4618
:102F00000026794F32463B4604F0ADFF002800D141
:102F10002E46002800D1274630463946FDF7A6FF49
:102F2000079E0A9B7082B18E009A8A421846069CC0
:102F30001ED3501A80B2FDF7F8FF02460B46306FE1
:102F4000716FFDF7F5FF05460026674F0C463246C8
:102F50003B4604F088FF002800D12E46002800D10F
:102F6000274630463946FDF781FF079E0A9B069C9F
:102F7000B082F18E019A8A4218461DD3501A80B24F
:102F8000FDF7D3FF02460B46B06FF16FFDF7D0FFA0
:102F900005460026544F059132463B4604F063FF38
:102FA000002800D12E46002800D1059F3046394622
:102FB000FDF75CFF079E0A9BF082318F029A8A42DE
:102FC00018461DD3501A80B2FDF7AFFF02460B46DC
:102FD00003CC083CFDF7ACFF05460026424F0591A7
:102FE00032463B4604F03FFF002800D12E46002821
:102FF00000D1059F30463946FDF738FF079E0A9BF2
:103000003083718F039A8A4218461DD3501A80B2BA
:10301000FDF78BFF02460B46A068E168FDF788FFCD
:1030200005460026304F059132463B4604F01BFF13
:10303000002800D12E46002800D1059F3046394691
:10304000FDF714FF079E0A9B7083B18F089A8A428E
:1030500018461DD3501A80B2FDF767FF02460B4693
:1030600020696169FDF764FF054600261E4F08913F
:1030700032463B4604F0F7FE002800D12E460028D9
:1030800000D1089F30463946FDF7F0FE079E0A9BA7
:10309000B083F08F099981421DD3081A80B2FDF7E1
:1030A00044FF02460B46A069E169FDF741FF074670
:1030B0000C4600250C4E2A46334604F0D4FE002868
:1030C00000D13D46002800D1264628463146FDF76E
:1030D000CDFE0346079EF3830BB0F0BD0011004008
:1030E000806255406479FEFF00FEAF4000000000A2
:1030F000EFF309800E4A1168243808607346F8C05F
:1031000044464D4656465F46F0C072B604F09EF8FF
:1031100062B6074A116808681430F0C8A046A9468C
:10312000B246BB4680F309882438F8C81847C04621
:103130008C042020000000000000000000000000BF
:1031400004207146084203D0EFF30980044B18476E
:10315000EFF30880024B1847C046C046C046C04641
:103160000D6E000080B50A480A49FFF7C1FA0A4807
:103170001A49C1620022C267194B03600163074903
:103180000A6003601849416005480121016080BD63
:1031900000000940828F000004180940841809408B
:1031A0000811094080B50A480A49FFF7A1FA0A4800
:1031B0000A49C1620022C267094B036001630949E1
:1031C0000A6003600849416008480121016080BD30
:1031D00000200940858F00000438094001000200EA
:1031E0001292001084380940FFFF000008310940A6
:1031F00010B50124A0070549FFF7C0F804480021D5
:103200000160044801682143016010BD888F0000FF
:10321000801100400011004080B50E480E49FFF7B4
:10322000ADF80E4841680E4A0A40112109045118B0
:10323000416081680B4A0A4001210B06D218826066
:10324000094A002313600423536002680A430260A2
:1032500080BDC04600200040908F0000003100403B
:10326000FEFFECFFF8FFE0E080310040F0B581B0F8
:103270001C4C1D492046FFF73BFA1C492046FFF72E
:103280008DF91B4801681B4A0A4002600025009521
:10329000204629462A462B46FFF716FA204629469D
:1032A0002A46FFF703FA19200601204631462A462E
:1032B000FFF716FA01270097204629462A462B4693
:1032C000FFF702FA204629463A46FFF7EFF9204673
:1032D00031463A46FFF704FA074887600321016048
:1032E00001B0F0BD00008740988F00009C8F000067
:1032F000041887407F00FFFF00118740F0B582B0BF
:10330000594D8920A86001242007584A1060584967
:10331000084638388B230093036020040190106026
:10332000164608461038842202602005514B18606A
:10333000CA6062063260504F8520B8624F4E042347
:103340003360386310233360386234600B46343B9B
:1033500018606004454B18604948431CCB610E4619
:103360001C3E3360031DEB6503460A336B66454B19
:103370009E1C2E602B682B606E606B686B602B68E8
:1033800013432B606B6813436B6082222A64421ED6
:103390006A648622AA66C21CEA66009AEA63AA6385
:1033A00028650A464C3A83231360EB67A86781209F
:1033B0002863386578650A1F10602861314B3B60CF
:1033C0003A683A607B607A687A60BB64BA6CBA64C7
:1033D000FB64FA6CFA640B600A680A6068670A4664
:1033E000083A10603A1F106088600A46443A10603C
:1033F000886148610A46143A1060203908606863A1
:10340000A864E864194A104630381F490160104624
:103410004038A10701601D481060164A1046303838
:103420001B490160104640381A4901601A48106073
:103430001A480168019A11430160200618490A6A76
:1034400002430A620A6802430A60164A14600A6E5E
:1034500002430A66094A1046403803210902016006
:10346000116002B0F0BDC04604804240D0120A4054
:10347000D0804240D0320A4008814240D0520A40B7
:103480008300040081000C00802340018023404120
:103490000200441C002080000220C41CA0330A400B
:1034A00028300A4048240A4010B50D4C0D492046EA
:1034B000FEF7BEFF0C492046FEF798FF0B48416817
:1034C000B14A0A40111D4160816812220A432D2130
:1034D0008A438260016801220A43026010BDC0462F
:1034E00000A04640A48F0000A68F000004B1464013
:1034F00080B511481149FEF766FF032041021048CC
:1035000002680A43026001210A0203681343036050
:103510000022426127224262826B07239A43826320
:103520001A02836B93438363826A04231343836287
:10353000826A0A43826280BD00000F40B08F0000A3
:1035400000120F40094859490A68024082420BD0D4
:103550000A680240824207D00A680240824203D0D1
:103560000A6802408242EFD17047C046000A20003C
:10357000F0B585B01F200006204A11688143116014
:1035800001242105A20400200391FEF75BFF1C48E3
:103590001C4901600494660642241B4D434F386861
:1035A000304204D12846FEF709FF641EF7D11348C4
:1035B0008069029004980204002001900399FEF7AC
:1035C00041FF0F480F49016042243868304204D15E
:1035D0002846FEF7F3FE641EF7D1173502984543DF
:1035E00006488169284604F0EDFA084940180F287A
:1035F00001D301980490049805B0F0BD38010B4048
:103600002C030B400100000ED103000043F6FFFF26
:10361000F0B581B02248012404600F200002214D42
:10362000296881436602881928600320C043291F46
:103630000A6802400A601C48FEF712FFFFF798FF75
:10364000002812D0286810210143202081432960DE
:103650000020FEF77BFFFF20000215490A68824325
:10366000E0031018086001B0F0BD104F03E0FFF751
:103670007FFF0028E6D1200269688143696069689C
:103680000143696038683042F1D138683042EED188
:1036900038683042EBD138683042F3D0E7E7C046B3
:1036A00008030B4004010B40B48F000004020B40E0
:1036B00000E400E0F0B581B01C4C1D492046FFF746
:1036C00017F81C492046FEF769FF1B480168ED4AC0
:1036D0000A40026000250095204629462A462B46CE
:1036E000FEF7F2FF204629462A46FEF7DFFF1920A3
:1036F0000601204631462A46FEF7F2FF01270097D1
:10370000204629462A462B46FEF7DEFF204629465C
:103710003A46FEF7CBFF204631463A46FEF7E0FF39
:10372000064887600321016001B0F0BD002086409B
:10373000DC8F0000E08F00000438864000318640B6
:1037400010B50D4C0D492046FEF772FE0C4920467F
:10375000FEF74CFE0B4841680B4A0A40111D4160C0
:10376000816812220A432D218A4382600168012266
:103770000A43026010BDC04600804640E88F00004A
:10378000EA8F00000491464000FCFFFF10B5194C81
:1037900019492046FEF7DEFF18492046FEF7B6FF1E
:1037A0000320C103164802688A4302600169334A54
:1037B0000A401532026141692D220A4312218A43CF
:1037C0004261426801210A4043688B439A18426073
:1037D0004A04036813430360C26870231343C36041
:1037E000C2680223134305229343C36002680A435D
:1037F000026010BD00001040F48F0000F68F000042
:103800000011104010B5194C19492046FEF7A2FFCF
:1038100018492046FEF77AFF0320C10316480268C4
:103820008A4302600169154A0A402B3202614169EC
:103830001A220A4325218A434261426801210A4033
:1038400043688B439A1842604A0403681343036039
:10385000C26870231343C360C26802231343052266
:103860009343C36002680A43026010BD00205040C9
:103870000090000002900000003150400000FFFF67
:1038800080B500F037F8FFF739FDFFF7C1FEFFF70D
:1038900011FFFFF7EBFC00F08FF8FFF763FCFFF779
:1038A00081FCFFF725FEFFF771FFFFF7ABFFFFF786
:1038B00047FFFFF7F9FDFFF7AFFCFFF799FCFFF7B4
:1038C00041FEB820064900220A5406490A549C20A9
:1038D00005490A54242005490A5405490A5480BD63
:1038E000D00220203801202070002020F401202068
:1038F00010012020F0B581B01E481F4A42601F48C9
:1039000042601F4842601F4842601F4842601F4893
:1039100042601F4842601F4842601F4842601F4E7D
:1039200072601F4D6A601F4C62601F4B5A601F49D6
:103930004A601F4842601F4A0E4F3A600F4F3A607C
:103940000F4F3A600F4F3A600F4F3A600F4F3A6097
:103950000F4F3A600F4F3A600F4F3A6032602A6063
:1039600022601A600A6002601020FEF727FD01B095
:10397000F0BDC04600080A40030000B100280A401C
:1039800000480A400028864000088740000886401A
:10399000000809400028094000080F4000081040B6
:1039A000002850400088464000A8464000280040BB
:1039B0000008004001000026F0B581B02D4C2E49D2
:1039C0002046FEF795FE2D492046FEF7E7FD2C48E0
:1039D00001682C4A0A4002600025009520462946CD
:1039E0002A462B46FEF770FE204629462A46FEF759
:1039F0005DFE204629462A46FEF772FE0126009605
:103A0000204629462A462B46FEF75EFE20462946DA
:103A10003246FEF74BFE204629463246FEF760FE50
:103A200002270097204629462A462B46FEF74CFEE1
:103A3000204629463A46FEF739FE204629463A46B0
:103A4000FEF74EFE03270097204629462A462B46BE
:103A5000FEF73AFE204629463A46FEF727FE204664
:103A600029463A46FEF73CFE074886600F21016072
:103A700001B0F0BD000086400C90000010900000E6
:103A8000041886407F00FFFF0011864082B003F0DB
:103A9000A7FE0190094C0A4D0A4E2046FFF792F806
:103AA0000020FEF76DFF28800120FEF769FF3080BF
:103AB00001A80A2103F034FEEFE7C04628022020C7
:103AC000200220202202202010B503F0ABF804468B
:103AD00003F08AFE002803D0012000070249086095
:103AE000204603F0CCF810BD04ED00E00C4801685E
:103AF0000020002900D070470A4909680029FAD13E
:103B0000094909680029F6D1084800680849096888
:103B1000491E884201D00120704702207047C046EC
:103B2000D01A2020241B2020CC1A2020F01A20207C
:103B300078112020F0B58BB0C2480078062800D15B
:103B400039E201248021204600F058FC1720202172
:103B500000F054FC0220312100F050FC0794650372
:103B60000026B94CB94F0CE0386A3D6A0A20FEF7CE
:103B700025FC09A885552546B34C2560761C082EE2
:103B800043D030464C30C1B2082000F037FC2561EC
:103B90000A20FEF713FC386840070DD4386A3868ED
:103BA000400709D4386A3868400705D4386A38684D
:103BB000400701D4386AEEE73868800708D43868CF
:103BC000800705D43868800702D438688007F3D5A9
:103BD000892038633868800708D43868800705D49E
:103BE0003868800702D438688007F3D52C46002057
:103BF00008903863F14801E0401EB5D03968C90724
:103C0000FAD03968C906F7D4AEE71720089C2146D8
:103C100000F0F4FB079D2846214600F0EFFB09A8C1
:103C2000065F1F20810232460A40EF07B5B23E40D0
:103C30000720C0060690FF20C00504908A42039723
:103C40001CD0002A1ED1DE48054021D007988202F0
:103C500023466804070C174206D19C1CAD00AFB286
:103C60001742F5D0079803437803D74A02400698D5
:103C70000643D805361A1643039F09E06803064336
:103C8000049804E06803CF4A1040069A801806435F
:103C900009A844882046084022B23A40884220D0F1
:103CA000002822D1C648044025D0059207988702F3
:103CB000002213466004050C3D4206D19A1CA40064
:103CC000A5B23D42F5D0079803436803BE4A0240BF
:103CD000059C06980443D805241A14432246039FE2
:103CE00009E060030243049804E06003B54B184008
:103CF000069BC018024309A884882046084025B2C4
:103D00003D40884205921ED0002820D1AC48044096
:103D100023D0079882020023184663041F0C174221
:103D200006D1831CA400A7B21742F5D0079A10430E
:103D30007A03A54B1340069A1543C0052D1A1D435F
:103D4000039F059A09E060030543049804E06003BB
:103D50009C4B1840069BC018054309A8C388184609
:103D600008401CB23C4088421DD000281FD1944816
:103D7000034022D007988702002001465804020C15
:103D80003A4206D1881C9B009AB23A42F5D0079875
:103D9000014350038C4A024006980443C805241A84
:103DA0001443059A09E058030443049804E05803B7
:103DB000844908400699401804431046114604F00F
:103DC0004DFB07463046314604F048FB394604F0C7
:103DD000ABFA07462846294604F040FB394604F072
:103DE000A3FA07462046214604F038FB394604F082
:103DF0009BFA04F03BFA0746744904F03FF80028A8
:103E000026D00021204604F044F8002801D0039871
:103E1000474020463946FDF7D9F96D4C0890E060DF
:103E200030463946FDF7D2F90690A060284639465B
:103E3000FDF7CCF90546606005983946FDF7C6F9EF
:103E400020600BE0AC03202090320A4010B14640C5
:103E50005F4921C90A6806924968089101460746E8
:103E6000029004F0FBFA064605902846294604F025
:103E7000F5FA04463846069F394604F0EFFA29461B
:103E8000079505460846089904F0E8FA294604F023
:103E90004BFA014604F048FA05463046214604F044
:103EA00043FA014604F040FA01467F20C005049021
:103EB00004F038FB0146284604F08AF8454904F02E
:103EC000CDFA4549FDF782F903903846394604F0AA
:103ED000C5FA01900798394604F0C0FA0446029EDC
:103EE0003046089D294604F0B9FA214604F01AFB31
:103EF000014604F019FA03F0DFFF0446384629466C
:103F000004F0ACFA05463046079904F0A7FA2946B2
:103F100004F00AFA014604F007FA054605980199EB
:103F200004F002FA014604F0FFF90146049804F097
:103F3000F9FA0146284604F04BF80546274803994C
:103F400001602749204604F089FA234C2146FDF7F9
:103F50003DF92449086028461E4904F07FFA2146AD
:103F6000FDF734F90446002103F093FF05461E498E
:103F7000204604F0D9F9002D00D120461B490860E5
:103F8000282009AC214600F09BF9194809990180C5
:103F900060881849088018480A9901802220214623
:103FA00000F08EF91548099901806088144908804D
:103FB00014480A9901800BB0F0BDC046A0860100EC
:103FC000FF03000000E0FF0F00C07F006F12833A84
:103FD0009C03202000003443DB0F4940B003202025
:103FE000000034C3980320200000B443BC03202009
:103FF0008C0320208E032020900320209203202079
:104000009403202096032020F0B585B005469F48F4
:104010008121016001246603F54F3E609C480570D4
:104020003E649C48FEF7CAF904963E610A20FEF7FA
:10403000C5F9F04E3068400716D4306A3068400742
:1040400012D4306A306840070ED4306A30684007B6
:104050000AD4306AEEE73068800708D430688007F9
:1040600005D43068800702D430688007F3D5019505
:104070008F20039030633068800708D43068800751
:1040800005D43068800702D430688007F3D5002754
:104090003763D94801E0401E0CD03168C907FAD017
:1040A000401E414241413268D206224600D50A46AE
:1040B000002AF2D0306A306A0A20FEF77FF90498AD
:1040C000FA4908607448FEF779F9FF2F00D9D9E062
:1040D0000498F64908610A20FEF770F93068400735
:1040E0000DD4306A3068400709D4306A3068400720
:1040F00005D4306A3068400701D4306AEEE77F1C8F
:104100003068800708D43068800705D4306880079D
:1041100002D430688007F3D5039830633068800795
:1041200008D43068800705D43068800702D430682E
:104130008007F3D500233363DE4801E0401E0CD036
:104140003168C907FAD0401E414241413268D20667
:10415000224600D50A46002AF2D00293306A356A18
:104160000A20FEF72BF90498D04908604B48FEF767
:1041700025F9E8B26B380528A7D801218140232012
:104180000142A2D0012604243046214600F036F92F
:104190004348FEF713F91220442100F02FF91720AD
:1041A0000221049100F02AF93E4D3F48286015276E
:1041B0003846214600F022F93C4868601024204629
:1041C000394600F01BF911201827394600F016F97E
:1041D0001620314600F012F90821384600F00EF999
:1041E000019F062F02984BD00720314600F006F9B8
:1041F0000A20062100F002F90E208025294600F051
:10420000FDF81320082100F0F9F8F81C2043C7B28C
:104210002046394600F0F2F81120394600F0EEF859
:104220003046294600F0EAF84420049D294600F073
:10423000E5F80198C00043210143C9B25E2000F0B7
:10424000DDF80420294600F0D9F817200024214683
:1042500000F0D4F83046214600F0D0F8300414497C
:104260000A6802430A60300612490A6A02430A6277
:104270000A6802430A60104805601048056020463D
:1042800005B0F0BD012005B0F0BDC04678804240C9
:10429000AC03202000350C00801A06008038010095
:1042A000009F2400B4032020E11280453A9264412B
:1042B000A0330A4028300A4080E200E000E100E03C
:1042C000F0B581B00C46054601204603774F3E61AC
:1042D0000A20FEF773F876480168490716D4016A88
:1042E0000168490712D4016A016849070ED4016ABE
:1042F000016849070AD4016AEEE70168890708D412
:104300000168890705D40168890702D40168890713
:10431000F3D580210D4305630168890708D401683E
:10432000890705D40168890702D401688907F3D594
:10433000002101630268920708D40268920705D43D
:104340000268920702D402689207F3D501630268FB
:10435000920708D40268920705D40268920702D433
:1043600002689207F3D501630268920708D40268D5
:10437000920705D40268920702D402689207F3D527
:1043800001630268920708D40268920705D40268A4
:10439000920702D402689207F3D50163026892077C
:1043A00008D40268920705D40268920702D4026812
:1043B0009207F3D501633F4901E0491E05D0026829
:1043C000D207FAD00268D206F7D4016A016A2170D6
:1043D000016A6170016AA170016AE170016A21716C
:1043E000006A60710A20FDF7E9FF3E6001B0F0BD90
:1043F00090320A4010B14640A0860100F0B581B06D
:104400000C46054601204603284F3E610A20FDF771
:10441000D5FF27480168490716D4016A0168490792
:1044200012D4016A016849070ED4016A016849077C
:104430000AD4016AEEE70168890708D40168890790
:1044400005D40168890702D401688907F3D505639B
:104450000168890708D40168890705D401688907BC
:1044600002D401688907F3D50463124901E0491EAB
:1044700013D00268D207FAD00268D206F7D40CE053
:10448000016A016849070BD4016A0168490707D42A
:10449000016A0168490703D4016A01684907EFD539
:1044A0000A20FDF78BFF3E6001B0F0BD90320A405C
:1044B00010B14640A086010082B0FFF7E1F900F09C
:1044C000BFFD0320FFF7A0FD1048FEF75DFBFEF7E0
:1044D00069FA0024022000900194012675020C481C
:1044E0000CA12A46234603F0B3F801280CD100960C
:1044F00001940B480BA12A46234603F0A9F8012892
:1045000003D102F00FFEFEE7FEE7FEE728022020BF
:104510008D3A000053656E736F725461736B0000C7
:1045200069270000446973706C61795461736B0092
:10453000F0B583B00F460646AC480568624800688F
:104540000290624800680190A64C2068001D02F0AD
:104550006DFB701C15D1002F13D0206859490CC970
:10456000836098682568E860521C08390A602268F0
:10457000121D42602068001D98602068416103B0F0
:10458000F0BDAE19206846602068011DAE4204D21D
:10459000019802F082FB03B0F0BD029802F07DFBAF
:1045A000914801688E4200D2066003B0F0BDC0465B
:1045B000F0B581B0044602F08FFB5F480168491CEA
:1045C0000160884F396800290AD03A4800680028FD
:1045D00047D1E06A3968C96A814242D83C6040E00C
:1045E0003C60006801283CD17D4D284602F04AFB22
:1045F0002846143002F046FB2846283002F042FBE1
:1046000028463C3002F03EFB2846503002F03AFB90
:104610002846643002F036FB2846783002F032FB40
:1046200028468C3002F02EFB2846A03002F02AFBF0
:10463000B435284602F026FB1F4D284602F022FB27
:104640001E4E304602F01EFB1D4802F01BFB39488F
:1046500002F018FB1B4802F015FB1B4805601B48C5
:1046600006601B480168491C61640160E06A5B499F
:104670000A68904200D908601421414358484258C2
:10468000521C425040184168A1608A68E260606133
:10469000201D5060886002F029FB06480068002851
:1046A00006D0E06A3968C96A814201D202F070FC22
:1046B00001B0F0BDE41A2020841A2020981A20208E
:1046C000D01A2020F01A2020940420209C042020BE
:1046D00084112020F0B581B0154D2868002823D022
:1046E000144E154F05E0204602F012FB2868002802
:1046F0001AD002F0F1FAF068C468201D02F096FAB0
:104700003868401E38602868401E286002F0EEFAC3
:104710006520205C0228E9D00128E4D0002805D1DA
:10472000206B02F0F5FADEE701B0F0BD72B6FEE7ED
:104730007C112020041B2020781120200124274DEB
:10474000274E284F01E003F049F9FFF7C3FF28681F
:10475000411E88413168012901D8002100E0012172
:104760003A68D26A002A224600D10A46002A214627
:1047700000D101460029E8D11B4800681B4909689F
:10478000401A0228E1D31A490868401C08601648FC
:1047900000681649096888421ED32868411E88416E
:1047A0003168012901D8002100E001213A68D26A6C
:1047B000002A224600D10A46002A214600D101469D
:1047C0000029C0D10848006808490968401A022831
:1047D000B9D302F03BFBB6E772B6FEE788112020A2
:1047E000A40420208C042020BC1A2020181B202088
:1047F00080112020F0B583B002930F4601900A9CEF
:10480000206B9600A5223146FBF736FE206B089DF3
:10481000002F41D0214634313A780A70002A39D02D
:104820007A784A70002A35D0BA788A70002A31D056
:10483000FA78CA70002A2DD03A790A71002A29D054
:104840007A794A71002A25D0BA798A71002A21D052
:10485000FA79CA71002A1DD03A7A0A72002A19D050
:104860007A7A4A72002A15D0BA7A8A72002A11D04E
:10487000FA7ACA72002A0DD03A7B0A73002A09D04C
:104880007A7B4A73002A05D0BA7B8A73002A01D04A
:10489000FA7BCA730022CA730A2D01D372B6FEE7EF
:1048A0008019061F07208643099FE564E562201DE5
:1048B00002F0F0F92046183002F0ECF90A20401B13
:1048C000A0616462246130460199029A00F082FA84
:1048D0002060002F00D03C6003B0F0BDF0B583B085
:1048E000044602F07DFF224A1168884231D20194C9
:1048F0000290AA4C07E029462831FA22104008709D
:10490000296A2846884720680168002923D0C068A2
:104910000768C5682E1D304602F088F92820285CFB
:104920004107E8D5A869C4196C602D61BC4209D360
:10493000296A28468847A869001968602D61A04245
:104940000446F5D296480068314602F0A6F9934C29
:10495000D6E7002107E092490A6822600860012139
:104960000298019C024A1060216003B0F0BDC0466D
:104970008804202081B0002000900A48006872B6A8
:10498000401C09D0FEE70098002808D100980028B4
:1049900005D10098002802D100980028F3D001B07A
:1049A0007047C0460800202086B07E4E7B480068D5
:1049B0000568002D02D0C068076800E0002702F0FB
:1049C0003FFC03A8FFF78AFF04460398002802D0A3
:1049D00003F004F847E0002D28D0A74226D802F0C3
:1049E000FDFF6E480068C068C568281D019002F090
:1049F0001DF92820285C41070CD429462831FA22C9
:104A0000104008702CE0E11B814223D3296A28461C
:104A100088473746A869C6196E602D61A642F2D94B
:104A2000BC4201D2BE42F1D25C4814E0002D01D05C
:104A3000002204E05A480068006842424241391BA3
:104A4000306802F0B1FA02F0C9FF00280BD102F081
:104A50009FFA08E052480068019902F01EF9514E91
:104A6000296A2846884700220592049203923068FA
:104A700003A906E0386802F010F94A4E306803A92D
:104A8000002202F0F8FC002890D003980028F5D40A
:104A9000059C002CF2D06069002802D0201D02F095
:104AA000C5F802A8FFF71AFF05460398401E08281C
:104AB000E4D8C04678440079400087440404382391
:104AC0005504043823002820225C0121114321547D
:104AD000A069049BC61866602461211DAE4205D9F9
:104AE0009D422E4FC6D29E4204D2C3E7EB1A8342A8
:104AF0002B4FBFD3530720D420462830FA210A4039
:104B000002703EE02820215C01220A4322540498CE
:104B1000A06100283FD0401960602461A8421F486E
:104B200000D81F480068211D02F0B7F8A6E728202A
:104B3000215CFE220A402254A0E701910499091841
:104B400007E0691A814217D3216A20468847A06985
:104B500031460E1866602461AE42F2D98D4201D210
:104B60008E42F1D20D4808E02820205C81070DD448
:104B7000204602F0CDF881E709480068019902F06B
:104B80008CF8084E216A2046884777E72834FE21B2
:104B90000840207072E772B6FEE7C04690042020FD
:104BA000A00420201C1B2020F0B581B0044606463E
:104BB000443602F091F801203756012F12DB2546CA
:104BC000243504E0781E79B2012907460ADD2868F9
:104BD000002807D0284602F09FFE0028F2D002F0FD
:104BE0006DFAEFE7FF25757002F080F802F074F8B7
:104BF00000203756012F11DB103404E0781E79B203
:104C0000012907460ADD2068002807D0204602F067
:104C100083FE0028F2D002F051FAEFE7357002F07F
:104C200065F801B0F0BD0000F0B583B00146083171
:104C3000002509290BD307220346134006D0093B60
:104C4000994204D890431030054600E00D4602F02A
:104C5000F7FA59490E68002E02D0584803681BE045
:104C6000574C002060600722D343564E72073246ED
:104C700001D0F21D1A4022600324A40234191C4002
:104C8000083C0C6020606060A31A53604E480360CB
:104C90004A4803600E681660012200249D421046B7
:104CA00000D820460093012D114600DB2146014328
:104CB00005D002F093FE600737D072B6FEE7434896
:104CC00040490F183E4802900068B84201D80021C0
:104CD00000E001213B4B9842134600D30B46002BCA
:104CE00001D072B6FEE743680024AB4220D20168CF
:104CF000002937D002900846B94201D8002100E0CF
:104D00000121304B9842134600D30B46012B35D07E
:104D10004368AB4201D3002100E001210191AB4285
:104D200007D201680029E5D103E0204603B0F0BDB9
:104D30000194B042BDD0029E34680834BC4201D810
:104D4000002100E001211F4FBC4200D30A46012A86
:104D500001D172B6FEE701683160019A002A05D0E0
:104D600072B6FEE70192B042E5D1A2E75A1B102AC3
:104D700006D943195E0706D072B6FEE772B6FEE7A3
:104D80004568009905E006C30299083B0B600B4992
:104D90000968491B094A11600B4A1368994200D2FD
:104DA000116000210122D207154322C00848016882
:104DB000491C01607DE7C04698042020AC1A2020E1
:104DC000E81A20206F052020B81A2020FF0B0000D1
:104DD000C41A20200346083B1960011F01231B064B
:104DE0000B6001460C391D4B0B60014610391C4B02
:104DF0000B60014614391B4B0B60014618391A4BE6
:104E00000B6001461C39194B0B60014620390A60C2
:104E100001462439164A0A6001462839154A0A60B3
:104E200001462C39144A0A6001463039134A0A6097
:104E300001463439124A0A6001463839114A0A607B
:104E400001463C39104A0A60014640390F4A0A605F
:104E500044380221C94301607047C04675490000CB
:104E600012121212030303030202020201010101E2
:104E7000111111111010101009090909080808086A
:104E800007070707060606060505050504040404CA
:104E9000F0B583B001204002674901900861744C6D
:104EA00021789F207F230029024600D11A466F4EA9
:104EB0003178002900D1034600252846294601F013
:104EC0004BF92278A02080210291002A024600D1CD
:104ED000029A3378002B00D1029058480088C3B260
:104EE000070A72482C4603E0641C02998C426DD07C
:104EF0002E4603E00363361D9642F5D0016889070C
:104F000008D40168890705D40168890702D40168BB
:104F10008907F3D507630168890708D40168890701
:104F200005D40168890702D401688907F3D50363B2
:104F30000168890708D40168890705D401688907D1
:104F400002D401688907F3D507630168890708D48B
:104F50000168890705D40168890702D401688907B7
:104F6000F3D503630168890708D40168890705D46C
:104F70000168890702D401688907F3D507630168CE
:104F8000890708D40168890705D40168890702D414
:104F900001688907F3D503630168890708D40168AC
:104FA000890705D40168890702D401688907F3D508
:104FB0000763016889079DD4016889079AD401684D
:104FC000890797D401688907F3D593E70168C90772
:104FD00002D00168C90624D50168C90702D001685A
:104FE000C9061ED50168C90702D00168C90618D5CF
:104FF0000168C907EAD00168C906E7D411E0016871
:10500000C90702D00168C90611D50168C90702D0D5
:105010000168C9060BD50168C90702D00168C90635
:1050200005D50168C907EAD00168C906E7D4019827
:105030000149086003B0F0BD90520A4000002020F2
:10504000F0B587B002480078032813D802E0C046C4
:105050006C0520200F2108400C21C1400120084090
:10506000024908700249087004E0C0466E0520201D
:105070006D0520200126F405084D2C610848FDF738
:105080009DF92C60074C2046FDF798F931467002D7
:10509000054E04903061054F0AE0C04690320A4048
:1050A00000350C00007C920090520A40109146405E
:1050B0003868C00702D03868C00611D53868C00704
:1050C00002D03868C0060BD53868C00702D03868EF
:1050D000C00605D53868C007EAD03868C006E7D4EE
:1050E00006910D023561112038633868C00702D07F
:1050F0003868C00611D53868C00702D03868C006C5
:105100000BD53868C00702D03868C00605D53868A6
:10511000C007EAD03868C006E7D435602046FDF7FE
:105120004DF93868C00702D03868C00611D5386814
:10513000C00702D03868C0060BD53868C00702D057
:105140003868C00605D53868C007EAD03868C00698
:10515000E7D43561B12038633868C00702D03868B9
:10516000C00611D53868C00702D03868C0060BD514
:105170003868C00702D03868C00605D53868C0074F
:10518000EAD03868C006E7D43560069B38688007E7
:1051900008D43868800705D43868800702D4386896
:1051A0008007F3D53B633868800708D438688007E8
:1051B00005D43868800702D438688007F3D52C20DE
:1051C00038633968890708D43968890705D439688C
:1051D000890702D439688907F3D52D2139633A68E4
:1051E000D20702D03A68D20611D53A68D20702D067
:1051F0003A68D2060BD53A68D20702D03A68D2068E
:1052000005D53A68D207EAD03A68D206E7D43561C4
:10521000B2223A633A68D20702D03A68D20611D570
:105220003A68D20702D03A68D2060BD53A68D2075C
:1052300002D03A68D20605D53A68D207EAD03A6871
:10524000D206E7D435603A68920708D43A689207E4
:1052500005D43A68920702D43A689207F3D53B63C3
:105260003A68920708D43A68920705D43A689207D8
:1052700002D43A689207F3D538633A68920708D4A3
:105280003A68920705D43A68920702D43A689207BE
:10529000F3D539633A68D20702D03A68D20611D5FD
:1052A0003A68D20702D03A68D2060BD53A68D207DC
:1052B00002D03A68D20605D53A68D207EAD03A68F1
:1052C000D206E7D43561B3223A633A68D20702D0F6
:1052D0003A68D20611D53A68D20702D03A68D206A7
:1052E0000BD53A68D20702D03A68D20605D53A689B
:1052F000D207EAD03A68D206E7D435603A68920716
:1053000008D43A68920705D43A68920702D43A68FA
:105310009207F3D53B633A68920708D43A6892073C
:1053200005D43A68920702D43A689207F3D53863F5
:105330003A68920708D43A68920705D43A68920707
:1053400002D43A689207F3D539633A68920708D4D1
:105350003A68920705D43A68920702D43A689207ED
:10536000F3D53B633A68920708D43A68920705D4AC
:105370003A68920702D43A689207F3D538633A68DC
:10538000920708D43A68920705D43A68920702D483
:105390003A689207F3D539633968C90702D039688A
:1053A000C90611D53968C90702D03968C9060BD5B5
:1053B0003968C90702D03968C90605D53968C907EF
:1053C000EAD03968C906E7D43561B4213963396850
:1053D000C90702D03968C90611D53968C90702D092
:1053E0003968C9060BD53968C90702D03968C906BA
:1053F00005D53968C907EAD03968C906E7D43560E8
:105400003968890708D43968890705D43968890754
:1054100002D439688907F3D50721059139633968C2
:10542000C90702D03968C90611D53968C90702D041
:105430003968C9060BD53968C90702D03968C90669
:1054400005D53968C907EAD03968C906E7D4356196
:10545000C021019139633968C90702D03968C9068A
:1054600011D53968C90702D03968C9060BD5396822
:10547000C90702D03968C90605D53968C907EAD015
:105480003968C906E7D435603968890708D43968AE
:10549000890705D43968890702D439688907F3D5A3
:1054A000A22139633968890708D43968890705D486
:1054B0003968890702D439688907F3D50221029136
:1054C00039633968890708D43968890705D4396888
:1054D000890702D439688907F3D58421396339688B
:1054E000C90702D03968C90611D53968C90702D081
:1054F0003968C9060BD53968C90702D03968C906A9
:1055000005D53968C907EAD03968C906E7D43561D5
:10551000C12139633968C90702D03968C90611D574
:105520003968C90702D03968C9060BD53968C90777
:1055300002D03968C90605D53968C907EAD0396883
:10554000C906E7D435603968890708D439688907FE
:1055500005D43968890702D439688907F3D5C5218C
:1055600039633B68DB0702D03B68DB0611D53B683B
:10557000DB0702D03B68DB060BD53B68DB0702D0BC
:105580003B68DB0605D53B68DB07EAD03B68DB06FA
:10559000E7D43561C2233B633B68DB0702D03B683D
:1055A000DB0611D53B68DB0702D03B68DB060BD579
:1055B0003B68DB0702D03B68DB0605D53B68DB07B1
:1055C000EAD03B68DB06E7D435603B689B0708D42C
:1055D0003B689B0705D43B689B0702D43B689B074D
:1055E000F3D50A233B633B689B0708D43B689B07C2
:1055F00005D43B689B0702D43B689B07F3D5002486
:105600003C633B68DB0702D03B68DB0611D53B6897
:10561000DB0702D03B68DB060BD53B68DB0702D01B
:105620003B68DB0605D53B68DB07EAD03B68DB0659
:10563000E7D43561C3233B633B68DB0702D03B689B
:10564000DB0611D53B68DB0702D03B68DB060BD5D8
:105650003B68DB0702D03B68DB0605D53B68DB0710
:10566000EAD03B68DB06E7D435603B689B0708D48B
:105670003B689B0705D43B689B0702D43B689B07AC
:10568000F3D58A233B633A68920708D43A689207B5
:1056900005D43A68920702D43A689207F3D52A22D1
:1056A00003923A633A68D20702D03A68D20611D51B
:1056B0003A68D20702D03A68D2060BD53A68D207C8
:1056C00002D03A68D20605D53A68D207EAD03A68DD
:1056D000D206E7D43561C4223A633A68D20702D0D1
:1056E0003A68D20611D53A68D20702D03A68D20693
:1056F0000BD53A68D20702D03A68D20605D53A6887
:10570000D207EAD03A68D206E7D435603A68920701
:1057100008D43A68920705D43A68920702D43A68E6
:105720009207F3D53B633A68920708D43A68920728
:1057300005D43A68920702D43A689207F3D5EE226C
:105740003A633A68D20702D03A68D20611D53A686D
:10575000D20702D03A68D2060BD53A68D20702D0F7
:105760003A68D20605D53A68D207EAD03A68D20636
:10577000E7D4356139633968C90702D03968C90689
:1057800011D53968C90702D03968C9060BD53968FF
:10579000C90702D03968C90605D53968C907EAD0F2
:1057A0003968C906E7D435603968890708D439688B
:1057B000890705D43968890702D439688907F3D580
:1057C0000E2139633968C90702D03968C90611D575
:1057D0003968C90702D03968C9060BD53968C907C5
:1057E00002D03968C90605D53968C907EAD03968D1
:1057F000C906E7D43561362139633968C90702D053
:105800003968C90611D53968C90702D03968C9068F
:105810000BD53968C90702D03968C90605D539687A
:10582000C907EAD03968C906E7D43560064909785E
:10583000032919D84900C0467944898849008F4412
:1058400005006D04430458046C052020396889075D
:1058500008D43968890705D43968890702D43968BA
:105860008907F3D5019C3C633968C90702D03968C0
:10587000C90611D53968C90702D03968C9060BD5E0
:105880003968C90702D03968C90605D53968C9071A
:10589000EAD03968C906E7D43561E021396339684F
:1058A000C90702D03968C90611D53968C90702D0BD
:1058B0003968C9060BD53968C90702D03968C906E5
:1058C00005D53968C907EAD03968C906E7D4356013
:1058D0003968890708D43968890705D43968890780
:1058E00002D439688907F3D50F223A6339688907EA
:1058F00008D43968890705D43968890702D439681A
:105900008907F3D51A2139633968890708D43968BA
:10591000890705D43968890702D439688907F3D51E
:105920003A633968890708D43968890705D4396822
:10593000890702D439688907F3D518213963396892
:10594000890708D43968890705D43968890702D4DA
:1059500039688907F3D52F2139633968890708D455
:105960003968890705D43968890702D439688907F5
:10597000F3D5282139633968890708D4396889073C
:1059800005D43968890702D439688907F3D52021FD
:1059900039633968890708D43968890705D43968B3
:1059A000890702D439688907F3D522213963396818
:1059B000890708D43968890705D43968890702D46A
:1059C00039688907F3D51F2139633968890708D4F5
:1059D0003968890705D43968890702D43968890785
:1059E000F3D51B2139633B689B0708D43B689B07B1
:1059F00005D43B689B0702D43B689B07F3D5232360
:105A00003B633B689B0708D43B689B0705D43B6816
:105A10009B0702D43B689B07F3D537233B633B6866
:105A20009B0708D43B689B0705D43B689B0702D4BF
:105A30003B689B07F3D500243C633B689B0708D475
:105A40003B689B0705D43B689B0702D43B689B07D8
:105A5000F3D5059B3B633B689B0708D43B689B07DA
:105A600005D43B689B0702D43B689B07F3D50646E9
:105A7000029838633B689B0708D43B689B0705D4B2
:105A80003B689B0702D43B689B07F3D510233B631D
:105A90003868C00702D03868C00611D53868C0071A
:105AA00002D03868C0060BD53868C00702D0386805
:105AB000C00605D53868C007EAD03868C006E7D404
:105AC00002480561E120386302E0C04690520A4076
:105AD0003868C00702D03868C00611D53868C007DA
