:020000040000FA
:1000000098082020C1010000C5010000C7010000C0
:1000100000000000000000000000000000000000E0
:10002000000000000000000000000000C901000006
:100030000000000000000000CB010000CD01000026
:10004000CF010000CF010000CF010000CF01000070
:10005000CF010000CF010000CF010000CF01000060
:10006000CF010000CF010000CF010000CF01000050
:10007000CF010000CF010000CF010000CF01000040
:10008000CF010000CF010000CF010000CF01000030
:10009000CF010000CF010000CF010000CF01000020
:1000A000CF010000CF010000CF010000CF01000010
:1000B000CF010000CF010000CF010000CF01000000
:1000C00000F002F800F06CF812A030C808382418CC
:1000D0002D18AC4201D100F063F80FCCA246AB461C
:1000E0000CA730CF2D1B083F3F197C427F1E544484
:1000F0002D090426F441641EAC4201D300F050F8EF
:100100000126334200D0FB1A3343984754465D46DC
:10011000DFE7000004540000245400000000000049
:10012000103A02D378C878C1FAD8520701D330C840
:1001300030C101D504680C60704700000000000069
:100140007047000000000000002300240025002666
:10015000103A01D378C1FBD8520700D330C100D583
:100160000B60704710B5662902D104F0B3FC10BDD6
:10017000642902D100F04EF810BD752902D100F0BB
:1001800049F810BD002010BD1FB501F0F5F80400BE
:100190000020002104F082FBE0601FBD10B510BDFF
:1001A00001F0A0FC1146FFF7EFFF01F001FE01F0A6
:1001B000B8FC03B4FFF7F2FF03BC01F013FD00002D
:1001C00006480047FEE7FEE7FEE7FEE7FEE7FEE73C
:1001D00003480449024A044B70470000C100000074
:1001E0009800202098082020980020200FB41CB5EB
:1001F000074B06AA7B4469460090059801F06FF80A
:100200000020694601F07EF81CBC08BC04B0184709
:100210000D110000F7B5002575291068009914A686
:1002200011D0C046C046002802DA404211A608E0BC
:10023000009909688A0701D50FA602E0490704D58D
:100240000EA6012501E0C046C046009F00242437C9
:1002500004E001F07CF830313955641C0028F8D1F5
:100260002B4632462146009800F0D1FDFEBD00002D
:10027000000000002D0000002B0000002000000006
:10028000F3B50446002081B020622046E16888472B
:1002900000287AD0252802D06268A16871E0E16860
:1002A00020460025884706460020E0610746A061F9
:1002B0002A2E0AD0304604F0E9FA002827D0B800E8
:1002C0000019303E0090866119E00298BA001219B8
:1002D00002C8916102902046E1688847012F0646D6
:1002E00017D1E06900281FDA202085431CE0009820
:1002F0000A21806948430099801930388861204676
:10030000E1688847064604F0C1FA0028EFD1012FC2
:100310000AD02E2E08D12046E168884706462020C4
:1003200005437F1C022FC3DBA069002803DA40428B
:10033000A06101200543E80701D010208543002E6D
:1003400023D030464138192803D80120C002054384
:100350002036204625603146029A1546FFF702FFF7
:1003600000280BD0012806D0ED1DE808C000083099
:1003700002908AE709E02D1D029586E76268304603
:10038000A1689047206A401C7EE7206AFEBDD2B279
:1003900010B513029A1813049A1800F0B8FF10BD94
:1003A000002203098B4273D3030A8B4258D3030BF9
:1003B0008B423CD3030C8B4221D312E003460B4308
:1003C0007FD4002243088B4274D303098B425FD34E
:1003D000030A8B4244D3030B8B4228D3030C8B427A
:1003E0000DD30902FF2212BA030C8B4202D3121260
:1003F000090265D0030B8B4219D300E0090AC30B35
:100400008B4201D3CB03C01A5241830B8B4201D3E1
:100410008B03C01A5241430B8B4201D34B03C01ACA
:100420005241030B8B4201D30B03C01A5241C30A42
:100430008B4201D3CB02C01A5241830A8B4201D3B3
:100440008B02C01A5241430A8B4201D34B02C01A9D
:100450005241030A8B4201D30B02C01A5241CDD242
:10046000C3098B4201D3CB01C01A524183098B428D
:1004700001D38B01C01A524143098B4201D34B0176
:10048000C01A524103098B4201D30B01C01A5241D9
:10049000C3088B4201D3CB00C01A524183088B4260
:1004A00001D38B00C01A524143088B4201D34B0049
:1004B000C01A5241411A00D20146524110467047BB
:1004C0005DE0CA0F00D04942031000D340425340C0
:1004D0009C46002203098B422DD3030A8B4212D380
:1004E0008901FC2212BA030A8B420CD389019211B2
:1004F0008B4208D3890192118B4204D389013AD0EF
:10050000921100E08909C3098B4201D3CB01C01AC3
:10051000524183098B4201D38B01C01A52414309D6
:100520008B4201D34B01C01A524103098B4201D3C4
:100530000B01C01A5241C3088B4201D3CB00C01A31
:10054000524183088B4201D38B00C01A5241D9D249
:1005500043088B4201D34B00C01A5241411A00D2CA
:1005600001465241104663465B1001D34042002BC6
:1005700000D54942704763465B1000D3404201B545
:100580000449002802DC491C084000E00846C04637
:10059000C04602BDFFFFFF7F7047704770470000F5
:1005A000F0B50C46871A9C410D46861A9D4103D230
:1005B000C01BA141D21963410D0D1F0DC94EEC1B8B
:1005C000AE435CD07F057F0D0026002F51D02D0556
:1005D000AC46A943DD020123ED0A1B051D43202380
:1005E0001B1B24D41746E740381871412F46E740BB
:1005F000CC199D402818314661410C0D27D161442A
:100600009A4013D50023401C594152000ED1400896
:10061000400001224B005205D34207D3052040077A
:10062000C14201D5B04900E0B0493046F0BD6B0091
:10063000002A00D001229A181F23203C1B1B01D541
:10064000002302E0E540281871410C0DD7D00124A9
:1006500024050919C407CD0740084908E40F2843B9
:100660006144002CD5D00024401C61419A40D0D177
:10067000CDE76A05520DD9D1C90FC907D5E79C4D01
:100680004E00002801D0012400E0002434195F004E
:10069000002A01D0012600E00026BE19954FAC4289
:1006A0000CD8AE420AD8B44206D001256D05EC4202
:1006B000BCD010461946F0BD9942FCD00020394606
:1006C000F0BDF0B51FB40C460F46811A9F41254678
:1006D000861A9D4106D20125ED076F40401ABC41A4
:1006E00052187B41210D1E0D8D1BAC467D4D8D4357
:1006F0007ED075056D0D7CD00D05AE46AC431B0359
:100700001B0B794D52429D41202366469B1B14D3FF
:100710001746F740381800260090744160462F466F
:100720000741E41900989D402818664116D4714687
:1007300071189A4025D5012320E093182A466A4172
:100740005200002B00D0521C1E23203E9B1B002B6E
:1007500061DD3541EE1728186641E8D5001876416D
:100760005B1C9A4000D3401C4B05F3181524E34052
:1007700010D3002B52D071467118D30FC01802D37A
:10078000491C05B0F0BD0123DB079A42F9D14008AE
:100790004000F6E701225205B21801D1002853D0DB
:1007A0000123CC0ADB029943891E002A08D1020CDE
:1007B00003D0020C0004103902E002460020203968
:1007C0000023550B05D112020823550B01D152010C
:1007D0000D23550C01D112011B1DD50C01D1920026
:1007E0009B1C150D01D152005B1C2025EE1A01E067
:1007F0002CE022E00546F54015439840CA1AE1076F
:1008000069181305C918002ABBDA03204007081825
:10081000C10FC9070FE071466118B2E7F107400840
:100820000843711071444A000CD001235B059A42C1
:10083000A7D2C90FC9070020A3E74905490D26D152
:10084000002001E00028F4D100219AE7284D66003D
:10085000002801D0012100E0002171185F00002A6A
:1008600001D0012600E00026BE19224FA94210D86F
:10087000AE420ED8B14208D001256D05E94206D03E
:100880001946A802414010467BE79C4201D0214610
:1008900077E70020394674E710B50C465C4005D573
:1008A0000124E4076340FFF70CFF10BDFFF778FE5B
:1008B00010BD30B40C465C4004D50124E40763400D
:1008C00030BC6DE630BCFCE670B50124E407614045
:1008D0000D465D4002D4FFF763FE70BD6340FFF735
:1008E000F0FE70BDFF0700000000F0FF0000F07F89
:1008F0000000E0FF0000F87F30B50346CA02400D5B
:100900001043164D164C0A1502D02043002A06DB70
:10091000AA1A002A12DDD040FF2A0BDC30BD520596
:10092000520D01D140004008AA1A07D4D0404042DD
:10093000FF2A01DD002030BD0028FCDD4A00002B2D
:1009400001D0012000E00020101801225205D04201
:10095000F0D8C817C043604030BD00001E0400003E
:10096000000000801F22030C02D10F22000402D0DD
:10097000030E03D004E00020014670470002083A4D
:10098000030F01D10001121F830F01D18000921EBD
:10099000002801DB4000521E120551184205C0120A
:1009A000411810467047C10FC90700D040420122CC
:1009B00092071143D6E701218907D3E7F0B58B4CA5
:1009C0000F09254689B0BD437BD01D092646AE439D
:1009D000FAD00E465E402740F60F3E43254071D0C8
:1009E00024012142FBD0FF24AD19A4042D1B039543
:1009F00001252D05DB02DB0AC9022B43C90A294365
:100A00001E010901040F130F050121431701880B73
:100A1000820391432D098C46A90B1E438A039543FB
:100A2000B30B9A0396433F09BA0B9403A74302966C
:100A30002E467E430497B6464E19D7190C460196AA
:100A4000544305977E43371B7646BF1B3601B64697
:100A5000BE0B361900967646BC043719009C01D3AC
:100A6000641C00946400002F01D001263443029ED0
:100A7000049F754366467E430496760034196E00E3
:100A800034190094029C019E1C196643751BAE46E6
:100A9000069465464519059C05956C435943754672
:100AA0000891691A0191049E01465143A41B0491C7
:100AB000611A009C0791E10605D0610901221143EA
:100AC00002E072E06EE06109089D00272C0A2D0605
:100AD0006918049D7C412A0A2D066918019D62410E
:100AE000AC0DAD026D185441079A910D9202551943
:100AF0006141029A644658435443069B059A5A43FF
:100B0000121A131B9A0E9B015B187A41010B000508
:100B1000C3185141220A200644195A419A4200D270
:100B2000491C01204002814203D315230226F643CB
:100B300002E014230326F6432020C51AA9401746D5
:100B4000AF40DA400A4320460399D840091473188D
:100B500019055118039A3843D2075140AC4009D0C7
:100B60000122944006D30022401C5141002C01D1A7
:100B7000400840001E4A934212D301220398920675
:100B8000904207DB0520400709181A480143C012AC
:100B9000414004E0032040070818C10FC9070020A6
:100BA00009B0F0BD0020F107FAE705180C464C41EA
:100BB00011486D42A04115D394181A465A410E4867
:100BC000644290410ED301204A004005824209D37D
:100BD0005A00824206D35940C90F084AC90700206B
:100BE0001143DDE700200649DAE700000000FF07B7
:100BF000FE070000FFFFFF7F0000E0FF0000F07F26
:100C00000000F87FF0B5FF252D04C609C209FF27B3
:100C100004462E400137CB093E4348402A402B4032
:100C20000746002A6BD0002B69D0AA4267D0AB429E
:100C300065D0002800DA32460125ED0529432C4312
:100C400009022002090AD21A4B0C7F24E31A434CF2
:100C5000000A7C44E35C7D242404121914145B0014
:100C6000A218884201D3521C00E0400049420C46C1
:100C70005C4324115C43DB016415E318040A5C4304
:100C8000C502200D0C4644436419250A5D43230325
:100C9000EC0C0D46654300030019EB184C42A342CF
:100CA00001D35B18401CD4052018002B07D05B0033
:100CB000C91804D3401C002901D1400840003F213D
:100CC00089048A4209D3002A08DC1106090F04D0DE
:100CD000032149074018C00FC007F0BD01224100A1
:100CE000120689187F2252069142F6D20521490741
:100CF000C84201D59010F0BDFF20C005F0BD002F07
:100D000000DA32461648AA4207D2AB4205D219028F
:100D1000090E17D0F80FC007F0BDFF2563002D06A0
:100D2000AB42F9D84900A942F6D8AB4201D1A94259
:100D3000F2D0A94201D1002101E061004908D005AB
:100D40000843F0BD1102090EFBD0FF200243D0057D
:100D5000F0BD0A460146104654E700008E3E0000F2
:100D60000000C07F10B501469E240002CA15A307EB
:100D7000002A02D01843002A04DBA21A002A0CDD44
:100D8000D04010BD1206120E01D140004008A21A38
:100D900003D4D04040420028F3DDFF224800120671
:100DA000904201D9002010BDC817C043584010BD63
:100DB0001F22030C02D10F2200041CD0030E01D10C
:100DC0000002083A030F01D10001121F830F01D165
:100DD0008000921E002801DB4000521ED2055118EF
:100DE000021251181922904004D3491C002801D145
:100DF0004908490008467047C10FC90700D0404262
:100E0000012292071143D3E701218907D0E7FFB5FB
:100E100004460D4681B0243000902168880604D530
:100E20001022E0699143216000E00120A84201DD29
:100E3000471B00E000270498A1697A191018081AC6
:100E4000A0612078C00602D42046C046C0460026D5
:100E500008E003986268A168805D9047206A401CA2
:100E6000761C206204988642F3DB2078C0060AD5FF
:100E70002046C046C04606E06268A1683020904720
:100E8000206A401C206238467F1E0028F4DC07E000
:100E900000986268A168405D9047206A401C20620B
:100EA00028466D1E0028F3DC2046C046C046207848
:100EB000000602D5022005B0F0BD0120FBE70000CE
:100EC000FFB50C461E468FB003CA089009914F002B
:100ED0007D0D00D16D1E002108460020C046032173
:100EE000099A89050840002A03DA82008018400820
:100EF0000840800D01280A9002DD0020C0430A90BE
:100F0000089807430DD0F048F049281848430714C3
:100F1000189800281DD07542291E1DDD0A984242EE
:100F20001BE01898012802D00020302104E00020A6
:100F3000F24305E02154401CB042FBDB3046002266
:100F4000189B002121540F998B600A60486013B0F0
:100F5000F0BDBD1B6D1CDFE70A9A002900DA69426B
:100F60000BA800F08FFA0BAB07CB03AB07C30899B4
:100F7000099800F0F3FA6B4607C30146D4480918F4
:100F8000002D00910BDDD24903980A9A494240187E
:100F9000002303A90390684600F050FD08E0039980
:100FA0000A9A0023081803A90390684600F0F0FC91
:100FB0006B4607C30004000C03D00020C043410867
:100FC00000E01046189A002A03D00022009215462D
:100FD0001EE0751E05D400F0D3F9303262556D1E47
:100FE000F9D501220843079602D000227F1C04E0B5
:100FF0002078302801D100227F1E002A069787D052
:101000001EE0112D07DA00F0BBF9303262556D1C7D
:1010100002460A43F5D1084303D00098002819D0AE
:101020000EE00021681E05E0235C625C63542254DC
:10103000401E491C8142F7DBA81B401E0795069005
:10104000079A18990020A0540F98079B069A816070
:101050000CC07CE711260020189059E7D21DF0B58E
:101060000D460446D10893B0C90003C90C900D91F8
:1010700003F0F6FB02460D98C00F01D02D2007E0CB
:101080002068810701D52B2002E04007C00F4001F6
:10109000032A0F9001D0072A05DB03462946204684
:1010A00000F0ACF90EE12078800601D5E76900E098
:1010B00006272846652D04D0662814D0672D69D1EF
:1010C0002DE00020112F009001DB112300E07B1C9C
:1010D0000CAA03A910A8FFF7F3FE11990026109897
:1010E0007D1C0E9142E001203B460CAAC0070B90EC
:1010F0000120009003A910A8FFF7E2FE119D1298AD
:101100001099002600280E9501D1781C0D18781B27
:1011100002D446427D1C761EE81B00903AE0012F67
:1011200000DA01270020112F009001DD112300E0DB
:101130003B460CAA03A910A8FFF7C2FE11993D4631
:10114000109800260E91217809070BD40E99A94218
:1011500000DA0D4603A9012D04DD4A19203AD27F99
:10116000302A06D0B84201DA011D04DA01210091CB
:101170000FE06D1EEFE7002802DC86192D1A03E050
:10118000411CA94200DD0D46801B401C009001203F
:10119000C0070B902078000705D40098A84202DB16
:1011A0000020C043009069460020C8720B980121BE
:1011B00002AF0337C907884225D0022010902B20A8
:1011C00011900B9800280BDA40420B902D201190C3
:1011D00006E00B9800F0BBF830317F1E0B903970A1
:1011E0001099481E00291090F3DC0B980028F0D1CC
:1011F00011987F1E38702088000501D5452000E039
:1012000065207F1E387001A8C01BC01D0B900F9871
:10121000002800D0012041190098C01709180B9828
:101220000818A169081A401EA0612078C00602D4DF
:101230002046C046C0460F98002805D06268A168C5
:101240009047206A401C20622078C00625D52046A1
:10125000C046C04621E0002E07DB0E98B04204DDF8
:1012600003A86268805DA16802E06268A16830201E
:101270009047206A761C401C20620098401E00287F
:1012800000900AD100F078F8C06862680168405C9C
:10129000A1689047206A401C206228466D1E0028E5
:1012A000D9DC07E062683878A1687F1C9047206A23
:1012B000401C20620B99481E00290B90F2DC20464E
:1012C000C046C046032042E601FCFFFF104D00006F
:1012D000E1DFFFFF01694A1C02610878704700B531
:1012E0008FB0029100210591054901937944039142
:1012F000114604906846FEF7C3FF0FB000BD000022
:10130000E5FFFFFF0A681070521C0A60704701E099
:1013100004C0091F0429FBD28B0701D50280801C61
:10132000C90700D00270704700290BD0C30702D054
:101330000270401C491E022904D3830702D5028093
:10134000801C891EE3E70022EEE70022DFE701466A
:101350008008081A02091018020A1018020C101846
:10136000C008820012185200891A01E0401C0A3994
:101370000A29FBD27047000000487047280020204F
:101380000B4670B5024689078008084319469D0838
:10139000141AA94125090807054308092C194841D1
:1013A000250A01060D43010A2C194141200C0D04A8
:1013B00028430D0C00194D41002140194D41C00832
:1013C00069070843E908840F8D0025438400241829
:1013D0004D4124196D41121BAB4107E00925ED4336
:1013E0002C11521963410024401C61411C460A25FE
:1013F0000026551BB441F1D270BD0000F8B51F4660
:10140000044601230068DB02032601461840072A30
:1014100005DB002801D017A506E017A504E0002889
:1014200001D016A500E016A5102081432160A06917
:10143000C01E002FA06101D0401EA0612046C04602
:10144000C046002F09D038466268A1689047206ADC
:10145000401C2062C01C206206E0206AFAE7626835
:101460002878A1686D1C9047761EF8D22046C046A9
:10147000C046F8BD4E414E006E616E00494E4600BA
:10148000696E6600F7B516468AB0334878446C46F4
:1014900003467C33C06F5A689B680DC42E4878445D
:1014A000763003AC0DC80DC43720C00108183721B1
:1014B0001B30FEF783FF05460C46803D1B3C02D5E2
:1014C0006442012000E000200027099010E0E007BE
:1014D0000CD00C2020497843794432464C394118CD
:1014E0006846012300F054FA6B4607C364107F1C62
:1014F000002CECD1184F7F442E3F16E0E80712D0A5
:101500002001C0190EC80691089307920068F042A6
:1015100001D1981908903246012306A903A800F0CA
:1015200037FA03AB07C36D10641C002DE6D1099890
:10153000002806D032466946012303A800F07EFA4F
:1015400005E001233246694603A800F021FA0A9B10
:1015500007C30DB0F0BD0000943600000346400004
:101560000A4610B5400D0BD00121C9070F24A40273
:1015700000191C0364082143540D2143D20207E0E3
:1015800000210120F2E7D40F490021435200401E00
:101590000029F8DADB0FDB07184310BDFFB50D4655
:1015A000144685B04868516803F041F900910190F4
:1015B000A868A16803F03BF902910390A8686168EC
:1015C00003F035F9029A12188242029201D20120E8
:1015D00000E00020019A0B18D2180028019202D0D6
:1015E0008A4202D903E08A4201D2012000E00020B1
:1015F0000099081800906868A16803F018F9029A29
:1016000012188242029201D2012000E00020019AC9
:101610000B18D2180028019202D08A4202D903E0A6
:101620008A4201D2012000E00020009908180090B1
:101630002868216840004900400849084018FA49D4
:10164000471814E001994000C90F08430090019821
:1016500002994000C90F0843019002980399400085
:10166000C90F08430290039840007F1E0390009822
:101670000028E7DA0898002801D0EC4E00E00026A8
:10168000B74201DA012000E00020002804902AD0AF
:10169000F71BF806C00E15D0029B2021091A039AE9
:1016A0008B401A430392029A019BC2408B401A431B
:1016B0000292019A009BC2408B4000991A4301920A
:1016C000C14000917B110DD06F460320C11A03D594
:1016D00000218200B95003E08A008100BA587A5094
:1016E000401EF3D5374603980299002800D0012008
:1016F000014308980291002808460CD0002800D029
:1017000001200199019A490508430121D20AC90221
:10171000D202019200E001210E9B0122D207012B8F
:1017200002D0002B03D013E0002807D120E0904224
:1017300004D890420CD1019B0B4209D0019B59184F
:10174000019105D10099491C009101D17F1C0092A3
:1017500000280DD0102108460020C046049800281B
:1017600006D00F98002803D0082108460020C04664
:1017700028682168019B009A4840C10F0598C90755
:1017800039430EC009B0F0BDFFB587B0099A08987B
:1017900008995368926840688968964600220393C6
:1017A00017469446089A12685300099A5B08126813
:1017B000520052089A1A9E4BD4180A9A002A01D055
:1017C000352200E0402206920022012315460492B1
:1017D000DB07059324E0002D05D175460346039EE3
:1017E0004D1BB34109D375466646039B491B049DB7
:1017F0009841059B7519AC465F4163463B4308D051
:10180000059B049EDD0776082E435B08049605932E
:1018100001E0521E641EC50FED0749184041521CDD
:10182000069B9A42D7DB002D04D17546039A6B1AAA
:10183000824101D203200CE0039A0B466B404240E8
:10184000134303D0014303D0012002E0022000E053
:101850000020614601910021009702910A99002918
:1018600005D0614640020143704B019102E08007C0
:10187000002302909C4201DA012000E000200700D2
:101880003AD01A1BD006C00E15D0029D2021019C13
:10189000091AC5408C402543029C8C4000D001248D
:1018A0002543019C0295009DC4408D4000992C4326
:1018B0000194C140009154111DD06D4602210022B7
:1018C00002290CD10320001B07E0002804DB86005E
:1018D000AE59002E00D00122401C0328F5DB081B66
:1018E00002D588002A5004E08000285810438A005E
:1018F000A850491EE3D51C460A98002802980CD02F
:10190000002800D001200199019A490508430121CE
:10191000D20AC902D202019200E00121109B0122E9
:10192000D207012B02D0002B03D013E0002807D1EF
:101930001FE0904204D890420CD1019B0B4209D089
:10194000019B5918019105D10099491C009101D1C1
:10195000641C009200280CD0102108460020C046CC
:10196000002F06D01198002803D008210846002037
:10197000C04608980999019A009B00680968484088
:10198000C10F0798C907214382600AC00BB0F0BDA0
:1019900000B585B0019300920A460146002302A8D3
:1019A000FFF7FCFD02A807C805B000BDFFB50A4659
:1019B0001F4685B00799019301230091014602A8B3
:1019C000FFF7ECFD02990398049ECA0F4900D20765
:1019D00000920F22490892028C1A0021002800DB95
:1019E0000C46450013486D08844214D3079A002A18
:1019F00004DA441E0026104DF64302E004460D466C
:101A00000E46102108460020C046002F03D00421B6
:101A100008460020C0462005E90A0843009908430B
:101A20006905F20A1143ADE602C0FFFF013C000068
:101A3000FF3F0000FF070000FFFFFF7F00B585B0FC
:101A4000019300920A460146002302A8FFF79CFE7C
:101A500002A807C8A8E7FFB50A461F4685B0079940
:101A6000019301230091014602A8FFF78DFE029920
:101A70000398049ECA0F4900D20700920F2249081A
:101A800092028C1A0021002800DB0C464500114808
:101A90006D08844214D3079A002A04DA441E0026F3
:101AA0000D4DF64302E004460D460E461021084651
:101AB0000020C046002F03D0042108460020C04665
:101AC0002005E90A0843009908436905F20A114311
:101AD00058E60000FF070000FFFFFF7F0048704747
:101AE000080020207546FFF7F9FFAE46050069465D
:101AF0005346C008C000854618B020B5FEF768FB05
:101B000060BCB64600260027C0C5C0C5C0C5C0C55C
:101B1000C0C5C0C5C0C5C0C5403D490849008D46C7
:101B2000704710B50446C046C0462046FEF741FB4C
:101B300010BD000082078B079A423FD170B5920F0B
:101B40000AD0032402780B78401C491C002A33D0A9
:101B50009A4231D12042F5D1214EF40104C808C97E
:101B6000951B9543254018D19A420FD104C808C946
:101B7000951B9543254010D19A4207D104C808C946
:101B8000951B9543254008D19A42E7D012BA1BBA5B
:101B900001209A4200D2404270BD12BA1BBA2DBA3F
:101BA00018241000E0401900E140401A05D12E0031
:101BB000E64002D1083CF4D1D01A70BD02780B780F
:101BC000401C491C002A09D09A4207D102780B78A0
:101BD000401C491C002A01D09A42EFD0D01A70470D
:101BE0000101010101491820ABBEFEE726000200F9
:101BF0007047811E091F00BFFCD27047B0B511228B
:101C0000120283580C4C1C400B894D881D438B7964
:101C10002B430A4D1D4063198350CB798C881C439C
:101C2000097821435D239B001940801842689A433C
:101C300051184160B0BDC04680CCFFFF7F3300002B
:101C400010B50122120383180C785C60497881502A
:101C500010BD000011488B21C162816210490164EE
:101C60001049C167104981220A60104B1A605A60FE
:101C70000A630260092080030D4908610120820780
:101C80000A600C4A0A64C0050B4908600864032016
:101C900000020A49086008647047C0461480424048
:101CA00083000400810010009C8042405881424023
:101CB00090120A400040024090320A4090520A407E
:101CC00010B50D4C0D492046FFF7BAFF0C492046D0
:101CD000FFF794FF0B4841680B4A0A40511C4160D2
:101CE000816812220A432D218A4382600168012201
:101CF0000A43026010BDC046008046400A550000FD
:101D00000C5500000491464000FCFFFF0120C0027A
:101D100006490A68024208D10A68024205D10A68E7
:101D2000024202D10A680242F3D0704704020B401B
:101D300004480121016004480168032291430160C5
:101D40007047C04608030B4000010B4080B500F00F
:101D50000FF8FFF77FFFFFF7EBFFFFF7B1FFFFF78C
:101D6000D5FF2420014900220A5480BD68002020AC
:101D700010B5094809494160094A5160094B596049
:101D8000094C6160094901601160196021601020EF
:101D9000FFF72FFF10BDC04600080A40030000B146
:101DA00000280A4000480A400088464001000026FA
:101DB00086B0FFF7CBFF00F05BFD00F0BDF81F2001
:101DC000464D04460290294601F0D4FD01200390BF
:101DD00001F0DAFD0420022141A202F059FBE402E5
:101DE000009400267F27142130463A4605970B467B
:101DF00000F04AFA0094152130463A460B4600F0AE
:101E000043FA20201A213AA20494234602F098F9BA
:101E100010202E213AA2029B02F092F9039F38462D
:101E200001F0B2FD3046294601F0A4FD442439A258
:101E30003046214602F02CFB3848294601F09AFD35
:101E40000520009701903020354A364B214602F09C
:101E50005FFA3548009058213046059A0B4600F04D
:101E600013FA3046294601F085FD60212FA2304645
:101E700002F00EFB1FE01F3DACB26E25682728461E
:101E80003946224600F07EFC6F263046394622460F
:101E900000F078FC692728463946224600F072FC9B
:101EA00030463946224600F06DFC2248FFF7A1FE7D
:101EB000059E761C094D0498294601F05BFD012022
:101EC00001F062FD302060210623324602F01CFB47
:101ED000F0070596CFD13F204501CDE7FFFF000079
:101EE0004D53504D3047333531392054455354000C
:101EF000E4B8ADE69687E698BEE7A4BA0000000015
:101F0000E794B5E8B59BE6B58BE8AF953A204F4B23
:101F100000000000464C4F41543A00001FF80000FA
:101F20006E861BF0F921094010840000434E5420B6
:101F30003A00000000D43000F0B583B00120400228
:101F4000CE4901900861CB4C21789F207F23002946
:101F5000024600D11A46C84E3178002900D1034606
:101F600000252846294601F015FD2278A020802171
:101F70000291002A024600D1029A3378002B00D148
:101F80000290BF480088C3B2070ABE482C4603E04F
:101F9000641C02998C426DD02E4603E00363361D0B
:101FA0009642F5D00168890708D40168890705D4ED
:101FB0000168890702D401688907F3D507630168BE
:101FC000890708D40168890705D40168890702D404
:101FD00001688907F3D503630168890708D401689C
:101FE000890705D40168890702D401688907F3D5F8
:101FF00007630168890708D40168890705D4016867
:10200000890702D401688907F3D50363016889074A
:1020100008D40168890705D40168890702D40168DA
:102020008907F3D507630168890708D40168890720
:1020300005D40168890702D401688907F3D50363D1
:102040000168890708D40168890705D401688907F0
:1020500002D401688907F3D50763016889079DD415
:10206000016889079AD40168890797D401688907AC
:10207000F3D593E70168C90702D00168C90624D5E2
:102080000168C90702D00168C9061ED50168C907E1
:1020900002D00168C90618D50168C907EAD00168ED
:1020A000C906E7D411E00168C90702D00168C90672
:1020B00011D50168C90702D00168C9060BD50168AE
:1020C000C90702D00168C90605D50168C907EAD069
:1020D0000168C906E7D401986849086003B0F0BDFB
:1020E000F0B585B0634C2478002C04D18024844260
:1020F00004D805B0F0BDA0248442FAD95E4C2478FF
:10210000002C03D1A0248C42F3D902E080248C421D
:10211000EFD901277C02594D01942C6104460F34FC
:10212000A4B20D460F35ADB21646224603932B4698
:1021300001F030FC31465248028800245148029791
:1021400003E0641C102C029F5DD0082C049701D37F
:1021500011230493082C234601D32346F833DBB222
:102160009F40002604E0DBB20363B61C102EE8D0CB
:10217000082C334601D310233343CB5C3B40056826
:10218000AD0708D40568AD0705D40568AD0702D4CE
:102190000568AD07F3D5002B134600D0039B1D0A3D
:1021A00005630568AD0708D40568AD0705D4056863
:1021B000AD0702D40568AD07F3D5DBB20363334640
:1021C000049D2B43CB5C3B400568AD0708D40568F4
:1021D000AD0705D40568AD0702D40568AD07F3D592
:1021E000002B134600D0039B1D0A05630568AD074D
:1021F000B9D40568AD07B6D40568AD07B3D4056892
:10220000AD07F3D5AFE70168C90702D00168C90679
:1022100024D50168C90702D00168C9061ED5016826
:10222000C90702D00168C90618D50168C907EAD0F4
:102230000168C906E7D411E00168C90702D0016846
:10224000C90611D50168C90702D00168C9060BD5B6
:102250000168C90702D00168C90605D50168C90728
:10226000EAD00168C906E7D401980449086005B0BE
:10227000F0BDC046910020209200202090520A40DC
:102280000000202010914640F0B589B017460E4658
:102290000546FC480278002A04D18020A84204D8D0
:1022A00009B0F0BDA020A842FAD9FB49097800295D
:1022B00003D1A021B142F3D902E08021B142EFD98C
:1022C000B842EDD99942EBD90021C94301249E427D
:1022D0000494079400D30791BD4200D304910E9952
:1022E0000191BD42029304D19E4200D0BFE033462B
:1022F000D9E10892F01A0090FEF77EFD0690039750
:10230000EC1B2046FEF778FD01460698FEF77AFCA6
:1023100007463046FEF778FD05902846FEF774FD27
:102320000697394602F016FB0146059802F06AFB53
:10233000059020B2C0134440201A80B2009C21B204
:10234000C9134C40611A89B2814200D80EE102984B
:102350008642089A00D198E10198C1B20391000A1F
:102360000090012040020490CC4F16E00498CC4924
:10237000086007983618B4B22046FEF745FD059967
:1023800002F040FB0699FEF73DFCFEF7EBFC05462C
:1023900002988442089A00D176E1D00701D18021C9
:1023A00000E0A021A8B281420892E2D9F34909785D
:1023B000002901D1A02200E08022B1B28A42D8D9FE
:1023C000049AEF4B1A6102460B4601F0E3FAEA4821
:1023D00001783868800708D43868800705D43868E1
:1023E000800702D438688007F3D5009838633868CE
:1023F000800708D43868800705D43868800702D47D
:1024000038688007F3D5039838633868C00702D06E
:102410003868C00611D53868C00702D03868C006D1
:102420000BD53868C00702D03868C00605D53868B3
:10243000C007EAD03868C006E7D408913868C007FA
:1024400002D03868C00691D53868C00702D0386815
:10245000C0068BD53868C00702D03868C00685D55D
:102460003868C007EAD03868C006E7D47EE701982C
:10247000C1B20891000A069001204402FB4F06E019
:10248000F948046007983618B0B2984269D0D0076E
:1024900003D18020A842F5D902E0A020A842F1D9BA
:1024A000F0480078002801D1A02000E08020B1B2DF
:1024B0008842E7D9EC48046128462A460B4601F0D9
:1024C00069FAF74802783868800708D438688007C6
:1024D00005D43868800702D438688007F3D5069899
:1024E00038633868800708D43868800705D43868AE
:1024F000800702D438688007F3D508983863029BB8
:102500003868C00702D03868C00611D53868C007DF
:1025100002D03868C0060BD53868C00702D03868CA
:10252000C00605D53868C007EAD03868C006E7D4C9
:102530003868C00702D03868C006A1D53868C0071F
:1025400002D03868C0069BD53868C00702D038680A
:10255000C00695D53868C007EAD03868C006E7D409
:102560008EE7D00700D09DE080209CE00198C1B2AA
:102570000291000A0090012040020790D74C14E01D
:102580000798B949086004982D18AFB23846FEF78D
:102590003BFC069902F0DEF9059902F095F9FEF789
:1025A000E1FB06460398874269D00898C00701D12D
:1025B000802100E0A021A8B28142E4D9B74909787E
:1025C000002901D1A02200E08022B1B28A42DAD9EA
:1025D000079AA54B1A6102460B4601F0DBF9B04899
:1025E00001782068800708D42068800705D4206817
:1025F000800702D420688007F3D500982063206804
:10260000800708D42068800705D42068800702D49A
:1026100020688007F3D5029820632068C00702D0A5
:102620002068C00611D52068C00702D02068C00607
:102630000BD52068C00702D02068C00605D52068E9
:10264000C007EAD02068C006E7D408912068C00718
:1026500002D02068C00693D52068C00702D0206849
:10266000C0068DD52068C00702D02068C00687D577
:102670002068C007EAD02068C006E7D480E7B1B27E
:1026800005E0C046910020200646A8B23146019AD6
:1026900000F078F809B0F0BD92002020109146407B
:1026A00090520A40A020A84200D8F9E57B48007863
:1026B000002801D1A02000E08020984200D8EFE55A
:1026C00001204402684E3461284619462A4601F02A
:1026D00061F982480168890708D40168890705D42F
:1026E0000168890702D401688907F3D50199090AAD
:1026F00001630168890708D40168890705D4016866
:10270000890702D401688907F3D50199C9B2016329
:102710000168C90702D00168C90624D50168C90744
:1027200002D00168C9061ED50168C90702D0016838
:10273000C90618D50168C907EAD00168C906E7D4F7
:1027400011E00168C90702D00168C90611D5016806
:10275000C90702D00168C9060BD50168C90702D0B4
:102760000168C90605D50168C907EAD00168C9062C
:10277000E7D4346009B0F0BD910020209200202001
:1027800090520A4070B5464B1B78002B03D1802332
:10279000834203D870BDA0238342FBD93F4B1B78F3
:1027A000002B03D1A0238B42F4D902E080238B427B
:1027B000F0D91646012254022B4D2C6102460B46DD
:1027C00001F0E8F845480168890708D401688907DD
:1027D00005D40168890702D401688907F3D5310A55
:1027E00001630168890708D40168890705D4016875
:1027F000890702D401688907F3D5F1B20163016842
:10280000C90702D00168C90624D50168C90702D0EA
:102810000168C9061ED50168C90702D00168C9064A
:1028200018D50168C907EAD00168C906E7D411E0E4
:102830000168C90702D00168C90611D50168C90736
:1028400002D00168C9060BD50168C90702D001682A
:10285000C90605D50168C907EAD00168C906E7D4E9
:102860002C6070BD9200202090520A40109146408A
:10287000F0B587B002480078032813D802E0C046BC
:10288000900020200F2108400C21C1400120084069
:10289000024908700249087004E0C04692002020F6
:1028A000910020200126F405084D2C610848FFF70F
:1028B000A0F92C60074C2046FFF79BF931467002C7
:1028C000054E04903061054F0AE0C04690320A4040
:1028D00000E2040000983A0090520A4010914640ED
:1028E0003868C00702D03868C00611D53868C007FC
:1028F00002D03868C0060BD53868C00702D03868E7
:10290000C00605D53868C007EAD03868C006E7D4E5
:1029100006910D023561112038633868C00702D076
:102920003868C00611D53868C00702D03868C006BC
:102930000BD53868C00702D03868C00605D538689E
:10294000C007EAD03868C006E7D435602046FFF7F4
:1029500050F93868C00702D03868C00611D5386809
:10296000C00702D03868C0060BD53868C00702D04F
:102970003868C00605D53868C007EAD03868C00690
:10298000E7D43561B12038633868C00702D03868B1
:10299000C00611D53868C00702D03868C0060BD50C
:1029A0003868C00702D03868C00605D53868C00747
:1029B000EAD03868C006E7D43560069B38688007DF
:1029C00008D43868800705D43868800702D438688E
:1029D0008007F3D53B633868800708D438688007E0
:1029E00005D43868800702D438688007F3D52C20D6
:1029F00038633968890708D43968890705D4396884
:102A0000890702D439688907F3D52D2139633A68DB
:102A1000D20702D03A68D20611D53A68D20702D05E
:102A20003A68D2060BD53A68D20702D03A68D20685
:102A300005D53A68D207EAD03A68D206E7D43561BC
:102A4000B2223A633A68D20702D03A68D20611D568
:102A50003A68D20702D03A68D2060BD53A68D20754
:102A600002D03A68D20605D53A68D207EAD03A6869
:102A7000D206E7D435603A68920708D43A689207DC
:102A800005D43A68920702D43A689207F3D53B63BB
:102A90003A68920708D43A68920705D43A689207D0
:102AA00002D43A689207F3D538633A68920708D49B
:102AB0003A68920705D43A68920702D43A689207B6
:102AC000F3D539633A68D20702D03A68D20611D5F5
:102AD0003A68D20702D03A68D2060BD53A68D207D4
:102AE00002D03A68D20605D53A68D207EAD03A68E9
:102AF000D206E7D43561B3223A633A68D20702D0EE
:102B00003A68D20611D53A68D20702D03A68D2069E
:102B10000BD53A68D20702D03A68D20605D53A6892
:102B2000D207EAD03A68D206E7D435603A6892070D
:102B300008D43A68920705D43A68920702D43A68F2
:102B40009207F3D53B633A68920708D43A68920734
:102B500005D43A68920702D43A689207F3D53863ED
:102B60003A68920708D43A68920705D43A689207FF
:102B700002D43A689207F3D539633A68920708D4C9
:102B80003A68920705D43A68920702D43A689207E5
:102B9000F3D53B633A68920708D43A68920705D4A4
:102BA0003A68920702D43A689207F3D538633A68D4
:102BB000920708D43A68920705D43A68920702D47B
:102BC0003A689207F3D539633968C90702D0396882
:102BD000C90611D53968C90702D03968C9060BD5AD
:102BE0003968C90702D03968C90605D53968C907E7
:102BF000EAD03968C906E7D43561B4213963396848
:102C0000C90702D03968C90611D53968C90702D089
:102C10003968C9060BD53968C90702D03968C906B1
:102C200005D53968C907EAD03968C906E7D43560DF
:102C30003968890708D43968890705D4396889074C
:102C400002D439688907F3D50721059139633968BA
:102C5000C90702D03968C90611D53968C90702D039
:102C60003968C9060BD53968C90702D03968C90661
:102C700005D53968C907EAD03968C906E7D435618E
:102C8000C021019139633968C90702D03968C90682
:102C900011D53968C90702D03968C9060BD539681A
:102CA000C90702D03968C90605D53968C907EAD00D
:102CB0003968C906E7D435603968890708D43968A6
:102CC000890705D43968890702D439688907F3D59B
:102CD000A22139633968890708D43968890705D47E
:102CE0003968890702D439688907F3D5022102912E
:102CF00039633968890708D43968890705D4396880
:102D0000890702D439688907F3D584213963396882
:102D1000C90702D03968C90611D53968C90702D078
:102D20003968C9060BD53968C90702D03968C906A0
:102D300005D53968C907EAD03968C906E7D43561CD
:102D4000C12139633968C90702D03968C90611D56C
:102D50003968C90702D03968C9060BD53968C9076F
:102D600002D03968C90605D53968C907EAD039687B
:102D7000C906E7D435603968890708D439688907F6
:102D800005D43968890702D439688907F3D5C52184
:102D900039633B68DB0702D03B68DB0611D53B6833
:102DA000DB0702D03B68DB060BD53B68DB0702D0B4
:102DB0003B68DB0605D53B68DB07EAD03B68DB06F2
:102DC000E7D43561C2233B633B68DB0702D03B6835
:102DD000DB0611D53B68DB0702D03B68DB060BD571
:102DE0003B68DB0702D03B68DB0605D53B68DB07A9
:102DF000EAD03B68DB06E7D435603B689B0708D424
:102E00003B689B0705D43B689B0702D43B689B0744
:102E1000F3D50A233B633B689B0708D43B689B07B9
:102E200005D43B689B0702D43B689B07F3D500247D
:102E30003C633B68DB0702D03B68DB0611D53B688F
:102E4000DB0702D03B68DB060BD53B68DB0702D013
:102E50003B68DB0605D53B68DB07EAD03B68DB0651
:102E6000E7D43561C3233B633B68DB0702D03B6893
:102E7000DB0611D53B68DB0702D03B68DB060BD5D0
:102E80003B68DB0702D03B68DB0605D53B68DB0708
:102E9000EAD03B68DB06E7D435603B689B0708D483
:102EA0003B689B0705D43B689B0702D43B689B07A4
:102EB000F3D58A233B633A68920708D43A689207AD
:102EC00005D43A68920702D43A689207F3D52A22C9
:102ED00003923A633A68D20702D03A68D20611D513
:102EE0003A68D20702D03A68D2060BD53A68D207C0
:102EF00002D03A68D20605D53A68D207EAD03A68D5
:102F0000D206E7D43561C4223A633A68D20702D0C8
:102F10003A68D20611D53A68D20702D03A68D2068A
:102F20000BD53A68D20702D03A68D20605D53A687E
:102F3000D207EAD03A68D206E7D435603A689207F9
:102F400008D43A68920705D43A68920702D43A68DE
:102F50009207F3D53B633A68920708D43A68920720
:102F600005D43A68920702D43A689207F3D5EE2264
:102F70003A633A68D20702D03A68D20611D53A6865
:102F8000D20702D03A68D2060BD53A68D20702D0EF
:102F90003A68D20605D53A68D207EAD03A68D2062E
:102FA000E7D4356139633968C90702D03968C90681
:102FB00011D53968C90702D03968C9060BD53968F7
:102FC000C90702D03968C90605D53968C907EAD0EA
:102FD0003968C906E7D435603968890708D4396883
:102FE000890705D43968890702D439688907F3D578
:102FF0000E2139633968C90702D03968C90611D56D
:103000003968C90702D03968C9060BD53968C907BC
:1030100002D03968C90605D53968C907EAD03968C8
:10302000C906E7D43561362139633968C90702D04A
:103030003968C90611D53968C90702D03968C90687
:103040000BD53968C90702D03968C90605D5396872
:10305000C907EAD03968C906E7D435600649097856
:10306000032919D84900C0467944898849008F440A
:1030700005006D0443045804900020203968890736
:1030800008D43968890705D43968890702D43968B2
:103090008907F3D5019C3C633968C90702D03968B8
:1030A000C90611D53968C90702D03968C9060BD5D8
:1030B0003968C90702D03968C90605D53968C90712
:1030C000EAD03968C906E7D43561E0213963396847
:1030D000C90702D03968C90611D53968C90702D0B5
:1030E0003968C9060BD53968C90702D03968C906DD
:1030F00005D53968C907EAD03968C906E7D435600B
:103100003968890708D43968890705D43968890777
:1031100002D439688907F3D50F223A6339688907E1
:1031200008D43968890705D43968890702D4396811
:103130008907F3D51A2139633968890708D43968B2
:10314000890705D43968890702D439688907F3D516
:103150003A633968890708D43968890705D439681A
:10316000890702D439688907F3D51821396339688A
:10317000890708D43968890705D43968890702D4D2
:1031800039688907F3D52F2139633968890708D44D
:103190003968890705D43968890702D439688907ED
:1031A000F3D5282139633968890708D43968890734
:1031B00005D43968890702D439688907F3D52021F5
:1031C00039633968890708D43968890705D43968AB
:1031D000890702D439688907F3D522213963396810
:1031E000890708D43968890705D43968890702D462
:1031F00039688907F3D51F2139633968890708D4ED
:103200003968890705D43968890702D4396889077C
:10321000F3D51B2139633B689B0708D43B689B07A8
:1032200005D43B689B0702D43B689B07F3D5232357
:103230003B633B689B0708D43B689B0705D43B680E
:103240009B0702D43B689B07F3D537233B633B685E
:103250009B0708D43B689B0705D43B689B0702D4B7
:103260003B689B07F3D500243C633B689B0708D46D
:103270003B689B0705D43B689B0702D43B689B07D0
:10328000F3D5059B3B633B689B0708D43B689B07D2
:1032900005D43B689B0702D43B689B07F3D50646E1
:1032A000029838633B689B0708D43B689B0705D4AA
:1032B0003B689B0702D43B689B07F3D510233B6315
:1032C0003868C00702D03868C00611D53868C00712
:1032D00002D03868C0060BD53868C00702D03868FD
:1032E000C00605D53868C007EAD03868C006E7D4FC
:1032F00002480561E120386302E0C04690520A406E
:103300003868C00702D03868C00611D53868C007D1
:1033100002D03868C0060BD53868C00702D03868BC
:10332000C00605D53868C007EAD03868C006E7D4BB
:103330000148056002E0C04690520A4038688007A4
:1033400008D43868800705D43868800702D4386804
:103350008007F3D53A633868800708D43868800757
:1033600005D43868800702D438688007F3D53963FC
:103370003868800708D43868800705D43868800723
:1033800002D438688007F3D53A633868800708D4D8
:103390003868800705D43868800702D43868800709
:1033A000F3D5172038633868800708D43868800759
:1033B00005D43868800702D438688007F3D53320F5
:1033C00038633868800708D43868800705D43868BF
:1033D000800702D438688007F3D53E6338688007D9
:1033E00008D43868800705D43868800702D4386864
:1033F0008007F3D529203863004E01E090520A403F
:103400003968890708D43968890705D43968890774
:1034100002D439688907F3D52E21396339688907C1
:1034200008D43968890705D43968890702D439680E
:103430008907F3D5302139633A68920708D43A688E
:10344000920705D43A68920702D43A689207F3D5F6
:1034500039633968890708D43968890705D4396818
:10346000890702D439688907F3D539213963396866
:10347000890708D43968890705D43968890702D4CF
:1034800039688907F3D53F2139633968890708D43A
:103490003968890705D43968890702D439688907EA
:1034A000F3D53C633968890708D43968890705D49E
:1034B0003968890702D439688907F3D505993963D2
:1034C0003968890708D43968890705D439688907B4
:1034D00002D439688907F3D503213963396889072C
:1034E00008D43968890705D43968890702D439684E
:1034F0008907F3D53B633968C90702D03968C90623
:1035000011D53968C90702D03968C9060BD53968A1
:10351000C90702D03968C90605D53968C907EAD094
:103520003968C906E7D4356103993963069A396861
:10353000C90702D03968C90611D53968C90702D050
:103540003968C9060BD53968C90702D03968C90678
:1035500005D53968C907EAD03968C906E7D43560A6
:103560003968890708D43968890705D43968890713
:1035700002D439688907F3D53C633968890708D4D0
:103580003968890705D43968890702D439688907F9
:10359000F3D53C633968890708D43968890705D4AD
:1035A0003968890702D439688907F3D53C633968DB
:1035B000890708D43968890705D43968890702D48E
:1035C00039688907F3D57F2139633968C90702D083
:1035D0003968C90611D53968C90702D03968C906E2
:1035E0000BD53968C90702D03968C90605D53968CD
:1035F000C907EAD03968C906E7D435612B21396398
:103600003968C90702D03968C90611D53968C907B0
:1036100002D03968C9060BD53968C90702D03968A4
:10362000C90605D53968C907EAD03968C906E7D49B
:1036300035603968890708D43968890705D439683D
:10364000890702D439688907F3D53C63396889074B
:1036500008D43968890705D43968890702D43968DC
:103660008907F3D53C633968890708D43968890725
:1036700005D43968890702D439688907F3D53C63D2
:103680003968890708D43968890705D439688907F2
:1036900002D439688907F3D59F2139633968C9078E
:1036A00002D03968C90611D53968C90702D039680E
:1036B000C9060BD53968C90702D03968C90605D5CE
:1036C0003968C907EAD03968C906E7D43561F021FD
:1036D00039633968C90702D03968C90611D5396814
:1036E000C90702D03968C9060BD53968C90702D0A5
:1036F0003968C90605D53968C907EAD03968C906E5
:10370000E7D435603968890708D43968890705D452
:103710003968890702D439688907F3D53A6339686B
:10372000C90702D03968C90611D53968C90702D05E
:103730003968C9060BD53968C90702D03968C90686
:1037400005D53968C907EAD03968C906E7D43561B3
:10375000F62139633968C90702D03968C90611D51D
:103760003968C90702D03968C9060BD53968C90755
:1037700002D03968C90605D53968C907EAD0396861
:10378000C906E7D435603968890708D439688907DC
:1037900005D43968890702D439688907F3D53C63B1
:1037A0003968C90702D03968C90611D53968C9070F
:1037B00002D03968C9060BD53968C90702D0396803
:1037C000C90605D53968C907EAD03968C906E7D4FA
:1037D00035613A2139633968C90702D03968C906A9
:1037E00011D53968C90702D03968C9060BD53968BF
:1037F000C90702D03968C90605D53968C907EAD0B2
:103800003968C906E7D435603968890708D439684A
:10381000890705D43968890702D439688907F3D53F
:10382000052139633968C90702D03968C90611D53D
:103830003968C90702D03968C9060BD53968C90784
:1038400002D03968C90605D53968C907EAD0396890
:10385000C906E7D4356138633868C00702D03868D4
:10386000C00611D53868C00702D03868C0060BD52D
:103870003868C00702D03868C00605D53868C00768
:10388000EAD03868C006E7D435603868C00702D08F
:103890003868C00624D53868C00702D03868C0062A
:1038A0001ED53868C00702D03868C00618D53868F9
:1038B000C007EAD03868C006E7D411E03868C0070E
:1038C00002D03868C00611D53868C00702D0386801
:1038D000C0060BD53868C00702D03868C00605D5C9
:1038E0003868C007EAD03868C006E7D4049830606A
:1038F000FEF722FB07B0F0BD3968A024890701D587
:10390000FFF7C9FB3968890701D5FFF7C4FB3968A0
:10391000890701D5FFF7BFFB39688907ECD5FFF7A9
:10392000BAFB39686024890701D5FFF7B4FB396811
:10393000890701D5FFF7AFFB3968890701D5FFF784
:10394000AAFB39688907ECD5FFF7A5FB3968890719
:1039500001D5FFF7A0FB3968890701D5FFF79BFB6D
:103960003968890701D5FFF796FB39688907EDD5D6
:10397000FFF791FB024A1180024908807047C04658
:103980000000202004002020014908707047C04634
:1039900002002020F0B5F94C277801242402F84DCC
:1039A000F84E022F00D2EFE0BF1E012F00D9AFE189
:1039B0003568ED0702D03568ED0611D53568ED079D
:1039C00002D03568ED060BD53568ED0702D03568B5
:1039D000ED0605D53568ED07EAD03568ED06E7D484
:1039E000E74D2C612A2535633568ED0702D035682F
:1039F000ED0611D53568ED0702D03568ED060BD51B
:103A00003568ED0702D03568ED0605D53568ED0758
:103A1000EAD03568ED06E7D4D94D2C603568AD079E
:103A200008D43568AD0705D43568AD0702D43568CC
:103A3000AD07F3D5002737633568AD0708D435687F
:103A4000AD0705D43568AD0702D43568AD07F3D5A9
:103A5000C0B230633068800708D43068800705D46E
:103A60003068800702D430688007F3D53763C44DCF
:103A70003068800708D43068800705D43068800734
:103A800002D430688007F3D5D0B230633068C00705
:103A900002D03068C00611D53068C00702D0306847
:103AA000C0060BD53068C00702D03068C00605D507
:103AB0003068C007EAD03068C006E7D42C612B20FC
:103AC00030633068C00702D03068C00611D5306856
:103AD000C00702D03068C0060BD53068C00702D0DE
:103AE0003068C00605D53068C007EAD03068C00627
:103AF000E7D42C603068800708D43068800705D48C
:103B00003068800702D430688007F3D537633068A7
:103B1000800708D43068800705D43068800702D455
:103B200030688007F3D5C8B230633068800708D4A6
:103B30003068800705D43068800702D43068800779
:103B4000F3D537633068800700D5DFE03068800741
:103B500000D5DBE03068800700D5D7E0306880070B
:103B6000F0D5D3E03768FF0702D03768FF0611D5DC
:103B70003768FF0702D03768FF060BD53768FF07A5
:103B800002D03768FF0605D53768FF07EAD03768E7
:103B9000FF06E7D42C612A2737633768FF0702D076
:103BA0003768FF0611D53768FF0702D03768FF0670
:103BB0000BD53768FF0702D03768FF0605D5376891
:103BC000FF07EAD03768FF06E7D42C603768BF07E5
:103BD00008D43768BF0705D43768BF0702D43768F1
:103BE000BF07F3D5002737633568AD0708D43568BC
:103BF000AD0705D43568AD0702D43568AD07F3D5F8
:103C0000C0B230633068800708D43068800705D4BC
:103C10003068800702D430688007F3D53763584D89
:103C20003068800708D43068800705D43068800782
:103C300002D430688007F3D5D0B230633068C00753
:103C400002D03068C00611D53068C00702D0306895
:103C5000C0060BD53068C00702D03068C00605D555
:103C60003068C007EAD03068C006E7D42C612B204A
:103C700030633068C00702D03068C00611D53068A4
:103C8000C00702D03068C0060BD53068C00702D02C
:103C90003068C00605D53068C007EAD03068C00675
:103CA000E7D42C603068800708D43068800705D4DA
:103CB0003068800702D430688007F3D537633068F6
:103CC000800708D43068800705D43068800702D4A4
:103CD00030688007F3D5C8B230633068800708D4F5
:103CE0003068800705D43068800702D430688007C8
:103CF000F3D537633068800708D43068800705D46F
:103D00003068800702D430688007F3D5D8B23063BA
:103D10003068C00702D03068C00611D53068C007CF
:103D200002D03068C0060BD53068C00702D03068BA
:103D3000C00605D53068C007EAD03068C006E7D4B1
:103D40002C612C2030633068C00702D03068C00678
:103D500011D53068C00702D03068C0060BD5306876
:103D6000C00702D03068C00605D53068C007EAD069
:103D70003068C006E7D42C60F0BDC046900020201B
:103D800090520A4010914640F0B587B0E34B1B7843
:103D9000002B04D18023834204D807B0F0BDA023B8
:103DA0008342FAD9DE4B1B78002B03D1A0238B4230
:103DB000F3D902E080238B42EFD95E23DB43144624
:103DC0007F3C9C42E9D3012306935B02D54C0093D0
:103DD0002361D54B1B78D54F012B00D100E1002B7F
:103DE00000D064E1431D9CB2CB1D9BB21546224618
:103DF000FFF7D0FD06206843D04940180146BB3983
:103E000005910146BC3904910146BD390391014633
:103E1000BE3902910446BF3CC03800780190C448C6
:103E20000288C4480088002105E0EBB23B63491CCE
:103E3000082900D13BE1069E8E403546019B1D407E
:103E40003B689B0708D43B689B0705D43B689B07EE
:103E500002D43B689B07F3D5002D154600D00546DC
:103E60002B0A3B633B689B0708D43B689B0705D440
:103E70003B689B0702D43B689B07F3D5EBB23B63DF
:103E8000257835403B689B0708D43B689B0705D4E1
:103E90003B689B0702D43B689B07F3D5002D154672
:103EA00000D005462B0A3B633B689B0708D43B6860
:103EB0009B0705D43B689B0702D43B689B07F3D55F
:103EC000EBB23B63029B1D7835403B689B0708D4EF
:103ED0003B689B0705D43B689B0702D43B689B0764
:103EE000F3D5002D154600D005462B0A3B633B68F1
:103EF0009B0708D43B689B0705D43B689B0702D40B
:103F00003B689B07F3D5EBB23B63039B1D783540C1
:103F10003B689B0708D43B689B0705D43B689B071D
:103F200002D43B689B07F3D5002D154600D005460B
:103F30002B0A3B633B689B0708D43B689B0705D46F
:103F40003B689B0702D43B689B07F3D5EBB23B630E
:103F5000049B1D7835403B689B0708D43B689B0752
:103F600005D43B689B0702D43B689B07F3D5002D23
:103F7000154600D005462B0A3B633B689B0708D4D7
:103F80003B689B0705D43B689B0702D43B689B07B3
:103F9000F3D5EBB23B63059B1B781E403B689B0748
:103FA00008D43B689B0705D43B689B0702D43B6859
:103FB0009B07F3D5002E154600D005462B0A3B6320
:103FC0003B689B0700D530E73B689B0700D52CE793
:103FD0003B689B0700D528E73B689B07F0D524E7A3
:103FE000C31D9CB20B460F339BB215462246FFF70A
:103FF000D1FC203D4E480388C44801880022280196
:104000004D4C201805900692144602E0641C102CBA
:104010004DD00598055D069E04E0C0B23863B61C1D
:10402000082EF3D08020F04028403A68920708D448
:104030003A68920705D43A68920702D43A68920720
:10404000F3D50028184600D00846020A3A633A68B9
:10405000920708D43A68920705D43A68920702D4C6
:104060003A689207F3D5C0B238634020F040284048
:104070003A68920708D43A68920705D43A689207DA
:1040800002D43A689207F3D50028184600D00846B3
:10409000020A3A633A689207BFD43A689207BCD4DE
:1040A0003A689207B9D43A689207F3D5B5E7386809
:1040B000C00702D03868C00624D53868C00702D0CF
:1040C0003868C0061ED53868C00702D03868C006F8
:1040D00018D53868C007EAD03868C006E7D411E0C0
:1040E0003868C00702D03868C00611D53868C007E4
:1040F00002D03868C0060BD53868C00702D03868CF
:10410000C00605D53868C007EAD03868C006E7D4CD
:1041100000980449086007B0F0BDC0469100202017
:104120009200202090520A40020020201091464028
:104130000000202004002020F24D0000B84B0000B9
:10414000F0B583B002930191002A00D1DAE0154660
:104150001178002900D1D5E0074607E00820C719EB
:104160000124295D2D19002900D1CBE0E448007815
:10417000002801D1802200E0A022B8B2824200D8FB
:10418000C0E04AB2002ACAB211D4202A09D37F2A39
:1041900007D05E4E3488029931800199FFF7F4FD13
:1041A0003480D84800780028D8D10620D7E76B782B
:1041B0005109072919D3002B00D19CE0AC78002CC1
:1041C00072D01646E43E042E6ED800947E443679B2
:1041D0007600B74402692C223800B82B64D1009BCA
:1041E000AD2B4ED1002603247BE0002B00D182E0D2
:1041F000C62A0ED0D02A05D0D62A55D1D02B53D1DD
:1042000000266DE00224C62B27D0D42B264668D08A
:1042100050E0C62B48D1012662E0942B1FD0A42B7E
:1042200042D1009BBA2B34D10324264659E0B52B4A
:1042300029D0982B1FD0962B36D1009B872B32D1BB
:10424000012603244DE0AF2B0FD0B52B2CD1009BC2
:104250009B2B22D10526032443E0042641E0009B4A
:10426000B52B18D1042603243BE0009B952B16D1D7
:104270000726032435E0009BBE2B12D1022603241F
:104280002FE0B82310E0009C8B2C0DD106260324D0
:1042900027E0A42308E0942306E0B52304E0AF233D
:1042A00002E0982300E09623CA2A03D1BE2B0AD14C
:1042B000032615E00024B22A08D0C82A0AD1FC2B14
:1042C00008D105260CE00124B22AF6D1E22B01D157
:1042D000062605E0D43B5A425A4114420BD0072629
:1042E000022425217143084A51184A1D0199029B55
:1042F000FDF7F6FE04E0062901D8022400E00324BD
:1043000010372EE703B0F0BDE25300000400202078
:10431000F0B58BB0524C2478002C01D1802400E001
:10432000A0240590844200D897E0119F4D48007862
:10433000002801D1A02000E080200524E443FD1FD7
:10434000A54200D289E0109C2646093E0725ED4390
:10435000AE4200D281E0884200D87EE015461E467B
:10436000049106A83946002707740997089707970C
:10437000069703916118891C2022FCF708F8601E3B
:10438000062811D8384AC04678440079400087444E
:1043900010030709050D0F00394A0AE0354A08E005
:1043A000364A06E0344A04E0364A02E0304A00E089
:1043B0002E4A2846029531461546FCF79DFA0446DA
:1043C00038462946FCF798FA0146204600F056F98F
:1043D000FCF7E9FA3A462B46FCF7F0FA02460B46A0
:1043E00002983146FCF765FA0090019106A826A1D3
:1043F000039AFBF7FBFE1A480078002801D18020C1
:1044000000E0A020049F059DA84226D91548007809
:10441000002801D1A02000E0802006A9B8421CD9C4
:104420000978002919D0834C207800260DE0F0008F
:10443000401980B2CAB23946FFF7A6FC2078761C34
:10444000B1B206AA515C002907D0C2B2012AEED04F
:10445000002AF4D106207043EAE70BB0F0BDC04655
:10446000910020209200202000002440D0126341BF
:1044700080842E41006AF8400088C34000408F408D
:104480000000594084D79741252E2A66000000007D
:10449000F0B581B014460D4606465D480078002808
:1044A00003D18020B04203D827E0A020B04224D915
:1044B00058480078002803D1A020A84203D81CE067
:1044C0008020A84219D92178002916D000270BE0B6
:1044D000F800801980B2CAB22946FFF755FC7F1C4C
:1044E000B8B2215C002908D0524800780128EFD0EA
:1044F0000028F4D106207843EBE701B0F0BDC046B8
:104500009100202002002020F0B585B00C46054621
:104510003F480078002803D18020A84203D875E0E6
:10452000A020A84272D93B480078002801D1A020E1
:1045300000E080200921C9431E460B3E8E4265D310
:10454000A04263D90192002604960396029602A81F
:10455000202219461F46FBF71AFF092F10D87A1E92
:10456000072A01982A4F1BD80A21C0467A4412799B
:104570005200974416030A0D0811130F642110E02E
:10458000019A234F10E027490BE07D21C90008E084
:10459000254906E0204904E0214902E01F4900E0E6
:1045A0002249FBF7FDFE0A4602A821A1FBF71EFEE9
:1045B0003878002801D1802000E0A0201549A842C9
:1045C00024D90878002801D1A02000E0802002A989
:1045D000A0421BD90978002918D0164F38780DE071
:1045E000F000401980B2CAB22146FFF7CDFB3878FF
:1045F000761CB1B202AA515C002907D0C2B2012ACE
:10460000EED0002AF4D106207043EAE705B0F0BDF1
:10461000910020209200202000E1F505809698006E
:1046200040420F00A08601001027000000CA9A3BFC
:10463000257500000200202043088B421AD3002277
:1046400003098B4279D3030A8B425ED3030B8B425F
:1046500042D3030C8B4227D30902FF2212BA030C68
:104660008B4202D31212090203D0030B8B4233D3C5
:104670001AE0D3E0411A8041401C704703460B43C7
:1046800071D443088B42F5D3002203098B4254D3E3
:10469000030A8B4239D3030B8B421DD3030C8B428D
:1046A00002D394466EE0090AC30B8B4201D3CB03BD
:1046B000C01A5241830B8B4201D38B03C01A524163
:1046C000430B8B4201D34B03C01A5241030B8B4265
:1046D00001D30B03C01A5241C30A8B4201D3CB0250
:1046E000C01A5241830A8B4201D38B02C01A524135
:1046F000430A8B4201D34B02C01A5241030A8B4238
:1047000001D30B02C01A5241CDD2C3098B4201D34F
:10471000CB01C01A524183098B4201D38B01C01ACD
:10472000524143098B4201D34B01C01A5241030944
:104730008B4201D30B01C01A5241C3088B4201D3F3
:10474000CB00C01A524183088B4201D38B00C01AA0
:10475000524143088B4201D34B00C01A5241411AC7
:10476000524110007047CA0F00D04942031000D3D5
:104770004042534000229C4603098B422DD3030A3A
:104780008B4212D38901FC2212BA030A8B420CD34A
:10479000890192118B4208D3890192118B4204D373
:1047A000890137D0921100E08909C3098B4201D3F6
:1047B000CB01C01A524183098B4201D38B01C01A2D
:1047C000524143098B4201D34B01C01A52410309A4
:1047D0008B4201D30B01C01A5241C3088B4201D353
:1047E000CB00C01A524183088B4201D38B00C01A00
:1047F0005241D9D243088B4201D34B00C01A5241D7
:10480000411A00D201465241104663465B1000D364
:104810004042704763465B1000D3404201B500211F
:10482000004201D0C9430846C046C04602BDF8B5A3
:10483000040C8BB2264682B25E43104658430D0CE0
:10484000370C360400218019164679416E43370C27
:1048500036048019264679416E438919F8BD000057
:104860004900CA020243100000D004204A0D01D0C2
:1048700001221043044A490D914201D1022108430B
:10488000012800D105207047FF07000030380A28B2
:1048900001D20120704700207047000010B50029A8
:1048A0000AD00878002807D005487844FDF742F977
:1048B000002801D0002010BD0248784410BD00003F
:1048C0008E0C0000860C000070B50125ED07040079
:1048D0004C4020D4441A01D2001B0919C60D4B00CC
:1048E000F2B2FF2A29D01B0E2CD000020C02284362
:1048F0002C43D31ADC40051910D2280A02D3401CDD
:104900006D0611D0761EF6058019FF2A00DA70BDFB
:10491000C00DC00570BD694000F07AF80120054364
:10492000C541521C761CE8E764089C40C9016140FF
:104930008900E7D10124A043E4E71B0E440200D024
:10494000034870BD002AFCD1C00FC00770BD00BF76
:104950000000C07F70B5420064414B005C41120E04
:1049600039D01B0E38D0FF2A3CD0FF2B3AD0D218BA
:104970007F3A40024902400A490A4518ED01060003
:104980004E43000A090A48430104731A4019190CDE
:104990004318990F04D05B08012149075B1A521C88
:1049A000D80904D3401CF50301D19D0607D0FF2A86
:1049B00008D2D50506D0E4072043401970BD012573
:1049C000A843F4E7002A01DCE00770BD2402FF20C1
:1049D0002043C00570BD1B0EFF2A03D0FF2B01D062
:1049E000E00770BDFF2636064500B54206D84D00EB
:1049F000B54203D8D218FF2A00D0E7E7004870BDBF
:104A00000000C07F70B50125ED0704004C4022D4A2
:104A1000441A02D26C40001B0919C60D4B00F2B2B9
:104A2000FF2A4BD01B0E50D000020C02A8432C438F
:104A3000D31ADC40051B05D5AD0019D36D08761ED1
:104A4000521E37D0F605280A01D2801970BD704178
:104A50006D0603D070BD6940FFF73CFF9C40090222
:104A60006140490001D0401E70BD0124A04370BDCB
:104A70006D081DD001202B0C01D12D0410302B0E00
:104A800001D12D0208302B0F01D12D01001DAB0FDC
:104A900001D1AD00801CEB0F01D16D00401C361A16
:104AA000121A6D00680AF5054019012A02DB70BD73
:104AB000002070BDC036300AC00770BD1B0E440216
:104AC00001D1FF2B00D1024870BD002AF0D070BD8B
:104AD0000000C07F03B402487844844603BC6047AA
:104AE00081C5FFFF8182838485868788898B8C8D31
:104AF0008E8F919293959697999A9C9D9FA0A2A331
:104B0000A5A7A8AAACAEB0B2B3B5B7B9BCBEC0C277
:104B1000C5C7C9CCCED1D4D7D9DCDFE2E6E9ECF009
:104B2000F3F7FAFE02400000000000A000000000C1
:104B300005400000000000C8000000000C4000001C
:104B40000000409C00000000194000000020BCBE96
:104B50000000000034400000BFC91B8E00000004AC
:104B6000B5400000504BCFD06607E2CF01000000F7
:104B70006C4100003E8251AADFEEA7340100000024
:104B8000D9420000DCB5A0E23A301F97FFFFFFFFDB
:104B9000B4450000FD25A0C8E9A3C14FFFFFFFFFFA
:104BA000FF3F00000000008000000000FF3F000009
:104BB0000000008000000000000000000000000075
:104BC0005F000000000700070000147F147F14003E
:104BD000242A7F2A120023130864620036495522D2
:104BE0005000000503000000001C224100000041AD
:104BF000221C000014083E08140008083E080800A3
:104C0000005030000000080808080800006060003C
:104C100000002010080402003E5149453E000042B9
:104C20007F4000004261514946002141454B31001F
:104C30001814127F10002745454539003C4A494960
:104C4000300001710905030036494949360006491B
:104C500049291E00003636000000005636000000CC
:104C600008142241000014141414140000412214EA
:104C70000800020151090600324979413E007E11C7
:104C800011117E007F49494936003E4141412200D1
:104C90007F4141221C007F49494941007F090909A0
:104CA00001003E4149497A007F0808087F00004121
:104CB0007F4100002040413F01007F081422410055
:104CC0007F40404040007F020C027F007F040810BC
:104CD0007F003E4141413E007F09090906003E41F7
:104CE00051215E007F091929460046494949310092
:104CF00001017F0101003F4040403F001F20402054
:104D00001F003F4038403F006314081463000C50FC
:104D100050503C004464544C4400000836410000AC
:104D200000007F000000004136080000020102047C
:104D30000200000000000000000000000000000071
:104D40000000000000000000000000000000000063
:104D50000000000000000000000000000000000053
:104D60000000000000000000000000000000000043
:104D70000000000000000000000000000000000033
:104D80000000000000000000000000000000000023
:104D90000000000000000000000000000000000013
:104DA0000000000000000000000000000000000003
:104DB00000000000000000000000000000000000F3
:104DC00000000000000000000000000000000000E3
:104DD00000000000000000000000000000000000D3
:104DE00000000000000000000000000000000000C3
:104DF00000000000000000000000000000000000B3
:104E0000000000000008080808080800080000006A
:104E10000000000000242424000000000000000026
:104E2000000000000024247E24247E2424000000AE
:104E30000000000000081C2A081C202A1C08000092
:104E400000000000002225100804252200000000B8
:104E50000000000000384444384D4244390000004E
:104E6000000000000008080400000000000000002E
:104E700000000000000810202020100800000000A2
:104E800000000000001008040404081000000000E6
:104E900000000000000014083E081400000000009C
:104EA00000000000000008083E08080000000000A4
:104EB00000000000000000000000080804000000DE
:104EC00000000000000000003E00000000000000A4
:104ED00000000000000000000000181800000000A2
:104EE0000000000000020408102040000000000044
:104EF00000000000001C2445495161221C000000F4
:104F00000000000000081808080808083C0000001D
:104F100000000000003C4202040810207E00000057
:104F200000000000003C42021C0202423C00000063
:104F30000000000000040C1424447E04040000005F
:104F400000000000007E407C020202423C000000A3
:104F500000000000001C24407C4242423C00000053
:104F600000000000007E4204081010101000000035
:104F700000000000003C42423C4242423C00000033
:104F800000000000003C4242423E022418000000A3
:104F900000000000000018180000181800000000B1
:104FA0000000000000001818000018180810000089
:104FB0000000000000061860806018060000000075
:104FC0000000000000007E00007E000000000000E5
:104FD00000000000006018060106186000000000D4
:104FE00000000000003C4202040808000800000025
:104FF00000000000003C429AB2B29E403C0000001B
:105000000000000000182442427E4242420000009C
:1050100000000000007C42427C4242427C000000D2
:1050200000000000003C4240404040423C00000084
:1050300000000000007844424242424478000000F0
:1050400000000000007E40407C4040407E000000A8
:1050500000000000007E40407C40404040000000D6
:1050600000000000003C4240404E42423C00000034
:1050700000000000004242427E42424242000000E4
:1050800000000000003C0808080808083C00000078
:1050900000000000001E0404040404443800000062
:1050A00000000000004448506050484442000000A6
:1050B0000000000000404040404040407E000000B2
:1050C000000000000042665A424242424200000094
:1050D00000000000004262524A4642424200000084
:1050E00000000000003C4242424242423C000000BC
:1050F00000000000007C42427C4040404000000034
:1051000000000000003C424242424A443A00000093
:1051100000000000007C42427C4844424200000003
:1051200000000000003C42403C0202423C00000003
:1051300000000000007E08080808080808000000B9
:105140000000000000424242424242423C00000055
:1051500000000000004242424224241818000000CF
:105160000000000000424242425A5A6642000000DB
:1051700000000000004224181818244242000000D9
:10518000000000000042422418080808080000003F
:1051900000000000007E0204081020407E00000095
:1051A00000000000003C2020202020203C000000C7
:1051B0000000000000402010080402010000000070
:1051C00000000000003C0404040404043C0000004F
:1051D0000000000008142200000000000000000091
:1051E000000000000000000000000000007E000041
:1051F0000000000000100804000000000000000093
:105200000000000000000038043C44443D00000061
:10521000000000000040405C624242625C0000000E
:10522000000000000000003C424040423C00000002
:10523000000000000002023A464242463A000000E6
:10524000000000000000003C427E40423C000000A4
:1052500000000000001C24207020202020000000FE
:10526000000000000000003A4642463A02423C007C
:10527000000000000040405C6242424242000000E8
:105280000000000000080018080808083C000000A2
:10529000000000000004000C04040404044438006E
:1052A00000000000004040444850605048000000AA
:1052B0000000000000180808080808083C0000006A
:1052C000000000000000006C929292929200000098
:1052D000000000000000005C624242424200000008
:1052E000000000000000003C424242423C0000003E
:1052F000000000000000005C624242625C4040002E
:10530000000000000000003A4642423A020200005B
:1053100000000000000000546840404040000000D1
:10532000000000000000003C403C02423C00000045
:10533000000000000010107C101010100C00000085
:105340000000000000000042424242463A000000D5
:105350000000000000000042424224241800000027
:105360000000000000000042425A5A66420000005D
:1053700000000000000000422418182442420000EF
:1053800000000000000000424242463A02423C0057
:10539000000000000000007E040810207E000000D5
:1053A00000000000000E10102010100E0000000081
:1053B00000000000000808080808080808000000AD
:1053C00000000000007008080408087000000000D9
:1053D00000000000000000002C320000000000006F
:1053E0000000E4B8ADD6D00000F010101010FF108F
:1053F000101010F000000000000F04040404FF046B
:105400000404040F000000E69687C6C608080838A2
:10541000C808090E0808C8380808080080804040FD
:1054200020110A040A11204040808000E698BED076
:10543000D4000000FE92929292929292FE0000009E
:105440000040424458407F4040407F4050484640E2
:1054500000E7A4BACABE40404242424242C242426F
:10546000424242404000201008060040807F000079
:10547000000204083000E794B5D0C60000F8888820
:105480008888FF88888888F800000000001F0808C6
:1054900008087F888888889F80F000E8B59BC8FC52
:1054A0008886A2AAAAFEAAABAAFEAAAAA28A8600F7
:1054B00008080482BF42221E2242BF0204080800DC
:1054C000E6B58BB2E21060028C00FE02F202FE0032
:1054D000F800FF000004047E018047300F10270011
:1054E00047807F0000E8AF95CAD4404042CC00908E
:1054F00090909090FF10111610000000003F1028AF
:10550000603F1010010E3040F00008000400000061
:105510000000071000000000585500000000202087
:105520000800000020010000605500000800202055
:1055300090080000480100001C000000430000002B
:10554000F8FFFFFF0C0000000E0000000F0000003D
:105550002E00000000000000FFFF010000F8000026
:04000005000000C136
:00000001FF
