:020000040000FA
:1000000038472020F9010000FD010000FF01000039
:1000100000000000000000000000000000000000E0
:10002000000000000000000000000000B1340000EB
:10003000000000000000000061340000513E00009C
:10004000070200000702000007020000070200008C
:10005000070200000702000007020000070200007C
:10006000070200000702000007020000070200006C
:1000700007020000753E00000702000007020000B2
:10008000070200000702000007020000070200004C
:10009000070200000702000007020000070200003C
:1000A000070200000702000007020000070200002C
:1000B000070200000702000007020000070200001C
:1000C00000F002F800F06CF812A030C808382418CC
:1000D0002D18AC4201D100F063F80FCCA246AB461C
:1000E0000CA730CF2D1B083F3F197C427F1E544484
:1000F0002D090426F441641EAC4201D300F050F8EF
:100100000126334200D0FB1A3343984754465D46DC
:10011000DFE70000EC9800000C99000000000000F0
:10012000103A02D378C878C1FAD8520701D330C840
:1001300030C101D504680C60704700000000000069
:100140007047000000000000002300240025002666
:10015000103A01D378C1FBD8520700D330C100D583
:100160000B60704710B5662902D108F035FF10BD4D
:10017000642902D100F082F810BD752902D100F087
:100180007DF810BD002010BD1FB501F0B9FB0400C3
:100190000020002108F054FDE0601FBD10B510BD27
:1001A00001F0E6FF1146FFF7EFFF05F03DF801F023
:1001B000FEFF03B4FFF7F2FF03BC02F0B3F8000048
:1001C00070B505460C46164602E00FCC0FC5103E32
:1001D000102EFAD2082E02D303CC03C5083E042EFB
:1001E00007D301CC01C5361F03E021782970641CB8
:1001F0006D1C761EF9D270BD06480047FEE7FEE78B
:10020000FEE7FEE7FEE7FEE703480449024A044B27
:1002100070470000C1000000383F202038472020F0
:10022000383F20204343514330B55C18010C130C78
:100230000D4692B25D4380B251432C190546554399
:100240000A0C09044D1962415843010C000440197D
:10025000514130BD0FB41CB5074B06AA7B4469461B
:100260000090059801F01FFB0020694601F02EFB6D
:100270001CBC08BC04B018476D160000F7B500257B
:1002800075291068009914A611D0C046C0460028F0
:1002900002DA404211A608E0009909688A0701D5F0
:1002A0000FA602E0490704D50EA6012501E0C046CD
:1002B000C046009F0024243704E001F00CFB3031DD
:1002C0003955641C0028F8D12B4632462146009847
:1002D00001F081F8FEBD0000000000002D000000CC
:1002E0002B00000020000000F3B50446002081B080
:1002F00020622046E168884700287AD0252802D06D
:100300006268A16871E0E1682046002588470646DA
:100310000020E0610746A0612A2E0AD0304608F08E
:1003200087FC002827D0B8000019303E0090866175
:1003300019E00298BA00121902C891610290204691
:10034000E1688847012F064617D1E06900281FDAC7
:10035000202085431CE000980A21806948430099C9
:100360008019303888612046E1688847064608F0E1
:100370005FFC0028EFD1012F0AD02E2E08D1204695
:10038000E16888470646202005437F1C022FC3DB17
:10039000A069002803DA4042A06101200543E80774
:1003A00001D010208543002E23D030464138192833
:1003B00003D80120C002054320362046256031467F
:1003C000029A1546FFF7CEFE00280BD0012806D072
:1003D000ED1DE808C000083002908AE709E02D1DF5
:1003E000029586E762683046A1689047206A401C03
:1003F0007EE7206AFEBDF8B5042A2CD3830712D00D
:100400000B78491C0370401C521E83070BD00B78DD
:10041000491C0370401C521E830704D00B78491CF2
:100420000370401C521E8B079B0F05D0C91ADF00BA
:100430002023DE1B08C90AE0FFF7C2FEF8BD1D46F7
:1004400008C9FD401C46B4402C4310C0121F042AAA
:10045000F5D2F308C91A521EF0D40B78491C037068
:10046000401C521EEAD40B78491C0370401C012A20
:10047000E4D409780170F8BDD2B210B513029A180D
:1004800013049A1800F001F810BD01E004C0091F20
:100490000429FBD28B0701D50280801CC90700D03C
:1004A0000270704700290BD0C30702D00270401CB5
:1004B000491E022904D3830702D50280801C891EAD
:1004C000E3E70022EEE70022DFE700000022030955
:1004D0008B4273D3030A8B4258D3030B8B423CD31A
:1004E000030C8B4221D312E003460B437FD400223E
:1004F00043088B4274D303098B425FD3030A8B42B8
:1005000044D3030B8B4228D3030C8B420DD3090237
:10051000FF2212BA030C8B4202D31212090265D0D9
:10052000030B8B4219D300E0090AC30B8B4201D3A2
:10053000CB03C01A5241830B8B4201D38B03C01AE9
:100540005241430B8B4201D34B03C01A5241030B60
:100550008B4201D30B03C01A5241C30A8B4201D311
:10056000CB02C01A5241830A8B4201D38B02C01ABC
:100570005241430A8B4201D34B02C01A5241030A33
:100580008B4201D30B02C01A5241CDD2C3098B4218
:1005900001D3CB01C01A524183098B4201D38B0195
:1005A000C01A524143098B4201D34B01C01A524138
:1005B00003098B4201D30B01C01A5241C3088B427D
:1005C00001D3CB00C01A524183088B4201D38B0068
:1005D000C01A524143088B4201D34B00C01A52410A
:1005E000411A00D201465241104670475DE0CA0FE1
:1005F00000D04942031000D3404253409C460022A1
:1006000003098B422DD3030A8B4212D38901FC22AA
:1006100012BA030A8B420CD3890192118B4208D380
:10062000890192118B4204D389013AD0921100E0E2
:100630008909C3098B4201D3CB01C01A52418309F6
:100640008B4201D38B01C01A524143098B4201D323
:100650004B01C01A524103098B4201D30B01C01A4E
:100660005241C3088B4201D3CB00C01A52418308C8
:100670008B4201D38B00C01A5241D9D243088B421E
:1006800001D34B00C01A5241411A00D201465241D7
:10069000104663465B1001D34042002B00D549420F
:1006A000704763465B1000D3404201B504490028FF
:1006B00002DC491C084000E00846C046C04602BDB6
:1006C000FFFFFF7F7047704770470000F0B50C4692
:1006D000871A9C410D46861A9D4103D2C01BA14139
:1006E000D21963410D0D1F0DC94EEC1BAE435CD0FA
:1006F0007F057F0D0026002F51D02D05AC46A94364
:10070000DD020123ED0A1B051D4320231B1B24D4FE
:100710001746E740381871412F46E740CC199D40F5
:100720002818314661410C0D27D161449A4013D5F8
:100730000023401C594152000ED1400840000122C4
:100740004B005205D34207D305204007C14201D5D3
:10075000B04900E0B0493046F0BD6B00002A00D03F
:1007600001229A181F23203C1B1B01D5002302E005
:10077000E540281871410C0DD7D001242405091932
:10078000C407CD0740084908E40F28436144002C02
:10079000D5D00024401C61419A40D0D1CDE76A05F4
:1007A000520DD9D1C90FC907D5E79C4D4E0000287D
:1007B00001D0012400E0002434195F00002A01D098
:1007C000012600E00026BE19954FAC420CD8AE427F
:1007D0000AD8B44206D001256D05EC42BCD01046C3
:1007E0001946F0BD9942FCD000203946F0BDF0B565
:1007F0001FB40C460F46811A9F412546861A9D411B
:1008000006D20125ED076F40401ABC4152187B41CA
:10081000210D1E0D8D1BAC467D4D8D437ED0750583
:100820006D0D7CD00D05AE46AC431B031B0B794D03
:1008300052429D41202366469B1B14D31746F74026
:10084000381800260090744160462F460741E4198D
:1008500000989D402818664116D4714671189A4038
:1008600025D5012320E093182A466A415200002B27
:1008700000D0521C1E23203E9B1B002B61DD354106
:10088000EE1728186641E8D5001876415B1C9A409F
:1008900000D3401C4B05F3181524E34010D3002B64
:1008A00052D071467118D30FC01802D3491C05B03D
:1008B000F0BD0123DB079A42F9D140084000F6E77A
:1008C00001225205B21801D1002853D00123CC0ACD
:1008D000DB029943891E002A08D1020C03D0020CC6
:1008E0000004103902E00246002020390023550B95
:1008F00005D112020823550B01D152010D23550CCD
:1009000001D112011B1DD50C01D192009B1C150DAC
:1009100001D152005B1C2025EE1A01E02CE022E000
:100920000546F54015439840CA1AE10769181305B2
:10093000C918002ABBDA032040070818C10FC907ED
:100940000FE071466118B2E7F107400808437110E3
:1009500071444A000CD001235B059A42A7D2C90F0B
:10096000C9070020A3E74905490D26D1002001E071
:100970000028F4D100219AE7284D6600002801D014
:10098000012100E0002171185F00002A01D001263A
:1009900000E00026BE19224FA94210D8AE420ED860
:1009A000B14208D001256D05E94206D01946A802DA
:1009B000414010467BE79C4201D0214677E700206A
:1009C000394674E710B50C465C4005D50124E407B0
:1009D0006340FFF70CFF10BDFFF778FE10BD30B489
:1009E0000C465C4004D50124E407634030BC6DE64E
:1009F00030BCFCE670B50124E40761400D465D4063
:100A000002D4FFF763FE70BD6340FFF7F0FE70BDD8
:100A1000FF0700000000F0FF0000F07F0000E0FF93
:100A20000000F87FF0B5F94D0C091E092C402E404E
:100A30002F468BB0A7437DD0B543FCD0002E7AD093
:100A4000002CFCD00D465D40ED0F2543AC1BFF256F
:100A5000AD0464190894C502440DC9022143500D28
:100A6000DC0204430120C00701430443D202019188
:100A7000200C110C00958C46010423468B430A91EF
:100A800061460904E24D8A430991010A7D444919EE
:100A90008039097805464D4301266D18F605751B0A
:100AA0006943C90C640B891C4C436418B5012C1BA9
:100AB000250C2E04B4434C434D43210C691889097D
:100AC0000591009DE90701D00121C90704912C4639
:100AD00001996708CD072F434C08059DE10B4D4355
:100AE0002D0C29466646754302950D4645432E4614
:100AF000029D7D1BB44100950D465D4301942C0C75
:100B00002F040D465543AE462D0C3D4302950394EC
:100B10007546049C2D04641B049406D2029C039D1C
:100B2000641C002675410395029401AC70CC009FB3
:100B30007D1B01E03EE162E1B441090400950791AB
:100B400001940599A4086143090C0C464443650BC4
:100B5000E7040C4666467443A646640B3C43039583
:100B600002947446049DE4042C1B049406D2029C57
:100B7000039D641C002675410395029401AC70CC62
:100B8000009F7D1BB44101940C465C430095650FAA
:100B9000E7000C465443A646640F3C430395029479
:100BA0007446049DE4002C1B049406D2029C039D11
:100BB000641C002675410395029401AC70CC009F23
:100BC0007D1BB441AE09AF06049DC900AD092F439A
:100BD000049DA406AD060495079D3443691807914A
:100BE000059DE10B4D432D0C294666467543029544
:100BF0000D4645432E46029D7D1BB44100950D4692
:100C00005D4301942C0C2F040D465543AE462D0C2C
:100C10003D43029503947546049C2D04641B049483
:100C200006D2029C039D641C002675410395029424
:100C300001AC70CC009F7D1BB44101948C050694DF
:100C4000079C890A611800950791019C0599A408E1
:100C50006143090C0D464543680BEF040D4664469D
:100C600065436C0B3C43049FED047D1BAC4602D2F4
:100C70000025641C6841009E019D371B8541084684
:100C8000584301950C46460FC5005443600F284356
:100C90006546E4002C1B02D20025401C6E41019DDC
:100CA0003F1AB5412846BD09800628438446A0095D
:100CB000BF064E020699A40676180743079D00203A
:100CC00068410A99079019430020099B00906046EB
:100CD000FF1913434041E20F64003A43A44604461F
:100CE000D71A8C41A04203D90120009020463A46F1
:100CF000C70F941840416246D20F224364466400F5
:100D00000494009CBE466400D71AA4460446029789
:100D10008C417746002F01D1A04204D96046401C87
:100D20008446029A2046C40FA64694184041049A6D
:100D30000546D20F224364466400D31A8D417146A2
:100D4000002901D1A84202D928461A46641C104342
:100D50000122002800D0164361020020079B891958
:100D600004465C410223002C02DB4918134664410F
:100D7000089DCE0A2D145D194B056705E10A2C0567
:100D80000D1908993E43C9076940002B08D09340CC
:100D900006D30022761C5141002B01D17608760043
:100DA0001C4A002D43DB154241D0AA433FD03046B8
:100DB0000BB0F0BD06180D464D41174C7642AC41C4
:100DC0001AD395181C465C41134A6D42A24113D3B5
:100DD000012252054C00D4420AD15C00D4420BD00F
:100DE0004B4002D592021143E2E749004908DFE790
:100DF0005940C90FC90718E000200849D8E705483D
:100E000001420DD10342F7D0F2E700000000FF07D6
:100E1000588500000000F07F0000E0FF0000F87F30
:100E2000114859400143C01241400020C0E701234E
:100E3000089A9B069A4205DC032252078918C90FBB
:100E4000C907B5E7052252078918074A1143D2128C
:100E50005140ADE770B515461C4602460B46284684
:100E60002146FFF7DFFD70BDFFFFFF7F30B5034672
:100E7000CA02400D1043164D164C0A1502D02043ED
:100E8000002A06DBAA1A002A12DDD040FF2A0BDC5A
:100E900030BD5205520D01D140004008AA1A07D4B6
:100EA000D0404042FF2A01DD002030BD0028FCDD9B
:100EB0004A00002B01D0012000E000201018012280
:100EC0005205D042F0D8C817C043604030BD000082
:100ED0001E040000000000801F22030C02D10F221C
:100EE000000402D0030E03D004E000200146704746
:100EF0000002083A030F01D10001121F830F01D134
:100F00008000921E002801DB4000521E120551187D
:100F10004205C012411810467047C10FC90700D0E2
:100F20004042012292071143D6E701218907D3E706
:100F3000F0B58B4C0F09254689B0BD437BD01D0908
:100F40002646AE43FAD00E465E402740F60F3E439B
:100F5000254071D024012142FBD0FF24AD19A40407
:100F60002D1B039501252D05DB02DB0AC9022B434E
:100F7000C90A29431E010901040F130F050121436A
:100F80001701880B820391432D098C46A90B1E4340
:100F90008A039543B30B9A0396433F09BA0B940314
:100FA000A74302962E467E430497B6464E19D7199C
:100FB0000C460196544305977E43371B7646BF1B6C
:100FC0003601B646BE0B361900967646BC04371974
:100FD000009C01D3641C00946400002F01D0012602
:100FE0003443029E049F754366467E430496760012
:100FF00034196E0034190094029C019E1C1966433A
:10100000751BAE46069465464519059C05956C43CF
:10101000594375460891691A0191049E014651434E
:10102000A41B0491611A009C0791E10605D0610997
:101030000122114302E072E06EE06109089D002781
:101040002C0A2D066918049D7C412A0A2D06691870
:10105000019D6241AC0DAD026D185441079A910D8E
:10106000920255196141029A644658435443069BC3
:10107000059A5A43121A131B9A0E9B015B187A4168
:10108000010B0005C3185141220A200644195A4198
:101090009A4200D2491C01204002814203D3152309
:1010A0000226F64302E014230326F6432020C51A45
:1010B000A9401746AF40DA400A4320460399D8407A
:1010C0000914731819055118039A3843D20751406F
:1010D000AC4009D00122944006D30022401C51416B
:1010E000002C01D1400840001E4A934212D3012235
:1010F00003989206904207DB0520400709181A481A
:101100000143C012414004E0032040070818C10F0A
:10111000C907002009B0F0BD0020F107FAE7051863
:101120000C464C4111486D42A04115D394181A4603
:101130005A410E48644290410ED301204A004005B6
:10114000824209D35A00824206D35940C90F084A45
:10115000C90700201143DDE700200649DAE7000057
:101160000000FF07FE070000FFFFFF7F0000E0FF19
:101170000000F07F0000F87F0121C905012341181C
:1011800042001B06D3185B0E0AD0C1100722D206FC
:10119000891840075242D14201D552008918704740
:1011A000090208D50146002A03D0C10FC907002053
:1011B000704710467047420202D000200249704733
:1011C000072109050143F4E70000F87FF0B5FF258A
:1011D0002D04C609C209FF2704462E400137CB095A
:1011E0003E4348402A402B400746002A6BD0002B44
:1011F00069D0AA4267D0AB4265D0002800DA3246F7
:101200000125ED0529432C4309022002090AD21ABF
:101210004B0C7F24E31A434C000A7C44E35C7D249E
:101220002404121914145B00A218884201D3521C22
:1012300000E0400049420C465C4324115C43DB0162
:101240006415E318040A5C43C502200D0C464443B0
:101250006419250A5D432303EC0C0D466543000326
:101260000019EB184C42A34201D35B18401CD40573
:101270002018002B07D05B00C91804D3401C00299C
:1012800001D1400840003F2189048A4209D3002A45
:1012900008DC1106090F04D0032149074018C00FCC
:1012A000C007F0BD01224100120689187F225206B4
:1012B0009142F6D205214907C84201D59010F0BDF0
:1012C000FF20C005F0BD002F00DA32461648AA42C2
:1012D00007D2AB4205D21902090E17D0F80FC0078A
:1012E000F0BDFF2563002D06AB42F9D84900A942A5
:1012F000F6D8AB4201D1A942F2D0A94201D10021D6
:1013000001E061004908D0050843F0BD1102090E53
:10131000FBD0FF200243D005F0BD0A46014610462F
:1013200054E700004A7E00000000C07F10B501466F
:101330009E240002CA15A307002A02D01843002ADF
:1013400004DBA21A002A0CDDD04010BD1206120EDA
:1013500001D140004008A21A03D4D04040420028E6
:10136000F3DDFF2248001206904201D9002010BD93
:10137000C817C043584010BD1F22030C02D10F22D2
:1013800000041CD0030E01D10002083A030F01D162
:101390000001121F830F01D18000921E002801DB83
:1013A0004000521ED20551180212511819229040C5
:1013B00004D3491C002801D1490849000846704758
:1013C000C10FC90700D04042012292071143D3E761
:1013D00001218907D0E7FFB504460D4681B02430CE
:1013E00000902168880604D51022E06991432160AD
:1013F00000E00120A84201DD471B00E0002704981F
:10140000A1697A191018081AA0612078C00602D4C0
:101410002046C046C046002608E003986268A168DE
:10142000805D9047206A401C761C206204988642AA
:10143000F3DB2078C0060AD52046C046C04606E049
:101440006268A16830209047206A401C20623846BC
:101450007F1E0028F4DC07E000986268A168405D08
:101460009047206A401C206228466D1E0028F3DC4D
:101470002046C046C0462078000602D5022005B0AE
:10148000F0BD0120FBE70000FFB50C461E468FB003
:1014900003CA089009914F007D0D00D16D1E0021F7
:1014A00008460020C0460321099A89050840002A01
:1014B00003DA8200801840080840800D01280A9055
:1014C00002DD0020C0430A90089807430DD0F04881
:1014D000F049281848430714189800281DD0754271
:1014E000291E1DDD0A9842421BE01898012802D0EF
:1014F0000020302104E00020F24305E02154401C8C
:10150000B042FBDB30460022189B002121540F998A
:101510008B600A60486013B0F0BDBD1B6D1CDFE737
:101520000A9A002900DA69420BA800F06FFA0BABA7
:1015300007CB03AB07C30899099800F0D3FA6B46B1
:1015400007C30146D4480918002D00910BDDD2498C
:1015500003980A9A49424018002303A90390684659
:1015600000F030FD08E003990A9A0023081803A947
:101570000390684600F0D0FC6B4607C30004000CE3
:1015800003D00020C043410800E01046189A002A0A
:1015900003D00022009215461EE0751E05D400F00F
:1015A000B3F9303262556D1EF9D501220843079612
:1015B00002D000227F1C04E02078302801D10022D4
:1015C0007F1E002A069787D01EE0112D07DA00F053
:1015D0009BF9303262556D1C02460A43F5D108432F
:1015E00003D00098002819D00EE00021681E05E005
:1015F000235C625C63542254401E491C8142F7DB29
:10160000A81B401E07950690079A18990020A05421
:101610000F98079B069A81600CC07CE7112600207A
:10162000189059E7D21DF0B50D460446D10893B085
:10163000C90003C90C900D9107F0A0FA02460D985D
:10164000C00F01D02D2007E02068810701D52B2095
:1016500002E04007C00F4001032A0F9001D0072A83
:1016600005DB03462946204600F08CF90EE1207880
:10167000800601D5E76900E006272846652D04D0DD
:10168000662814D0672D69D12DE00020112F00901D
:1016900001DB112300E07B1C0CAA03A910A8FFF7B3
:1016A000F3FE1199002610987D1C0E9142E0012056
:1016B0003B460CAAC0070B900120009003A910A87C
:1016C000FFF7E2FE119D12981099002600280E9552
:1016D00001D1781C0D18781B02D446427D1C761E61
:1016E000E81B00903AE0012F00DA01270020112FBB
:1016F000009001DD112300E03B460CAA03A910A8CD
:10170000FFF7C2FE11993D46109800260E912178F0
:1017100009070BD40E99A94200DA0D4603A9012D41
:1017200004DD4A19203AD27F302A06D0B84201DAC5
:10173000011D04DA012100910FE06D1EEFE7002882
:1017400002DC86192D1A03E0411CA94200DD0D467A
:10175000801B401C00900120C0070B9020780007E0
:1017600005D40098A84202DB0020C04300906946DF
:101770000020C8720B98012102AF0337C9078842C5
:1017800025D0022010902B2011900B9800280BDA06
:1017900040420B902D20119006E00B9800F09BF832
:1017A00030317F1E0B9039701099481E002910901F
:1017B000F3DC0B980028F0D111987F1E3870208838
:1017C000000501D5452000E065207F1E387001A886
:1017D000C01BC01D0B900F98002800D0012041199C
:1017E0000098C01709180B980818A169081A401E1C
:1017F000A0612078C00602D42046C046C0460F989B
:10180000002805D06268A1689047206A401C2062C9
:101810002078C00625D52046C046C04621E0002ECF
:1018200007DB0E98B04204DD03A86268805DA16802
:1018300002E06268A16830209047206A761C401C54
:1018400020620098401E002800900AD100F058F84D
:10185000C06862680168405CA1689047206A401CCB
:10186000206228466D1E0028D9DC07E062683878BF
:10187000A1687F1C9047206A401C20620B99481E7B
:1018800000290B90F2DC2046C046C046032042E609
:1018900001FCFFFF104D0000E1DFFFFF01694A1C62
:1018A00002610878704700B58FB002910021059160
:1018B0000549019379440391114604906846FEF767
:1018C00013FD0FB000BD0000E5FFFFFF0A681070B8
:1018D000521C0A60704701468008081A0209101855
:1018E000020A1018020C1018C008820012185200C8
:1018F000891A01E0401C0A390A29FBD2704700000E
:1019000000487047500020200B4670B502468907FA
:101910008008084319469D08141AA941250908079B
:10192000054308092C194841250A01060D43010AFF
:101930002C194141200C0D0428430D0C00194D4178
:10194000002140194D41C00869070843E908840F88
:101950008D002543840024184D4124196D41121B2C
:10196000AB4107E00925ED432C11521963410024D6
:10197000401C61411C460A250026551BB441F1D28A
:1019800070BD0000F8B51F46044601230068DB0265
:10199000032601461840072A05DB002801D017A5B9
:1019A00006E017A504E0002801D016A500E016A562
:1019B000102081432160A069C01E002FA06101D0CA
:1019C000401EA0612046C046C046002F09D03846C0
:1019D0006268A1689047206A401C2062C01C206297
:1019E00006E0206AFAE762682878A1686D1C9047D3
:1019F000761EF8D22046C046C046F8BD4E414E0085
:101A00006E616E00494E4600696E6600F7B5164677
:101A10008AB0334878446C4603467C33C06F5A68BA
:101A20009B680DC42E487844763003AC0DC80DC4B5
:101A30003720C001081837211B30FEF755FD054639
:101A40000C46803D1B3C02D56442012000E0002092
:101A50000027099010E0E0070CD00C2020497843C3
:101A6000794432464C3941186846012300F054FA53
:101A70006B4607C364107F1C002CECD1184F7F44C9
:101A80002E3F16E0E80712D02001C0190EC80691BB
:101A9000089307920068F04201D1981908903246E5
:101AA000012306A903A800F037FA03AB07C36D10A2
:101AB000641C002DE6D10998002806D032466946FC
:101AC000012303A800F07EFA05E0012332466946AF
:101AD00003A800F021FA0A9B07C30DB0F0BD000077
:101AE00090760000034640000A4610B5400D0BD02A
:101AF0000121C9070F24A40200191C036408214313
:101B0000540D2143D20207E000210120F2E7D40F57
:101B1000490021435200401E0029F8DADB0FDB07A1
:101B2000184310BDFFB50D46144685B0486851688E
:101B300007F00BF800910190A868A16807F005F87C
:101B400002910390A868616806F0FFFF029A1218DC
:101B50008242029201D2012000E00020019A0B187B
:101B6000D2180028019202D08A4202D903E08A42A8
:101B700001D2012000E00020009908180090686858
:101B8000A16806F0E2FF029A12188242029201D284
:101B9000012000E00020019A0B18D21800280192C1
:101BA00002D08A4202D903E08A4201D2012000E039
:101BB000002000990818009028682168400049001A
:101BC000400849084018FA49471814E001994000B4
:101BD000C90F08430090019802994000C90F0843BB
:101BE0000190029803994000C90F0843029003989E
:101BF00040007F1E039000980028E7DA089800282C
:101C000001D0EC4E00E00026B74201DA012000E0EE
:101C10000020002804902AD0F71BF806C00E15D02B
:101C2000029B2021091A039A8B401A430392029ABD
:101C3000019BC2408B401A430292019A009BC24012
:101C40008B4000991A430192C14000917B110DD045
:101C50006F460320C11A03D500218200B95003E06A
:101C60008A008100BA587A50401EF3D5374603984F
:101C70000299002800D00120014308980291002811
:101C800008460CD0002800D001200199019A49058E
:101C900008430121D20AC902D202019200E00121C7
:101CA0000E9B0122D207012B02D0002B03D013E0A0
:101CB000002807D120E0904204D890420CD1019B2B
:101CC0000B4209D0019B5918019105D10099491C7B
:101CD000009101D17F1C009200280DD010210846F0
:101CE0000020C0460498002806D00F98002803D092
:101CF000082108460020C04628682168019B009AF8
:101D00004840C10F0598C90739430EC009B0F0BD5E
:101D1000FFB587B0099A0898089953689268406897
:101D2000896896460022039317469446089A1268DB
:101D30005300099A5B081268520052089A1A9E4B87
:101D4000D4180A9A002A01D0352200E040220692D7
:101D50000022012315460492DB07059324E0002DA1
:101D600005D175460346039E4D1BB34109D3754605
:101D70006646039B491B049D9841059B7519AC461B
:101D80005F4163463B4308D0059B049EDD07760810
:101D90002E435B080496059301E0521E641EC50F96
:101DA000ED0749184041521C069B9A42D7DB002D93
:101DB00004D17546039A6B1A824101D203200CE0CC
:101DC000039A0B466B404240134303D0014303D0B8
:101DD000012002E0022000E0002061460191002184
:101DE000009702910A99002905D0614640020143FB
:101DF000704B019102E08007002302909C4201DABF
:101E0000012000E0002007003AD01A1BD006C00EC7
:101E100015D0029D2021019C091AC5408C40254304
:101E2000029C8C4000D001242543019C0295009D1A
:101E3000C4408D4000992C430194C140009154113D
:101E40001DD06D460221002202290CD10320001B67
:101E500007E0002804DB8600AE59002E00D00122E6
:101E6000401C0328F5DB081B02D588002A5004E03B
:101E70008000285810438A00A850491EE3D51C460C
:101E80000A98002802980CD0002800D0012001995F
:101E9000019A490508430121D20AC902D2020192DE
:101EA00000E00121109B0122D207012B02D0002B60
:101EB00003D013E0002807D11FE0904204D89042DD
:101EC0000CD1019B0B4209D0019B5918019105D1FE
:101ED0000099491C009101D1641C009200280CD08B
:101EE000102108460020C046002F06D01198002877
:101EF00003D0082108460020C04608980999019A95
:101F0000009B006809684840C10F0798C907214332
:101F100082600AC00BB0F0BD00B585B0019300929D
:101F20000A460146002302A8FFF7FCFD02A807C8E5
:101F300005B000BDFFB50A461F4685B0079901935D
:101F400001230091014602A8FFF7ECFD02990398D6
:101F5000049ECA0F4900D20700920F22490892023C
:101F60008C1A0021002800DB0C46450013486D0840
:101F7000844214D3079A002A04DA441E0026104D26
:101F8000F64302E004460D460E46102108460020A6
:101F9000C046002F03D0042108460020C04620057B
:101FA000E90A0843009908436905F20A1143ADE6BE
:101FB00002C0FFFF013C0000FF3F0000FF070000E0
:101FC000FFFFFF7F00B585B0019300920A460146EE
:101FD000002302A8FFF79CFE02A807C8A8E7FFB5E8
:101FE0000A461F4685B007990193012300910146D7
:101FF00002A8FFF78DFE02990398049ECA0F4900BC
:10200000D20700920F22490892028C1A0021002860
:1020100000DB0C46450011486D08844214D3079A32
:10202000002A04DA441E00260D4DF64302E0044661
:102030000D460E46102108460020C046002F03D052
:10204000042108460020C0462005E90A08430099FB
:1020500008436905F20A114358E60000FF07000033
:10206000FFFFFF7FF8B5264C4E00069DA6420AD81A
:10207000A64201D1002806D15E00A64203D8A6429E
:102080000AD1002A08D00D242404254233D0294641
:10209000002000F0EDF8F8BD0C461C4311D4994225
:1020A00007D0C81A02D3EFF30080F8BDEFF3008029
:1020B000F8BD801A02D3EFF30080F8BDEFF3008083
:1020C000F8BD09242407E5008B4207D0581A02D333
:1020D000EFF3008006E0EFF3008007E0101A03D36F
:1020E000EFF30080A04303E0EFF30080A043284318
:1020F00080F30088F8BD009500F0D2F8F8BD00002C
:102100000000E0FF10B5FF231B0644009C421DD8D1
:102110004C009C421AD80346124A0B4307D4401A7B
:1021200002D3EFF3008010BDEFF3008010BD081A5A
:1021300003D3EFF30080904305E0EFF3008001212B
:102140009043C907084380F3008810BD0D231B048A
:102150001A4204D01146002000F08AF810BD00F0A9
:10216000A9F810BD00000090004870473000202002
:102170007546FFF7F9FFAE46050069465346C008AD
:10218000C000854618B020B5FEF73EF860BCB646E4
:1021900000260027C0C5C0C5C0C5C0C5C0C5C0C5D4
:1021A000C0C5C0C5403D490849008D46704710B5BF
:1021B0000446C046C0462046FDF7FBFF10BD0000A8
:1021C00082078B079A423FD170B5920F0AD0032441
:1021D00002780B78401C491C002A33D09A4231D136
:1021E0002042F5D1214EF40104C808C9951B95433E
:1021F000254018D19A420FD104C808C9951B9543B0
:10220000254010D19A4207D104C808C9951B9543AF
:10221000254008D19A42E7D012BA1BBA01209A424F
:1022200000D2404270BD12BA1BBA2DBA1824100059
:10223000E0401900E140401A05D12E00E64002D1ED
:10224000083CF4D1D01A70BD02780B78401C491CB0
:10225000002A09D09A4207D102780B78401C491C09
:10226000002A01D09A42EFD0D01A70470101010133
:10227000C80212D54803400F002804D0C803C04349
:10228000012188407047EFF300800001000903211D
:102290000907084380F3008870470020704700005A
:1022A00010B500200249029A00F00CF810BD0000A1
:1022B0000000F87F10B5024800F004F810BD0000DF
:1022C0000000C07F10B50C461107090F092904D082
:1022D0000A290AD008290CD104E011460820FFF78A
:1022E000C7FF06E0510606D501E0510601D50120E1
:1022F000C007214610BDD10607D501010909CC0848
:102300004907000E0006044309E0410F2002490777
:10231000000A0143200E00061D22D1410143084658
:10232000E7E7000001491820ABBEFEE726000200E7
:1023300070470000FF20000207490A68824301201D
:10234000C303D2180A608102044A13680B43136066
:1023500040030349086070470CE400E02810104077
:1023600000E100E010B51D4908703138272834D845
:1023700078440079400087441319213030303030E0
:102380003030303030303030303030253030303058
:102390003030303030303029303015303030301D72
:1023A000104800E00E480121017010BD0D480221C7
:1023B000017010BD0A480021017010BD09480321B9
:1023C000017010BD084C2068BF2102E0064C206857
:1023D0003F21090606F07CFC206010BD3C02202055
:1023E0003D0220200000202004002020B0B50A7803
:1023F000032313400B4A84580B4D2540EB18A924A6
:1024000024061B198350072212064B68134011241F
:10241000240205599543EA180251001949780161CF
:10242000B0BDC04608080000FCFFFF00811E091F68
:1024300000BFFCD2704770B50A780C231A40012403
:10244000240305196E689E43B2186A604978072212
:102450001140035993435918015170BDB0B5112271
:10246000120283580C4C1C400B894D881D438B79FC
:102470002B430A4D1D4063198350CB798C881C4334
:10248000097821435D239B001940801842689A43D4
:1024900051184160B0BDC04680CCFFFF7F330000C3
:1024A00010B50122120383180C785C6049788150C2
:1024B00010BD0000B0B53F231B04044C25689D43AC
:1024C00008431043184028182060B0BD38010B4065
:1024D000F0B585B001221402344B19680494A1436D
:1024E0001960950348490E682E4208D10E682E42A5
:1024F00005D10E682E4202D10E682E42F3D0457EE1
:1025000015409E69964375199D612025455D0326FA
:102510003540DF69B7437D19DD61254D2E680527FC
:102520002F60476A3C681C627C685C620724344008
:102530002C60C4697F252D02DE69AE436406640CFD
:102540003419DC6150C805680095476885680195B5
:10255000C568029503929A69164D15402207120B21
:102560003403A4B2A2183A43009C2407240D144358
:10257000019A1443029A1443007C20430E4A0240FD
:10258000501998611868049A104318600398400223
:102590000A68024208D10A68024205D10A6802426A
:1025A00002D10A680242F3D005B0F0BD08010B4029
:1025B000001340408D00F0FF72FF0F0010B511496D
:1025C000886001225305104804681C4208D1046841
:1025D0001C4205D104681C4202D104681C42F3D09D
:1025E00012040B6813430B600168C90608D4016824
:1025F000C90605D40168C90602D40168C906F3D525
:1026000010BDC04604010B4004020B40F0B53C4A2B
:1026100082183C4BC31808794E793B4D3B4C002E39
:1026200023D0202804D00526F601002803D003E09B
:10263000374E002800D18826576F2F403743576701
:10264000976F2F4037439767566B26405663966BBC
:10265000264096630026566596658F26F6435F688A
:1026600037405F609F6837409F608E7909682028F7
:102670000BD0002819D1491E5160D76E2F408821F8
:102680000F43D7661746703719E0491E5160D16E67
:1026900029401F4F3943D166116F294039431167D3
:1026A000012149071B4D174609E049085160D76EC3
:1026B0002F400521C9010F43D766174670373C6884
:1026C0002C400C433C60D16A104C2140D162116B0C
:1026D000214011630021D16411658F21C943D46F5A
:1026E0000C40D4671C680C401C600643BD20304081
:1026F0001168094B0B40C018801C1060F0BDC0462B
:10270000041800008418000024493E008888FDFF5A
:1027100001040000FFFFFFCF4000FFCF10B50723EB
:102720009B04194092008018024A84589C43611807
:10273000815010BD3018000010B5029CA400001993
:1027400011431943014A815010BDC0465018000082
:1027500092008018014A81507047C046101800004E
:1027600010B50122120383180C789C604B788350BB
:102770008978014A815010BD0C110000B0B51122BA
:10278000120283580124A34383508B780C881C4386
:102790008B882343094C1C408358094D1D402B193D
:1027A00083508B79CC791C43097A21437E231940CD
:1027B000801842689A4351184160B0BD1867000004
:1027C000E798FDFF10B50122120383180C789C6076
:1027D0004978815010BD000070B50D48322101606C
:1027E0000124A00524490860274D002628463146CB
:1027F0003246FFF7ADFFA004204908602846314665
:102800002246FFF7A5FF034801682143016070BD20
:10281000143100400418874080B5012807D11748BB
:10282000002900DA103001229304036007E0124807
:10283000002900DA1030012292050260002208B25D
:102840000F49884200DC084600B27D21C900884259
:1028500000DB084601B2C9134840401A81B2C908DA
:102860007C2903D80749081A401C00E0002081B2E7
:102870000548FFF76DFF80BD90120A4090320A4074
:1028800018FCFFFFE7030000000087408AB003F058
:10289000C7F91F24674D2046294604F01BFB00267C
:1028A00065A23046314604F0B5FF3046294604F0B3
:1028B00011FB142165A2304604F0ACFF242165A26F
:1028C000304604F0A7FF342164A2304604F0A2FF92
:1028D000482164A2304604F09DFF582167A230468B
:1028E00004F098FF682167A2304604F093FF782136
:1028F00066A20296304604F08DFFE00206902FE0BB
:10290000397006984B4904F0E5FA2D2658213046D7
:1029100003963A4604F07EFF2046464904F0DAFA70
:102920005F4F3A88682530462946049E334604F0B6
:10293000A9FF7A88552420462946334604F0A2FF91
:102940003A89782503982946334604F09BFF7A8913
:1029500020462946334604F095FF059805F030FAE5
:102960000698344D294604F0B5FA4A480068FEF747
:1029700003FC02460B4602270424009401973226EA
:102980001421304604F086FE3F204001294604F021
:10299000A1FA41480068FEF7EFFB02460B4600949F
:1029A00001972421304604F075FE06981F3080B24E
:1029B000294604F08FFA39480068FEF7DDFB02462D
:1029C0000B4604940094019734210596304604F098
:1029D00061FE334800F0CCF907AF029C3C72302115
:1029E0003122C3070B4600D01346FB7183070B4609
:1029F00000D51346BB7143070B4600D513467B71C8
:102A000003070B4600D513463B71C3060B4600D5A2
:102A10001346FB7083060B4600D51346BB70430676
:102A20000B4600D513467B7040B2002800DB67E7F9
:102A3000114665E7FFFF00003D3D3D20494D552013
:102A40002620545241434B203D3D3D00526F6C6C5B
:102A5000203A000050697463683A00005961772099
:102A6000203A00002D2D2D20477261797363616C2F
:102A70006520384368202D2D2D00000042494E204E
:102A80003A00000041302D313A00000041342D352C
:102A90003A000000BC032020B8032020C0032020FF
:102AA00048022020012801D0064900E004490968B5
:102AB0004000144A135A1152C81A00B27047C04657
:102AC000003809400018094010B50120C1430B4AE5
:102AD00013680B401360131F00241C60136803432A
:102AE0001360074A13680B401360111F0C600549FF
:102AF0000C804C8011680143116010BD041809401E
:102B0000043809403E022020F0B589B0002800D1E9
:102B100093E000F02DF9054640B200260890002809
:102B2000374600DA484F4949384606F0D1F8402187
:102B30002940079100D007464549384606F0C8F8B5
:102B400020212940069100D007464249384606F028
:102B5000BFF810212940059100D007464849384662
:102B600006F0B6F808212940049100D007463A49FA
:102B7000384606F0ADF804212940039100D00746FD
:102B80003649384606F0A4F802212940029100D0C7
:102B900007463349384606F09BF801907F20C4056C
:102BA0000898002800DA26463046214606F090F8BC
:102BB0000799002900D006463046214606F088F8DD
:102BC0000699002900D006463046214606F080F8D6
:102BD0000599002900D006463046214606F078F8CF
:102BE0000499002900D006463046214606F070F8C8
:102BF0000399002900D006463046214606F068F8C1
:102C00000299002900D006463046214606F060F8B9
:102C100001210D4000D0019F002D00D0064638460E
:102C20003146FEF7D3FA04460E49304605F0F5FF6B
:102C3000002805D1204609B0F0BD002009B0F0BD44
:102C40004A48406909B0F0BD00C05AC500401CC5E3
:102C50000080BBC40000FAC30080BB4400401C4598
:102C600000C05A45CDCCCC3D70B5002805D0034CF2
:102C70000025034E6EC00560446070BD0000C84270
:102C80000000FA43F0B583B00291002801D0044659
:102C900000E0364CE168029D284606F019F8064629
:102CA000E0602769394605F0A0FF009021682846BA
:102CB00006F0D2F801900098002808D10120C00742
:102CC00047403046394605F085FF002801D1E760CE
:102CD0003E466569029F67616068314606F0BCF850
:102CE00006463846294606F00FF91149FEF76EFAF6
:102CF0000146A06806F0B0F805460198314605F097
:102D0000E7FF294605F0E4FF0546A469214605F0E2
:102D10006CFF002808D10120C00744402846214606
:102D200005F058FF002800D12546284603B0F0BD25
:102D30000AD7233CB0B51446002801D0054600E070
:102D40000A4D0846FFF7E0FE01462846FFF79AFFC6
:102D5000FEF7ECFA0546201A01B20020FFF75CFDF1
:102D6000601901B20120FFF757FDB0BD040020201B
:102D7000A021405C70470000F0B58BB00292019139
:102D8000A8210890FDF79FFB5748322101600F20D2
:102D9000C2430020099006E0986609981030099017
:102DA000121D00D199E0029880180690078A0198B8
:102DB00080180590008A87423C4600D30446089953
:102DC00007928A1840210A925452874200D8074637
:102DD0006000C0190326314605F0BCFD60210A9D44
:102DE0006852780004940019314605F0B3FD502173
:102DF00068522F860698448A0598408A8442234662
:102E000000D3034642210A9A5352844200D8044612
:102E10006000C0183146039626461C4605F09AFD10
:102E200052210A9D68520694600005968019039904
:102E300005F090FD622168523846FEF776F80646A6
:102E40000F460498FEF771F802460B4630463946A5
:102E5000FDF7C5FD07460D4600242246234605F032
:102E6000A3FE0646204621493A462B46FDF7DAFDE9
:102E7000002E00D13146089A099BD2185166002EC7
:102E800000D13046049210660A980599418608469A
:102E9000FEF74BF805460E460698FEF746F8024642
:102EA0000B4628463146FDF79AFD06460F46224658
:102EB000234605F079FE054620460C4932463B463E
:102EC000FDF7B0FD002D00D12946049BD966002DE9
:102ED000079A00D060E728465EE7A1200121089A02
:102EE00011540BB0F0BDC0461411004000FEAF40BD
:102EF00080B588B004A90C4A0A804A808A80CA80BA
:102F00000A814A818A81CA817D2293006A461380A0
:102F100053809380D380138153819381D381FFF7B2
:102F20002BFF08B080BDC046AC0D0000F0B58BB0E3
:102F3000064601273D02403004903046803006901E
:102F40003046A03005900023A34C07960AE00720E6
:102F5000089BC01A4000C908079E31525B1C082B11
:102F600000D1BEE0D9079D4810300029014600D0AD
:102F70009A4980220A609907014600D597490D6059
:102F80000893042B00D3954801210A91490201605E
:102F90007D204001FFF74AFA0021099109E0904B9A
:102FA0001B689BB25918099B1B1D0993072A0746EA
:102FB000CDD2A2692A43A2618A4802680A9B1A43B9
:102FC000026042682A434260874A02E0121D012ED5
:102FD00010D023682B420DD123682B420AD12368DD
:102FE0002B4207D15342534126682E423E46EDD133
:102FF0001E46EBE77A480268A3692B43A361794830
:1030000003680A9E3343036043682B43436092B2D4
:103010005118754A02E0121D012E10D023682B4270
:103020000DD123682B420AD123682B4207D153428A
:10303000534126682E423E46EDD11E46EBE76848D6
:103040000268A3692B43A361664803680A9E334361
:10305000036043682B43436092B25118FB4A02E07D
:10306000121D012E10D023682B420DD123682B4254
:103070000AD123682B4207D15342534126682E427E
:103080003E46EDD11E46EBE73846EF4A1368A2698B
:103090002A43A261EB4E32680A9F3A43326072685B
:1030A0002A4372600322099E32439BB25918E74BB0
:1030B00003E01B1D012F00D171E726682E4200D0CE
:1030C0006DE726682E4200D069E726682E4200D0C0
:1030D00065E75E425E4127682F420746E9D13746E1
:1030E000E7E73188049D2888814204D9059B187838
:1030F0000A9A104306E0288A8142059B03D2187879
:103100000A9A9043187074886888844203D91A78A0
:103110000220104305E0688A844203D21878022214
:1031200090431870B288A8888242009203D91A7816
:103130000420104305E0A88A824203D218780422B2
:1031400090431870F288E8888242019203D91A7875
:103150000820104305E0E88A824203D2187808224A
:1031600090431870328928898242029203D91A78D2
:103170001020104305E0288B824203D218781022D9
:1031800090431870728968898242039203D91A7831
:103190002020104305E0688B824203D21878202259
:1031A00090431870B289A8898242089203D91A788C
:1031B0004020104305E0A88B824203D218784022B9
:1031C00090431870F289E889824209920ED97F20D3
:1031D000C243187810430FE03010004090120A40AC
:1031E00080625540001100406479FEFFE88B824206
:1031F00003D21A787F2010401870328E002391423B
:1032000018460A931FD30594881A80B2FDF78DFEE5
:1032100002460B46306E716EFDF78AFE05460026AB
:103220008B4F0C4632463B4605F0BEFC002800D1D1
:103230002E46002800D1274630463946FDF716FEB7
:10324000079E0A9B059C3082718E8C4218461DD3C6
:10325000601A80B2FDF769FE02460B46B06EF16E51
:10326000FDF766FE05460C460026794F32463B4682
:1032700005F09AFC002800D12E46002800D12746F0
:1032800030463946FDF7F2FD079E0A9B7082B18EEB
:10329000009A8A421846069C1ED3501A80B2FDF747
:1032A00044FE02460B46306F716FFDF741FE054646
:1032B0000026674F0C4632463B4605F075FC002859
:1032C00000D12E46002800D1274630463946FDF76A
:1032D000CDFD079E0A9B069CB082F18E019A8A4220
:1032E00018461DD3501A80B2FDF71FFE02460B464A
:1032F000B06FF16FFDF71CFE05460026544F059197
:1033000032463B4605F050FC002800D12E460028EE
:1033100000D1059F30463946FDF7A8FD079E0A9B60
:10332000F082318F029A8A4218461DD3501A80B219
:10333000FDF7FBFD02460B4603CC083CFDF7F8FD0C
:1033400005460026424F059132463B4605F02CFCCF
:10335000002800D12E46002800D1059F304639466E
:10336000FDF784FD079E0A9B3083718F039A8A4282
:1033700018461DD3501A80B2FDF7D7FD02460B4602
:10338000A068E168FDF7D4FD05460026304F0591A1
:1033900032463B4605F008FC002800D12E460028A6
:1033A00000D1059F30463946FDF760FD079E0A9B18
:1033B0007083B18F089A8A4218461DD3501A80B282
:1033C000FDF7B3FD02460B4620696169FDF7B0FDCC
:1033D000054600261E4F089132463B4605F0E4FBA9
:1033E000002800D12E46002800D1089F30463946DB
:1033F000FDF73CFD079E0A9BB083F08F099981423F
:103400001DD3081A80B2FDF790FD02460B46A06955
:10341000E169FDF78DFD07460C4600250C4E2A4656
:10342000334605F0C1FB002800D13D46002800D1FD
:10343000264628463146FDF719FD0346079EF383CD
:103440000BB0F0BD00110040806255406479FEFF72
:1034500000FEAF400000000000000000000000007F
:10346000EFF309800E4A1168243808607346F8C0EB
:1034700044464D4656465F46F0C072B604F0AEFD77
:1034800062B6074A116808681430F0C8A046A94619
:10349000B246BB4680F309882438F8C81847C046AE
:1034A0009004202000000000000000000000000048
:1034B00004207146084203D0EFF30980044B1847FB
:1034C000EFF30880024B1847C046C046C046C046CE
:1034D0009D7B000080B50A480A49FFF741F90A4878
:1034E0001A49C1620022C267194B03600163074990
:1034F0000A6003601849416005480121016080BDF0
:103500000000094066990000041809408418094029
:103510000811094080B50A480A49FFF721F90A480D
:103520000A49C1620022C267094B0360016309496D
:103530000A6003600849416008480121016080BDBC
:103540000020094069990000043809400100020088
:103550001292001084380940FFFF00000831094032
:1035600010B50124A0070549FEF740FF04480021DB
:103570000160044801682143016010BD6C9900009E
:10358000801100400011004080B50E480E49FEF742
:103590002DFF0E4841680E4A0A40112109045118B6
:1035A000416081680B4A0A4001210B06D2188260F3
:1035B000094A002313600423536002680A4302602F
:1035C00080BDC046002000407499000000310040DA
:1035D000FEFFECFFF8FFE0E08031004070B582B004
:1035E0001B4C1C492046FFF7BBF81B492046FFF740
:1035F0000DF81A4801681A4A0A4002600025009531
:10360000204629462A462B46FFF796F820462946AB
:103610002A46FFF783F8204629462A46FFF798F8FE
:1036200001260096204629462A462B46FFF784F8B5
:10363000204629463246FFF771F820462946324691
:10364000FFF786F8074886600321016002B070BD6D
:10365000000087407C990000809900000418874092
:103660007F00FFFF00118740F0B582B0594D8920DF
:10367000A86001242007584A106058490846383885
:103680008B230093036020040190106016460846C7
:103690001038842202602005514B1860CA6062060F
:1036A0003260504F8520B8624F4E04233360386338
:1036B00010233360386234600B46343B186060047A
:1036C000454B18604948431CCB610E461C3E336095
:1036D000031DEB6503460A336B66454B9E1C2E604B
:1036E0002B682B606E606B686B602B6813432B60DC
:1036F0006B6813436B6082222A64421E6A648622CE
:10370000AA66C21CEA66009AEA63AA6328650A46AA
:103710004C3A83231360EB67A867812028633865E0
:1037200078650A1F10602861314B3B603A683A6047
:103730007B607A687A60BB64BA6CBA64FB64FA6CCA
:10374000FA640B600A680A6068670A46083A106003
:103750003A1F106088600A46443A106088614861E8
:103760000A46143A1060203908606863A864E86467
:10377000194A104630381F49016010464038A107E9
:1037800001601D481060164A104630381B49016020
:10379000104640381A4901601A4810601A480168FA
:1037A000019A11430160200618490A6A02430A621D
:1037B0000A6802430A60164A14600A6E02430A66E7
:1037C000094A10464038032109020160116002B025
:1037D000F0BDC04604804240D0120A40D080424032
:1037E000D0320A4008814240D0520A40830004008F
:1037F00081000C0080234001802340410200441CD2
:10380000002080000220C41CA0330A4028300A4057
:1038100048240A4010B50D4C0D492046FEF740FEE5
:103820000C492046FEF71AFE0B484168B14A0A408F
:10383000111D4160816812220A432D218A43826052
:10384000016801220A43026010BDC04600A0464044
:10385000889900008A99000004B1464080B511485B
:103860001149FEF7E8FD03204102104802680A43AF
:10387000026001210A0203681343036000224261CF
:1038800027224262826B07239A4382631A02836B68
:1038900093438363826A042313438362826A0A43E5
:1038A000826280BD00000F409499000000120F401A
:1038B000094859490A68024082420BD00A6802400E
:1038C000824207D00A680240824203D00A6802405E
:1038D0008242EFD17047C046000A2000F0B585B0A3
:1038E0001F200006204A1168814311600124210530
:1038F000A20400200391FEF7DDFD1C481C49016075
:103900000494660642241B4D434F3868304204D16C
:103910002846FEF78BFD641EF7D11348806902909C
:1039200004980204002001900399FEF7C3FD0F489C
:103930000F49016042243868304204D12846FEF71E
:1039400075FD641EF7D11735029845430648816915
:10395000284604F0FFFF084940180F2801D30198BA
:103960000490049805B0F0BD38010B402C030B40C7
:103970000100000ED103000043F6FFFFF0B581B057
:103980002248012404600F200002214D2968814350
:103990006602881928600320C043291F0A68024074
:1039A0000A601C48FEF794FDFFF798FF002812D02C
:1039B0002868102101432020814329600020FEF760
:1039C000FDFDFF20000215490A688243E00310183C
:1039D000086001B0F0BD104F03E0FFF77FFF002843
:1039E000E6D12002696881436960696801436960C2
:1039F00038683042F1D138683042EED13868304210
:103A0000EBD138683042F3D0E7E7C04608030B40FB
:103A100004010B409899000004020B4000E400E010
:103A2000F0B581B01C4C1D492046FEF799FE1C499B
:103A30002046FEF7EBFD1B480168ED4A0A40026094
:103A400000250095204629462A462B46FEF774FE9F
:103A5000204629462A46FEF761FE19200601204627
:103A600031462A46FEF774FE012700972046294674
:103A70002A462B46FEF760FE204629463A46FEF7C8
:103A80004DFE204631463A46FEF762FE0648876004
:103A90000321016001B0F0BD00208640C099000004
:103AA000C4990000043886400031864010B50D4CA2
:103AB0000D492046FEF7F4FC0C492046FEF7CEFCEB
:103AC0000B4841680B4A0A40111D4160816812226F
:103AD0000A432D218A438260016801220A43026061
:103AE00010BDC04600804640CC990000CE99000031
:103AF0000491464000FCFFFF10B5194C19492046BF
:103B0000FEF760FE18492046FEF738FE0320C10389
:103B1000164802688A4302600169334A0A402B3220
:103B2000026141691A220A4325218A43426142689F
:103B300001210A4043688B439A1842604A04036893
:103B400013430360C26870231343C360C268022337
:103B5000134305229343C36002680A43026010BD09
:103B600000205040D8990000DA9900000031504000
:103B700010B5194C19492046FEF724FE1849204675
:103B8000FEF7FCFD0320C103164802688A43026069
:103B90000169154A0A401532026141692D220A4322
:103BA00012218A434261426801210A4043688B43E3
:103BB0009A1842604A04036813430360C268702382
:103BC0001343C360C2680223134305229343C360B7
:103BD00002680A43026010BD00001040E499000032
:103BE000E6990000001110400000FFFF80B500F0D2
:103BF00037F8FFF739FDFFF7C1FEFFF711FFFFF7B9
:103C0000EDFC00F08FF8FFF765FCFFF783FCFFF792
:103C100025FEFFF7ADFFFFF76FFFFFF747FFFFF749
:103C2000F9FDFFF7B1FCFFF79BFCFFF741FEB82061
:103C3000064900220A5406490A549C2005490A54A0
:103C4000242005490A5405490A5480BDF002202069
:103C50005801202090002020140220203001202034
:103C6000F0B581B01E481F4A42601F4842601F489D
:103C700042601F4842601F4842601F4842601F4820
:103C800042601F4842601F4842601F4E72601F4DD5
:103C90006A601F4C62601F4B5A601F494A601F4890
:103CA00042601F4A0E4F3A600F4F3A600F4F3A6022
:103CB0000F4F3A600F4F3A600F4F3A600F4F3A6024
:103CC0000F4F3A600F4F3A6032602A6022601A60EC
:103CD0000A6002601020FEF7A9FB01B0F0BDC046EB
:103CE00000080A40030000B100280A4000480A40CA
:103CF00000288640000887400008864000080940E8
:103D00000028094000080F400008104000285040DB
:103D10000088464000A846400028004000080040B7
:103D200001000026F0B581B02D4C2E492046FEF74B
:103D300017FD2D492046FEF769FC2C4801682C4AE6
:103D40000A40026000250095204629462A462B4657
:103D5000FEF7F2FC204629462A46FEF7DFFC204605
:103D600029462A46FEF7F4FC0126009620462946FD
:103D70002A462B46FEF7E0FC204629463246FEF74F
:103D8000CDFC204629463246FEF7E2FC022700978A
:103D9000204629462A462B46FEF7CEFC20462946D9
:103DA0003A46FEF7BBFC204629463A46FEF7D0FCD1
:103DB00003270097204629462A462B46FEF7BCFCDF
:103DC000204629463A46FEF7A9FC204629463A46AF
:103DD000FEF7BEFC074886600F21016001B0F0BD10
:103DE00000008640F0990000F49900000418864015
:103DF0007F00FFFF0011864082B004F0B9FB019004
:103E00000E4C104F104D114E2046FFF78FF800203A
:103E1000FEF748FE0A4908800120FEF743FE38807D
:103E2000642228462146FEF785FF304600F058FC04
:103E300001A80A2104F03CFBE6E7C0464802202026
:103E40004202202044022020040020200AD7233CE4
:103E500010B503F0AFFD044604F08EFB002803D03C
:103E60000120000702490860204603F0D0FD10BD84
:103E700004ED00E010B507480068C0B20B2808D177
:103E8000054C2068400704D4E069C0B2FEF76AFA26
:103E9000F7E710BD20101040081110400C480168D1
:103EA0000020002900D070470A4909680029FAD18A
:103EB000094909680029F6D10848006808490968D5
:103EC000491E884201D00120704702207047C04639
:103ED000E03E2020343F2020DC3E2020003F2020F8
:103EE00088352020F0B585B001256C03F14E346093
:103EF000F148FEF79BFA3461F048016849070DD498
:103F0000016A0168490709D4016A0168490705D4B3
:103F1000016A0168490701D4016AEEE7E84902E055
:103F2000091D012E15D0026802231A400DD1026826
:103F30001A400AD102681A4007D14A424A4107682A
:103F40001F402E46ECD11646EAE75108002904D15D
:103F5000AAE07908002900D1A6E0F5210163D8493B
:103F600002E0091D012E14D002681A400DD102682A
:103F70001A400AD102681A4007D14A424A410768EA
:103F80001F402E46EDD11646EBE75108002904D11B
:103F90008AE07908002900D186E0002104910163BC
:103FA000C7490F1F01E010377ED00168C90702D052
:103FB0000168C90659D50168C90702D00168C90658
:103FC00053D50168C90702D00168C9064DD50168FB
:103FD000C90702D00168C90647D50168C90702D0E0
:103FE0000168C90641D50168C90702D00168C90640
:103FF0003BD50168C90702D00168C90635D50168FB
:10400000C90702D00168C9062FD50168C90702D0C7
:104010000168C90629D50168C90702D00168C90627
:1040200023D50168C90702D00168C9061DD50168FA
:10403000C90702D00168C90617D50168C90702D0AF
:104040000168C90611D50168C90702D00168C9060F
:104050000BD50168C90702D00168C90605D50168FA
:10406000C907A0D00168C9069DD4016A0168490743
:104070001AD4016A8F4A1460C9B20126472900D0B8
:1040800024E3039614610168490712D4016A0168A8
:1040900049070ED4016A016849070AD4016A016818
:1040A000490706D4016AEEE782480460012005B0A2
:1040B000F0BD834F02E03F1D012E10D00168194072
:1040C0000DD1016819400AD10168194007D17A421F
:1040D0007A41016819402E46EDD11646EBE74908B2
:1040E000002900D113E24E2102910163744F02E0D6
:1040F0003F1D012E10D0016819400DD101681940F3
:104100000AD10168194007D17A427A410168194001
:104110002E46EDD11646EBE74908002900D1F6E11D
:104120000499016366490F1F02E0103700D1EEE1E8
:104130000168C90702D00168C90667D50168C907C7
:1041400002D00168C90661D50168C90702D00168BB
:10415000C9065BD50168C90702D00168C90655D5F3
:104160000168C90702D00168C9064FD50168C907AF
:1041700002D00168C90649D50168C90702D00168A3
:10418000C90643D50168C90702D00168C9063DD5F3
:104190000168C90702D00168C90637D50168C90797
:1041A00002D00168C90631D50168C90702D001688B
:1041B000C9062BD50168C90702D00168C90625D5F3
:1041C0000168C90702D00168C9061FD50168C9077F
:1041D00002D00168C90619D50168C90702D0016873
:1041E000C90613D50168C9079FD00168C9069CD4C8
:1041F0000CE0016A016849070BD4016A01684907AC
:1042000007D4016A0168490703D4016A01684907B4
:10421000EFD528490C600C61016849070DD4016A8B
:104220000168490709D4016A0168490705D4016A90
:104230000168490701D4016AEEE7214F02E03F1D02
:10424000012E10D0016819400DD1016819400AD122
:104250000168194007D17A427A41016819402E4617
:10426000EDD11646EBE74908002900D14FE14F2177
:104270000163134F02E03F1D012E10D00168194069
:104280000DD1016819400AD10168194007D17A425D
:104290007A41016819402E46EDD11646EBE74908F0
:1042A000002900D133E106210191016304490F1F68
:1042B0000BE0C04690320A400071020010B1464047
:1042C0006479FEFF103700D121E10168C90702D0EF
:1042D0000168C9065BD50168C90702D00168C90633
:1042E00055D50168C90702D00168C9064FD50168D4
:1042F000C90702D00168C90649D50168C90702D0BB
:104300000168C90643D50168C90702D00168C9061A
:104310003DD50168C90702D00168C90637D50168D3
:10432000C90702D00168C90631D50168C90702D0A2
:104330000168C9062BD50168C90702D00168C90602
:1043400025D50168C90702D00168C9061FD50168D3
:10435000C90702D00168C90619D50168C90702D08A
:104360000168C90613D50168C90702D00168C906EA
:104370000DD50168C90702D00168C90607D50168D3
:10438000C9079FD00168C9069CD400E0016A016892
:1043900049070BD4016A0168490707D4016A01681B
:1043A000490703D4016A01684907EFD5C9490C6080
:1043B0000C61016849070DD4016A0168490709D4F5
:1043C000016A0168490705D4016A0168490701D4F7
:1043D000016AEEE7C04F02E03F1D012E10D00168D8
:1043E00019400DD1016819400AD10168194007D15F
:1043F0007A427A41016819402E46EDD11646EBE724
:104400004908002900D182E050210163B24F02E047
:104410003F1D012E10D0016819400DD101681940CF
:104420000AD10168194007D17A427A4101681940DE
:104430002E46EDD11646EBE74908002967D00199D1
:104440000163A5490F1F01E0103760D00168C9075B
:1044500002D00168C9066CD50168C90702D001689D
:10446000C90666D50168C90702D00168C90660D5CA
:104470000168C90702D00168C9065AD50168C90791
:1044800002D00168C90654D50168C90702D0016885
:10449000C9064ED50168C90702D00168C90648D5CA
:1044A0000168C90702D00168C90642D50168C90779
:1044B00002D00168C9063CD50168C90702D001686D
:1044C000C90636D50168C90702D00168C90630D5CA
:1044D0000168C90702D00168C9062AD50168C90761
:1044E00002D00168C90624D50168C90702D0016855
:1044F000C9061ED50168C90702D00168C90618D5CA
:104500000168C907A0D00168C9069DD411E07148AF
:104510000460039805B0F0BD016A016849070BD437
:10452000016A0168490707D4016A0168490703D491
:10453000016A01684907EFD566490C600C610168A2
:1045400049070DD4016A0168490709D4016A016865
:10455000490705D4016A0168490701D4016AEEE7F9
:10456000C04F02E03F1D012E10D0016819400DD14F
:10457000016819400AD10168194007D17A427A418D
:10458000016819402E46EDD11646EBE7490800298F
:10459000504F00D194E002990163B24F02E03F1DF9
:1045A000012E10D0016819400DD1016819400AD1BF
:1045B0000168194007D17A427A41016819402E46B4
:1045C000EDD11646EBE74908424F002978D00F217C
:1045D0000163A4490A1F01E0103271D00168C907C4
:1045E00002D00168C90659D50168C90702D001681F
:1045F000C90653D50168C90702D00168C9064DD55F
:104600000168C90702D00168C90647D50168C90712
:1046100002D00168C90641D50168C90702D0016806
:10462000C9063BD50168C90702D00168C90635D55E
:104630000168C90702D00168C9062FD50168C907FA
:1046400002D00168C90629D50168C90702D00168EE
:10465000C90623D50168C90702D00168C9061DD55E
:104660000168C90702D00168C90617D50168C907E2
:1046700002D00168C90611D50168C90702D00168D6
:10468000C9060BD50168C90702D00168C90605D55E
:104690000168C907A0D00168C9069DD4049E0168BD
:1046A00049070FD4016A016849070BD4016A016800
:1046B000490707D4016A0168490703D4016AEEE794
:1046C0003C6026E73C600548FDF7B0FE304605B08B
:1046D000F0BDC04690320A406479FEFF00093D00FB
:1046E000F0B58DB004460025294604F089FA00286B
:1046F00001D000F07AFD0C950A9401256B03574810
:104700000361574A106840070DD4106A10684007CB
:1047100009D4106A1068400705D4106A1068400771
:1047200001D4106AEEE74F490B9302E0091D012CFA
:1047300015D01068022738400DD1106838400AD1D2
:104740001068384007D14842484116683E402C4620
:10475000ECD10446EAE74008002804D15DE2700885
:10476000002800D159E29F2010633E4902E0091D54
:10477000012C14D0106838400DD1106838400AD18F
:104780001068384007D14842484116683E402C46E0
:10479000EDD10446EBE74008002804D13DE2700863
:1047A000002800D139E2002111632E4E02E0361DAF
:1047B000012B10D0106838400DD1106838400AD154
:1047C0001068384007D174427441106838402B4655
:1047D000EDD12346EBE74008002800D11DE211632C
:1047E000204E02E0361D012B10D0106838400DD14C
:1047F000106838400AD11068384007D174427441BB
:10480000106838402B46EDD12346EBE740080028DE
:1048100000D102E21163134E02E0361D012B10D0CD
:10482000106838400DD1106838400AD110683840FF
:1048300007D174427441106838402B46EDD12346AD
:10484000EBE74008002800D1E7E111630C98001D58
:104850000C900C2889D10348011F08E090320A40CF
:1048600010B146406479FEFF103100D1D5E11068E7
:10487000C00702D01068C00659D51068C00702D022
:104880001068C00653D51068C00702D01068C00673
:104890004DD51068C00702D01068C00647D5106813
:1048A000C00702D01068C00641D51068C00702D00A
:1048B0001068C0063BD51068C00702D01068C0065B
:1048C00035D51068C00702D01068C0062FD5106813
:1048D000C00702D01068C00629D51068C00702D0F2
:1048E0001068C00623D51068C00702D01068C00643
:1048F0001DD51068C00702D01068C00617D5106813
:10490000C00702D01068C00611D51068C00702D0D9
:104910001068C0060BD51068C00702D01068C0062A
:1049200005D51068C0079FD01068C0069CD4106AD7
:104930001068400700D570E1116A1068400700D583
:104940006BE1136A1068400700D566E1156A1068CC
:10495000400700D561E1166A1068400700D55CE1A8
:10496000176A1068400700D557E1106A0C9010686C
:10497000400700D551E1106A09901068400700D542
:104980004BE1106A08901068400700D545E1106AB5
:1049900007901068400700D53FE1106A0690106844
:1049A000400700D539E1146A1068400700D534E1AA
:1049B000106A05900B989B4A1060D8B2090208183B
:1049C00099490880F1B22B025E1898490E800C9923
:1049D000C9B23B025F1896490F800899C9B2099A7B
:1049E00013025A18099293490A800699C9B2079A84
:1049F00013025A180B9290490A802102059AD2B2EA
:104A00008A180C928D490A8000B2FCF7D9FC1D214E
:104A10004D06294604F020FA044630B2FCF7D0FCDB
:104A2000294604F019FA064638B2FCF7C9FC2946B3
:104A300004F012FA074630460296314604F00CFAAA
:104A4000054620460394214604F006FA294604F060
:104A50003FF9054638460197394604F0FDF92946E5
:104A600004F036F90021044604F0BFF80646099820
:104A700000B2FCF7A5FC724F3946FCF7A7FB714D5D
:104A8000294604F0E9F908900B9800B2FCF798FC6D
:104A90003946FCF79BFB294604F0DEF907900C9899
:104AA00000B2FCF78DFC3946FCF790FB294604F078
:104AB000D3F90C90002E00D1D2E03F200106204611
:104AC00004F0CAF9054660085F490F1A28463946BE
:104AD00004F0C2F9394604F0BFF90146FF2086050B
:104AE000304604F011FA394604F0B6F90746284674
:104AF000394604F0B1F9394604F0AEF901463046C2
:104B000004F002FA0146384604F0A6F901462046B0
:104B100004F0A2F905464D4904F072F84C490968C1
:104B200006914C49096809914B49096804914B4920
:104B300009680591002800D09EE002982946FCF7FC
:104B400045FB0B9001982946FCF740FB0290099821
:104B5000069904F081F90646059C2046049904F064
:104B60007BF9314604F0B4F807462046214604F0AC
:104B700073F9BF21090604F0ABF806460698014612
:104B800004F06AF9314604F0A3F806460298394663
:104B90003C4604F061F907460B98314604F05CF995
:104BA000394604F0B1F90146089804F091F80890EC
:104BB00003982946FCF70AFB05460598099904F075
:104BC0004BF907460498069904F046F9394604F073
:104BD0009BF907462846314604F03EF906460298FE
:104BE000394604F039F9314604F08EF90146079848
:104BF00004F06EF807900B98394604F02DF906463C
:104C00002846214604F028F9314604F07DF9014692
:104C10000C9804F05DF80C902EE00B9801490860A8
:104C20000DB0F0BD90320A40AC032020AE0320202E
:104C3000B0032020B2032020B4032020B60320209C
:104C40003333834135FA8E3CDF59375F17B7D1389C
:104C500078052020740520207005202020002020C9
:104C6000B44800680690B44800680990B3480068EA
:104C70000490B348006805903F2005060598294632
:104C800004F0EAF807460998294604F0E5F80646D4
:104C900002900698294604F0DFF8044630460C9945
:104CA00004F0DAF8064638460097089904F0D4F87C
:104CB000314604F00DF8064620460194079904F0A9
:104CC000CBF80146304604F01FF90A9904F0C4F805
:104CD0000146049E304603F0FBFF0B9097490860A5
:104CE00030460495294604F0B7F803900C9904F077
:104CF000B3F805463846079F394604F0ADF8294613
:104D000004F002F905462046089E314604F0A4F856
:104D1000294603F0DDFF0A9C214604F09DF8014678
:104D2000099803F0D5FF0990834908600398394634
:104D300004F092F8054600980C9904F08DF8294685
:104D400003F0C6FF0546029F3846314604F084F85A
:104D50000146284604F0D8F8214604F07DF80146C3
:104D6000069803F0B5FF0646724806603846079974
:104D700004F072F805460120C107069103984840E7
:104D8000089904F069F8294604F0BEF80546019830
:104D90000C9904F061F80146284604F0B5F8214664
:104DA00004F05AF80146059803F092FF054664485E
:104DB00005600B98014604F04FF804462846079515
:104DC000294604F049F8214603F082FF0446099879
:104DD000014604F041F8214603F07AFF04463046CC
:104DE0000896314604F038F8214603F071FF054675
:104DF00000210C9103F004FF00284DD128460499AE
:104E000004F02AF806466808F9490C1A304621468B
:104E100004F022F8214604F01FF80146FF20870520
:104E2000384604F071F8214604F016F8044630467E
:104E3000214604F011F8214604F00EF801463846E8
:104E400004F062F80146204604F006F801462846C0
:104E500004F002F80546EB4903F0D2FE00281BD10E
:104E60000B982946FCF7B2F90B90E44908600798C3
:104E70002946FCF7ABF90790E149086009982946F3
:104E8000FCF7A4F90990DC49086008982946FCF76A
:104E90009DF90890D7490860099F3846089903F0A2
:104EA000DBFF044607980B9E314603F0D5FF2146F1
:104EB00003F00EFF014603F00BFF0A900C9903F07C
:104EC0007EFE0546401E85413846394603F0C4FF44
:104ED00004463046314603F0BFFF214603F0F8FE9A
:104EE000014603F0F5FE01467F200590C6053046D9
:104EF00004F00AF807460C9903F061FE411E884150
:104F0000284245D10A9C069884430021384603F084
:104F100084FE002816D03846214603F0D9FE054607
:104F20002046394603F0F0FF01462846FCF74EF9CB
:104F3000B64C15E07805202074052020700520204F
:104F4000200020203846214603F0DEFF0546384683
:104F5000214603F0BDFE01462846FCF737F9AA4C6E
:104F6000AB4903F079FF049903F076FF0146204630
:104F700003F0AEFE044600210A9803F04EFE00281E
:104F800001D006984440A349204603F065FF0C90E9
:104F9000A1480C99016008980B9903F05DFF044645
:104FA0000798099903F058FF214603F0ADFF014629
:104FB00003F08EFE0446314603F017FE00280A96E1
:104FC00008D1964D2046294603F004FE00280A9495
:104FD00000D10A950A98014603F03EFF014630468B
:104FE00003F092FF064600210C9103F009FE002811
:104FF00053D13046049903F02FFF074670087C49CF
:105000000D1A3846294603F027FF294603F024FFEE
:105010000146FF208405204603F076FF294603F071
:105020001BFF05463846294603F016FF294603F0C4
:1050300013FF0146204603F067FF0146284603F0B0
:105040000BFF0146304603F007FF064600273946AE
:1050500003F0B5FD0446401E84410A98394603F02A
:10506000AEFD411E8841044248D10A9F06988743FD
:105070000021304603F0D1FD002819D038463146D2
:1050800003F026FE04463846314603F03DFF014654
:105090002046FCF79BF85D4E18E00A980C9F3946B5
:1050A00003F08DFD002829D10A9F069887430C9EA6
:1050B0003046394603F028FF04463046394603F0AF
:1050C00007FE01462046FCF781F84F4E504903F099
:1050D000C3FE049903F0C0FE0146304603F0F8FD1C
:1050E000044600210A9803F098FD002801D0069894
:1050F00044404849204603F0AFFE07464848076051
:105100000B98099E314603F0A7FE04460798089DB8
:10511000294603F0A1FE214603F0DAFD014603F023
:10512000D7FD0B900C9903F04AFD0746401E8741BE
:105130002846294603F090FE04463046314603F0E7
:105140008BFE214603F0C4FD014603F0C1FD01467C
:105150000598C00503F0D8FE06460C9903F02FFD14
:10516000411E884138423DD10B9C06988443002162
:10517000304603F052FD00280ED03046214603F0A1
:10518000A7FD07462046314603F0BEFE01463846DD
:10519000FCF71CF81D4C0DE03046214603F0B4FE30
:1051A00007463046214603F093FD01463846FCF79A
:1051B0000DF8154C164903F04FFE049903F04CFE10
:1051C0000146204603F084FD044600210B9803F0BD
:1051D00024FD002801D0069844400E49204603F0E3
:1051E0003BFE0C900F480C9901600DB0F0BDC0461D
:1051F000DF59375F780520207405202070052020B6
:105200002000202017B7D138DB0F493FDB0FC93F03
:10521000DB0FC9BFE02E6542BC032020000080BF29
:10522000B8032020C003202082B0FEF7DFFC00F08E
:10523000CFFDFEF757FE1648FDF75AFEFDF744FC7A
:10524000FDF7CAFAFDF776F83F2001061148124A29
:10525000124BFDF709FD0024022000900194012665
:1052600075020F480FA12A46234603F0B9F801281A
:105270000CD1009601940E480EA12A46234603F055
:10528000AFF8012803D102F015FEFEE7FEE7FEE7C6
:105290004802202004002020CDCCCC3DCDCC4C3D7C
:1052A000F93D000053656E736F725461736B0000BB
:1052B0008D280000446973706C61795461736B00D0
:1052C000F0B583B00F460646AC48056862480068F2
:1052D0000290624800680190A64C2068001D02F010
:1052E0006DFB701C15D1002F13D0206859490CC9D3
:1052F000836098682568E860521C08390A60226853
:10530000121D42602068001D98602068416103B052
:10531000F0BDAE19206846602068011DAE4204D27F
:10532000019802F082FB03B0F0BD029802F07DFB11
:10533000914801688E4200D2066003B0F0BDC046BD
:10534000F0B581B0044602F08FFB5F480168491C4C
:105350000160884F396800290AD03A48006800285F
:1053600047D1E06A3968C96A814242D83C6040E06E
:105370003C60006801283CD17D4D284602F04AFB84
:105380002846143002F046FB2846283002F042FB43
:1053900028463C3002F03EFB2846503002F03AFBF3
:1053A0002846643002F036FB2846783002F032FBA3
:1053B00028468C3002F02EFB2846A03002F02AFB53
:1053C000B435284602F026FB1F4D284602F022FB8A
:1053D0001E4E304602F01EFB1D4802F01BFB3948F2
:1053E00002F018FB1B4802F015FB1B4805601B4828
:1053F00006601B480168491C61640160E06A5B4902
:105400000A68904200D90860142141435848425824
:10541000521C425040184168A1608A68E260606195
:10542000201D5060886002F029FB064800680028B3
:1054300006D0E06A3968C96A814201D202F070FC84
:1054400001B0F0BDF43E2020943E2020A83E202054
:10545000E03E2020003F202098042020A0042020AF
:1054600094352020F0B581B0154D2868002823D050
:10547000144E154F05E0204602F012FB2868002864
:105480001AD002F0F1FAF068C468201D02F096FA12
:105490003868401E38602868401E286002F0EEFA26
:1054A0006520205C0228E9D00128E4D0002805D13D
:1054B000206B02F0F5FADEE701B0F0BD72B6FEE750
:1054C0008C352020143F2020883520200124274DB2
:1054D000274E284F01E003F049F9FFF7C3FF286882
:1054E000411E88413168012901D8002100E00121D5
:1054F0003A68D26A002A224600D10A46002A21468A
:1055000000D101460029E8D11B4800681B49096801
:10551000401A0228E1D31A490868401C086016485E
:1055200000681649096888421ED32868411E8841D0
:105530003168012901D8002100E001213A68D26ACE
:10554000002A224600D10A46002A214600D10146FF
:105550000029C0D10848006808490968401A022893
:10556000B9D302F03BFBB6E772B6FEE798352020D0
:10557000A804202090042020CC3E2020283F20207A
:1055800090352020F0B583B002930F4601900A9C1D
:10559000206B9600A5223146FAF76EFF206B089D1E
:1055A000002F41D0214634313A780A70002A39D090
:1055B0007A784A70002A35D0BA788A70002A31D0B9
:1055C000FA78CA70002A2DD03A790A71002A29D0B7
:1055D0007A794A71002A25D0BA798A71002A21D0B5
:1055E000FA79CA71002A1DD03A7A0A72002A19D0B3
:1055F0007A7A4A72002A15D0BA7A8A72002A11D0B1
:10560000FA7ACA72002A0DD03A7B0A73002A09D0AE
:105610007A7B4A73002A05D0BA7B8A73002A01D0AC
:10562000FA7BCA730022CA730A2D01D372B6FEE751
:105630008019061F07208643099FE564E562201D47
:1056400002F0F0F92046183002F0ECF90A20401B75
:10565000A0616462246130460199029A00F082FAE6
:105660002060002F00D03C6003B0F0BDF0B583B0E7
:10567000044602F07DFF224A1168884231D201942B
:105680000290AA4C07E029462831FA2210400870FF
:10569000296A2846884720680168002923D0C06805
:1056A0000768C5682E1D304602F088F92820285C5E
:1056B0004107E8D5A869C4196C602D61BC4209D3C3
:1056C000296A28468847A869001968602D61A042A8
:1056D0000446F5D296480068314602F0A6F9934C8C
:1056E000D6E7002107E092490A682260086001219C
:1056F0000298019C024A1060216003B0F0BDC046D0
:105700008C04202081B0002000900A48006872B606
:10571000401C09D0FEE70098002808D10098002816
:1057200005D10098002802D100980028F3D001B0DC
:105730007047C0462C00202086B07E4E7B48006813
:105740000568002D02D0C068076800E0002702F05D
:105750003FFC03A8FFF78AFF04460398002802D005
:1057600003F004F847E0002D28D0A74226D802F025
:10577000FDFF6E480068C068C568281D019002F0F2
:105780001DF92820285C41070CD429462831FA222B
:10579000104008702CE0E11B814223D3296A28467F
:1057A00088473746A869C6196E602D61A642F2D9AE
:1057B000BC4201D2BE42F1D25C4814E0002D01D0BF
:1057C000002204E05A480068006842424241391B06
:1057D000306802F0B1FA02F0C9FF00280BD102F0E4
:1057E0009FFA08E052480068019902F01EF9514EF4
:1057F000296A28468847002205920492039230685D
:1058000003A906E0386802F010F94A4E306803A98F
:10581000002202F0F8FC002890D003980028F5D46C
:10582000059C002CF2D06069002802D0201D02F0F7
:10583000C5F802A8FFF71AFF05460398401E08287E
:10584000E4D8C046784400794000874404043823F3
:105850005504043823002820225C012111432154DF
:10586000A069049BC61866602461211DAE4205D95B
:105870009D422E4FC6D29E4204D2C3E7EB1A83420A
:105880002B4FBFD3530720D420462830FA210A409B
:1058900002703EE02820215C01220A432254049831
:1058A000A06100283FD0401960602461A8421F48D1
:1058B00000D81F480068211D02F0B7F8A6E728208D
:1058C000215CFE220A402254A0E7019104990918A4
:1058D00007E0691A814217D3216A20468847A069E8
:1058E00031460E1866602461AE42F2D98D4201D273
:1058F0008E42F1D20D4808E02820205C81070DD4AB
:10590000204602F0CDF881E709480068019902F0CD
:105910008CF8084E216A2046884777E72834FE2114
:105920000840207072E772B6FEE7C046940420205B
:10593000A40420202C3F2020F0B581B00446064668
:10594000443602F091F801203756012F12DB25462C
:10595000243504E0781E79B2012907460ADD28685B
:10596000002807D0284602F09FFE0028F2D002F05F
:105970006DFAEFE7FF25757002F080F802F074F819
:1059800000203756012F11DB103404E0781E79B265
:10599000012907460ADD2068002807D0204602F0CA
:1059A00083FE0028F2D002F051FAEFE7357002F0E2
:1059B00065F801B0F0BD0000F0B583B001460831D4
:1059C000002509290BD307220346134006D0093BC3
:1059D000994204D890431030054600E00D4602F08D
:1059E000F7FA59490E68002E02D0584803681BE0A8
:1059F000574C002060600722D343564E7207324650
:105A000001D0F21D1A4022600324240334191C40E3
:105A1000083C0C6020606060A31A53604E4803602D
:105A20004A4803600E681660012200249D42104619
:105A300000D820460093012D114600DB214601438A
:105A400005D002F093FE600737D072B6FEE74348F8
:105A500040490F183E4802900068B84201D8002122
:105A600000E001213B4B9842134600D30B46002B2C
:105A700001D072B6FEE743680024AB4220D2016831
:105A8000002937D002900846B94201D8002100E031
:105A90000121304B9842134600D30B46012B35D0E1
:105AA0004368AB4201D3002100E001210191AB42E8
:105AB00007D201680029E5D103E0204603B0F0BD1C
:105AC0000194B042BDD0029E34680834BC4201D873
:105AD000002100E001211F4FBC4200D30A46012AE9
