:020000040000FA
:10000000A8602020D9010000DD010000DF01000010
:1000100000000000000000000000000000000000E0
:100020000000000000000000000000004137000058
:100030000000000000000000F1360000B5400000A4
:10004000E7010000E7010000E7010000E701000010
:10005000E7010000E7010000E7010000E701000000
:10006000E7010000E7010000E7010000E7010000F0
:10007000E7010000D9400000E7010000E7010000AF
:10008000E7010000E7010000E7010000E7010000D0
:10009000E7010000E7010000E7010000E7010000C0
:1000A000E7010000E7010000E7010000E7010000B0
:1000B000E7010000E7010000E7010000E7010000A0
:1000C00000F002F800F05CF80CA030C808382418E2
:1000D0002D18671EA246AB4654465D46AC4201D180
:1000E00000F04EF87E460F3EB6460FCC0126334256
:1000F00000D0FB1A3343A246AB46184714BA00009F
:1001000034BA000000000000103A02D378C878C169
:10011000FAD8520701D330C830C101D504680C6049
:100120007047000000000000002300240025002686
:10013000103A01D378C1FBD8520700D330C100D5A3
:100140000B60704710B5662902D10AF0CBFF10BDD5
:10015000642902D100F082F810BD752902D100F0A7
:100160007DF810BD002010BD1FB501F0B9FB0400E3
:10017000002000210AF0EAFDE0601FBD10B510BDAF
:1001800001F0E6FF1146FFF7EFFF07F01BF801F063
:10019000FEFF03B4FFF7F2FF03BC02F0B3F8000068
:1001A00070B505460C46164602E00FCC0FC5103E52
:1001B000102EFAD2082E02D303CC03C5083E042E1B
:1001C00007D301CC01C5361F03E021782970641CD8
:1001D0006D1C761EF9D270BD06480047FEE7FEE7AB
:1001E000FEE7FEE7FEE7FEE703480449024A044B48
:1001F00070470000C1000000A8402020A860202017
:10020000A84020204343514330B55C18010C130C27
:100210000D4692B25D4380B251432C1905465543B9
:100220000A0C09044D1962415843010C000440199D
:10023000514130BD0FB41CB5074B06AA7B4469463B
:100240000090059801F01FFB0020694601F02EFB8D
:100250001CBC08BC04B018476D160000F7B500259B
:1002600075291068009914A611D0C046C046002810
:1002700002DA404211A608E0009909688A0701D510
:100280000FA602E0490704D50EA6012501E0C046ED
:10029000C046009F0024243704E001F00CFB3031FD
:1002A0003955641C0028F8D12B4632462146009867
:1002B00001F081F8FEBD0000000000002D000000EC
:1002C0002B00000020000000F3B50446002081B0A0
:1002D00020622046E168884700287AD0252802D08D
:1002E0006268A16871E0E1682046002588470646FB
:1002F0000020E0610746A0612A2E0AD030460AF0AD
:100300001DFD002827D0B8000019303E00908661FE
:1003100019E00298BA00121902C8916102902046B1
:10032000E1688847012F064617D1E06900281FDAE7
:10033000202085431CE000980A21806948430099E9
:100340008019303888612046E168884706460AF0FF
:10035000F5FC0028EFD1012F0AD02E2E08D120461F
:10036000E16888470646202005437F1C022FC3DB37
:10037000A069002803DA4042A06101200543E80794
:1003800001D010208543002E23D030464138192853
:1003900003D80120C002054320362046256031469F
:1003A000029A1546FFF7CEFE00280BD0012806D092
:1003B000ED1DE808C000083002908AE709E02D1D15
:1003C000029586E762683046A1689047206A401C23
:1003D0007EE7206AFEBDF8B5042A2CD3830712D02D
:1003E0000B78491C0370401C521E83070BD00B78FE
:1003F000491C0370401C521E830704D00B78491C13
:100400000370401C521E8B079B0F05D0C91ADF00DA
:100410002023DE1B08C90AE0FFF7C2FEF8BD1D4617
:1004200008C9FD401C46B4402C4310C0121F042ACA
:10043000F5D2F308C91A521EF0D40B78491C037088
:10044000401C521EEAD40B78491C0370401C012A40
:10045000E4D409780170F8BDD2B210B513029A182D
:1004600013049A1800F001F810BD01E004C0091F40
:100470000429FBD28B0701D50280801CC90700D05C
:100480000270704700290BD0C30702D00270401CD5
:10049000491E022904D3830702D50280801C891ECD
:1004A000E3E70022EEE70022DFE700000022030975
:1004B0008B4273D3030A8B4258D3030B8B423CD33A
:1004C000030C8B4221D312E003460B437FD400225E
:1004D00043088B4274D303098B425FD3030A8B42D8
:1004E00044D3030B8B4228D3030C8B420DD3090258
:1004F000FF2212BA030C8B4202D31212090265D0FA
:10050000030B8B4219D300E0090AC30B8B4201D3C2
:10051000CB03C01A5241830B8B4201D38B03C01A09
:100520005241430B8B4201D34B03C01A5241030B80
:100530008B4201D30B03C01A5241C30A8B4201D331
:10054000CB02C01A5241830A8B4201D38B02C01ADC
:100550005241430A8B4201D34B02C01A5241030A53
:100560008B4201D30B02C01A5241CDD2C3098B4238
:1005700001D3CB01C01A524183098B4201D38B01B5
:10058000C01A524143098B4201D34B01C01A524158
:1005900003098B4201D30B01C01A5241C3088B429D
:1005A00001D3CB00C01A524183088B4201D38B0088
:1005B000C01A524143088B4201D34B00C01A52412A
:1005C000411A00D201465241104670475DE0CA0F01
:1005D00000D04942031000D3404253409C460022C1
:1005E00003098B422DD3030A8B4212D38901FC22CB
:1005F00012BA030A8B420CD3890192118B4208D3A1
:10060000890192118B4204D389013AD0921100E002
:100610008909C3098B4201D3CB01C01A5241830916
:100620008B4201D38B01C01A524143098B4201D343
:100630004B01C01A524103098B4201D30B01C01A6E
:100640005241C3088B4201D3CB00C01A52418308E8
:100650008B4201D38B00C01A5241D9D243088B423E
:1006600001D34B00C01A5241411A00D201465241F7
:10067000104663465B1001D34042002B00D549422F
:10068000704763465B1000D3404201B5044900281F
:1006900002DC491C084000E00846C046C04602BDD6
:1006A000FFFFFF7F7047704770470000F0B50C46B2
:1006B000871A9C410D46861A9D4103D2C01BA14159
:1006C000D21963410D0D1F0DC94EEC1BAE435CD01A
:1006D0007F057F0D0026002F51D02D05AC46A94384
:1006E000DD020123ED0A1B051D4320231B1B24D41F
:1006F0001746E740381871412F46E740CC199D4016
:100700002818314661410C0D27D161449A4013D518
:100710000023401C594152000ED1400840000122E4
:100720004B005205D34207D305204007C14201D5F3
:10073000B04900E0B0493046F0BD6B00002A00D05F
:1007400001229A181F23203C1B1B01D5002302E025
:10075000E540281871410C0DD7D001242405091952
:10076000C407CD0740084908E40F28436144002C22
:10077000D5D00024401C61419A40D0D1CDE76A0514
:10078000520DD9D1C90FC907D5E79C4D4E0000289D
:1007900001D0012400E0002434195F00002A01D0B8
:1007A000012600E00026BE19954FAC420CD8AE429F
:1007B0000AD8B44206D001256D05EC42BCD01046E3
:1007C0001946F0BD9942FCD000203946F0BDF0B585
:1007D0001FB40C460F46811A9F412546861A9D413B
:1007E00006D20125ED076F40401ABC4152187B41EB
:1007F000210D1E0D8D1BAC467D4D8D437ED07505A4
:100800006D0D7CD00D05AE46AC431B031B0B794D23
:1008100052429D41202366469B1B14D31746F74046
:10082000381800260090744160462F460741E419AD
:1008300000989D402818664116D4714671189A4058
:1008400025D5012320E093182A466A415200002B47
:1008500000D0521C1E23203E9B1B002B61DD354126
:10086000EE1728186641E8D5001876415B1C9A40BF
:1008700000D3401C4B05F3181524E34010D3002B84
:1008800052D071467118D30FC01802D3491C05B05D
:10089000F0BD0123DB079A42F9D140084000F6E79A
:1008A00001225205B21801D1002853D00123CC0AED
:1008B000DB029943891E002A08D1020C03D0020CE6
:1008C0000004103902E00246002020390023550BB5
:1008D00005D112020823550B01D152010D23550CED
:1008E00001D112011B1DD50C01D192009B1C150DCD
:1008F00001D152005B1C2025EE1A01E02CE022E021
:100900000546F54015439840CA1AE10769181305D2
:10091000C918002ABBDA032040070818C10FC9070D
:100920000FE071466118B2E7F10740080843711003
:1009300071444A000CD001235B059A42A7D2C90F2B
:10094000C9070020A3E74905490D26D1002001E091
:100950000028F4D100219AE7284D6600002801D034
:10096000012100E0002171185F00002A01D001265A
:1009700000E00026BE19224FA94210D8AE420ED880
:10098000B14208D001256D05E94206D01946A802FA
:10099000414010467BE79C4201D0214677E700208A
:1009A000394674E710B50C465C4005D50124E407D0
:1009B0006340FFF70CFF10BDFFF778FE10BD30B4A9
:1009C0000C465C4004D50124E407634030BC6DE66E
:1009D00030BCFCE670B50124E40761400D465D4083
:1009E00002D4FFF763FE70BD6340FFF7F0FE70BDF9
:1009F000FF0700000000F0FF0000F07F0000E0FFB4
:100A00000000F87FF0B5F94D0C091E092C402E406E
:100A10002F468BB0A7437DD0B543FCD0002E7AD0B3
:100A2000002CFCD00D465D40ED0F2543AC1BFF258F
:100A3000AD0464190894C502440DC9022143500D48
:100A4000DC0204430120C00701430443D2020191A8
:100A5000200C110C00958C46010423468B430A910F
:100A600061460904E24D8A430991010A7D4449190E
:100A70008039097805464D4301266D18F605751B2A
:100A80006943C90C640B891C4C436418B5012C1BC9
:100A9000250C2E04B4434C434D43210C691889099D
:100AA0000591009DE90701D00121C90704912C4659
:100AB00001996708CD072F434C08059DE10B4D4375
:100AC0002D0C29466646754302950D4645432E4634
:100AD000029D7D1BB44100950D465D4301942C0C95
:100AE0002F040D465543AE462D0C3D43029503940D
:100AF0007546049C2D04641B049406D2029C039D3D
:100B0000641C002675410395029401AC70CC009FD3
:100B10007D1B01E03EE162E1B441090400950791CB
:100B200001940599A4086143090C0C464443650BE4
:100B3000E7040C4666467443A646640B3C430395A3
:100B400002947446049DE4042C1B049406D2029C77
:100B5000039D641C002675410395029401AC70CC82
:100B6000009F7D1BB44101940C465C430095650FCA
:100B7000E7000C465443A646640F3C430395029499
:100B80007446049DE4002C1B049406D2029C039D31
:100B9000641C002675410395029401AC70CC009F43
:100BA0007D1BB441AE09AF06049DC900AD092F43BA
:100BB000049DA406AD060495079D3443691807916A
:100BC000059DE10B4D432D0C294666467543029564
:100BD0000D4645432E46029D7D1BB44100950D46B2
:100BE0005D4301942C0C2F040D465543AE462D0C4D
:100BF0003D43029503947546049C2D04641B0494A4
:100C000006D2029C039D641C002675410395029444
:100C100001AC70CC009F7D1BB44101948C050694FF
:100C2000079C890A611800950791019C0599A40801
:100C30006143090C0D464543680BEF040D466446BD
:100C400065436C0B3C43049FED047D1BAC4602D214
:100C50000025641C6841009E019D371B85410846A4
:100C6000584301950C46460FC5005443600F284376
:100C70006546E4002C1B02D20025401C6E41019DFC
:100C80003F1AB5412846BD09800628438446A0097D
:100C9000BF064E020699A40676180743079D00205A
:100CA00068410A99079019430020099B009060460B
:100CB000FF1913434041E20F64003A43A44604463F
:100CC000D71A8C41A04203D90120009020463A4611
:100CD000C70F941840416246D20F22436446640015
:100CE0000494009CBE466400D71AA44604460297AA
:100CF0008C417746002F01D1A04204D96046401CA8
:100D00008446029A2046C40FA64694184041049A8D
:100D10000546D20F224364466400D31A8D417146C2
:100D2000002901D1A84202D928461A46641C104362
:100D30000122002800D0164361020020079B891978
:100D400004465C410223002C02DB4918134664412F
:100D5000089DCE0A2D145D194B056705E10A2C0587
:100D60000D1908993E43C9076940002B08D09340EC
:100D700006D30022761C5141002B01D17608760063
:100D80001C4A002D43DB154241D0AA433FD03046D8
:100D90000BB0F0BD06180D464D41174C7642AC41E4
:100DA0001AD395181C465C41134A6D42A24113D3D5
:100DB000012252054C00D4420AD15C00D4420BD02F
:100DC0004B4002D592021143E2E749004908DFE7B0
:100DD0005940C90FC90718E000200849D8E705485D
:100DE00001420DD10342F7D0F2E700000000FF07F7
:100DF00084A600000000F07F0000E0FF0000F87F04
:100E0000114859400143C01241400020C0E701236E
:100E1000089A9B069A4205DC032252078918C90FDB
:100E2000C907B5E7052252078918074A1143D212AC
:100E30005140ADE770B515461C4602460B462846A4
:100E40002146FFF7DFFD70BDFFFFFF7F30B5034692
:100E5000CA02400D1043164D164C0A1502D020430D
:100E6000002A06DBAA1A002A12DDD040FF2A0BDC7A
:100E700030BD5205520D01D140004008AA1A07D4D6
:100E8000D0404042FF2A01DD002030BD0028FCDDBB
:100E90004A00002B01D0012000E0002010180122A0
:100EA0005205D042F0D8C817C043604030BD0000A2
:100EB0001E040000000000801F22030C02D10F223C
:100EC000000402D0030E03D004E000200146704766
:100ED0000002083A030F01D10001121F830F01D154
:100EE0008000921E002801DB4000521E120551189E
:100EF0004205C012411810467047C10FC90700D003
:100F00004042012292071143D6E701218907D3E726
:100F1000F0B58B4C0F09254689B0BD437BD01D0928
:100F20002646AE43FAD00E465E402740F60F3E43BB
:100F3000254071D024012142FBD0FF24AD19A40427
:100F40002D1B039501252D05DB02DB0AC9022B436E
:100F5000C90A29431E010901040F130F050121438A
:100F60001701880B820391432D098C46A90B1E4360
:100F70008A039543B30B9A0396433F09BA0B940334
:100F8000A74302962E467E430497B6464E19D719BC
:100F90000C460196544305977E43371B7646BF1B8C
:100FA0003601B646BE0B361900967646BC04371994
:100FB000009C01D3641C00946400002F01D0012622
:100FC0003443029E049F754366467E430496760032
:100FD00034196E0034190094029C019E1C1966435A
:100FE000751BAE46069465464519059C05956C43F0
:100FF000594375460891691A0191049E014651436F
:10100000A41B0491611A009C0791E10605D06109B7
:101010000122114302E072E06EE06109089D0027A1
:101020002C0A2D066918049D7C412A0A2D06691890
:10103000019D6241AC0DAD026D185441079A910DAE
:10104000920255196141029A644658435443069BE3
:10105000059A5A43121A131B9A0E9B015B187A4188
:10106000010B0005C3185141220A200644195A41B8
:101070009A4200D2491C01204002814203D3152329
:101080000226F64302E014230326F6432020C51A65
:10109000A9401746AF40DA400A4320460399D8409A
:1010A0000914731819055118039A3843D20751408F
:1010B000AC4009D00122944006D30022401C51418B
:1010C000002C01D1400840001E4A934212D3012255
:1010D00003989206904207DB0520400709181A483A
:1010E0000143C012414004E0032040070818C10F2B
:1010F000C907002009B0F0BD0020F107FAE7051884
:101100000C464C4111486D42A04115D394181A4623
:101110005A410E48644290410ED301204A004005D6
:10112000824209D35A00824206D35940C90F084A65
:10113000C90700201143DDE700200649DAE7000077
:101140000000FF07FE070000FFFFFF7F0000E0FF39
:101150000000F07F0000F87F0121C905012341183C
:1011600042001B06D3185B0E0AD0C1100722D2061C
:10117000891840075242D14201D552008918704760
:10118000090208D50146002A03D0C10FC907002073
:10119000704710467047420202D000200249704753
:1011A000072109050143F4E70000F87FF0B5FF25AA
:1011B0002D04C609C209FF2704462E400137CB097A
:1011C0003E4348402A402B400746002A6BD0002B64
:1011D00069D0AA4267D0AB4265D0002800DA324617
:1011E0000125ED0529432C4309022002090AD21AE0
:1011F0004B0C7F24E31A434C000A7C44E35C7D24BF
:101200002404121914145B00A218884201D3521C42
:1012100000E0400049420C465C4324115C43DB0182
:101220006415E318040A5C43C502200D0C464443D0
:101230006419250A5D432303EC0C0D466543000346
:101240000019EB184C42A34201D35B18401CD40593
:101250002018002B07D05B00C91804D3401C0029BC
:1012600001D1400840003F2189048A4209D3002A65
:1012700008DC1106090F04D0032149074018C00FEC
:10128000C007F0BD01224100120689187F225206D4
:101290009142F6D205214907C84201D59010F0BD10
:1012A000FF20C005F0BD002F00DA32461648AA42E2
:1012B00007D2AB4205D21902090E17D0F80FC007AA
:1012C000F0BDFF2563002D06AB42F9D84900A942C5
:1012D000F6D8AB4201D1A942F2D0A94201D10021F6
:1012E00001E061004908D0050843F0BD1102090E74
:1012F000FBD0FF200243D005F0BD0A460146104650
:1013000054E70000769F00000000C07F10B5014642
:101310009E240002CA15A307002A02D01843002AFF
:1013200004DBA21A002A0CDDD04010BD1206120EFA
:1013300001D140004008A21A03D4D0404042002806
:10134000F3DDFF2248001206904201D9002010BDB3
:10135000C817C043584010BD1F22030C02D10F22F2
:1013600000041CD0030E01D10002083A030F01D182
:101370000001121F830F01D18000921E002801DBA3
:101380004000521ED20551180212511819229040E5
:1013900004D3491C002801D1490849000846704778
:1013A000C10FC90700D04042012292071143D3E781
:1013B00001218907D0E7FFB504460D4681B02430EE
:1013C00000902168880604D51022E06991432160CD
:1013D00000E00120A84201DD471B00E0002704983F
:1013E000A1697A191018081AA0612078C00602D4E1
:1013F0002046C046C046002608E003986268A168FF
:10140000805D9047206A401C761C206204988642CA
:10141000F3DB2078C0060AD52046C046C04606E069
:101420006268A16830209047206A401C20623846DC
:101430007F1E0028F4DC07E000986268A168405D28
:101440009047206A401C206228466D1E0028F3DC6D
:101450002046C046C0462078000602D5022005B0CE
:10146000F0BD0120FBE70000FFB50C461E468FB023
:1014700003CA089009914F007D0D00D16D1E002117
:1014800008460020C0460321099A89050840002A21
:1014900003DA8200801840080840800D01280A9075
:1014A00002DD0020C0430A90089807430DD0F048A1
:1014B000F049281848430714189800281DD0754291
:1014C000291E1DDD0A9842421BE01898012802D00F
:1014D0000020302104E00020F24305E02154401CAC
:1014E000B042FBDB30460022189B002121540F99AB
:1014F0008B600A60486013B0F0BDBD1B6D1CDFE758
:101500000A9A002900DA69420BA800F06FFA0BABC7
:1015100007CB03AB07C30899099800F0D3FA6B46D1
:1015200007C30146D4480918002D00910BDDD249AC
:1015300003980A9A49424018002303A90390684679
:1015400000F030FD08E003990A9A0023081803A967
:101550000390684600F0D0FC6B4607C30004000C03
:1015600003D00020C043410800E01046189A002A2A
:1015700003D00022009215461EE0751E05D400F02F
:10158000B3F9303262556D1EF9D501220843079632
:1015900002D000227F1C04E02078302801D10022F4
:1015A0007F1E002A069787D01EE0112D07DA00F073
:1015B0009BF9303262556D1C02460A43F5D108434F
:1015C00003D00098002819D00EE00021681E05E025
:1015D000235C625C63542254401E491C8142F7DB49
:1015E000A81B401E07950690079A18990020A05442
:1015F0000F98079B069A81600CC07CE7112600209B
:10160000189059E7D21DF0B50D460446D10893B0A5
:10161000C90003C90C900D9109F036FB02460D98E4
:10162000C00F01D02D2007E02068810701D52B20B5
:1016300002E04007C00F4001032A0F9001D0072AA3
:1016400005DB03462946204600F08CF90EE12078A0
:10165000800601D5E76900E006272846652D04D0FD
:10166000662814D0672D69D12DE00020112F00903D
:1016700001DB112300E07B1C0CAA03A910A8FFF7D3
:10168000F3FE1199002610987D1C0E9142E0012076
:101690003B460CAAC0070B900120009003A910A89C
:1016A000FFF7E2FE119D12981099002600280E9572
:1016B00001D1781C0D18781B02D446427D1C761E81
:1016C000E81B00903AE0012F00DA01270020112FDB
:1016D000009001DD112300E03B460CAA03A910A8ED
:1016E000FFF7C2FE11993D46109800260E91217811
:1016F00009070BD40E99A94200DA0D4603A9012D62
:1017000004DD4A19203AD27F302A06D0B84201DAE5
:10171000011D04DA012100910FE06D1EEFE70028A2
:1017200002DC86192D1A03E0411CA94200DD0D469A
:10173000801B401C00900120C0070B902078000700
:1017400005D40098A84202DB0020C04300906946FF
:101750000020C8720B98012102AF0337C9078842E5
:1017600025D0022010902B2011900B9800280BDA26
:1017700040420B902D20119006E00B9800F09BF852
:1017800030317F1E0B9039701099481E002910903F
:10179000F3DC0B980028F0D111987F1E3870208858
:1017A000000501D5452000E065207F1E387001A8A6
:1017B000C01BC01D0B900F98002800D001204119BC
:1017C0000098C01709180B980818A169081A401E3C
:1017D000A0612078C00602D42046C046C0460F98BB
:1017E000002805D06268A1689047206A401C2062EA
:1017F0002078C00625D52046C046C04621E0002EF0
:1018000007DB0E98B04204DD03A86268805DA16822
:1018100002E06268A16830209047206A761C401C74
:1018200020620098401E002800900AD100F058F86D
:10183000C06862680168405CA1689047206A401CEB
:10184000206228466D1E0028D9DC07E062683878DF
:10185000A1687F1C9047206A401C20620B99481E9B
:1018600000290B90F2DC2046C046C046032042E629
:1018700001FCFFFF104D0000E1DFFFFF01694A1C82
:1018800002610878704700B58FB002910021059180
:101890000549019379440391114604906846FEF787
:1018A00013FD0FB000BD0000E5FFFFFF0A681070D8
:1018B000521C0A60704701468008081A0209101875
:1018C000020A1018020C1018C008820012185200E8
:1018D000891A01E0401C0A390A29FBD2704700002E
:1018E00000487047500020200B4670B5024689071B
:1018F0008008084319469D08141AA94125090807BC
:10190000054308092C194841250A01060D43010A1F
:101910002C194141200C0D0428430D0C00194D4198
:10192000002140194D41C00869070843E908840FA8
:101930008D002543840024184D4124196D41121B4C
:10194000AB4107E00925ED432C11521963410024F6
:10195000401C61411C460A250026551BB441F1D2AA
:1019600070BD0000F8B51F46044601230068DB0285
:10197000032601461840072A05DB002801D017A5D9
:1019800006E017A504E0002801D016A500E016A582
:10199000102081432160A069C01E002FA06101D0EA
:1019A000401EA0612046C046C046002F09D03846E0
:1019B0006268A1689047206A401C2062C01C2062B7
:1019C00006E0206AFAE762682878A1686D1C9047F3
:1019D000761EF8D22046C046C046F8BD4E414E00A5
:1019E0006E616E00494E4600696E6600F7B5164698
:1019F0008AB0334878446C4603467C33C06F5A68DB
:101A00009B680DC42E487844763003AC0DC80DC4D5
:101A10003720C001081837211B30FEF755FD054659
:101A20000C46803D1B3C02D56442012000E00020B2
:101A30000027099010E0E0070CD00C2020497843E3
:101A4000794432464C3941186846012300F054FA73
:101A50006B4607C364107F1C002CECD1184F7F44E9
:101A60002E3F16E0E80712D02001C0190EC80691DB
:101A7000089307920068F04201D198190890324605
:101A8000012306A903A800F037FA03AB07C36D10C2
:101A9000641C002DE6D10998002806D0324669461C
:101AA000012303A800F07EFA05E0012332466946CF
:101AB00003A800F021FA0A9B07C30DB0F0BD000097
:101AC000BC970000034640000A4610B5400D0BD0FD
:101AD0000121C9070F24A40200191C036408214333
:101AE000540D2143D20207E000210120F2E7D40F78
:101AF000490021435200401E0029F8DADB0FDB07C2
:101B0000184310BDFFB50D46144685B048685168AE
:101B100009F0A1F800910190A868A16809F09BF86C
:101B200002910390A868616809F095F8029A12186A
:101B30008242029201D2012000E00020019A0B189B
:101B4000D2180028019202D08A4202D903E08A42C8
:101B500001D2012000E00020009908180090686878
:101B6000A16809F078F8029A12188242029201D212
:101B7000012000E00020019A0B18D21800280192E1
:101B800002D08A4202D903E08A4201D2012000E059
:101B9000002000990818009028682168400049003A
:101BA000400849084018FA49471814E001994000D4
:101BB000C90F08430090019802994000C90F0843DB
:101BC0000190029803994000C90F084302900398BE
:101BD00040007F1E039000980028E7DA089800284C
:101BE00001D0EC4E00E00026B74201DA012000E00F
:101BF0000020002804902AD0F71BF806C00E15D04C
:101C0000029B2021091A039A8B401A430392029ADD
:101C1000019BC2408B401A430292019A009BC24032
:101C20008B4000991A430192C14000917B110DD065
:101C30006F460320C11A03D500218200B95003E08A
:101C40008A008100BA587A50401EF3D5374603986F
:101C50000299002800D00120014308980291002831
:101C600008460CD0002800D001200199019A4905AE
:101C700008430121D20AC902D202019200E00121E7
:101C80000E9B0122D207012B02D0002B03D013E0C0
:101C9000002807D120E0904204D890420CD1019B4B
:101CA0000B4209D0019B5918019105D10099491C9B
:101CB000009101D17F1C009200280DD01021084610
:101CC0000020C0460498002806D00F98002803D0B2
:101CD000082108460020C04628682168019B009A18
:101CE0004840C10F0598C90739430EC009B0F0BD7F
:101CF000FFB587B0099A08980899536892684068B8
:101D0000896896460022039317469446089A1268FB
:101D10005300099A5B081268520052089A1A9E4BA7
:101D2000D4180A9A002A01D0352200E040220692F7
:101D30000022012315460492DB07059324E0002DC1
:101D400005D175460346039E4D1BB34109D3754625
:101D50006646039B491B049D9841059B7519AC463B
:101D60005F4163463B4308D0059B049EDD07760830
:101D70002E435B080496059301E0521E641EC50FB6
:101D8000ED0749184041521C069B9A42D7DB002DB3
:101D900004D17546039A6B1A824101D203200CE0EC
:101DA000039A0B466B404240134303D0014303D0D8
:101DB000012002E0022000E00020614601910021A4
:101DC000009702910A99002905D06146400201431B
:101DD000704B019102E08007002302909C4201DADF
:101DE000012000E0002007003AD01A1BD006C00EE8
:101DF00015D0029D2021019C091AC5408C40254325
:101E0000029C8C4000D001242543019C0295009D3A
:101E1000C4408D4000992C430194C140009154115D
:101E20001DD06D460221002202290CD10320001B87
:101E300007E0002804DB8600AE59002E00D0012206
:101E4000401C0328F5DB081B02D588002A5004E05B
:101E50008000285810438A00A850491EE3D51C462C
:101E60000A98002802980CD0002800D0012001997F
:101E7000019A490508430121D20AC902D2020192FE
:101E800000E00121109B0122D207012B02D0002B80
:101E900003D013E0002807D11FE0904204D89042FD
:101EA0000CD1019B0B4209D0019B5918019105D11E
:101EB0000099491C009101D1641C009200280CD0AB
:101EC000102108460020C046002F06D01198002897
:101ED00003D0082108460020C04608980999019AB5
:101EE000009B006809684840C10F0798C907214353
:101EF00082600AC00BB0F0BD00B585B001930092BE
:101F00000A460146002302A8FFF7FCFD02A807C805
:101F100005B000BDFFB50A461F4685B0079901937D
:101F200001230091014602A8FFF7ECFD02990398F6
:101F3000049ECA0F4900D20700920F22490892025C
:101F40008C1A0021002800DB0C46450013486D0860
:101F5000844214D3079A002A04DA441E0026104D46
:101F6000F64302E004460D460E46102108460020C6
:101F7000C046002F03D0042108460020C04620059B
:101F8000E90A0843009908436905F20A1143ADE6DE
:101F900002C0FFFF013C0000FF3F0000FF07000000
:101FA000FFFFFF7F00B585B0019300920A4601460E
:101FB000002302A8FFF79CFE02A807C8A8E7FFB508
:101FC0000A461F4685B007990193012300910146F7
:101FD00002A8FFF78DFE02990398049ECA0F4900DC
:101FE000D20700920F22490892028C1A0021002881
:101FF00000DB0C46450011486D08844214D3079A53
:10200000002A04DA441E00260D4DF64302E0044681
:102010000D460E46102108460020C046002F03D072
:10202000042108460020C0462005E90A084300991B
:1020300008436905F20A114358E60000FF07000053
:10204000FFFFFF7FF8B5264C4E00069DA6420AD83A
:10205000A64201D1002806D15E00A64203D8A642BE
:102060000AD1002A08D00D242404254233D0294661
:10207000002000F0EDF8F8BD0C461C4311D4994245
:1020800007D0C81A02D3EFF30080F8BDEFF3008049
:10209000F8BD801A02D3EFF30080F8BDEFF30080A3
:1020A000F8BD09242407E5008B4207D0581A02D353
:1020B000EFF3008006E0EFF3008007E0101A03D38F
:1020C000EFF30080A04303E0EFF30080A043284338
:1020D00080F30088F8BD009500F0D2F8F8BD00004C
:1020E0000000E0FF10B5FF231B0644009C421DD8F2
:1020F0004C009C421AD80346124A0B4307D4401A9C
:1021000002D3EFF3008010BDEFF3008010BD081A7A
:1021100003D3EFF30080904305E0EFF3008001214B
:102120009043C907084380F3008810BD0D231B04AA
:102130001A4204D01146002000F08AF810BD00F0C9
:10214000A9F810BD00000090004870473000202022
:102150007546FFF7F9FFAE46050069465346C008CD
:10216000C000854618B020B5FEF73EF860BCB64604
:1021700000260027C0C5C0C5C0C5C0C5C0C5C0C5F4
:10218000C0C5C0C5403D490849008D46704710B5DF
:102190000446C046C0462046FDF7FBFF10BD0000C8
:1021A00082078B079A423FD170B5920F0AD0032461
:1021B00002780B78401C491C002A33D09A4231D156
:1021C0002042F5D1214EF40104C808C9951B95435E
:1021D000254018D19A420FD104C808C9951B9543D0
:1021E000254010D19A4207D104C808C9951B9543D0
:1021F000254008D19A42E7D012BA1BBA01209A4270
:1022000000D2404270BD12BA1BBA2DBA1824100079
:10221000E0401900E140401A05D12E00E64002D10D
:10222000083CF4D1D01A70BD02780B78401C491CD0
:10223000002A09D09A4207D102780B78401C491C29
:10224000002A01D09A42EFD0D01A70470101010153
:10225000C80212D54803400F002804D0C803C04369
:10226000012188407047EFF300800001000903213D
:102270000907084380F3008870470020704700007A
:1022800010B500200249029A00F00CF810BD0000C1
:102290000000F87F10B5024800F004F810BD0000FF
:1022A0000000C07F10B50C461107090F092904D0A2
:1022B0000A290AD008290CD104E011460820FFF7AA
:1022C000C7FF06E0510606D501E0510601D5012001
:1022D000C007214610BDD10607D501010909CC0868
:1022E0004907000E0006044309E0410F2002490798
:1022F000000A0143200E00061D22D1410143084679
:10230000E7E7000001491820ABBEFEE72600020007
:1023100070470000FF20000207490A68824301203D
:10232000C303D2180A608102044A13680B43136086
:1023300040030349086070470CE400E02810104097
:1023400000E100E010B51F4908703138272828D86F
:102350007844007940008744131519242424242448
:1023600024242424242424242424241D2424242434
:10237000242424242424242D24242524242424290E
:10238000124810E011480221017010BD0F480321CE
:10239000017010BD0E4C2068BF21090608F01EFD1B
:1023A000206010BD08480121017010BD06480021C1
:1023B000017010BD064C20683F21090608F00EFD93
:1023C000206010BD4802202049022020000020206B
:1023D0000400202082B008F03DF9019000F0A8FF31
:1023E00001A80A2108F0D6F8F8E70000B0B50A788D
:1023F000032313400B4A84580B4D2540EB18A924A6
:1024000024061B198350072212064B68134011241F
:10241000240205599543EA180251001949780161CF
:10242000B0BDC04608080000FCFFFF00811E091F68
:1024300000BFFCD2704770B50A780C231A40012403
:10244000240305196E689E43B2186A604978072212
:102450001140035993435918015170BDB0B5112271
:10246000120283580C4C1C400B894D881D438B79FC
:102470002B430A4D1D4063198350CB798C881C4334
:10248000097821435D239B001940801842689A43D4
:1024900051184160B0BDC04680CCFFFF7F330000C3
:1024A00010B50122120383180C785C6049788150C2
:1024B00010BD0000B0B53F231B04044C25689D43AC
:1024C00008431043184028182060B0BD38010B4065
:1024D000F0B585B001221402344B19680494A1436D
:1024E0001960950348490E682E4208D10E682E42A5
:1024F00005D10E682E4202D10E682E42F3D0457EE1
:1025000015409E69964375199D612025455D0326FA
:102510003540DF69B7437D19DD61254D2E680527FC
:102520002F60476A3C681C627C685C620724344008
:102530002C60C4697F252D02DE69AE436406640CFD
:102540003419DC6150C805680095476885680195B5
:10255000C568029503929A69164D15402207120B21
:102560003403A4B2A2183A43009C2407240D144358
:10257000019A1443029A1443007C20430E4A0240FD
:10258000501998611868049A104318600398400223
:102590000A68024208D10A68024205D10A6802426A
:1025A00002D10A680242F3D005B0F0BD08010B4029
:1025B000001340408D00F0FF72FF0F0010B511496D
:1025C000886001225305104804681C4208D1046841
:1025D0001C4205D104681C4202D104681C42F3D09D
:1025E00012040B6813430B600168C90608D4016824
:1025F000C90605D40168C90602D40168C906F3D525
:1026000010BDC04604010B4004020B40F0B53C4A2B
:1026100082183C4BC31808794E793B4D3B4C002E39
:1026200023D0202804D00526F601002803D003E09B
:10263000374E002800D18826576F2F403743576701
:10264000976F2F4037439767566B26405663966BBC
:10265000264096630026566596658F26F6435F688A
:1026600037405F609F6837409F608E7909682028F7
:102670000BD0002819D1491E5160D76E2F408821F8
:102680000F43D7661746703719E0491E5160D16E67
:1026900029401F4F3943D166116F294039431167D3
:1026A000012149071B4D174609E049085160D76EC3
:1026B0002F400521C9010F43D766174670373C6884
:1026C0002C400C433C60D16A104C2140D162116B0C
:1026D000214011630021D16411658F21C943D46F5A
:1026E0000C40D4671C680C401C600643BD20304081
:1026F0001168094B0B40C018801C1060F0BDC0462B
:10270000041800008418000024493E008888FDFF5A
:1027100001040000FFFFFFCF4000FFCF10B50723EB
:102720009B04194092008018024A84589C43611807
:10273000815010BD3018000010B5029CA400001993
:1027400011431943014A815010BDC0465018000082
:1027500092008018014A81507047C046101800004E
:1027600010B50122120383180C789C604B788350BB
:102770008978014A815010BD0C110000B0B51122BA
:10278000120283580124A34383508B780C881C4386
:102790008B882343094C1C408358094D1D402B193D
:1027A00083508B79CC791C43097A21437E231940CD
:1027B000801842689A4351184160B0BD1867000004
:1027C000E798FDFF10B50122120383180C789C6076
:1027D0004978815010BD000070B50D48322101606C
:1027E0000124A00535490860354D002628463146AC
:1027F0003246FFF7ADFFA004324908602846314653
:102800002246FFF7A5FF034801682143016070BD20
:10281000143100400418874010B5002800D1494207
:1028200009B2194A914200DC11467D22D200914240
:1028300009DA01280AD1012290040CB2214B002CA4
:102840000CD418600EE011460128F4D00120800558
:102850000BB21A4A002B03D4106002E0186101E0A9
:102860001061002208B2C0134140081A81B2C908A1
:102870007C2903D80549081A401C00E0002081B2D9
:102880000F48FFF765FF10BD18FCFFFFE7030000CE
:1028900070B50124A00509490860094D00262846A5
:1028A00031463246FFF754FFA00406490860284627
:1028B00031462246FFF74CFF70BDC04690120A40D9
:1028C0000000874090320A408AB005F0C9F91F2401
:1028D0009F4F2046394606F003FB00259DA228465F
:1028E000294607F037F82846394606F0F9FA0E214E
:1028F0009D4E2846324607F02DF81A219BA2284605
:1029000007F028F826219AA2284607F023F832215A
:1029100098A2284607F01EF8442197A2284607F0FF
:1029200019F8502199A2284607F014F85E2199A2BF
:10293000284607F00FF86C2198A2284607F00AF8FD
:102940007A2198A2284607F005F8882199A22846FE
:1029500007F000F8962106952846324606F0FAFF61
:10296000E402059453E03570059806F0B9FA232780
:10297000502538462946324606F0ECFF0698744941
:1029800006F0AEFA954802885E2638463146049C29
:10299000234607F017F891484288284631462346D7
:1029A00007F010F88D4802896C263846684F31468A
:1029B000234607F007F889484289284631462346CE
:1029C00007F000F81F20394606F08AFA069800F052
:1029D00059FCFEF7C1FB02460B460125039C0094FF
:1029E00001951E268821304606F05EFE284600F03E
:1029F00049FCFEF7B1FB02460B4600940195962177
:102A00003046059C06F050FE029807F079FA204601
:102A1000394606F065FA68480068FEF79DFB0246F5
:102A20000B4602260425009501960F200E24214610
:102A300006F03AFE3F204001394606F051FA5F4861
:102A40000068FEF789FB02460B46009501963C2084
:102A5000214606F029FE05981F3080B2394606F05F
:102A60003FFA57480068FEF777FB02460B4604958D
:102A7000009501966920214606F016FE069C204628
:102A8000394606F02DFA4F48025F19261A27052508
:102A90003046039639462B4606F0C6FE4A48025F8A
:102AA0005520029039462B4606F0BEFE4748025F8D
:102AB0002627304639462B4606F0B6FE4448025FCC
:102AC000029E304639462B4606F0AEFE4148025F74
:102AD0003227039839462B4606F0A6FE3E48025F91
:102AE00030460297394603952B4606F09DFE3B483B
:102AF00000F0BAF807AE347230253122C3072B46F6
:102B000000D01346F37183072B4600D51346B371EB
:102B100043072B460E4900D51346737103072B4616
:102B200000D513463371C3062B4600D51346F37008
:102B300083062B4600D51346B37043062B4600D5BB
:102B40001346737040B2002800DB0CE715460AE715
:102B5000FFFF00003D3D3D2049434D3432363836BD
:102B6000203D3D3D0000000008BB000041583A00F8
:102B7000415A3A0047593A002D2D2D2047524159CC
:102B800020384348202D2D2D0000000042494E3AA8
:102B900000000000302D313A00000000342D353A9D
:102BA000000000002D2D2D204D5452205350442064
:102BB0002D2D2D004C3A00002C052020280520202A
:102BC000300520201C0520201E0520202005202067
:102BD0002205202024052020260520205002202028
:102BE00010B5012801D0084900E0064909684200F3
:102BF000154B9C5A9952091B002800D1494208B232
:102C000010BDC046003809400018094010B5012029
:102C1000C1430B4A13680B401360131F00241C6050
:102C2000136803431360074A13680B401360111FB6
:102C30000C6005490C804C8011680143116010BD87
:102C400004180940043809404A02202070B50028C1
:102C500005D0034C0025034E6EC00560446070BD76
:102C60000000C8420000FA43A021405C7047000009
:102C7000F0B58BB002920191A8210A90FDF713FCE8
:102C800054483221016022220020099007E0986612
:102C9000099810300990121D322A00D194E0029850
:102CA00080180490223807880198801803902238F1
:102CB000008887423E4600D306460A9908928C183F
:102CC000E681874200D80746A01E07807000C01921
:102CD0000325294607F0C4FEE08578008019069593
:102CE000294607F0BDFE0794E0833846FEF70DF94C
:102CF00004460F463046FEF708F902460B462046CA
:102D00003946FDF75CFE07460D460026324633463F
:102D100007F0D0FF0446059630462F493A462B4629
:102D2000FDF770FE002C00D121460A9A099BD318AA
:102D30005966002C00D12046186604982038078870
:102D400003982038008887423C46089A00D80446F9
:102D500004930A998C52874200D30746079D2F821D
:102D600078000019069E314607F07AFE288660003A
:102D7000C019314607F074FE28842046FEF7C5F8D6
:102D800004460D463846FEF7C0F802460B4620467C
:102D90002946FDF714FE05460F46059E324633468A
:102DA00007F088FF044630460B492A463B46FDF7AC
:102DB00029FE002C00D12146049BD966002C089ADC
:102DC00000D064E7204662E7A12001210A9A11544D
:102DD0000BB0F0BD1411004000FEAF4080B588B0CC
:102DE00004A90C4A0A804A808A80CA800A814A81E2
:102DF0008A81CA817D2293006A4613805380938022
:102E0000D380138153819381D381FFF731FF08B0C1
:102E100080BDC046AC0D0000F0B58BB0079001211D
:102E20000F020A9149020691014640310591A030F6
:102E300004900023014D024E024910E03010004082
:102E40000011004090120A400720089BC01A400061
:102E5000D108079C21525B1C082B74496AD0D80703
:102E600005D180200861980705D50F6004E0802017
:102E700008609807F9D40F615807089302D40698A0
:102E8000086101E0069808607D204001FFF7CEFA56
:102E90000022114607E0F848006880B28218891CB9
:102EA000072BF44ED0D2A8693843A86130680123BB
:102EB000099318433060706838437060EF4B02E04C
:102EC0001B1D012810D0286838420DD128683842CF
:102ED0000AD12868384207D15C425C4128683842F0
:102EE0000A98EDD12046EBE7E3480068AB693B4325
:102EF000AB613368099C2343336073683B43736061
:102F00000B46234380B28218DC4C02E0241D012EC4
:102F1000C1D028683842BED128683842BBD1286861
:102F20003842B8D1604260412E683E420A9EEDD1DF
:102F30000646EBE72188059D2888814204D9049B39
:102F40001A780998024306E0288A8142049B03D23A
:102F50001A78099882431A7066886888864203D96D
:102F60001A780220104305E0688A864203D2187856
:102F7000022290431870A288A8888242019203D945
:102F80001A780420104305E0A88A824203D21878F8
:102F9000042290431870E288E8888242029203D9A2
:102FA0001A780820104305E0E88A824203D2187894
:102FB000082290431870228928898242039203D9FB
:102FC0001A781020104305E0288B824203D218782B
:102FD000102290431870628968898242069203D950
:102FE0001A782020104305E0688B824203D21878BB
:102FF000202290431870A289A8898242089203D99E
:103000001A784020104305E0A88B824203D218783A
:10301000402290431870E289E8898242099207D9D8
:103020007F20C2431878104308E0C04690120A403F
:10303000E88B824203D21A787F2010401870228ECB
:103040000023914218460A931ED30496881AFDF76E
:1030500054FF02460B46206E616EFDF759FF054690
:103060000026874F009132463B4607F023FE00289A
:1030700000D12E46002800D1009F30463946FDF78A
:10308000E5FE059D0A9B049E2082618E8E421846B5
:103090001CD3701AFDF731FF02460B46A06EE16E9D
:1030A000FDF736FF05460026754F049132463B4634
:1030B00007F000FE002800D12E46002800D1049F12
:1030C00030463946FDF7C2FE059D0A9B6082A18EFF
:1030D000019A8A4218461CD3501AFDF70EFF024689
:1030E0000B46206F616FFDF713FF05460026644F06
:1030F000049132463B4607F0DDFD002800D12E4604
:10310000002800D1049F30463946FDF79FFE059DFB
:103110000A9BA082E18E029A8A4218461CD3501A5A
:10312000FDF7EBFE02460B46A06FE16FFDF7F0FEE8
:1031300005460026524F049132463B4607F0BAFD41
:10314000002800D12E46002800D1049F3046394681
:10315000FDF77CFE059D0A9BE082218F039A8A423F
:1031600018461CD3501AFDF7C8FE02460B46286CC1
:10317000696CFDF7CDFE05460026414F04913246AD
:103180003B4607F097FD002800D12E46002800D1CD
:10319000049F30463946FDF759FE059D0A9B208362
:1031A000618F069A8A4218461CD3501AFDF7A5FE75
:1031B00002460B46A86CE96CFDF7AAFE0546002600
:1031C0002F4F069132463B4607F074FD002800D190
:1031D0002E46002800D1069F30463946FDF736FEC0
:1031E000059D0A9B6083A18F089A8A4218461CD3CA
:1031F000501AFDF782FE02460B46286D696DFDF7F9
:1032000087FE054600261E4F089132463B4607F0D2
:1032100051FD002800D12E46002800D1089F3046DD
:103220003946FDF713FE059D0A9BA083E08F09999F
:1032300081421BD3081AFDF760FE02460B46A86DBB
:10324000E96DFDF765FE074600250D4E0A912A46F9
:10325000334607F02FFD002800D13D46002800D15D
:103260000A9E28463146FDF7F1FD0346E3830BB085
:10327000F0BDC04600110040806255406479FEFFF9
:1032800000FEAF40012803D08348543000687047E7
:10329000804854300068704770B584B0A4207E4DDB
:1032A00000242C502C656C652C702846A43044609A
:1032B000846084810394184802903F2000060190A6
:1032C00016480090281D01AE154B2146324600F0ED
:1032D000F9F9039413480290412000060190124826
:1032E000009028465830114B2146324600F0EAF94A
:1032F000684EB42230462946FCF752FF301D00F0DC
:10330000D9F93046583000F0D5F9B0203452FFF7E3
:10331000BFFA04B070BDC0469A99193E0000FA4346
:1033200000007A44CDCC4C3D0080BB4400803B453E
:10333000F0B583B000250127564C3846009708E0C9
:10334000B02100224252029D0020E9073D4600D1F3
:103350009DE002902E463E403046FFF741FC074676
:10336000002E00D14C4CA8342068C0192060FEF714
:1033700017F84A4907F0F6FD4949FDF717FF0146DE
:10338000002E03D14448AC30424C02E0414C204670
:10339000AC30019101603846FEF702F80146002E7C
:1033A00000D13D4C6165207802281BD001280ED049
:1033B0000028009F374C1AD101200540214600D13A
:1033C000354900200865002D28D1334927E0012028
:1033D0000540009F2F4C0FD12F48001D002D0ED00F
:1033E00022460DE0012005401DD12B481CE0E807D6
:1033F0002046A5D12848A3E7201D002DF0D1264A5C
:103400005032126800F04EF8FDF780FF0146002DA3
:1034100001D1214800E02046B03032E02146B031F1
:10342000029D088090E71B485830019B002D03D176
:103430001949A431174F02E0164F3946A4310A68E2
:10344000194600F02FF80246002D384600D11248E8
:103450000265002D01D1104800E00E48001D616D8D
:1034600000F020F8FDF752FF0146002D05D10A4873
:10347000B030009F029D074C04E0064C2046B0305F
:10348000009F029D01803046FFF7C6F95CE703B05C
:10349000F0BDC046AC032020F80220200000B44359
:1034A00000D85647F0B583B0002829D00446C26141
:1034B0000162866AC662104607F0ACFD0546676A7F
:1034C0006062A762207800281CD001285DD0022805
:1034D00000D095E02846394607F09CFD616807F06A
:1034E00041FD0290E0630120C10728460091884316
:1034F000A16907F018FC002800D19BE000209DE0A6
:103500000025D4E0206B616B6063A16328463946D7
:1035100007F080FD064620636168284607F022FD1B
:103520000290E063E168304607F01CFD07466064E6
:10353000A068294607F016FD216C07F04FFC0546F0
:1035400020646669314607F0D6FB002808D10120C7
:10355000C00746402846314607F0C2FB002801D18B
:10356000266435460298294607F038FC014638465D
:1035700007F034FC0546A0642669314607F0C6FB17
:1035800000283FD1A664354691E0206B616B6063F3
:10359000A1632846394607F03DFD616807F0E2FC6B
:1035A0000290E063A168284607F0DCFC01902064EB
:1035B0003846394607F012FC0146284607F02AFD36
:1035C0000146304607F00AFC2063E16807F0CAFCB8
:1035D000054660640298019907F000FC294607F04F
:1035E000FDFB0146A06C07F0F9FB0546A0642669C7
:1035F000314607F08BFB002810D1A664354656E013
:10360000A56C54E00120C00746402846314607F02B
:1036100067FB00284BD1A664354648E00120C0076F
:1036200046402846314607F05BFB00283FD1A664A0
:1036300035463CE0A168284607F094FC01902064E0
:10364000226B616B6263A1633846394607F0C6FBA3
:103650000146284607F0DEFC0146304607F0BEFB77
:103660002063E16807F07EFC0546606402980199DA
:1036700007F0B4FB0146284607F0B0FB0146A06CFA
:1036800007F0ACFB0546A0642669314607F03EFB17
:10369000002802D1A664354609E000984640284635
:1036A000314607F01DFB002801D1A66435462846A7
:1036B00003B0F0BD80B5002803D01C303021FCF7EA
:1036C000F2FE80BD10B500280FD0002A0DD0029C5C
:1036D00001701168416051688160916802460C3246
:1036E0001AC218303421FCF7DEFE10BD00000000C5
:1036F000EFF309800E4A1168243808607346F8C059
:1037000044464D4656465F46F0C072B606F00AFD86
:1037100062B6074A116808681430F0C8A046A94686
:10372000B246BB4680F309882438F8C81847C0461B
:103730000006202000000000000000000000000043
:1037400004207146084203D0EFF30980044B184768
:10375000EFF30880024B1847C046C046C046C0463B
:10376000DD9C000080B50A480A49FEF7F9FF0A48C7
:103770001A49C1620022C267194B036001630749FD
:103780000A6003601849416005480121016080BD5D
:103790000000094072BA000004180940841809406A
:1037A0000811094080B50A480A49FEF7D9FF0A48BE
:1037B0000A49C1620022C267094B036001630949DB
:1037C0000A6003600849416008480121016080BD2A
:1037D0000020094075BA00000438094001000200C9
:1037E0001292001084380940FFFF000008310940A0
:1037F00010B50124A0070549FEF7F8FD0448002193
:103800000160044801682143016010BD78BA0000DE
:10381000801100400011004080B50E480E49FEF7AF
:10382000E5FD0E4841680E4A0A401121090451186D
:10383000416081680B4A0A4001210B06D218826060
:10384000094A002313600423536002680A4302609C
:1038500080BDC0460020004080BA0000003100401A
:10386000FEFFECFFF8FFE0E08031004070B582B071
:103870001B4C1C492046FEF773FF1B492046FEF7F0
:10388000C5FE1A4801681A4A0A40026000250095E0
:10389000204629462A462B46FEF74EFF204629465B
:1038A0002A46FEF73BFF204629462A46FEF750FFF0
:1038B00001260096204629462A462B46FEF73CFF65
:1038C000204629463246FEF729FF20462946324641
:1038D000FEF73EFF074886600321016002B070BD1D
:1038E0000000874088BA00008CBA000004188740A6
:1038F0007F00FFFF00118740F0B582B0594D89204D
:10390000A86001242007584A1060584908463838F2
:103910008B23009303602004019010601646084634
:103920001038842202602005514B1860CA6062067C
:103930003260504F8520B8624F4E042333603863A5
:1039400010233360386234600B46343B18606004E7
:10395000454B18604948431CCB610E461C3E336002
:10396000031DEB6503460A336B66454B9E1C2E60B8
:103970002B682B606E606B686B602B6813432B6049
:103980006B6813436B6082222A64421E6A6486223B
:10399000AA66C21CEA66009AEA63AA6328650A4618
:1039A0004C3A83231360EB67A8678120286338654E
:1039B00078650A1F10602861314B3B603A683A60B5
:1039C0007B607A687A60BB64BA6CBA64FB64FA6C38
:1039D000FA640B600A680A6068670A46083A106071
:1039E0003A1F106088600A46443A10608861486156
:1039F0000A46143A1060203908606863A864E864D5
:103A0000194A104630381F49016010464038A10756
:103A100001601D481060164A104630381B4901608D
:103A2000104640381A4901601A4810601A48016867
:103A3000019A11430160200618490A6A02430A628A
:103A40000A6802430A60164A14600A6E02430A6654
:103A5000094A10464038032109020160116002B092
:103A6000F0BDC04604804240D0120A40D08042409F
:103A7000D0320A4008814240D0520A4083000400FC
:103A800081000C0080234001802340410200441C3F
:103A9000002080000220C41CA0330A4028300A40C5
:103AA00048240A4010B50D4C0D492046FEF7F8FC9D
:103AB0000C492046FEF7D2FC0B484168B14A0A4047
:103AC000111D4160816812220A432D218A438260C0
:103AD000016801220A43026010BDC04600A04640B2
:103AE00094BA000096BA000004B1464080B511486F
:103AF0001149FEF7A0FC03204102104802680A4366
:103B0000026001210A02036813430360002242613C
:103B100027224262826B07239A4382631A02836BD5
:103B200093438363826A042313438362826A0A4352
:103B3000826280BD00000F40A0BA000000120F405A
:103B4000094859490A68024082420BD00A6802407B
:103B5000824207D00A680240824203D00A680240CB
:103B60008242EFD17047C046000A2000F0B585B010
:103B70001F200006204A116881431160012421059D
:103B8000A20400200391FEF795FC1C481C4901602B
:103B90000494660642241B4D434F3868304204D1DA
:103BA0002846FEF743FC641EF7D113488069029053
:103BB00004980204002001900399FEF77BFC0F4853
:103BC0000F49016042243868304204D12846FEF78C
:103BD0002DFC641EF7D117350298454306488169CC
:103BE000284606F03DFF084940180F2801D30198E8
:103BF0000490049805B0F0BD38010B402C030B4035
:103C00000100000ED103000043F6FFFFF0B581B0C4
:103C10002248012404600F200002214D29688143BD
:103C20006602881928600320C043291F0A680240E1
:103C30000A601C48FEF74CFCFFF798FF002812D0E2
:103C40002868102101432020814329600020FEF7CD
:103C5000B5FCFF20000215490A688243E0031018F2
:103C6000086001B0F0BD104F03E0FFF77FFF0028B0
:103C7000E6D120026968814369606968014369602F
:103C800038683042F1D138683042EED1386830427D
:103C9000EBD138683042F3D0E7E7C04608030B4069
:103CA00004010B40A4BA000004020B4000E400E051
:103CB000F0B581B01C4C1D492046FEF751FD1C4952
:103CC0002046FEF7A3FC1B480168ED4A0A4002604B
:103CD00000250095204629462A462B46FEF72CFD56
:103CE000204629462A46FEF719FD192006012046DE
:103CF00031462A46FEF72CFD01270097204629462B
:103D00002A462B46FEF718FD204629463A46FEF77E
:103D100005FD204631463A46FEF71AFD0648876003
:103D20000321016001B0F0BD00208640CCBA000044
:103D3000D0BA0000043886400031864010B50D4CE2
:103D40000D492046FEF7ACFB0C492046FEF786FBEA
:103D50000B4841680B4A0A40111D416081681222DC
:103D60000A432D218A438260016801220A430260CE
:103D700010BDC04600804640D8BA0000DABA000044
:103D80000491464000FCFFFF10B5194C194920462C
:103D9000FEF718FD18492046FEF7F0FC0320C1038A
:103DA000164802688A4302600169334A0A402B328E
:103DB000026141691A220A4325218A43426142680D
:103DC00001210A4043688B439A1842604A04036801
:103DD00013430360C26870231343C360C2680223A5
:103DE000134305229343C36002680A43026010BD77
:103DF00000205040E4BA0000E6BA00000031504014
:103E000010B5194C19492046FEF7DCFC184920462C
:103E1000FEF7B4FC0320C103164802688A4302601F
:103E20000169154A0A401532026141692D220A438F
:103E300012218A434261426801210A4043688B4350
:103E40009A1842604A04036813430360C2687023EF
:103E50001343C360C2680223134305229343C36024
:103E600002680A43026010BD00001040F0BA000072
:103E7000F2BA0000001110400000FFFF80B500F012
:103E800037F8FFF739FDFFF7C1FEFFF711FFFFF726
:103E9000EDFC00F08FF8FFF765FCFFF783FCFFF700
:103EA00025FEFFF7ADFFFFF76FFFFFF747FFFFF7B7
:103EB000F9FDFFF7B1FCFFF79BFCFFF741FEB820CF
:103EC000064900220A5406490A549C2005490A540E
:103ED000242005490A5405490A5480BD6004202065
:103EE00058012020900020201402202030012020A2
:103EF000F0B581B01E481F4A42601F4842601F480B
:103F000042601F4842601F4842601F4842601F488D
:103F100042601F4842601F4842601F4E72601F4D42
:103F20006A601F4C62601F4B5A601F494A601F48FD
:103F300042601F4A0E4F3A600F4F3A600F4F3A608F
:103F40000F4F3A600F4F3A600F4F3A600F4F3A6091
:103F50000F4F3A600F4F3A6032602A6022601A6059
:103F60000A6002601020FEF761FA01B0F0BDC046A1
:103F700000080A40030000B100280A4000480A4037
:103F80000028864000088740000886400008094055
:103F90000028094000080F40000810400028504049
:103FA0000088464000A84640002800400008004025
:103FB00001000026F0B581B02D4C2E492046FEF7B9
:103FC000CFFB2D492046FEF721FB2C4801682C4AE7
:103FD0000A40026000250095204629462A462B46C5
:103FE000FEF7AAFB204629462A46FEF797FB204605
:103FF00029462A46FEF7ACFB0126009620462946B4
:104000002A462B46FEF798FB204629463246FEF705
:1040100085FB204629463246FEF79AFB0227009789
:10402000204629462A462B46FEF786FB204629468F
:104030003A46FEF773FB204629463A46FEF788FBD0
:1040400003270097204629462A462B46FEF774FB95
:10405000204629463A46FEF761FB204629463A4665
:10406000FEF776FB074886600F21016001B0F0BDC6
:1040700000008640FCBA000000BB00000418864027
:104080007F00FFFF0011864082B006F0E3FA019046
:10409000064C074D2046FEF7BFFE284601F0CAFC3D
:1040A00001A80A2106F076FAF4E7C0465002202063
:1040B0000AD7233C10B505F01DFD044606F0CEFAE4
:1040C000002803D00120000702490860204605F0BF
:1040D0003EFD10BD04ED00E010B508480068C0B218
:1040E0000B280AD1064C2068400706D4E069C0B20C
:1040F000FEF728F920684007F8D510BD20101040C1
:10410000081110400C4801680020002900D07047B9
:104110000A4909680029FAD1094909680029F6D134
:104120000848006808490968491E884201D00120F2
:10413000704702207047C04650402020A4402020F5
:104140004C40202070402020F8362020F0B585B06B
:1041500001267503F84C2560F848FEF767F92561DC
:10416000F74C206840070DD4206A2068400709D426
:10417000206A2068400705D4206A2068400701D4DF
:10418000206AEEE7EF4A1046216889074AD4216881
:10419000890747D42168890744D42168890741D415
:1041A000216889073ED4216889073BD421688907A3
:1041B00038D42168890735D42168890732D4216829
:1041C00089072FD4216889072CD42168890729D42D
:1041D0002168890726D42168890723D421688907A3
:1041E00020D4216889071DD4216889071AD4216841
:1041F000890717D42168890714D42168890711D445
:10420000216889070ED4216889070BD421688907A2
:1042100008D42168890705D42168890702D4193098
:10422000B2D1C9E0112020631046216889074AD421
:104230002168890747D42168890744D42168890700
:1042400041D4216889073ED4216889073BD421687D
:10425000890738D42168890735D42168890732D481
:10426000216889072FD4216889072CD42168890700
:1042700029D42168890726D42168890723D4216895
:10428000890720D4216889071DD4216889071AD499
:104290002168890717D42168890714D42168890700
:1042A00011D4216889070ED4216889070BD42168AD
:1042B000890708D42168890705D42168890702D4B1
:1042C0001930B2D178E026639F4801E0103873D0EE
:1042D0002168C90702D02168C9065AD52168C907D3
:1042E00002D02168C90653D52168C90702D02168C8
:1042F000C9064DD52168C90702D02168C90647D52E
:104300002168C90702D02168C90641D52168C907BB
:1043100002D02168C9063BD52168C90702D02168AF
:10432000C90635D52168C90702D02168C9062FD52D
:104330002168C90702D02168C90629D52168C907A3
:1043400002D02168C90623D52168C90702D0216897
:10435000C9061DD52168C90702D02168C90617D52D
:104360002168C90702D02168C90611D52168C9078B
:1043700002D02168C9060BD52168C90702D021687F
:10438000C90605D52168C907A0D02168C9069DD4F2
:104390003046002810D0206840070DD4206A2068DD
:1043A000400709D4206A2068400705D4206A2068A5
:1043B000400701D4206AEEE75F4805606348FEF7D6
:1043C00035F800273E465C480561206840070DD45B
:1043D000206A2068400709D4206A2068400705D475
:1043E000206A2068400701D4206AEEE7554A10464B
:1043F000216889074AD42168890747D42168890739
:1044000044D42168890741D4216889073ED42168B2
:1044100089073BD42168890738D42168890735D4B6
:104420002168890732D4216889072FD42168890738
:104430002CD42168890729D42168890726D42168CA
:10444000890723D42168890720D4216889071DD4CE
:10445000216889071AD42168890717D42168890738
:1044600014D42168890711D4216889070ED42168E2
:1044700089070BD42168890708D42168890705D4E6
:104480002168890702D41930B2D1CCE0F52020632D
:104490001046216889074AD42168890747D42168D2
:1044A000890744D42168890741D4216889073ED40B
:1044B000216889073BD42168890738D42168890796
:1044C00035D42168890732D4216889072FD421681F
:1044D00089072CD42168890729D42168890726D423
:1044E0002168890723D42168890720D42168890796
:1044F0001DD4216889071AD42168890717D4216837
:10450000890714D42168890711D4216889070ED43A
:10451000216889070BD42168890708D42168890795
:1045200005D42168890702D41930B2D17BE000207C
:10453000206305480EE0C04690320A400071020038
:1045400010B146406079FEFFA086010000350C00E6
:10455000103868D02168C90702D02168C9065AD529
:104560002168C90702D02168C90653D52168C90747
:1045700002D02168C9064DD52168C90702D021683B
:10458000C90647D52168C90702D02168C90641D5A7
:104590002168C90702D02168C9063BD52168C9072F
:1045A00002D02168C90635D52168C90702D0216823
:1045B000C9062FD52168C90702D02168C90629D5A7
:1045C0002168C90702D02168C90623D52168C90717
:1045D00002D02168C9061DD52168C90702D021680B
:1045E000C90617D52168C90702D02168C90611D5A7
:1045F0002168C90702D02168C9060BD52168C907FF
:1046000002D02168C90605D52168C907A0D0216854
:10461000C9069DD40120002805D0206A20684007E3
:1046200001D4206AC6B2FB480560442E09D0FA487E
:10463000FDF7FCFE7F1C142F00D0C4E6012005B05E
:10464000F0BDF4480561206840070DD4206A206859
:10465000400709D4206A2068400705D4206A2068F2
:10466000400701D4206AEEE71046216889074AD442
:104670002168890747D42168890744D421688907BC
:1046800041D4216889073ED4216889073BD4216839
:10469000890738D42168890735D42168890732D43D
:1046A000216889072FD4216889072CD421688907BC
:1046B00029D42168890726D42168890723D4216851
:1046C000890720D4216889071DD4216889071AD455
:1046D0002168890717D42168890714D421688907BC
:1046E00011D4216889070ED4216889070BD4216869
:1046F000890708D42168890705D42168890702D46D
:104700001930B2D1CAE04E202063104621688907D3
:104710004AD42168890747D42168890744D421688D
:10472000890741D4216889073ED4216889073BD491
:104730002168890738D42168890735D42168890719
:1047400032D4216889072FD4216889072CD42168A5
:10475000890729D42168890726D42168890723D4A9
:104760002168890720D4216889071DD42168890719
:104770001AD42168890717D42168890714D42168BD
:10478000890711D4216889070ED4216889070BD4C1
:104790002168890708D42168890705D42168890719
:1047A00002D41930B2D179E00F2020639B4801E098
:1047B000103873D02168C90702D02168C9065AD5BC
:1047C0002168C90702D02168C90653D52168C907E5
:1047D00002D02168C9064DD52168C90702D02168D9
:1047E000C90647D52168C90702D02168C90641D545
:1047F0002168C90702D02168C9063BD52168C907CD
:1048000002D02168C90635D52168C90702D02168C0
:10481000C9062FD52168C90702D02168C90629D544
:104820002168C90702D02168C90623D52168C907B4
:1048300002D02168C9061DD52168C90702D02168A8
:10484000C90617D52168C90702D02168C90611D544
:104850002168C90702D02168C9060BD52168C9079C
:1048600002D02168C90605D52168C907A0D02168F2
:10487000C9069DD40120002810D0206840070DD41F
:10488000206A2068400709D4206A2068400705D4C0
:10489000206A2068400701D4206AEEE75D4E35604B
:1048A0005F48FDF7C3FD3561206840070DD4206ADD
:1048B0002068400709D4206A2068400705D4206A90
:1048C0002068400701D4206AEEE7564A1046216866
:1048D00089074AD42168890747D42168890744D4C5
:1048E0002168890741D4216889073ED42168890756
:1048F0003BD42168890738D42168890735D42168D9
:10490000890732D4216889072FD4216889072CD4DC
:104910002168890729D42168890726D42168890755
:1049200023D42168890720D4216889071DD42168F0
:1049300089071AD42168890717D42168890714D4F4
:104940002168890711D4216889070ED42168890755
:104950000BD42168890708D42168890705D4216808
:10496000890702D41930B2D1D4E050202063104618
:10497000216889074AD42168890747D421688907B3
:1049800044D42168890741D4216889073ED421682D
:1049900089073BD42168890738D42168890735D431
:1049A0002168890732D4216889072FD421688907B3
:1049B0002CD42168890729D42168890726D4216845
:1049C000890723D42168890720D4216889071DD449
:1049D000216889071AD42168890717D421688907B3
:1049E00014D42168890711D4216889070ED421685D
:1049F00089070BD42168890708D42168890705D461
:104A00002168890702D41930B2D183E026202063BF
:104A100002480BE090320A4000350C00A0860100ED
:104A200000093D006079FEFF103873D02168C90786
:104A300002D02168C9065AD52168C90702D0216869
:104A4000C90653D52168C90702D02168C9064DD5CA
:104A50002168C90702D02168C90647D52168C9075E
:104A600002D02168C90641D52168C90702D0216852
:104A7000C9063BD52168C90702D02168C90635D5CA
:104A80002168C90702D02168C9062FD52168C90746
:104A900002D02168C90629D52168C90702D021683A
:104AA000C90623D52168C90702D02168C9061DD5CA
:104AB0002168C90702D02168C90617D52168C9072E
:104AC00002D02168C90611D52168C90702D0216822
:104AD000C9060BD52168C90702D02168C90605D5CA
:104AE0002168C907A0D02168C9069DD401200028EB
:104AF00010D0206840070DD4206A2068400709D4F0
:104B0000206A2068400705D4206A2068400701D445
:104B1000206AEEE7F24805600561206840070DD481
:104B2000206A2068400709D4206A2068400705D41D
:104B3000206A2068400701D4206AEEE71046216809
:104B400089074AD42168890747D42168890744D452
:104B50002168890741D4216889073ED421688907E3
:104B60003BD42168890738D42168890735D4216866
:104B7000890732D4216889072FD4216889072CD46A
:104B80002168890729D42168890726D421688907E3
:104B900023D42168890720D4216889071DD421687E
:104BA00089071AD42168890717D42168890714D482
:104BB0002168890711D4216889070ED421688907E3
:104BC0000BD42168890708D42168890705D4216896
:104BD000890702D41930B2D1CAE04F2020631046B1
:104BE000216889074AD42168890747D42168890741
:104BF00044D42168890741D4216889073ED42168BB
:104C000089073BD42168890738D42168890735D4BE
:104C10002168890732D4216889072FD42168890740
:104C20002CD42168890729D42168890726D42168D2
:104C3000890723D42168890720D4216889071DD4D6
:104C4000216889071AD42168890717D42168890740
:104C500014D42168890711D4216889070ED42168EA
:104C600089070BD42168890708D42168890705D4EE
:104C70002168890702D41930B2D179E00620206377
:104C8000984801E0103873D02168C90702D0216824
:104C9000C9065AD52168C90702D02168C90653D56B
:104CA0002168C90702D02168C9064DD52168C90706
:104CB00002D02168C90647D52168C90702D02168FA
:104CC000C90641D52168C90702D02168C9063BD56C
:104CD0002168C90702D02168C90635D52168C907EE
:104CE00002D02168C9062FD52168C90702D02168E2
:104CF000C90629D52168C90702D02168C90623D56C
:104D00002168C90702D02168C9061DD52168C907D5
:104D100002D02168C90617D52168C90702D02168C9
:104D2000C90611D52168C90702D02168C9060BD56B
:104D30002168C90702D02168C90605D52168C907BD
:104D4000A0D02168C9069DD40120002810D0206879
:104D500040070DD4206A2068400709D4206A2068E3
:104D6000400705D4206A2068400701D4206AEEE796
:104D70005B4805600561206840070DD4206A206803
:104D8000400709D4206A2068400705D4206A2068BB
:104D9000400701D4206AEEE71046216889074AD40B
:104DA0002168890747D42168890744D42168890785
:104DB00041D4216889073ED4216889073BD4216802
:104DC000890738D42168890735D42168890732D406
:104DD000216889072FD4216889072CD42168890785
:104DE00029D42168890726D42168890723D421681A
:104DF000890720D4216889071DD4216889071AD41E
:104E00002168890717D42168890714D42168890784
:104E100011D4216889070ED4216889070BD4216831
:104E2000890708D42168890705D42168890702D435
:104E30001930B2D1CEE05220206310462168890794
:104E40004AD42168890747D42168890744D4216856
:104E5000890741D4216889073ED4216889073BD45A
:104E60002168890738D42168890735D421688907E2
:104E700032D4216889072FD4216889072CD421686E
:104E8000890729D42168890726D42168890723D472
:104E90002168890720D4216889071DD421688907E2
:104EA0001AD42168890717D42168890714D4216886
:104EB000890711D4216889070ED4216889070BD48A
:104EC0002168890708D42168890705D421688907E2
:104ED00002D41930B2D17DE011202063014805E0F1
:104EE00090320A40A0860100103873D02168C907AB
:104EF00002D02168C9065AD52168C90702D02168A5
:104F0000C90653D52168C90702D02168C9064DD505
:104F10002168C90702D02168C90647D52168C90799
:104F200002D02168C90641D52168C90702D021688D
:104F3000C9063BD52168C90702D02168C90635D505
:104F40002168C90702D02168C9062FD52168C90781
:104F500002D02168C90629D52168C90702D0216875
:104F6000C90623D52168C90702D02168C9061DD505
:104F70002168C90702D02168C90617D52168C90769
:104F800002D02168C90611D52168C90702D021685D
:104F9000C9060BD52168C90702D02168C90605D505
:104FA0002168C907A0D02168C9069DD40120002826
:104FB00010D0206840070DD4206A2068400709D42B
:104FC000206A2068400705D4206A2068400701D481
:104FD000206AEEE7FB480560FB48FDF727FA00274B
:104FE000FA4E049702970397F64805612068400738
:104FF0000DD4206A2068400709D4206A2068400741
:1050000005D4206A2068400701D4206AEEE7F04BFF
:105010001846216889074AD42168890747D421683E
:10502000890744D42168890741D4216889073ED47F
:10503000216889073BD42168890738D4216889070A
:1050400035D42168890732D4216889072FD4216893
:1050500089072CD42168890729D42168890726D497
:105060002168890723D42168890720D4216889070A
:105070001DD4216889071AD42168890717D42168AB
:10508000890714D42168890711D4216889070ED4AF
:10509000216889070BD42168890708D4216889070A
:1050A00005D42168890702D41930B2D17EE1A52048
:1050B00020631846216889074AD42168890747D4A4
:1050C0002168890744D42168890741D42168890768
:1050D0003ED4216889073BD42168890738D42168E8
:1050E000890735D42168890732D4216889072FD4EC
:1050F000216889072CD42168890729D42168890768
:1051000026D42168890723D42168890720D42168FF
:1051100089071DD4216889071AD42168890717D403
:105120002168890714D42168890711D42168890767
:105130000ED4216889070BD42168890708D4216817
:10514000890705D42168890702D41930B2D12DE12D
:10515000002020631946226892074AD422689207E9
:1051600047D42268920744D42268920741D4226827
:1051700092073ED4226892073BD42268920738D423
:105180002268920735D42268920732D422689207A7
:105190002FD4226892072CD42268920729D422683F
:1051A000920726D42268920723D42268920720D43B
:1051B000226892071DD4226892071AD422689207A7
:1051C00017D42268920714D42268920711D4226857
:1051D00092070ED4226892070BD42268920708D453
:1051E0002268920705D42268920702D41931B2D1FD
:1051F000DCE020631946226892074AD422689207AD
:1052000047D42268920744D42268920741D4226886
:1052100092073ED4226892073BD42268920738D482
:105220002268920735D42268920732D42268920706
:105230002FD4226892072CD42268920729D422689E
:10524000920726D42268920723D42268920720D49A
:10525000226892071DD4226892071AD42268920706
:1052600017D42268920714D42268920711D42268B6
:1052700092070ED4226892070BD42268920708D4B2
:105280002268920705D42268920702D41931B2D15C
:105290008CE020634F4902E0103900D186E022689B
:1052A000D20702D02268D2065AD52268D20702D08D
:1052B0002268D20653D52268D20702D02268D206CD
:1052C0004DD52268D20702D02268D20647D522687F
:1052D000D20702D02268D20641D52268D20702D076
:1052E0002268D2063BD52268D20702D02268D206B5
:1052F00035D52268D20702D02268D2062FD522687F
:10530000D20702D02268D20629D52268D20702D05D
:105310002268D20623D52268D20702D02268D2069C
:105320001DD52268D20702D02268D20617D522687E
:10533000D20702D02268D20611D52268D20702D045
:105340002268D2060BD52268D20702D02268D20684
:1053500005D52268D2079FD02268D2069CD40121AD
:10536000002923D0216A216849071FD4216A2268B5
:1053700052071BD4226A23685B07154B16D401928F
:10538000226A00920F4A156015612668760723D4B9
:10539000266A266876071FD4266A266876071BD4F5
:1053A000266A2668760717D4266AEEE70548056060
:1053B0003046FDF73BF87F1C4B20C000874200D0F1
:1053C00012E6DDE190320A4000350C00801A06003A
:1053D0006079FEFFA08601001E4623689B074AD421
:1053E00023689B0747D423689B0744D423689B0703
:1053F00041D423689B073ED423689B073BD4236892
:105400009B0738D423689B0735D423689B0732D485
:1054100023689B072FD423689B072CD423689B0702
:1054200029D423689B0726D423689B0723D42368A9
:105430009B0720D423689B071DD423689B071AD49D
:1054400023689B0717D423689B0714D423689B0702
:1054500011D423689B070ED423689B070BD42368C1
:105460009B0708D423689B0705D423689B0702D4B5
:105470001936B2D180E1A8232363CF4E23689B075E
:105480004AD423689B0747D423689B0744D42368E6
:105490009B0741D423689B073ED423689B073BD4DA
:1054A00023689B0738D423689B0735D423689B0760
:1054B00032D423689B072FD423689B072CD42368FE
:1054C0009B0729D423689B0726D423689B0723D4F2
:1054D00023689B0720D423689B071DD423689B0760
:1054E0001AD423689B0717D423689B0714D4236816
:1054F0009B0711D423689B070ED423689B070BD40A
:1055000023689B0708D423689B0705D423689B075F
:1055100002D41936B2D12FE12063A74E23689B072E
:105520004AD423689B0747D423689B0744D4236845
:105530009B0741D423689B073ED423689B073BD439
:1055400023689B0738D423689B0735D423689B07BF
:1055500032D423689B072FD423689B072CD423685D
:105560009B0729D423689B0726D423689B0723D451
:1055700023689B0720D423689B071DD423689B07BF
:105580001AD423689B0717D423689B0714D4236875
:105590009B0711D423689B070ED423689B070BD469
:1055A00023689B0708D423689B0705D423689B07BF
:1055B00002D41936B2D1DFE020637F4E23689B0707
:1055C0004AD423689B0747D423689B0744D42368A5
:1055D0009B0741D423689B073ED423689B073BD499
:1055E00023689B0738D423689B0735D423689B071F
:1055F00032D423689B072FD423689B072CD42368BD
:105600009B0729D423689B0726D423689B0723D4B0
:1056100023689B0720D423689B071DD423689B071E
:105620001AD423689B0717D423689B0714D42368D4
:105630009B0711D423689B070ED423689B070BD4C8
:1056400023689B0708D423689B0705D423689B071E
:1056500002D41936B2D18FE02063F54802E0103849
:1056600000D189E02368DB0702D02368DB065AD526
:105670002368DB0702D02368DB0653D52368DB07EA
:1056800002D02368DB064DD52368DB0702D02368F0
:10569000DB0647D52368DB0702D02368DB0641D54C
:1056A0002368DB0702D02368DB063BD52368DB07D2
:1056B00002D02368DB0635D52368DB0702D02368D8
:1056C000DB062FD52368DB0702D02368DB0629D54C
:1056D0002368DB0702D02368DB0623D52368DB07BA
:1056E00002D02368DB061DD52368DB0702D02368C0
:1056F000DB0617D52368DB0702D02368DB0611D54C
:105700002368DB0702D02368DB060BD52368DB07A1
:1057100002D02368DB0605D52368DB079FD023680A
:10572000DB069CD40120002826D0206A2068400790
:1057300022D4266A206840071ED4206A23685B07AB
:105740001AD4236AB74A1560009A1202F6B2B21848
:1057500012B2029EB61802960902019AD2B25118EC
:1057600009B2039A521803920002D9B2081800B283
:1057700004990918049101E0AA4805600F4E17E644
:105780000298FBF70DFE0E4E3146FBF70FFD0D495B
:1057900008600398FBF704FE3146FBF707FD0A4952
:1057A00008600498FBF7FCFD3146FBF7FFFC074956
:1057B0000860002005B0F0BD6079FEFF801A060089
:1057C00000001644400220203C02202044022020F9
:1057D00070B50123580393490861934A146864071C
:1057E0000DD4146A1468640709D4146A1468640731
:1057F00005D4146A1468640701D4146AEEE78B4C6C
:1058000025461668B6074BD41668B60748D41668FE
:10581000B60745D41668B60742D41668B6073FD413
:105820001668B6073CD41668B60739D41668B607AA
:1058300036D41668B60733D41668B60730D416685F
:10584000B6072DD41668B6072AD41668B60727D42B
:105850001668B60724D41668B60721D41668B607AA
:105860001ED41668B6071BD41668B60718D4166877
:10587000B60715D41668B60712D41668B6070FD443
:105880001668B6070CD41668B60709D41668B607AA
:1058900006D41668B60703D41935B2D10024BEE089
:1058A000F52515631568AD074BD41568AD0748D4C9
:1058B0001568AD0745D41568AD0742D41568AD0726
:1058C0003FD41568AD073CD41568AD0739D41568C9
:1058D000AD0736D41568AD0733D41568AD0730D49D
:1058E0001568AD072DD41568AD072AD41568AD0726
:1058F00027D41568AD0724D41568AD0721D41568E1
:10590000AD071ED41568AD071BD41568AD0718D4B4
:105910001568AD0715D41568AD0712D41568AD0725
:105920000FD41568AD070CD41568AD0709D41568F8
:10593000AD0706D41568AD0703D41934B2D10024DD
:105940006DE0002414633A4D01E0103D67D0166805
:10595000F60702D01668F6065AD51668F60702D082
:105960001668F60653D51668F60702D01668F606CE
:105970004DD51668F60702D01668F60647D51668A4
:10598000F60702D01668F60641D51668F60702D06B
:105990001668F6063BD51668F60702D01668F606B6
:1059A00035D51668F60702D01668F6062FD51668A4
:1059B000F60702D01668F60629D51668F60702D053
:1059C0001668F60623D51668F60702D01668F6069E
:1059D0001DD51668F60702D01668F60617D51668A4
:1059E000F60702D01668F60611D51668F60702D03B
:1059F0001668F6060BD51668F60702D01668F60686
:105A000005D51668F607A0D01668F6069DD41D4683
:105A1000002D04D0136A13685B0700D4146A086071
:105A2000E0B270BD90320A4010B146406079FEFF8E
:105A3000A0860100F0B58FB004460025294605F088
:105A400065F9002801D001F09AFB01200E90400377
:105A5000F7490861F74A13685B070DD4136A1368A6
:105A60005B0709D4136A13685B0705D4136A1368CC
:105A70005B0701D4136AEEE7EF4B1E461768BF07BA
:105A80004BD41768BF0748D41768BF0745D41768B9
:105A9000BF0742D41768BF073FD41768BF073CD47D
:105AA0001768BF0739D41768BF0736D41768BF0710
:105AB00033D41768BF0730D41768BF072DD41768D1
:105AC000BF072AD41768BF0727D41768BF0724D495
:105AD0001768BF0721D41768BF071ED41768BF0710
