:020000040000FA
:1000000080612020C1020000C5020000C70200007C
:1000100000000000000000000000000000000000E0
:100020000000000000000000000000006136000039
:10003000000000000000000011360000293E000012
:10004000CF020000CF020000CF020000CF0200006C
:10005000CF020000CF020000CF020000CF0200005C
:10006000CF020000CF020000CF020000CF0200004C
:10007000CF0200004D3E0000CF020000CF02000082
:10008000CF020000CF020000CF020000CF0200002C
:10009000CF020000CF020000CF020000CF0200001C
:1000A000CF020000CF020000CF020000CF0200000C
:1000B000CF020000CF020000CF020000CF020000FC
:1000C00000F002F800F0D1F812A030C80838241867
:1000D0002D18AC4201D100F0C8F80FCCA246AB46B7
:1000E0000CA730CF2D1B083F3F197C427F1E544484
:1000F0002D090426F441641EAC4201D300F0B5F88A
:100100000126334200D0FB1A3343984754465D46DC
:10011000DFE70000148700003487000000000000C3
:10012000103A02D378C878C1FAD8520701D330C840
:1001300030C101D504680C60704700000000000069
:100140007047000000000000002300240025002666
:10015000103A01D378C1FBD8520700D330C100D583
:100160000B60704710B56E2902D100F062FD10BD22
:10017000702902D101F0A7F810BD662902D107F05D
:100180001FFE10BD652902D107F01AFE10BD6729B8
:1001900002D107F015FE10BD612902D107F018FE4B
:1001A00010BD03681B0A01D380231943692902D1BA
:1001B00000F0F2F810BD642902D100F0EDF810BD96
:1001C000752902D100F0E8F810BD6F2902D101F0C5
:1001D00025F810BD782902D101F062F810BDE92997
:1001E00002D100F0C1FF10BDE42902D100F0BCFF34
:1001F00010BDF52902D100F0B7FF10BDEF2902D1E3
:1002000001F018F810BDF82902D101F057F810BD1F
:100210000368DB0901D380231943632902D101F06C
:1002200070FA10BD732902D101F073FA10BDE329F1
:1002300002D101F07DFA10BDF32902D101F080FA5C
:1002400010BD002010BD1FB501F05EF804000020B5
:10025000002107F045FC401C60600020002107F0F1
:1002600029FCE0601FBD10B510BD01F0F1FD114685
:10027000FFF7E9FF03F01CFE01F012FE03B4FFF7E5
:10028000F2FF03BC01F0BCFE70B505460C461646F5
:1002900002E00FCC0FC5103E102EFAD2082E02D36A
:1002A00003CC03C5083E042E07D301CC01C5361F7D
:1002B00003E021782970641C6D1C761EF9D270BD94
:1002C00006480047FEE7FEE7FEE7FEE7FEE7FEE73B
:1002D00003480449024A044B70470000C100000073
:1002E00080412020806120208041202043435143D1
:1002F00030B55C18010C130C0D4692B25D4380B210
:1003000051432C19054655430A0C09044D19624105
:100310005843010C00044019514130BD7CB51D46C5
:1003200016460C00009007D04142A14202D30019AA
:10033000401E01E00020C043064B7B442A4669462C
:100340000190304600F097FE002C02D0009A002168
:1003500011707CBD5F0D00000FB41CB50C0007AA26
:10036000009007D04142A14202D30019401E01E093
:100370000020C043074B7B4469460190069800F07B
:100380007AFE0021002C01D0009A11701CBC08BC20
:1003900004B01847230D0000F7B500257529106833
:1003A000009914A611D000F0B1FB002802DA4042F7
:1003B00011A608E0009909688A0701D50FA602E096
:1003C000490704D50EA6012501E000F0A8FB009F17
:1003D0000024243704E000F083FF30313955641CD9
:1003E0000028F8D12B4632462146009800F0C9FB80
:1003F000FEBD0000000000002D0000002B000000EA
:1004000020000000F3B50446002081B020622046A1
:10041000E1688847002872D0252802D06268A16868
:10042000ABE0594F00267F442046E16888472028EA
:10043000054608DB312D06D27819203800780028CF
:1004400001D00643F0E7B00701D504208643002021
:10045000E0610746A0612A2D0AD0284607F022FB5A
:10046000002827D0B8000019303D0090856119E0C0
:100470000298BA00121902C8916102902046E16800
:100480008847012F054617D1E06900281FDA202090
:1004900086431CE000980A2180694843009940196E
:1004A000303888612046E1688847054607F0FAFA47
:1004B0000028EFD1012F0AD02E2D08D12046E16867
:1004C00088470546202006437F1C022FC3DBA06916
:1004D000002803DA4042A06101200643F00701D062
:1004E000102086436C2D0BD0682D09D04C2D3CD0AC
:1004F0006A2D38D0742D38D07A2D36D016E040E0F1
:10050000E1682F4620468847B842054609D16C2F3E
:1005100029D001208002E16806432046884705462D
:1005200004E06C2F1DD0FF2001300643002D28D0A1
:1005300028464138192803D80120C0020643203537
:10054000204626602946029A1646FFF70BFE002831
:1005500010D001280BD0F61DF008C0000830029022
:1005600055E74020E1E78020D5E70020D3E7361D9E
:1005700002964CE762682846A1689047206A401CB2
:1005800044E7206AFEBD0000B6790000F8B5042AF1
:100590002CD3830712D00B78491C0370401C521EC9
:1005A00083070BD00B78491C0370401C521E830735
:1005B00004D00B78491C0370401C521E8B079B0F04
:1005C00005D0C91ADF002023DE1B08C90AE0FFF7A7
:1005D0005BFEF8BD1D4608C9FD401C46B4402C43D7
:1005E00010C0121F042AF5D2F308C91A521EF0D403
:1005F0000B78491C0370401C521EEAD40B78491C2E
:100600000370401C012AE4D409780170F8BDD2B20D
:1006100010B513029A1813049A1800F001F810BDCF
:1006200001E004C0091F0429FBD28B0701D5028019
:10063000801CC90700D00270704700290BD0C30787
:1006400002D00270401C491E022904D3830702D540
:100650000280801C891EE3E70022EEE70022DFE72C
:10066000002203098B4273D3030A8B4258D3030B36
:100670008B423CD3030C8B4221D312E003460B4345
:100680007FD4002243088B4274D303098B425FD38B
:10069000030A8B4244D3030B8B4228D3030C8B42B7
:1006A0000DD30902FF2212BA030C8B4202D312129D
:1006B000090265D0030B8B4219D300E0090AC30B72
:1006C0008B4201D3CB03C01A5241830B8B4201D31F
:1006D0008B03C01A5241430B8B4201D34B03C01A08
:1006E0005241030B8B4201D30B03C01A5241C30A80
:1006F0008B4201D3CB02C01A5241830A8B4201D3F1
:100700008B02C01A5241430A8B4201D34B02C01ADA
:100710005241030A8B4201D30B02C01A5241CDD27F
:10072000C3098B4201D3CB01C01A524183098B42CA
:1007300001D38B01C01A524143098B4201D34B01B3
:10074000C01A524103098B4201D30B01C01A524116
:10075000C3088B4201D3CB00C01A524183088B429D
:1007600001D38B00C01A524143088B4201D34B0086
:10077000C01A5241411A00D20146524110467047F8
:100780005DE0CA0F00D04942031000D340425340FD
:100790009C46002203098B422DD3030A8B4212D3BD
:1007A0008901FC2212BA030A8B420CD389019211EF
:1007B0008B4208D3890192118B4204D389013AD02C
:1007C000921100E08909C3098B4201D3CB01C01A01
:1007D000524183098B4201D38B01C01A5241430914
:1007E0008B4201D34B01C01A524103098B4201D302
:1007F0000B01C01A5241C3088B4201D3CB00C01A6F
:10080000524183088B4201D38B00C01A5241D9D286
:1008100043088B4201D34B00C01A5241411A00D207
:1008200001465241104663465B1001D34042002B03
:1008300000D54942704763465B1000D3404201B582
:100840000449002802DC491C084000E00846C04674
:10085000C04602BDFFFFFF7F704770477047000032
:100860000121C9050123411842001B06D3185B0E64
:100870000AD0C1100722D206891840075242D1423D
:1008800001D5520089187047090208D50146002A8F
:1008900003D0C10FC90700207047104670474202BD
:1008A00002D0002002497047072109050143F4E7FF
:1008B0000000F87FF0B5FF252D04C609C209FF2707
:1008C00004462E400137CB093E4348402A402B4086
:1008D0000746002A6BD0002B69D0AA4267D0AB42F2
:1008E00065D0002800DA32460125ED0529432C4366
:1008F00009022002090AD21A4B0C7F24E31A434C46
:10090000000A7C44E35C7D242404121914145B0067
:10091000A218884201D3521C00E0400049420C4614
:100920005C4324115C43DB016415E318040A5C4357
:10093000C502200D0C4644436419250A5D43230378
:10094000EC0C0D46654300030019EB184C42A34222
:1009500001D35B18401CD4052018002B07D05B0086
:10096000C91804D3401C002901D1400840003F2190
:1009700089048A4209D3002A08DC1106090F04D031
:10098000032149074018C00FC007F0BD01224100F4
:10099000120689187F2252069142F6D20521490794
:1009A000C84201D59010F0BDFF20C005F0BD002F5A
:1009B00000DA32461648AA4207D2AB4205D21902E3
:1009C000090E17D0F80FC007F0BDFF2563002D06F4
:1009D000AB42F9D84900A942F6D8AB4201D1A942AD
:1009E000F2D0A94201D1002101E061004908D005FF
:1009F0000843F0BD1102090EFBD0FF200243D005D1
:100A0000F0BD0A460146104654E70000EB740000B2
:100A10000000C07F10B501469E240002CA15A3073E
:100A2000002A02D01843002A04DBA21A002A0CDD97
:100A3000D04010BD1206120E01D140004008A21A8B
:100A400003D4D04040420028F3DDFF2248001206C4
:100A5000904201D9002010BDC817C043584010BDB6
:100A60001F22030C02D10F2200041CD0030E01D15F
:100A70000002083A030F01D10001121F830F01D1B8
:100A80008000921E002801DB4000521ED205511842
:100A9000021251181922904004D3491C002801D198
:100AA0004908490008467047C10FC90700D04042B5
:100AB000012292071143D3E701218907D0E770B5DE
:100AC000044685690068C10601D5302600E020266D
:100AD000C00707D070BD62683046A1689047206AA1
:100AE000401C20626D1EF6D570BD70B50446856948
:100AF0000078C00707D170BD6268A16820209047C8
:100B0000206A401C20626D1EF6D570BD09684A053A
:100B100001D540B27047C905FCD500B270470968DD
:100B20004A0501D5C0B27047C905FCD580B27047EF
:100B300070B50C460546012A05D02878800600D5F8
:100B4000EA69002302E0012305E05B1C934202D224
:100B5000E05C0028F9D1A869E618C01AA861286AE3
:100B6000C01828622846FFF7AAFF04E06A682078C8
:100B7000A968641C9047B442F8D32846FFF7B5FF34
:100B800070BDFFB504460D4681B024300090216849
:100B9000880604D51022E0699143216000E001201D
:100BA000A84201DD471B00E000270498A1697A19DB
:100BB0001018081AA0612078C00602D42046FFF75A
:100BC0007EFF002608E003986268A168805D904778
:100BD000206A401C761C206204988642F3DB207851
:100BE000C0060AD52046FFF76AFF06E06268A168E2
:100BF00030209047206A401C206238467F1E002823
:100C0000F4DC07E000986268A168405D9047206AC4
:100C1000401C206228466D1E0028F3DC2046FFF7AA
:100C200064FF2078000602D5022005B0F0BD012047
:100C3000FBE711680268006A530501D5087009E0F6
:100C4000D30501D5088005E0130602D5C21705C1FA
:100C500000E0086001207047FFB50C461E468FB0CB
:100C600003CA089009914F007D0D00D16D1E00212F
:100C700008460020C0460321099A89050840002A39
:100C800003DA8200801840080840800D01280A908D
:100C900002DD0020C0430A90089807430DD0F048B9
:100CA000F049281848430714189800281DD07542A9
:100CB000291E1DDD0A9842421BE01898012802D027
:100CC0000020302104E00020F24305E02154401CC4
:100CD000B042FBDB30460022189B002121540F99C3
:100CE0008B600A60486013B0F0BDBD1B6D1CDFE770
:100CF0000A9A002900DA69420BA800F025FD0BAB27
:100D000007CB03AB07C30899099800F089FD6B4630
:100D100007C30146D4480918002D00910BDDD249C4
:100D200003980A9A49424018002303A90390684691
:100D300000F0E6FF08E003990A9A0023081803A9C7
:100D40000390684600F086FF6B4607C30004000C62
:100D500003D00020C043410800E01046189A002A42
:100D600003D00022009215461EE0751E05D400F047
:100D7000CFFA303262556D1EF9D50122084307962D
:100D800002D000227F1C04E02078302801D100220C
:100D90007F1E002A069787D01EE0112D07DA00F08B
:100DA000B7FA303262556D1C02460A43F5D108434A
:100DB00003D00098002819D00EE00021681E05E03D
:100DC000235C625C63542254401E491C8142F7DB61
:100DD000A81B401E07950690079A18990020A0545A
:100DE0000F98079B069A81600CC07CE711260020B3
:100DF000189059E7D21DF0B50D460446D10893B0BE
:100E0000C90003C90C900D9106F008FE02460D982A
:100E1000C00F01D02D2007E02068810701D52B20CD
:100E200002E04007C00F4001032A0F9001D0072ABB
:100E300005DB03462946204600F014FC0EE120782D
:100E4000800601D5E76900E006272846652D04D015
:100E5000662814D0672D69D12DE00020112F009055
:100E600001DB112300E07B1C0CAA03A910A8FFF7EB
:100E7000F3FE1199002610987D1C0E9142E001208E
:100E80003B460CAAC0070B900120009003A910A8B4
:100E9000FFF7E2FE119D12981099002600280E958A
:100EA00001D1781C0D18781B02D446427D1C761E99
:100EB000E81B00903AE0012F00DA01270020112FF3
:100EC000009001DD112300E03B460CAA03A910A805
:100ED000FFF7C2FE11993D46109800260E91217829
:100EE00009070BD40E99A94200DA0D4603A9012D7A
:100EF00004DD4A19203AD27F302A06D0B84201DAFE
:100F0000011D04DA012100910FE06D1EEFE70028BA
:100F100002DC86192D1A03E0411CA94200DD0D46B2
:100F2000801B401C00900120C0070B902078000718
:100F300005D40098A84202DB0020C0430090694617
:100F40000020C8720B98012102AF0337C9078842FD
:100F500025D0022010902B2011900B9800280BDA3E
:100F600040420B902D20119006E00B9800F0B8F94C
:100F700030317F1E0B9039701099481E0029109057
:100F8000F3DC0B980028F0D111987F1E3870208870
:100F9000000501D5452000E065207F1E387001A8BE
:100FA000C01BC01D0B900F98002800D001204119D4
:100FB0000098C01709180B980818A169081A401E54
:100FC000A0612078C00602D42046FFF778FD0F9874
:100FD000002805D06268A1689047206A401C206202
:100FE0002078C00625D52046FFF769FD21E0002EB8
:100FF00007DB0E98B04204DD03A86268805DA1683B
:1010000002E06268A16830209047206A761C401C8C
:1010100020620098401E002800900AD100F074F968
:10102000C06862680168405CA1689047206A401C03
:10103000206228466D1E0028D9DC07E062683878F7
:10104000A1687F1C9047206A401C20620B99481EB3
:1010500000290B90F2DC2046FFF747FD032042E613
:1010600001FCFFFF104D0000E1DFFFFF01694A1C9A
:1010700002610878704700B58FB002910021059198
:101080000549019379440391114604906846FFF79E
:10109000B9F90FB000BD0000E5FFFFFF0CC908392A
:1010A0009A4202D2531C0B6010707047F7B5044689
:1010B000154686B02B487844002703C83E4600906A
:1010C000019111E007986A467100415A02A800F0A8
:1010D00067FE411C07D02178890603D5E2693918DB
:1010E00091420ED83F18761C2078800602D5E06920
:1010F000B84206DDAE42E5DB07987100405A002891
:10110000E0D1A069C01BA0612046FFF7D8FC1548BC
:1011100078445A3803C800900020019116E041003D
:101120006A460798415A02A800F03AFE0590401C12
:101130000AD0002505E0626802A8A168405D9047DA
:101140006D1C05988542F6D30498401CB04204906B
:10115000E5DB206AC01920622046FFF7C6FC09B013
:10116000F0BD00007A6D0000F7B5D21D0025D20851
:1011700015A6D200F52905CA11D0002A05DA0021EA
:101180004042914111A60A4608E0009909688B0780
:1011900001D50FA602E0490701D50EA6012511468B
:1011A000009F0024243704E000F0B2F830323A55B2
:1011B000641C02460A43F7D12B463246214600986A
:1011C000FFF7DFFCFEBD0000000000002D00000066
:1011D0002B0000002000000070B5044600212434DC
:1011E00008E05507D2086D0F303565545D072A4376
:1011F000DB08491C15461D43F3D10468002310A2E7
:10120000250708D520252C400C4304D0C4690123B0
:101210000CA2641EC461FFF7B4FC70BD10B5044697
:1012200021461068FFF77BFC002302462046FFF7AB
:10123000D3FF10BDD21DD108C9000CC9CCE70000F6
:101240000000000030000000F8B50F4601880905D5
:1012500002D5224C7C4402E0204C7C440E340546EE
:101260000021243508E016071209360FA65D6E54DA
:101270001E0732431B09491C16461E43F3D1224662
:1012800004780023240705D5702F06D0002901D04B
:1012900002231132FFF775FCF8BD01231032F9E784
:1012A00070B504460D4621461068FFF738FC002350
:1012B000024629462046FFF7C7FF70BDD21DD3085E
:1012C000DB000CCBC0E730B4036820241268234352
:1012D00003600823C36130BC0023B5E7E46B000062
:1012E00001468008081A02091018020A1018020C98
:1012F0001018C008820012185200891A01E0401C20
:101300000A390A29FBD27047004870473000202074
:101310000B4670B5024689078008084319469D08A8
:10132000141AA94125090807054308092C19484141
:10133000250A01060D43010A2C194141200C0D0418
:1013400028430D0C00194D41002140194D41C008A2
:1013500069070843E908840F8D0025438400241899
:101360004D4124196D41121BAB4107E00925ED43A6
:101370002C11521963410024401C61411C460A256E
:101380000026551BB441F1D270BD0000D21DF0B54E
:1013900004460D46D0088DB0C00046680768314647
:1013A000384606F03BFB0246F00F01D02D2307E044
:1013B0002068810701D52B2302E04007C00F4301BD
:1013C0006846002B037001D0012000E00020032AB2
:1013D0000A9001D0072A04DB2946204600F042F992
:1013E0002DE12078800601D40D2500E0E56970002C
:1013F000400D0D2D01904BDA300D00210B90084669
:101400000020C046032189050840002E05DA82002D
:101410008018C20F1018401008408015012801DD07
:101420000020C043A9000023182906D39C460A4681
:101430000123183A1B07D34003E001221205CA40DA
:1014400094460C31202902D33A46203900E0324636
:101450008A40002802DD002A06D119E0002817D1B1
:101460000121C9078A4213D3194663467F185E419A
:10147000002806D10120C007824202D108468743D6
:101480009E430B98310D814202D00198401C01907F
:101490002088000502D57149794402E06F497944FA
:1014A00019396B460A9830221A540A980A7C401C53
:1014B0001A54401C0A900198002801DC302000E0FA
:1014C00031201872019A0120002A02D0644BD218F0
:1014D00004E072003A4302D0614A521C0192002D8E
:1014E00002DC2278120703D56A462E2050720220B1
:1014F0000022864694460CE032033601120F6D1E20
:101500008B5C02AA13546246521C401C9446052A66
:1015100001DA002DF0DC002202AE08E03B0F3F01B3
:10152000CB5C521C6D1E3354401C082A01DA002D7E
:10153000F4DC23689A0601D511E0401E704504DDF5
:101540003218203AD27F302AF7D0002807DD32182F
:10155000203AD27F2E2A02D11A0700D4401E002D35
:1015600003DD3E223254401C6D1E497C31540199EA
:10157000401C002906DA2D21471C315401984042B5
:10158000019003E02B21471C315401987D21C900B3
:10159000884206DBFFF772F83030F0557F1C01916E
:1015A00001E0642808DB01986421FFF767F8303018
:1015B000F0557F1C019101E00A2806DB01980A2101
:1015C000FFF75CF83030F0557F1C01980A21FFF7D7
:1015D00055F83031F1550A98A1697F1C7A19101815
:1015E000081AA0612078C00602D42046FFF767FAE7
:1015F000216A6E460A980818206204E06268307812
:10160000A168761C90470A98401E0A90401CF5D1AC
:101610002078C00602D52046FFF751FA02AE09E055
:101620003078761C3E280DD06268A1689047206A09
:10163000401C20627F1EF3D22046FFF756FA0DB001
:101640000320F0BD206A4019206203E06268A168AF
:10165000302090476D1EEDD3F8E70000DB690000F5
:1016600001FCFFFFF8B51F46044601230068DB02BA
:10167000032601461840072A05DB002801D017A5DC
:1016800006E017A504E0002801D016A500E016A585
:10169000102081432160A069C01E002FA06101D0ED
:1016A000401EA0612046FFF70AFA002F09D03846F5
:1016B0006268A1689047206A401C2062C01C2062BA
:1016C00006E0206AFAE762682878A1686D1C9047F6
:1016D000761EF8D22046FFF708FAF8BD4E414E00BC
:1016E0006E616E00494E4600696E660010B5436932
:1016F000002B02D0C046C04601E0FFF719FA0120D6
:1017000010BD1278014624310A7000224A7001226D
:10171000ECE711680022D243E8E710B54369002BDB
:1017200002D0C046C04601E0FFF7C0FC012010BD5A
:1017300012880146243182840022C2840122ECE70F
:1017400011680022D243E8E7F7B516468AB033485D
:1017500078446C4603467C33C06F5A689B680DC45E
:101760002E487844763003AC0DC80DC43720C00134
:10177000081837211B30FEF781FF05460C46803DD7
:101780001B3C02D56442012000E0002000270990A4
:1017900010E0E0070CD00C20204978437944324611
:1017A0004C3941186846012300F054FA6B4607C3D0
:1017B00064107F1C002CECD1184F7F442E3F16E0A4
:1017C000E80712D02001C0190EC8069108930792AD
:1017D0000068F04201D1981908903246012306A909
:1017E00003A800F037FA03AB07C36D10641C002D8B
:1017F000E6D10998002806D032466946012303A89D
:1018000000F07EFA05E001233246694603A800F0A5
:1018100021FA0A9B07C30DB0F0BD00003867000035
:10182000034640000A4610B5400D0BD00121C90700
:101830000F24A40200191C0364082143540D214302
:10184000D20207E000210120F2E7D40F4900214332
:101850005200401E0029F8DADB0FDB07184310BDE9
:10186000FFB50D46144685B04868516806F0BDF8CE
:1018700000910190A868A16806F0B7F80291039062
:10188000A868616806F0B1F8029A121882420292C2
:1018900001D2012000E00020019A0B18D218002884
:1018A000019202D08A4202D903E08A4201D2012089
:1018B00000E000200099081800906868A16806F010
:1018C00094F8029A12188242029201D2012000E09A
:1018D0000020019A0B18D2180028019202D08A42E7
:1018E00002D903E08A4201D2012000E000200099E1
:1018F00008180090286821684000490040084908FD
:101900004018FA49471814E001994000C90F0843EC
:101910000090019802994000C90F08430190029875
:1019200003994000C90F08430290039840007F1EAE
:10193000039000980028E7DA0898002801D0EC4EC0
:1019400000E00026B74201DA012000E00020002874
:1019500004902AD0F71BF806C00E15D0029B202158
:10196000091A039A8B401A430392029A019BC240C0
:101970008B401A430292019A009BC2408B4000990F
:101980001A430192C14000917B110DD06F46032094
:10199000C11A03D500218200B95003E08A008100FA
:1019A000BA587A50401EF3D537460398029900285A
:1019B00000D00120014308980291002808460CD06D
:1019C000002800D001200199019A4905084301210E
:1019D000D20AC902D202019200E001210E9B01222B
:1019E000D207012B02D0002B03D013E0002807D12F
:1019F00020E0904204D890420CD1019B0B4209D0C8
:101A0000019B5918019105D10099491C009101D100
:101A10007F1C009200280DD0102108460020C046EF
:101A20000498002806D00F98002803D00821084603
:101A30000020C04628682168019B009A4840C10FD9
:101A40000598C90739430EC009B0F0BDFFB587B08E
:101A5000099A089808995368926840688968964678
:101A60000022039317469446089A12685300099A75
:101A70005B081268520052089A1A9E4BD4180A9AB0
:101A8000002A01D0352200E04022069200220123E4
:101A900015460492DB07059324E0002D05D1754619
:101AA0000346039E4D1BB34109D375466646039B0F
:101AB000491B049D9841059B7519AC465F416346DF
:101AC0003B4308D0059B049EDD0776082E435B0848
:101AD0000496059301E0521E641EC50FED074918D8
:101AE0004041521C069B9A42D7DB002D04D175461B
:101AF000039A6B1A824101D203200CE0039A0B4631
:101B00006B404240134303D0014303D0012002E065
:101B1000022000E00020614601910021009702911F
:101B20000A99002905D0614640020143704B01919A
:101B300002E08007002302909C4201DA012000E0CD
:101B4000002007003AD01A1BD006C00E15D0029D07
:101B50002021019C091AC5408C402543029C8C40E1
:101B600000D001242543019C0295009DC4408D4076
:101B700000992C430194C140009154111DD06D4631
:101B80000221002202290CD10320001B07E00028BB
:101B900004DB8600AE59002E00D00122401C032831
:101BA000F5DB081B02D588002A5004E08000285885
:101BB00010438A00A850491EE3D51C460A98002805
:101BC00002980CD0002800D001200199019A490503
:101BD00008430121D20AC902D202019200E0012188
:101BE000109B0122D207012B02D0002B03D013E05F
:101BF000002807D11FE0904204D890420CD1019BED
:101C00000B4209D0019B5918019105D10099491C3B
:101C1000009101D1641C009200280CD010210846CC
:101C20000020C046002F06D01198002803D00821BC
:101C300008460020C04608980999019A009B006850
:101C400009684840C10F0798C907214382600AC04C
:101C50000BB0F0BD00B585B0019300920A46014675
:101C6000002302A8FFF7FCFD02A807C805B000BDCD
:101C7000FFB50A461F4685B00799019301230091DD
:101C8000014602A8FFF7ECFD02990398049ECA0FD3
:101C90004900D20700920F22490892028C1A0021B3
:101CA000002800DB0C46450013486D08844214D31D
:101CB000079A002A04DA441E0026104DF64302E07B
:101CC00004460D460E46102108460020C046002F4F
:101CD00003D0042108460020C0462005E90A084335
:101CE000009908436905F20A1143ADE602C0FFFFFF
:101CF000013C0000FF3F0000FF070000FFFFFF7FE7
:101D000000B585B0019300920A460146002302A85F
:101D1000FFF79CFE02A807C8A8E7FFB50A461F46C2
:101D200085B00799019301230091014602A8FFF7AE
:101D30008DFE02990398049ECA0F4900D2070092B3
:101D40000F22490892028C1A0021002800DB0C4661
:101D5000450011486D08844214D3079A002A04DA1A
:101D6000441E00260D4DF64302E004460D460E4685
:101D7000102108460020C046002F03D00421084649
:101D80000020C0462005E90A084300990843690578
:101D9000F20A114358E60000FF070000FFFFFF7F33
:101DA000F8B516460C46054600F072F80368FF20A9
:101DB0000230C05C012807D0FF2C0FD8185D002826
:101DC0000CD001202C70F8BDFF3332462146083379
:101DD0001868C71828460023B847F8BD0020C0433C
:101DE000F8BD000010B5FF231B0644009C421DD81F
:101DF0004C009C421AD80346124A0B4307D4401A9F
:101E000002D3EFF3008010BDEFF3008010BD081A7D
:101E100003D3EFF30080904305E0EFF3008001214E
:101E20009043C907084380F3008810BD0D231B04AD
:101E30001A4204D01146002000F092F810BD00F0C4
:101E4000A7F810BD00000090004870471000202047
:101E50007546FFF7F9FFAE46050069465346C008D0
:101E6000C000854618B020B5FEF732FA60BCB64611
:101E700000260027C0C5C0C5C0C5C0C5C0C5C0C5F7
:101E8000C0C5C0C5403D490849008D4670470000A7
:101E900010B5FFF739FA001D10BD00BF455C00000A
:101EA00010B50446C046C0462046FEF7E7F910BD0F
:101EB00082078B079A423FD170B5920F0AD0032454
:101EC00002780B78401C491C002A33D09A4231D149
:101ED0002042F5D1214EF40104C808C9951B954351
:101EE000254018D19A420FD104C808C9951B9543C3
:101EF000254010D19A4207D104C808C9951B9543C3
:101F0000254008D19A42E7D012BA1BBA01209A4262
:101F100000D2404270BD12BA1BBA2DBA182410006C
:101F2000E0401900E140401A05D12E00E64002D100
:101F3000083CF4D1D01A70BD02780B78401C491CC3
:101F4000002A09D09A4207D102780B78401C491C1C
:101F5000002A01D09A42EFD0D01A70470101010146
:101F6000C80212D54803400F002804D0C803C0435C
:101F7000012188407047EFF3008000010009032130
:101F80000907084380F3008870470020704700006D
:101F900010B5024800F004F810BD00000000C07F3A
:101FA00010B50C461107090F092904D00A290AD0D7
:101FB00008290CD104E011460820FFF7D1FF06E004
:101FC000510606D501E0510601D50120C007214682
:101FD00010BDD10607D501010909CC084907000E3B
:101FE0000006044309E0410F20024907000A0143AB
:101FF000200E00061D22D14101430846E7E70000FC
:1020000001491820ABBEFEE7260002007047000021
:10201000014800210170704721022020FF200002AA
:1020200007490A6882430120C303D2180A6081026B
:10203000044A13680B431360400303490860704768
:102040000CE400E02810104000E100E0F0B597B08B
:10205000454908703338452800D911E24000C04690
:10206000784480884000874476010B020B020B0203
:102070000B020B020B020B020B020B020B020B02F8
:102080000B020B020B020B020B02EC010B020B0208
:102090000B020B02CC010B020B020B020B020B0218
:1020A0000B0255010B020B024500CF000B020B0285
:1020B0000B0281000B020B020B020B020B020B0244
:1020C0000B020B020B020B020B02F2000B020B02C3
:1020D0000B020B0234010B020B020B020B020B0270
:1020E0000B0213010B020B024500CF000B020B0287
:1020F0000B028100E94801210170E54C532720467D
:10210000394600F0F1FB7921204600F0EDFB732108
:10211000204600F0E9FB74252046294600F0E4FB48
:1021200065262046314600F0DFFB6D21204600F099
:10213000DBFB2021204600F0D7FB2046394600F08B
:10214000D3FB2046294600F0CFFB6121204600F05A
:10215000CBFB7221204600F0C7FB2046294600F049
:10216000C3FB204631463BE020022020CB48002123
:102170000170C74C53262046314600F0B5FB79214B
:10218000204600F0B1FB7321204600F0ADFB742720
:102190002046394600F0A8FB65252046294600F078
:1021A000A3FB6D21204600F09FFB2021204600F07C
:1021B0009BFB2046314600F097FB2046394600F055
:1021C00093FB6F21204600F08FFB7026204631469E
:1021D00000F08AFB2046314600F086FB2046294667
:1021E00000F082FB6421204600F07EFB2121204686
:1021F00000F07AFB0D21204600F076FB0A212046F4
:1022000000F072FB17B0F0BDA820A2490958A24AFD
:102210001058A24A1378A24A1278009201910290B3
:1022200003AC50219F4A2046FEF796F820780028FC
:1022300000D125E103A94D1C954CC1B2204600F008
:1022400053FB691C287800280D46F6D118E18D4C07
:10225000A0689D4905F05AFCA060FEF701FB0090C4
:10226000019103AC202199A22046FEF775F8207851
:10227000002800D104E103A94D1C854CC1B22046C1
:1022800000F032FB691C287800280D46F6D1F7E0F3
:102290007C4C2068844905F039FC2060FEF7E0FAA8
:1022A0000090019103AC2021784A2046FEF754F8B3
:1022B0002078002800D1E3E003A94D1C744CC1B282
:1022C000204600F011FB691C287800280D46F6D145
:1022D000D6E06C4C6068774905F018FC6060FEF74A
:1022E000BFFA0090019103AC2021714A2046FEF70D
:1022F00033F82078002800D1C2E003A94D1C644CBB
:10230000C1B2204600F0F0FA691C287800280D467A
:10231000F6D1B5E05B4C20685B4905F0F7FB206027
:10232000FEF79EFA0090019103AC2021574A204607
:10233000FEF712F82078002800D1A1E003A94D1C77
:10234000534CC1B2204600F0CFFA691C287800280F
:102350000D46F6D194E05248032101704C4C5321B4
:10236000204600F0C1FA7021204600F0BDFA652633
:102370002046314600F0B8FA2046314600F0B4FA63
:1023800064272046394600F0AFFA2025204629462A
:1023900000F0AAFA4721204600F0A6FA7221204652
:1023A00000F0A2FA6121204600F09EFA204639464C
:1023B00000F09AFA2046314600F096FA2046294667
:1023C00000F092FA7321204600F08EFA2046314642
:1023D00000F08AFA74262046314600F085FA20463D
:1023E000294600F081FA2046314600F07DFA6F213F
:1023F000204600F079FA2046294600F075FA33218C
:10240000F5E6204C6068294905F080FB6060FEF726
:1024100027FA0090019103AC2021254A2046FDF7C0
:102420009BFF207800282BD003A94D1C184CC1B26B
:10243000204600F059FA691C287800280D46F6D18C
:102440001EE0104CA0681C4905F060FBA060FEF780
:1024500007FA0090019103AC202118A22046FDF755
:102460007BFF207800280BD003A94D1C084CC1B27B
:10247000204600F039FA691C287800280D46F6D16C
:1024800017B0F0BDD0022020CDCCCC3D0A88000092
:1024900000001040EC022020A00320202102202078
:1024A00000002020DC870000CDCCCCBD0AD7233C27
:1024B000158800000AD723BC6F12833A6B643A2058
:1024C000252E32660D0A00006F1283BA6B643A2023
:1024D000252E33660D0A000082B004F099FF0190AA
:1024E0000C4C0D4E0D4D05E000F0BAFE01A80A217E
:1024F00004F02EFF204600F06BFD30780128F3D168
:10250000AF2082002846214600F02EFD00F0CAFED2
:10251000ECE7C0462802202021022020D002202003
:10252000B0B50A78032313400B4A84580B4D25405D
:10253000EB18A92424061B198350072212064B68A6
:1025400013401124240205599543EA180251001939
:1025500049780161B0BDC04608080000FCFFFF00DB
:10256000811E091F00BFFCD270470000B0B51122C8
:10257000120283580C4C1C400B894D881D438B79EB
:102580002B430A4D1D4063198350CB798C881C4323
:10259000097821435D239B001940801842689A43C3
:1025A00051184160B0BDC04680CCFFFF7F330000B2
:1025B00010B50122120383180C785C6049788150B1
:1025C00010BD0000B0B53F231B04044C25689D439B
:1025D00008431043184028182060B0BD38010B4054
:1025E000F0B585B001221402344B19680494A1435C
:1025F0001960950348490E682E4208D10E682E4294
:1026000005D10E682E4202D10E682E42F3D0457ECF
:1026100015409E69964375199D612025455D0326E9
:102620003540DF69B7437D19DD61254D2E680527EB
:102630002F60476A3C681C627C685C6207243440F7
:102640002C60C4697F252D02DE69AE436406640CEC
:102650003419DC6150C805680095476885680195A4
:10266000C568029503929A69164D15402207120B10
:102670003403A4B2A2183A43009C2407240D144347
:10268000019A1443029A1443007C20430E4A0240EC
:10269000501998611868049A104318600398400212
:1026A0000A68024208D10A68024205D10A68024259
:1026B00002D10A680242F3D005B0F0BD08010B4018
:1026C000001340408D00F0FF72FF0F0010B511495C
:1026D000886001225305104804681C4208D1046830
:1026E0001C4205D104681C4202D104681C42F3D08C
:1026F00012040B6813430B600168C90608D4016813
:10270000C90605D40168C90602D40168C906F3D513
:1027100010BDC04604010B4004020B40F0B53C4A1A
:1027200082183C4BC31808794E793B4D3B4C002E28
:1027300023D0202804D00526F601002803D003E08A
:10274000374E002800D18826576F2F4037435767F0
:10275000976F2F4037439767566B26405663966BAB
:10276000264096630026566596658F26F6435F6879
:1027700037405F609F6837409F608E7909682028E6
:102780000BD0002819D1491E5160D76E2F408821E7
:102790000F43D7661746703719E0491E5160D16E56
:1027A00029401F4F3943D166116F294039431167C2
:1027B000012149071B4D174609E049085160D76EB2
:1027C0002F400521C9010F43D766174670373C6873
:1027D0002C400C433C60D16A104C2140D162116BFB
:1027E000214011630021D16411658F21C943D46F49
:1027F0000C40D4671C680C401C600643BD20304070
:102800001168094B0B40C018801C1060F0BDC04619
:10281000041800008418000024493E008888FDFF49
:1028200001040000FFFFFFCF4000FFCF10B50723DA
:102830009B04194092008018024A84589C436118F6
:10284000815010BD3018000010B5029CA400001982
:1028500011431943014A815010BDC0465018000071
:1028600092008018014A81507047C046101800003D
:1028700010B50122120383180C789C604B788350AA
:102880008978014A815010BD0C110000B0B51122A9
:10289000120283580124A34383508B780C881C4375
:1028A0008B882343094C1C408358094D1D402B192C
:1028B00083508B79CC791C43097A21437E231940BC
:1028C000801842689A4351184160B0BD18670000F3
:1028D000E798FDFF10B50122120383180C789C6065
:1028E0004978815010BD00000D4A80180268120618
:1028F00008D50268120605D50268120602D50268DC
:102900001206F3D481610168C90708D00168C907BC
:1029100005D00168C90702D00168C907F3D1704723
:102920000811000070B50D48322101600124A00596
:1029300038490860384D0026284631463246FFF7B0
:102940008FFFA00435490860284631462246FFF72C
:1029500087FF034801682143016070BD14310040C6
:102960000418874080B5012807D11448002900DBEE
:10297000103001229304036007E02648002900DAA2
:102980001030012292050260002208B20C498842F0
:1029900000DC084600B27D21C900884200DB084601
:1029A00001B2C9134840401A81B2C9087C2900D934
:1029B000002081B21848FFF753FF80BD90320A40D3
:1029C00018FCFFFF80B5012804D1012290041349AF
:1029D000086004E0012080050E49086000220E48CE
:1029E0000021FFF73DFF80BD70B50124A005094916
:1029F0000860094D0026284631463246FFF730FF71
:102A0000A00406490860284631462246FFF728FF01
:102A100070BDC04690120A4000008740A0320A40B4
:102A20008AB001F04FFF1F269F4D3046294603F024
:102A3000A3F800249DA320462146224603F07CFCF7
:102A40002046294603F098F80E219CA320462246F2
:102A500003F072FC1A219BA32046224603F06CFC73
:102A600026219AA32046224603F066FC322199A330
:102A70002046224603F060FC3E2198A320462246D1
:102A800003F05AFC4A2197A32046224603F054FC47
:102A9000582196A32046224603F04EFC642198A3B9
:102AA0002046224603F048FC702197A32046224688
:102AB00003F042FC7C2196A32046224603F03CFC16
:102AC0008A2195A320460594224603F035FCF502A1
:102AD00006954CE021700698734F394603F04CF888
:102AE00000942325642128460395059E324695A32C
:102AF00003F022FC3046394603F03EF8904F388808
:102B0000009070242846214632468F4B03F014FC77
:102B10007888009050252846214632468A4B03F09B
:102B20000BFC388900907C24039821463246864B62
:102B300003F002FC788900902846069D21465A4FF2
:102B40003246814B03F0F8FB2846394603F014F86F
:102B50007E480068FDF784FE0090019128208A21BC
:102B600032467BA303F0E8FB049804F079F828468A
:102B70004D4903F001F86A4F38683C24214604F0BF
:102B800039FE064638682146FDF76AFD0096019138
:102B90006020059E3146324662A303F0CDFB2846F5
:102BA000414902F0E9FFB025614F785F00902D2484
:102BB0000E21204632465F4B03F0BEFB5E4F785F2E
:102BC00000901A21204632465A4B03F0B5FB1F20D5
:102BD000354902F0D1FF564F386DFDF71BFF054612
:102BE000786DFDF717FF00950190262120463246AB
:102BF000524B03F0A1FB504F386DFDF70BFF05461C
:102C0000786DFDF707FF0095019032212046049171
:102C100032464A4B03F090FB3046234902F0ACFFAA
:102C2000A8254348405900903E2120463246414F56
:102C30003B4603F081FB4048405900904A21204622
:102C400032463B4603F078FB3D4800F0B9F907AC4B
:102C5000267230213122C3070B4600D01346E371A0
:102C600083070B4600D51346A37143070B4600D5D7
:102C70001346637103070B4600D513462371C30641
:102C80000B4600D51346E37083060B4600D513466A
:102C9000A37043060B4600D51346637040B200286C
:102CA00000DB17E7114615E7FFFF00003D3D3D2023
:102CB00053595354454D203D3D3D00004C5F505706
:102CC0004D3A0000525F50574D3A00004C5F535050
:102CD000443A0000525F5350443A00004C5F544F56
:102CE000543A0000525F544F543A00002D2D2D20CD
:102CF0004752415920384348202D2D2D0000000017
:102D000042494E3A00000000302D313A00000000E8
:102D1000342D353A000000005455524E3A00000060
:102D200054042020253032753A25303275000000D9
:102D3000EC022020C8870000A0032020CB870000E1
:102D40002802202025730000D98700005804202085
:102D5000252E32660000000010B5012801D0084978
:102D600000E0064909684200154B9C5A9952091B1C
:102D7000002800D1494208B210BDC04600380940C1
:102D80000018094010B50120C1430B4A13680B40DD
:102D90001360131F00241C60136803431360074A69
:102DA00013680B401360111F0C6005490C804C80A8
:102DB00011680143116010BD04180940043809402E
:102DC00022022020F0B587B0002852D000F0F8F899
:102DD000029029484069294905910026092528A41F
:102DE000069637460090019008E00027019005966E
:102DF000039806903E46241D6D1E33D0012D04D04D
:102E0000A81E0299C140C80725D0380601D1002765
:102E1000F1E7F8B2FDF750FE01463046FDF74AFDF6
:102E20000490009904F064FF064601200390C00757
:102E300086433046059F394604F029FE411E8841ED
:102E4000069A51425141014300D13E46002904985F
:102E5000CBD10198C9E72168304604F057FE0646F9
:102E60007F1CC8E706980028009803D0019807B097
:102E7000F0BD002007B0F0BDD002202000007A4451
:102E800000000CC20000C8C1000070C10000A0C05A
:102E90000000A040000070410000C84100000C424A
:102EA00070B5002805D0034C0025C74E6EC00560E4
:102EB000446070BD00009643F0B583B002910028D5
:102EC00001D0044600E03C4CE168029D284604F035
:102ED0001DFE0646E0602769394604F0C0FD0090FB
:102EE0002168284604F0ACFE01900098002808D123
:102EF0000120C00747403046394604F0A5FD0028B0
:102F000001D1E7603E466569029F676160683146AE
:102F100004F096FE06463846294604F0E9FE1149BB
:102F2000FDF7C8FC0146A06804F08AFE054601983A
:102F3000314604F0EBFD294604F0E8FD0546A4699E
:102F4000214604F08CFD002808D10120C007444030
:102F50002846214604F078FD002800D12546284661
:102F600003B0F0BD0AD7233C70B51446002801D049
:102F7000054600E0104D0846FFF724FF01462846AD
:102F8000FFF79AFF05460D4E30602046FDF78CFD99
:102F900004462846214604F0B9FD0146002000F011
:102FA0001BF93168204604F0A3FE0146012000F021
:102FB00013F9306870BDC046D0022020580420208C
:102FC000A0304178002901D0007870470020704778
:102FD000F0B589B00790574F02263E6119200501D0
:102FE0002846FFF7BDFA544C206808903E602846FA
:102FF000FFF7B6FA3E612846FFF7B2FA206806905E
:103000003E602846FFF7ACFA3E612846FFF7A8FA73
:10301000206805903E602846FFF7A2FA3E612846E8
:10302000FFF79EFA206804903E602846FFF798FA62
:103030003E612846FFF794FA206803903E602846D8
:10304000FFF78EFA3E612846FFF78AFA2068019062
:103050003E602846FFF784FA3E612846FFF780FA73
:10306000206802903E602846FFF77AFA3E612846C3
:10307000FFF776FA206800903E602846FFF770FA66
:103080000120089A02400199C90701918B0E9B18F3
:103090000499CA07110F04915D180599CB075B0FBE
:1030A000ED180699CF07BF0FE919039AD507EC0E63
:1030B0000919029AD407640E009AD201A218511875
:1030C0004A093240089CE4017E01A419DB00E318A0
:1030D000049C64001B192C0F1B19019C640F1B1905
:1030E0009A18C9B2C9091143A022079B9954A03369
:1030F00058708843CA439307DB0F18185307DB0F38
:1031000018181307DB0F1818D306DB0F18189306CF
:10311000DB0F18185206D20F1018FF228A43D1096C
:103120000818072804D3054800210170FEF770FF36
:1031300009B0F0BD90120A4080130A4021022020FD
:10314000F0B585B0A420AE4D00242C502C656C65E4
:103150002C702846A430446084608481184F049702
:10316000184803903F200006029017480090281D41
:1031700002AE164B2146324600F030FA049714484E
:1031800003904120000602901248009028465830D3
:10319000314B2146324600F021FA984EB422304697
:1031A0002946FDF771F8301D00F010FA304658300E
:1031B00000F00CFAB0203452FFF716FC05B0F0BD59
:1031C000CDCCCC3D9A99193E0000FA4300007A44D8
:1031D000CDCC4C3D0080BB44F0B581B00E460446DA
:1031E000012801D0864F00E0844F1B4D3046294610
:1031F00004F035FC002807D11849304604F024FCBF
:103200000028354600D1154D387801281AD000978E
:103210007A4E7B4F012C01D0381D00E0301D00F0AC
:10322000D5F9012C01D0384600E03046583000F086
:10323000CDF9012C02D0B0373E4600E0B036009FF9
:103240000020308001203870012C01D06C4800E053
:103250006A48056501B0F0BD00803B4500803BC574
:1032600070B5B025664E0024745334703465301D3B
:1032700000F0ACF93046583000F0A8F974532046FD
:10328000FFF7A0FB5D4E745334703465301D00F0C1
:103290009DF93046583000F099F974530120FFF73A
:1032A00091FB70BDF0B583B000250121534C084659
:1032B000009109E0B0210022425200200299C90782
:1032C00000990D4600D196E002902E460E40304601
:1032D000FFF742FD0746002E01D1494900E0214693
:1032E000A8310868C0190860FDF7DEFB454904F005
:1032F000A7FC4549FDF7DEFA0146002E03D1404800
:10330000AC303E4C02E03D4C2046AC3001910160B7
:103310003846FDF7C9FB0146002E00D1384C6165E7
:103320002078022819D001280DD00028334C19D15B
:1033300001200540214600D1314900200865002DBB
:1033400055D12F4954E0012005402C4C0FD12C4879
:10335000001D002D0ED022460DE00120054017D1A2
:10336000274816E0E8072046A4D12548A2E7201DFB
:10337000002DF0D1224A5032126800F047F8FDF7D4
:1033800049FB0146002D01D11D482AE0204628E0D6
:103390001A485830002D03D11949A431174F02E0C3
:1033A000164F3946A4310A68019900F02FF80246F9
:1033B000002D384600D112480265002D02D1104878
:1033C000001D00E0381D616D00F020F8FDF722FBC4
:1033D0000146002D03D10A48B0303C4602E03C468D
:1033E0003846B03001803046FFF7BCFA65E7214629
:1033F000B031088061E703B0F0BDC046A0032020D3
:10340000EC0220200000B44300D85647F0B583B04A
:10341000002828D00446C2610162866AC66210464E
:1034200004F066FC0546676A6062A762207800289F
:103430004AD0012819D0022800D088E02846394611
:1034400004F056FC616804F0FBFB0290E06301208D
:10345000C107284600918843A16904F018FB0028A1
:1034600077D0002079E00025ADE0206B616B6063D0
:10347000A1632846394604F03BFC616804F0E0FB98
:103480000290E063A168284604F0DAFB0190206412
:103490003846394604F03AFB0146284604F028FC39
:1034A0000146304604F032FB2063E16804F0C8FBBB
:1034B000054660640298019904F028FB294604F04F
:1034C00025FB0146A06C35E0206B616B6063A16356
:1034D0002846394604F00CFC0646206361682846FD
:1034E00004F0AEFB0290E063E168304604F0A8FB14
:1034F00007466064A068294604F0A2FB216C04F032
:1035000005FB054620646669314604F0A8FA0028E8
:1035100008D10120C00746402846314604F094FAFD
:10352000002801D1266435460298294604F0EEFAB7
:103530000146384604F0EAFA0546A0642669314699
:1035400004F098FA00283CD00120C00732E0A56CB6
:1035500039E0A168284604F073FB01902064226BD7
:10356000616B6263A1633846394604F0CFFA0146C5
:10357000284604F0BDFB0146304604F0C7FA20633C
:10358000E16804F05DFB054660640298019904F06F
:10359000BDFA0146284604F0B9FA0146A06C04F0D1
:1035A000B5FA0546A0642669314604F063FA00289E
:1035B00007D0009846402846314604F045FA0028D6
:1035C00001D1A6643546284603B0F0BD80B5002879
:1035D00003D01C303021FDF741F880BDB0B5002884
:1035E0000FD0002A0DD0049C156845605568856091
:1035F0000170916802460C321AC218303421FDF76E
:103600002DF8B0BD00000000000000000000000028
:10361000EFF309800E4A1168243808607346F8C039
:1036200044464D4656465F46F0C072B603F026FC4F
:1036300062B6074A116808681430F0C8A046A94667
:10364000B246BB4680F309882438F8C81847C046FC
:10365000E405202000000000000000000000000041
:1036600004207146084203D0EFF30980044B184749
:10367000EFF30880024B1847C046C046C046C0461C
:10368000416A000080B50A480A49FFF7F1F80A4884
:103690001A49C1620022C267194B036001630749DE
:1036A0000A6003601849416005480121016080BD3E
:1036B000000009404A8700000418094084180940A6
:1036C0000811094080B50A480A49FFF7D1F80A48AD
:1036D0000A49C1620022C267094B036001630949BC
:1036E0000A6003600849416008480121016080BD0B
:1036F000002009404D870000043809400100020005
:103700001292001084380940FFFF00000831094080
:1037100080B50E480E49FEF703FF0E4841680E4A79
:103720000A40112109045118416081680B4A0A407E
:1037300001210B06D2188260094A0023136004237A
:10374000536002680A43026080BDC046002000400A
:103750005087000000310040FEFFECFFF8FFE0E082
:103760008031004070B582B01B4C1C492046FFF7E9
:103770007FF81B492046FEF7D1FF1A480168EE4A40
:103780000A40026000250095204629462A462B461D
:10379000FFF75AF8204629462A46FFF747F8204601
:1037A00029462A46FFF75CF801260096204629465E
:1037B0002A462B46FFF748F8204629463246FFF7AF
:1037C00035F8204629463246FFF74AF80648866013
:1037D0000321016002B070BD0000874058870000DF
:1037E0005C8700000418874000118740F0B53A4B11
:1037F000892098600126310738480160384C8B27B2
:1038000067613104016001468422E2633505354871
:103810000560A26572060A60334D8520A862334AAE
:103820000421116028631021116028621660A061D4
:1038300070042A4908602E4E701CA0662063301D5B
:10384000D86530460A30586682201864701E586465
:10385000DF639F631E6583202060D8679E67812792
:103860005F671F632F656F65A7641F61214828602C
:1038700029682960686069686960A864A96CA9649E
:10388000E864E86CE8646764281F07606765A76000
:1038900067662766A763E7625F60B01E18600F4B1C
:1038A0001846303814490160184640381349016001
:1038B000134818600B4B18463038124901601846FF
:1038C0004038114901601148186010464038032102
:1038D000090201601160F0BD04804240D0120A402C
:1038E00084804240D0320A4008814240D0520A408F
:1038F0008300040081000C00002040010200004011
:10390000022040410200441C002080000220C41C10
:1039100010B50D4C0D492046FEF74AFE0C492046D5
:10392000FEF724FE0B484168974A0A40111D41608A
:10393000816812220A432D218A4382600168012294
:103940000A43026010BDC04600A0464064870000E4
:103950006687000004B14640094855490A6802409C
:1039600082420BD00A680240824207D00A680240B5
:10397000824203D00A6802408242EFD17047C046BB
:10398000000A2000F0B585B01F200006204A11680B
:103990008143116001242105A20400200391FEF758
:1039A00011FE1C481C4901600494660642241B4D0C
:1039B0003F4F3868304204D12846FEF7D1FD641EDF
:1039C000F7D1134880690290049802040020019006
:1039D0000399FEF7F7FD0F480F490160422438684C
:1039E000304204D12846FEF7BBFD641EF7D11735DF
:1039F0000298454306488169284603F0FBFE0849C2
:103A000040180F2801D301980490049805B0F0BD28
:103A100038010B402C030B400100000ED1030000C5
:103A200043F6FFFFF0B581B01E48012505600F2069
:103A300000021D4C216881436E028819206003201A
:103A4000C043211F0A6802400A601848FEF7C8FDFB
:103A5000FFF798FF00280AD020681021014320209A
:103A6000814321600020FEF731FE01B0F0BD104F10
:103A700003E0FFF787FF0028EED128026168814349
:103A8000616061680143616038683042F1D1386833
:103A90003042EED138683042EBD138683042F3D052
:103AA000E7E7C04608030B4004010B4070870000A5
:103AB00004020B4070B582B01B4C1C492046FEF737
:103AC000D7FE1B492046FEF729FE1A480168C44A62
:103AD0000A40026000250095204629462A462B46CA
:103AE000FEF7B2FE204629462A46FEF79FFE2046F4
:103AF00029462A46FEF7B4FE0126009620462946AE
:103B00002A462B46FEF7A0FE204629463246FEF7FF
:103B10008DFE204629463246FEF7A2FE0748866003
:103B20000321016002B070BD00208640988700002C
:103B30009C870000043886407F00FFFF00318640EC
:103B400010B50D4C0D492046FEF732FD0C492046BC
:103B5000FEF70CFD0B4841680B4A0A40111D4160FD
:103B6000816812220A432D218A4382600168012262
:103B70000A43026010BDC04600804640A487000092
:103B8000A68700000491464000FCFFFF10B51A4CC8
:103B90001A492046FEF79EFE19492046FEF776FE9A
:103BA0000320C103174802688A4302600169164A6C
:103BB0000A40412189005118016141691B220A43D1
:103BC00024218A434261426801210A4043688B43B1
:103BD0009A1842604A04036813430360C268702362
:103BE0001343C360C2680223134305229343C36097
:103BF00002680A43026010BD00001040B087000058
:103C0000B2870000001110400000FFFF80B500F0F7
:103C100031F8FFF7EBFDFFF705FFFFF74BFFFFF76D
:103C2000A1FD00F077F8FFF72DFDFFF74BFDFFF743
:103C3000ADFFFFF785FFFFF76BFEFFF769FDFFF7AD
:103C40008BFEB820064900220A5406490A549C20DB
:103C500005490A54242005490A5405490A5480BDDF
:103C60005C0420203C01202074002020F80120204A
:103C700014012020F0B581B01848194A4260194853
:103C80004260194842601948426019484260194828
:103C90004260194F7A60194D6A60194C6260194B85
:103CA0005A6019494A6019484260194A0B4E3260FD
:103CB0000C4E32600C4E32600C4E32600C4E326054
:103CC0000C4E32603A602A6022601A600A6002601C
:103CD0001020FEF745FC01B0F0BDC04600080A40C8
:103CE000030000B100280A4000480A40002886402E
:103CF0000008874000088640000809400028094065
:103D0000000810400088464000A8464000280040B7
:103D100001000026F0B581B02D4C2E492046FEF75B
:103D2000A7FD2D492046FEF7F9FC2C4801682C4AD6
:103D30000A40026000250095204629462A462B4667
:103D4000FEF782FD204629462A46FEF76FFD2046F3
:103D500029462A46FEF784FD01260096204629467C
:103D60002A462B46FEF770FD204629463246FEF7CE
:103D70005DFD204629463246FEF772FD0227009778
:103D8000204629462A462B46FEF75EFD2046294658
:103D90003A46FEF74BFD204629463A46FEF760FDBF
:103DA00003270097204629462A462B46FEF74CFD5E
:103DB000204629463A46FEF739FD204629463A462E
:103DC000FEF74EFD074886600F21016001B0F0BD8F
:103DD00000008640BC870000C087000004188640B1
:103DE0007F00FFFF0011864082B003F011FB0190BD
:103DF0000A4C0B4D0B4E03E001A80A2103F0A8FA70
:103E000020780128F8D12868401C28606428F3D362
:103E1000002028603068401C3060EDE7210220203F
:103E2000700020205404202010B502F015FD044637
:103E300003F0F2FA002803D00120000702490860CD
:103E4000204602F036FD10BD04ED00E010B5074835
:103E50000068C0B20B2808D1054C2068400704D484
:103E6000E069C0B2FEF7F2F8F7E710BD201010408D
:103E7000081110409F4801680020002900D07047B9
:103E8000094909680029FAD1084909680029F6D1C9
:103E900099480068B5490968491E884201D0012047
:103EA000704702207047C0467C41202024412020DA
:103EB00082B0FFF7ABFE00F0DDFD1B481B4900247C
:103EC0001B4B2246FEF7ECFFFEF75CFFFEF72AFDD8
:103ED000FFF736F9FEF7A2F80320009001940126BF
:103EE0007502144814A12A46234603F0C9F9012893
:103EF00017D1022000900194124813A12A462346AC
:103F000003F0BEF901280DD100960194114812A1C9
:103F10002A46234603F0B4F9012804D102F01AFF1F
:103F2000FEE7FEE7FEE7FEE7D00220209A999940DF
:103F30006F12033BD92400004368617373697354A3
:103F400061736B00E93D000053656E736F725461DD
:103F5000736B0000212A0000446973706C6179540E
:103F600061736B00F0B583B00F460646AC48056838
:103F7000624800680290624800680190A64C206880
:103F8000001D02F06DFC701C15D1002F13D02068AD
:103F900059490CC9836098682568E860521C083943
:103FA0000A602268121D42602068001D9860206827
:103FB000416103B0F0BDAE19206846602068011D64
:103FC000AE4204D2019802F082FC03B0F0BD029828
:103FD00002F07DFC914801688E4200D2066003B079
:103FE000F0BDC046F0B581B0044602F08FFC5F48DA
:103FF0000168491C0160884F396800290AD03A4895
:104000000068002847D1E06A3968C96A814242D80D
:104010003C6040E03C60006801283CD17D4D284672
:1040200002F04AFC2846143002F046FC28462830AC
:1040300002F042FC28463C3002F03EFC284650305C
:1040400002F03AFC2846643002F036FC284678300C
:1040500002F032FC28468C3002F02EFC2846A030BC
:1040600002F02AFCB435284602F026FC1F4D2846F3
:1040700002F022FC1E4E304602F01EFC1D4802F0EB
:104080001BFC394802F018FC1B4802F015FC1B48C9
:1040900005601B4806601B480168491C616401609B
:1040A000E06A5B490A68904200D9086014214143E4
:1040B00058484258521C425040184168A1608A68D2
:1040C000E2606061201D5060886002F029FC0648B3
:1040D0000068002806D0E06A3968C96A814201D2C6
:1040E00002F070FD01B0F0BD3C412020DC402020FA
:1040F000F04020202841202048412020EC052020AD
:10410000F4052020DC372020F0B581B0154D28685B
:10411000002823D0144E154F05E0204602F012FC73
:10412000286800281AD002F0F1FBF068C468201D4E
:1041300002F096FB3868401E38602868401E2860F0
:1041400002F0EEFB6520205C0228E9D00128E4D0D3
:10415000002805D1206B02F0F5FBDEE701B0F0BDD1
:1041600072B6FEE7D43720205C412020D0372020D3
:104170000124274D274E284F01E003F047FAFFF7AF
:10418000C3FF2868411E88413168012901D80021F8
:1041900000E001213A68D26A002A224600D10A468C
:1041A000002A214600D101460029E8D11B480068B9
:1041B0001B490968401A0228E1D31A490868401CC3
:1041C0000860164800681649096888421ED32868A6
:1041D000411E88413168012901D8002100E00121F8
:1041E0003A68D26A002A224600D10A46002A2146AD
:1041F00000D101460029C0D1084800680849096873
:10420000401A0228B9D302F03BFCB6E772B6FEE7CB
:10421000E0372020FC052020E40520201441202048
:1042200070412020D8372020F0B583B002930F468C
:1042300001900A9C206B9600A5223146FCF7E7F915
:10424000206B089D002F41D0214634313A780A7006
:10425000002A39D07A784A70002A35D0BA788A7024
:10426000002A31D0FA78CA70002A2DD03A790A7122
:10427000002A29D07A794A71002A25D0BA798A7120
:10428000002A21D0FA79CA71002A1DD03A7A0A721E
:10429000002A19D07A7A4A72002A15D0BA7A8A721C
:1042A000002A11D0FA7ACA72002A0DD03A7B0A731A
:1042B000002A09D07A7B4A73002A05D0BA7B8A7318
:1042C000002A01D0FA7BCA730022CA730A2D01D3D7
:1042D00072B6FEE78019061F07208643099FE56432
:1042E000E562201D02F0F0FA2046183002F0ECFAE8
:1042F0000A20401BA0616462246130460199029A41
:1043000000F082FA2060002F00D03C6003B0F0BDC6
:10431000F0B583B0044603F07BF8224A1168884266
:1043200031D201940290AA4C07E029462831FA22A2
:1043300010400870296A28468847206801680029CB
:1043400023D0C0680768C5682E1D304602F088FA81
:104350002820285C4107E8D5A869C4196C602D6144
:10436000BC4209D3296A28468847A86900196860B1
:104370002D61A0420446F5D296480068314602F00D
:10438000A6FA934CD6E7002107E092490A6822601A
:10439000086001210298019C024A1060216003B06C
:1043A000F0BDC046E005202081B0002000900A4802
:1043B000006872B6401C09D0FEE70098002808D1BA
:1043C0000098002805D10098002802D10098002804
:1043D000F3D001B07047C0460800202086B07E4E62
:1043E0007B4800680568002D02D0C068076800E0BF
:1043F000002702F03DFD03A8FFF78AFF044603985B
:10440000002802D003F002F947E0002D28D0A7428F
:1044100026D803F0FBF86E480068C068C568281D00
:10442000019002F01DFA2820285C41070CD429468F
:104430002831FA22104008702CE0E11B814223D37E
:10444000296A284688473746A869C6196E602D61D3
:10445000A642F2D9BC4201D2BE42F1D25C4814E07D
:10446000002D01D0002204E05A4800680068424252
:104470004241391B306802F0B1FB03F0C7F8002855
:104480000BD102F09FFB08E052480068019902F04E
:104490001EFA514E296A2846884700220592049246
:1044A0000392306803A906E0386802F010FA4A4E19
:1044B000306803A9002202F0F6FD002890D003988E
:1044C0000028F5D4059C002CF2D06069002802D0A9
:1044D000201D02F0C5F902A8FFF71AFF0546039850
:1044E000401E0828E4D8C04678440079400087443C
:1044F000040438235504043823002820225C0121B9
:1045000011432154A069049BC61866602461211DD3
:10451000AE4205D99D422E4FC6D29E4204D2C3E779
:10452000EB1A83422B4FBFD3530720D420462830A9
:10453000FA210A4002703EE02820215C01220A4351
:1045400022540498A06100283FD040196060246183
:10455000A8421F4800D81F480068211D02F0B7F983
:10456000A6E72820215CFE220A402254A0E7019100
:104570000499091807E0691A814217D3216A204675
:104580008847A06931460E1866602461AE42F2D9B0
:104590008D4201D28E42F1D20D4808E02820205CE5
:1045A00081070DD4204602F0CDF981E70948006863
:1045B000019902F08CF9084E216A2046884777E776
:1045C0002834FE210840207072E772B6FEE7C0462C
:1045D000E8052020F805202074412020F0B581B0A6
:1045E00004460646443602F091F901203756012F61
:1045F00012DB2546243504E0781E79B201290746EE
:104600000ADD2868002807D0284602F09DFF002810
:10461000F2D002F06BFBEFE7FF25757002F080F936
:1046200002F074F900203756012F11DB103404E03A
:10463000781E79B2012907460ADD2068002807D0D4
:10464000204602F081FF0028F2D002F04FFBEFE796
:10465000357002F065F901B0F0BD0000F0B583B02F
:1046600001460831002509290BD3072203461340D0
:1046700006D0093B994204D890431030054600E02B
:104680000D4602F0F5FB59490E68002E02D058483D
:1046900003681BE0574C002060600722D343564E4E
:1046A0007207324601D0F21D1A402260032424030F
:1046B00034191C40083C0C6020606060A31A5360F1
:1046C0004E4803604A4803600E68166001220024C9
:1046D0009D42104600D820460093012D114600DB74
:1046E0002146014305D002F091FF600737D072B632
:1046F000FEE7434840490F183E4802900068B84220
:1047000001D8002100E001213B4B9842134600D321
:104710000B46002B01D072B6FEE743680024AB4283
:1047200020D20168002937D002900846B94201D84A
:10473000002100E00121304B9842134600D30B4684
:10474000012B35D04368AB4201D3002100E00121A9
:104750000191AB4207D201680029E5D103E0204670
:1047600003B0F0BD0194B042BDD0029E346808345D
:10477000BC4201D8002100E001211F4FBC4200D300
:104780000A46012A01D172B6FEE701683160019A3A
:10479000002A05D072B6FEE70192B042E5D1A2E749
:1047A0005A1B102A06D943195E0706D072B6FEE7D7
:1047B00072B6FEE74568009905E006C30299083B1A
:1047C0000B600B490968491B094A11600B4A1368C1
:1047D000994200D2116000210122D207154322C064
:1047E00008480168491C01607DE7C046F0052020AB
:1047F0000441202040412020C807202010412020D3
:10480000FF2F00001C4120200346083B1960011FB8
:1048100001231B060B6001460C391D4B0B60014642
:1048200010391C4B0B60014614391B4B0B600146C1
:1048300018391A4B0B6001461C39194B0B600146A5
:1048400020390A6001462439164A0A60014628398F
:10485000154A0A6001462C39144A0A60014630396B
:10486000134A0A6001463439124A0A60014638394F
:10487000114A0A6001463C39104A0A600146403933
:104880000F4A0A6044380221C94301607047C0469C
:10489000A9430000121212120303030302020202D0
:1048A000010101011111111110101010090909095C
:1048B0000808080807070707060606060505050590
:1048C00004040404F0B583B001204002674901905C
:1048D0000861744C21789F207F230029024600D173
:1048E0001A466F4E3178002900D10346002528462C
:1048F000294601F04BF92278A02080210291002A5C
:10490000024600D1029A3378002B00D10290584819
:104910000088C3B2070A72482C4603E0641C02995F
:104920008C426DD02E4603E00363361D9642F5D0CF
:104930000168890708D40168890705D401688907D7
:1049400002D401688907F3D507630168890708D491
:104950000168890705D40168890702D401688907BD
:10496000F3D503630168890708D40168890705D472
:104970000168890702D401688907F3D507630168D4
:10498000890708D40168890705D40168890702D41A
:1049900001688907F3D503630168890708D40168B2
:1049A000890705D40168890702D401688907F3D50E
:1049B00007630168890708D40168890705D401687D
:1049C000890702D401688907F3D503630168890761
:1049D00008D40168890705D40168890702D40168F1
:1049E0008907F3D50763016889079DD401688907A2
:1049F0009AD40168890797D401688907F3D593E7AA
:104A00000168C90702D00168C90624D50168C90731
:104A100002D00168C9061ED50168C90702D0016825
:104A2000C90618D50168C907EAD00168C906E7D4E4
:104A300011E00168C90702D00168C90611D50168F3
:104A4000C90702D00168C9060BD50168C90702D0A1
:104A50000168C90605D50168C907EAD00168C90619
:104A6000E7D401980149086003B0F0BD90520A40B4
:104A700002002020F0B587B002480078032813D840
:104A800002E0C046C40620200F2108400C21C1408E
:104A900001200840024908700249087004E0C0463D
:104AA000C7072020C60720200126F405084D2C61E9
:104AB0000848FDF755FD2C60074C2046FDF750FDDA
:104AC00031467002054E04903061054F0AE0C04641
:104AD00090320A4000350C00007C920090520A404F
:104AE000109146403868C00702D03868C00611D51A
:104AF0003868C00702D03868C0060BD53868C007D0
:104B000002D03868C00605D53868C007EAD03868D2
:104B1000C006E7D406910D0235611120386338686C
:104B2000C00702D03868C00611D53868C00702D067
:104B30003868C0060BD53868C00702D03868C00690
:104B400005D53868C007EAD03868C006E7D43560B4
:104B50002046FDF705FD3868C00702D03868C0065A
:104B600011D53868C00702D03868C0060BD5386840
:104B7000C00702D03868C00605D53868C007EAD03B
:104B80003868C006E7D43561B12038633868C0079B
:104B900002D03868C00611D53868C00702D038681E
:104BA000C0060BD53868C00702D03868C00605D5E6
:104BB0003868C007EAD03868C006E7D43560069B7D
:104BC0003868800708D43868800705D438688007BB
:104BD00002D438688007F3D53B633868800708D46F
:104BE0003868800705D43868800702D438688007A1
:104BF000F3D52C2038633968890708D439688907C8
:104C000005D43968890702D439688907F3D52D217D
:104C100039633A68D20702D03A68D20611D53A68A9
:104C2000D20702D03A68D2060BD53A68D20702D032
:104C30003A68D20605D53A68D207EAD03A68D20671
:104C4000E7D43561B2223A633A68D20702D03A68B3
:104C5000D20611D53A68D20702D03A68D2060BD5EF
:104C60003A68D20702D03A68D20605D53A68D20728
:104C7000EAD03A68D206E7D435603A68920708D499
:104C80003A68920705D43A68920702D43A689207C4
:104C9000F3D53B633A68920708D43A68920705D483
:104CA0003A68920702D43A689207F3D538633A68B3
:104CB000920708D43A68920705D43A68920702D45A
:104CC0003A689207F3D539633A68D20702D03A6856
:104CD000D20611D53A68D20702D03A68D2060BD56F
:104CE0003A68D20702D03A68D20605D53A68D207A8
:104CF000EAD03A68D206E7D43561B3223A633A681B
:104D0000D20702D03A68D20611D53A68D20702D04B
:104D10003A68D2060BD53A68D20702D03A68D20672
:104D200005D53A68D207EAD03A68D206E7D43560AA
:104D30003A68920708D43A68920705D43A6892070D
:104D400002D43A689207F3D53B633A68920708D4D5
:104D50003A68920705D43A68920702D43A689207F3
:104D6000F3D538633A68920708D43A68920705D4B5
:104D70003A68920702D43A689207F3D539633A68E1
:104D8000920708D43A68920705D43A68920702D489
:104D90003A689207F3D53B633A68920708D43A68B9
:104DA000920705D43A68920702D43A689207F3D57D
:104DB00038633A68920708D43A68920705D43A688B
:104DC000920702D43A689207F3D539633968C90764
:104DD00002D03968C90611D53968C90702D03968C7
:104DE000C9060BD53968C90702D03968C90605D587
:104DF0003968C907EAD03968C906E7D43561B421F2
:104E000039633968C90702D03968C90611D53968CC
:104E1000C90702D03968C9060BD53968C90702D05D
:104E20003968C90605D53968C907EAD03968C9069D
:104E3000E7D435603968890708D43968890705D40B
:104E40003968890702D439688907F3D507210591A4
:104E500039633968C90702D03968C90611D539687C
:104E6000C90702D03968C9060BD53968C90702D00D
:104E70003968C90605D53968C907EAD03968C9064D
:104E8000E7D43561C021019139633968C90702D07F
:104E90003968C90611D53968C90702D03968C90609
:104EA0000BD53968C90702D03968C90605D53968F4
:104EB000C907EAD03968C906E7D435603968890777
:104EC00008D43968890705D43968890702D4396854
:104ED0008907F3D5A22139633968890708D439686D
:104EE000890705D43968890702D439688907F3D559
:104EF0000221029139633968890708D43968890722
:104F000005D43968890702D439688907F3D5842123
:104F100039633968C90702D03968C90611D53968BB
:104F2000C90702D03968C9060BD53968C90702D04C
:104F30003968C90605D53968C907EAD03968C9068C
:104F4000E7D43561C12139633968C90702D03968AE
:104F5000C90611D53968C90702D03968C9060BD509
:104F60003968C90702D03968C90605D53968C90743
:104F7000EAD03968C906E7D435603968890708D4AA
:104F80003968890705D43968890702D439688907DF
:104F9000F3D5C52139633B68DB0702D03B68DB06EC
:104FA00011D53B68DB0702D03B68DB060BD53B68BD
:104FB000DB0702D03B68DB0605D53B68DB07EAD0A0
:104FC0003B68DB06E7D43561C2233B633B68DB0704
:104FD00002D03B68DB0611D53B68DB0702D03B689B
:104FE000DB060BD53B68DB0702D03B68DB0605D54B
:104FF0003B68DB07EAD03B68DB06E7D435603B68FB
:105000009B0708D43B689B0705D43B689B0702D4E9
:105010003B689B07F3D50A233B633B689B0708D497
:105020003B689B0705D43B689B0702D43B689B0702
:10503000F3D500243C633B68DB0702D03B68DB060A
:1050400011D53B68DB0702D03B68DB060BD53B681C
:10505000DB0702D03B68DB0605D53B68DB07EAD0FF
:105060003B68DB06E7D43561C3233B633B68DB0762
:1050700002D03B68DB0611D53B68DB0702D03B68FA
:10508000DB060BD53B68DB0702D03B68DB0605D5AA
:105090003B68DB07EAD03B68DB06E7D435603B685A
:1050A0009B0708D43B689B0705D43B689B0702D449
:1050B0003B689B07F3D58A233B633A68920708D481
:1050C0003A68920705D43A68920702D43A68920780
:1050D000F3D52A2203923A633A68D20702D03A689B
:1050E000D20611D53A68D20702D03A68D2060BD55B
:1050F0003A68D20702D03A68D20605D53A68D20794
:10510000EAD03A68D206E7D43561C4223A633A68F5
:10511000D20702D03A68D20611D53A68D20702D037
:105120003A68D2060BD53A68D20702D03A68D2065E
:1051300005D53A68D207EAD03A68D206E7D4356096
:105140003A68920708D43A68920705D43A689207F9
:1051500002D43A689207F3D53B633A68920708D4C1
:105160003A68920705D43A68920702D43A689207DF
:10517000F3D5EE223A633A68D20702D03A68D206F3
:1051800011D53A68D20702D03A68D2060BD53A68F0
:10519000D20702D03A68D20605D53A68D207EAD0DB
:1051A0003A68D206E7D4356139633968C90702D055
:1051B0003968C90611D53968C90702D03968C906E6
:1051C0000BD53968C90702D03968C90605D53968D1
:1051D000C907EAD03968C906E7D435603968890754
:1051E00008D43968890705D43968890702D4396831
:1051F0008907F3D50E2139633968C90702D03968A8
:10520000C90611D53968C90702D03968C9060BD556
:105210003968C90702D03968C90605D53968C90790
:10522000EAD03968C906E7D435613621396339686F
:10523000C90702D03968C90611D53968C90702D033
:105240003968C9060BD53968C90702D03968C9065B
:1052500005D53968C907EAD03968C906E7D4356089
:1052600006490978032919D84900C0467944898834
:1052700049008F4405006D0443045804C4062020EF
:105280003968890708D43968890705D439688907D6
:1052900002D439688907F3D5019C3C633968C90792
:1052A00002D03968C90611D53968C90702D03968F2
:1052B000C9060BD53968C90702D03968C90605D5B2
:1052C0003968C907EAD03968C906E7D43561E021F1
:1052D00039633968C90702D03968C90611D53968F8
:1052E000C90702D03968C9060BD53968C90702D089
:1052F0003968C90605D53968C907EAD03968C906C9
:10530000E7D435603968890708D43968890705D436
:105310003968890702D439688907F3D50F223A63BF
:105320003968890708D43968890705D43968890735
:1053300002D439688907F3D51A2139633968890796
:1053400008D43968890705D43968890702D43968CF
:105350008907F3D53A633968890708D4396889071A
:1053600005D43968890702D439688907F3D518212B
:1053700039633968890708D43968890705D43968D9
:10538000890702D439688907F3D52F213963396831
:10539000890708D43968890705D43968890702D490
:1053A00039688907F3D5282139633968890708D412
:1053B0003968890705D43968890702D439688907AB
:1053C000F3D5202139633968890708D439688907FA
:1053D00005D43968890702D439688907F3D52221B1
:1053E00039633968890708D43968890705D4396869
:1053F000890702D439688907F3D51F2139633968D1
:10540000890708D43968890705D43968890702D41F
:1054100039688907F3D51B2139633B689B0708D49A
:105420003B689B0705D43B689B0702D43B689B07FE
:10543000F3D523233B633B689B0708D43B689B075A
:1054400005D43B689B0702D43B689B07F3D5372301
:105450003B633B689B0708D43B689B0705D43B68CC
:105460009B0702D43B689B07F3D500243C633B6851
:105470009B0708D43B689B0705D43B689B0702D475
:105480003B689B07F3D5059B3B633B689B0708D4B0
:105490003B689B0705D43B689B0702D43B689B078E
:1054A000F3D50646029838633B689B0708D43B68EF
:1054B0009B0705D43B689B0702D43B689B07F3D549
:1054C00010233B633868C00702D03868C00611D586
:1054D0003868C00702D03868C0060BD53868C007E6
:1054E00002D03868C00605D53868C007EAD03868E9
:1054F000C006E7D402480561E120386302E0C046F7
:1055000090520A403868C00702D03868C00611D5EA
:105510003868C00702D03868C0060BD53868C007A5
:1055200002D03868C00605D53868C007EAD03868A8
:10553000C006E7D40148056002E0C04690520A4028
:105540003868800708D43868800705D43868800731
:1055500002D438688007F3D53A633868800708D4E6
:105560003868800705D43868800702D43868800717
:10557000F3D539633868800708D43868800705D4C4
:105580003868800702D438688007F3D53A633868F2
:10559000800708D43868800705D43868800702D4AB
:1055A00038688007F3D5172038633868800708D437
:1055B0003868800705D43868800702D438688007C7
:1055C000F3D5332038633868800708D438688007FB
:1055D00005D43868800702D438688007F3D53E6365
:1055E0003868800708D43868800705D43868800791
:1055F00002D438688007F3D529203863004E01E0D3
:1056000090520A403968890708D43968890705D457
:105610003968890702D439688907F3D52E2139639F
:105620003968890708D43968890705D43968890732
:1056300002D439688907F3D5302139633A68920773
:1056400008D43A68920705D43A68920702D43A68B7
:105650009207F3D539633968890708D4396889070F
:1056600005D43968890702D439688907F3D5392107
:1056700039633968890708D43968890705D43968D6
:10568000890702D439688907F3D53F21396339681E
:10569000890708D43968890705D43968890702D48D
:1056A00039688907F3D53C633968890708D43968B4
:1056B000890705D43968890702D439688907F3D581
:1056C000059939633968890708D43968890705D489
:1056D0003968890702D439688907F3D5032139630A
:1056E0003968890708D43968890705D43968890772
:1056F00002D439688907F3D53B633968C90702D0FA
:105700003968C90611D53968C90702D03968C90690
:105710000BD53968C90702D03968C90605D539687B
:10572000C907EAD03968C906E7D4356103993963F6
:10573000069A3968C90702D03968C90611D539688F
:10574000C90702D03968C9060BD53968C90702D024
:105750003968C90605D53968C907EAD03968C90664
:10576000E7D435603968890708D43968890705D4D2
:105770003968890702D439688907F3D53C633968E9
:10578000890708D43968890705D43968890702D49C
:1057900039688907F3D53C633968890708D43968C3
:1057A000890705D43968890702D439688907F3D590
:1057B0003C633968890708D43968890705D4396892
:1057C000890702D439688907F3D57F21396339689D
:1057D000C90702D03968C90611D53968C90702D08E
:1057E0003968C9060BD53968C90702D03968C906B6
:1057F00005D53968C907EAD03968C906E7D43561E3
:105800002B2139633968C90702D03968C90611D517
:105810003968C90702D03968C9060BD53968C90784
:1058200002D03968C90605D53968C907EAD0396890
:10583000C906E7D435603968890708D4396889070B
:1058400005D43968890702D439688907F3D53C63E0
:105850003968890708D43968890705D43968890700
:1058600002D439688907F3D53C633968890708D4BD
:105870003968890705D43968890702D439688907E6
:10588000F3D53C633968890708D43968890705D49A
:105890003968890702D439688907F3D59F213963AC
:1058A0003968C90702D03968C90611D53968C907EE
:1058B00002D03968C9060BD53968C90702D03968E2
:1058C000C90605D53968C907EAD03968C906E7D4D9
:1058D0003561F02139633968C90702D03968C906D2
:1058E00011D53968C90702D03968C9060BD539689E
:1058F000C90702D03968C90605D53968C907EAD091
:105900003968C906E7D435603968890708D4396829
:10591000890705D43968890702D439688907F3D51E
:105920003A633968C90702D03968C90611D53968A0
:10593000C90702D03968C9060BD53968C90702D032
:105940003968C90605D53968C907EAD03968C90672
:10595000E7D43561F62139633968C90702D039685F
:10596000C90611D53968C90702D03968C9060BD5EF
:105970003968C90702D03968C90605D53968C90729
:10598000EAD03968C906E7D435603968890708D490
:105990003968890705D43968890702D439688907C5
:1059A000F3D53C633968C90702D03968C90611D5F7
:1059B0003968C90702D03968C9060BD53968C907E3
:1059C00002D03968C90605D53968C907EAD03968EF
:1059D000C906E7D435613A2139633968C90702D06D
:1059E0003968C90611D53968C90702D03968C906AE
:1059F0000BD53968C90702D03968C90605D5396899
:105A0000C907EAD03968C906E7D43560396889071B
:105A100008D43968890705D43968890702D43968F8
:105A20008907F3D5052139633968C90702D0396878
:105A3000C90611D53968C90702D03968C9060BD51E
:105A40003968C90702D03968C90605D53968C90758
:105A5000EAD03968C906E7D4356138633868C007C9
:105A600002D03868C00611D53868C00702D038683F
:105A7000C0060BD53868C00702D03868C00605D507
:105A80003868C007EAD03868C006E7D4356038689F
:105A9000C00702D03868C00624D53868C00702D0D5
:105AA0003868C0061ED53868C00702D03868C006FE
:105AB00018D53868C007EAD03868C006E7D411E0C6
:105AC0003868C00702D03868C00611D53868C007EA
:105AD00002D03868C0060BD53868C00702D03868D5
