:020000040000FA
:10000000600120206D0100007101000073010000FB
:1000100000000000000000000000000000000000E0
:10002000000000000000000000000000750100005A
:1000300000000000000000007701000079010000CE
:100040007B0100007B0100007B0100007B010000C0
:100050007B0100007B0100007B0100007B010000B0
:100060007B0100007B0100007B0100007B010000A0
:100070007B0100007B0100007B0100007B01000090
:100080007B0100007B0100007B0100007B01000080
:100090007B0100007B0100007B0100007B01000070
:1000A0007B0100007B0100007B0100007B01000060
:1000B0007B0100007B0100007B0100007B01000050
:1000C00000F002F800F042F812A030C808382418F6
:1000D0002D18AC4201D100F039F80FCCA246AB4646
:1000E0000CA730CF2D1B083F3F197C427F1E544484
:1000F0002D090426F441641EAC4201D300F026F819
:100100000126334200D0FB1A3343984754465D46DC
:10011000DFE700006C0300007C030000000000002B
:100120007047000000000000002300240025002686
:10013000103A01D378C1FBD8520700D330C100D5A3
:100140000B6070471FB51FBD10B510BD00F027F83C
:100150001146FFF7F7FF00F067F900F03FF803B42E
:10016000FFF7F2FF03BC00F045F800000648004727
:10017000FEE7FEE7FEE7FEE7FEE7FEE70348044989
:10018000024A044B70470000C100000060002020BC
:10019000600120206000202070477047704775463E
:1001A00000F024F8AE46050069465346C008C0007A
:1001B000854618B020B5FFF7E1FF60BCB6460026C3
:1001C0000027C0C5C0C5C0C5C0C5C0C5C0C5C0C565
:1001D000C0C5403D490849008D46704710B50446EA
:1001E000C046C0462046FFF7BAFF10BD0048704722
:1001F0000000202001491820ABBEFEE726000200C7
:100200007047811E091F00BFFCD27047F0B585B052
:1002100001221402344B19680494A1431960950318
:100220005B490E682E4208D10E682E4205D10E6839
:100230002E4202D10E682E42F3D0457E15409E69B3
:10024000964375199D612025455D03263540DF697C
:10025000B7437D19DD61254D2E6805272F60476A5C
:100260003C681C627C685C62072434402C60C46972
:100270007F252D02DE69AE436406640C3419DC610F
:1002800050C805680095476885680195C56802955E
:1002900003929A69164D15402207120B3403A4B23B
:1002A000A2183A43009C2407240D1443019A1443D6
:1002B000029A1443007C20430E4A02405019986170
:1002C0001868049A10431860039840020A680242B2
:1002D00008D10A68024205D10A68024202D10A68BE
:1002E0000242F3D005B0F0BD08010B4000134040BE
:1002F0008D00F0FF72FF0F0010B5374988600122B2
:100300005305234804681C4208D104681C4205D1E7
:1003100004681C4202D104681C42F3D012040B682A
:1003200013430B600168C90608D40168C90605D4E7
:100330000168C90602D40168C906F3D510BDC046DC
:100340000548064901608121C160092080030449F4
:10035000086008637047C0469080424081001000EA
:10036000A0120A4009480A490A68024082420BD09A
:100370000A680240824207D00A680240824203D0E3
:100380000A6802408242EFD17047C046000A20004E
:1003900004020B40B0B50F48012101600F24200278
:1003A0000D4D2A6882434802101828600320C0437C
:1003B000291F0A6802400A600848FFF727FF2868DB
:1003C0003021884328600020FFF796FF2868A0436B
:1003D0002860B0BD08030B4004010B40540400002A
:1003E00080B500F007F8FFF7ABFFFFF7D3FFFFF78B
:1003F000B9FF80BD80B5074807494160074A516091
:10040000074B596007490160116019601020FFF720
:10041000F8FE80BD00080A40030000B100280A4031
:1004200000480A4001000026FFF7DAFF012085039B
:100430004604064C064F3D603E612046FFF7E1FE54
:100440003D613E602046FFF7DCFEF4E700B4C404E3
:1004500090120A40000000000000000000000000B0
:10046000000000000000000010000000000000007C
:1004700009000000010000002C00C4410000000041
:10048000900400000000202060010000280100000E
:04000005000000C136
:00000001FF
